:03000000020006F5
:15005F00750800750C00750D00E4F513F514F524F525020003DF
:0300030002061CD6
:20007400AF82BF3000401EEF24C640198F06EE24D0FE3395E0FDEE24EEF582ED3408F5838A
:20009400E493F58222BF4100401EEF24A540198F06EE24BFFE3395E0FDEE24D4F582ED3446
:2000B40008F583E493F58222BF6100401CEF24854017EF249FFF3395E0FEEF24D4F582EE8E
:2000D4003408F583E493F5822275820022AD82AE83AFF07C00EC2526F9E43527FAAB2889EE
:2000F400828A838BF0120871FB6015EC2DF8E43EF98F02888289838AF0EB12079D0C80D598
:2001140022E58224FF9292D291C291C29222AF827E08EE6015EE5FF582C007C0061201153C
:20013400D006D007EEC313FE80E822AF827E80EE6015EE5FF582C007C006120115D006D001
:2001540007EEC313FE80E822D291A292E433F582C291227F007E00BE080050188F05ED2DC5
:20017400FDC006C00512015CAC82D005D006EC4DFF0E80E38F8222AF82C0071201B0D0072D
:20019400C292C291EF2FFFE5094FF58212013FC29202015C12013FC29202015CD291D29202
:2001B40022850A0912018B850B821201A80201B085820B750A00850C821201B5900001E472
:2001D400F5F002037FE582C454F0FF7E00740D4FFC8E058C82C007C006C0041201C4D0044D
:2001F400D006D0074307098F82C0041201C4D0048C820201C4AF828F054305048D82C007AF
:20021400C0051201C4D005D00774FB5FF582C0051201C4D0058D820201C4E582C454F0FF88
:200234007E0074044FFC8E058C82C007C006C0041201C4D004D006D0078F82C0041201C473
:20025400D0048C820201C4AF8274F05FFEEFC454F0FFE50D4E450EF582C007120209D00734
:20027400E50D4F450EF582020209750E0002025B750E0102025BE582FFC4540FF582E4C4E1
:2002940054F0CFC4CF6FCF54F0CF6FC4CFC4540F6FCF540FCF6FCF30E30244F0C007120159
:2002B400D9D0078F820201D985820C750D08900032E4F5F012037F75820212027E900005B1
:2002D400E4F5F012037F75820212027E900005E4F5F012037F75820312027E900005E4F536
:2002F400F012037F75820012027E900005E4F5F012037F75820E12027E900005E4F5F012E4
:20031400037F75820012027E900005E4F5F012037F75820312027E900005E4F5F012037F4E
:20033400750E0175824712025B75824F12028A75824F12028A75824412028A75824212028A
:200354008A75825912028A75824512028A75822012028A75824212028A75824F12028A7552
:20037400824212028A75822102028A120751AC82AD83AEF0FFC004C005C006C007907CEEEC
:2003940075F07F743F12064DAC82AD83AEF0FFE58124FCF5818C828D838EF0EF12076485C9
:2003B400820F85831085F011F5127A007B00C3EA942CEB64809480502B780079008804892D
:2003D400057E007F00C3EC950FED9510EE9511EF95125009B29008B800E30980E00ABA008D
:2003F400CD0B80CAD2902285821A85831BAC197D008C268D27851A82851B83C005C0041278
:200414000624AA82AB83D004D0058C268D278A828B83C005C004C003C0021207B8A882A969
:2004340083D002D003D004D0058C268D2788828983C005C004C003C002C001C0001207B8FB
:20045400D000D001D002D003D004D0058C268D27C005C004C003C002C001C0001207D5AE08
:2004740082AF83EE24EEF582EF3408F583E493F580C2A0900001E4F5F012037FD000D001BD
:20049400D002D003D004D005D2A08C268D2788828983C005C004C003C0021207D5AE82AF31
:2004B40083EE24EEF582EF3408F583E493F580C2A1900001E4F5F012037FD002D003D004D5
:2004D400D005D2A18C268D278A828B83C005C0041207D5AE82AF83EE24EEF582EF3408F5D0
:2004F40083E493F580C2A2900001E4F5F012037FD004D005D2A28C268D27851A82851B8360
:200514001207D5AE82AF83EE24EEF582EF3408F583E493F580C2A3900001E4F5F012037F1E
:20053400D2A322AD82AE83AFF074012DFAE43EFB8F0474022DF51EE43EF51F8F2074032D86
:20055400F521E43EF5228F23E4F51CF51DC3E51C940AE51D648094804001228D828E838F11
:20057400F0120871F4F580C2A0900001E4F5F0C007C006C005C004C003C00212037FD002C6
:20059400D003D004D2A08A828B838CF0120871F4F580C2A1900001E4F5F0C004C003C0029E
:2005B40012037FD2A1851E82851F838520F0120871F4F580C2A2900001E4F5F012037FD227
:2005D400A28521828522838523F0120871F4F580C2A3900001E4F5F012037FD002D003D0BF
:2005F40004D005D006D007D2A3051CE4B51C02051D0205617582270202BC109702D297900A
:1006140001F4E4F5F002037F12060812060E80FBD3
:2008D4008883C6A1868EC28BCFE18AC7EACBA38C98CC9287C1C5D58991B4C0F9A4B099926E
:0A08F40082F880908883C6A1868EEA
:200624007A10E4FBFCE58225E0F582E58333F583EB33FBEC33FCEB9526F5F0EC95274006AE
:09064400FCABF0438201DADD2277
:20064D001206F0BC0003020843EF60FA30D502B2D1E583B4FF03020859E582B4FF030208FE
:20066D0059258340072482400B0208432483145003020859F582EA8DF0A4A8F0EA8EF0A450
:20068D0028F8E435F0F9EB8DF0A428E935F0F9E433CA8FF0A429F9EA35F0FAEBF88EF0A4BC
:2006AD0029F9EA35F0FAE433FBEC8DF0A429F9EA35F0FAE43BFBE88FF0A42AFAEB35F0FB64
:2006CD00E433CCFD8EF0A42AFAEB35F0FBE43CFCED8FF0A42BFBEC35F0FC20E70312071E3C
:0306ED00020822DE
:2006F000AA82AB83A2F73392D1F5826002D2F7ACF0E58124F9F8E6FD08E6FE0886F008E66D
:0E071000A2F73392D5F5836002D2F7AFF02244
:06003500E4787FF6D8FD1F
:20071E007804EC7011E58224F8500AF582E4C9CACBFCD8EF22EC7820058220E713D58201DA
:13073E0022C3E933F9EA33FAEB33FBEC33FCD8EA158222E8
:200013007900E94400601B7A009008FE780075A0E0E493F2A308B8000205A0D9F4DAF275AE
:02003300A0FF2C
:13075100FCABF0AA83A982749EC2D1F58212071E02082227
:200764007F9E12078B30D103020843C3EF9582500974FFF5F0F583F58222790012088D892F
:07078400828A838BF0EC2256
:12078B00AA82AB83A2F73392D1F5826002D2F7ACF02273
:1B079D0020F71130F6138883A88220F509F6A8837583002280FEF280F5F0225B
:1D07B800E5828526F0A4C582C0F08527F0A4D0F025F0C5838526F0A42583F58322A9
:2007D500E526452760467A01E52625E0F526E527334012F527E5829526E583952740030A01
:2007F50080E6C3E52713F527E52613F526C3E5829526F5F0E58395274005F58385F082C3E2
:0D081500E52713F527E52613F526DAE12285
:20003B007800E84400600A790075A0E0E4F309D8FC7800E84400600C790090E000E4F0A305
:04005B00D8FCD9FAFA
:20082200B98003EA13B34010EA2401FAE43BFBE43CFC50047C800582BC000EBB000BBA001A
:2008420008E4F5F0F583F58222A2D1E582138CF092F78B838A8222E4F583F58275F080F4DA
:0F086200A2D11322E4F583F58275F0C0747F22D2
:0D0006007581281208D0E582600302000316
:1C08710020F71430F6148883A88220F507E6A88375830022E280F7E49322E02296
:20088D006040F82582500274FFF582E824F8501ECCCBCAF9E4CC24F85014CBCAF9E4CB2473
:2008AD00F8500BCAF9E4CA24F8500379002224086010F8C3EC13FCEB13FBEA13FAE913F926
:0308CD00D8F1223D
:0408D000758200220B
:00000001FF
