                                      1 ;--------------------------------------------------------
                                      2 ; File Created by SDCC : free open source ANSI-C Compiler
                                      3 ; Version 3.8.0 #10562 (Linux)
                                      4 ;--------------------------------------------------------
                                      5 	.module stcboot
                                      6 	.optsdcc -mmcs51 --model-small
                                      7 	
                                      8 ;--------------------------------------------------------
                                      9 ; Public variables in this module
                                     10 ;--------------------------------------------------------
                                     11 	.globl _getStr_PARM_2
                                     12 	.globl _numArray
                                     13 	.globl _alphaArray
                                     14 	.globl _main
                                     15 	.globl _loop
                                     16 	.globl _setup
                                     17 	.globl _strobeLCD
                                     18 	.globl _printLCD
                                     19 	.globl _write_LCD
                                     20 	.globl _getStr
                                     21 	.globl _getChar
                                     22 	.globl _CY
                                     23 	.globl _AC
                                     24 	.globl _F0
                                     25 	.globl _RS1
                                     26 	.globl _RS0
                                     27 	.globl _OV
                                     28 	.globl _F1
                                     29 	.globl _P
                                     30 	.globl _PS
                                     31 	.globl _PT1
                                     32 	.globl _PX1
                                     33 	.globl _PT0
                                     34 	.globl _PX0
                                     35 	.globl _RD
                                     36 	.globl _WR
                                     37 	.globl _T1
                                     38 	.globl _T0
                                     39 	.globl _INT1
                                     40 	.globl _INT0
                                     41 	.globl _TXD
                                     42 	.globl _RXD
                                     43 	.globl _P3_7
                                     44 	.globl _P3_6
                                     45 	.globl _P3_5
                                     46 	.globl _P3_4
                                     47 	.globl _P3_3
                                     48 	.globl _P3_2
                                     49 	.globl _P3_1
                                     50 	.globl _P3_0
                                     51 	.globl _EA
                                     52 	.globl _ES
                                     53 	.globl _ET1
                                     54 	.globl _EX1
                                     55 	.globl _ET0
                                     56 	.globl _EX0
                                     57 	.globl _P2_7
                                     58 	.globl _P2_6
                                     59 	.globl _P2_5
                                     60 	.globl _P2_4
                                     61 	.globl _P2_3
                                     62 	.globl _P2_2
                                     63 	.globl _P2_1
                                     64 	.globl _P2_0
                                     65 	.globl _SM0
                                     66 	.globl _SM1
                                     67 	.globl _SM2
                                     68 	.globl _REN
                                     69 	.globl _TB8
                                     70 	.globl _RB8
                                     71 	.globl _TI
                                     72 	.globl _RI
                                     73 	.globl _P1_7
                                     74 	.globl _P1_6
                                     75 	.globl _P1_5
                                     76 	.globl _P1_4
                                     77 	.globl _P1_3
                                     78 	.globl _P1_2
                                     79 	.globl _P1_1
                                     80 	.globl _P1_0
                                     81 	.globl _TF1
                                     82 	.globl _TR1
                                     83 	.globl _TF0
                                     84 	.globl _TR0
                                     85 	.globl _IE1
                                     86 	.globl _IT1
                                     87 	.globl _IE0
                                     88 	.globl _IT0
                                     89 	.globl _P0_7
                                     90 	.globl _P0_6
                                     91 	.globl _P0_5
                                     92 	.globl _P0_4
                                     93 	.globl _P0_3
                                     94 	.globl _P0_2
                                     95 	.globl _P0_1
                                     96 	.globl _P0_0
                                     97 	.globl _B
                                     98 	.globl _ACC
                                     99 	.globl _PSW
                                    100 	.globl _IP
                                    101 	.globl _P3
                                    102 	.globl _IE
                                    103 	.globl _P2
                                    104 	.globl _SBUF
                                    105 	.globl _SCON
                                    106 	.globl _P1
                                    107 	.globl _TH1
                                    108 	.globl _TH0
                                    109 	.globl _TL1
                                    110 	.globl _TL0
                                    111 	.globl _TMOD
                                    112 	.globl _TCON
                                    113 	.globl _PCON
                                    114 	.globl _DPH
                                    115 	.globl _DPL
                                    116 	.globl _SP
                                    117 	.globl _P0
                                    118 	.globl _fr
                                    119 	.globl _printLCD_PARM_2
                                    120 	.globl _msg
                                    121 	.globl _frame
                                    122 	.globl _send_LCD_PARM_2
                                    123 	.globl _state
                                    124 	.globl _addr
                                    125 	.globl _i2c_send_PARM_3
                                    126 	.globl _i2c_send_PARM_2
                                    127 	.globl _i2c_begin_PARM_2
                                    128 	.globl _i
                                    129 	.globl _setBit
                                    130 	.globl _setNibble
                                    131 	.globl _setByte
                                    132 	.globl _readBit
                                    133 	.globl _readByte
                                    134 	.globl _i2c_begin
                                    135 	.globl _i2c_write
                                    136 	.globl _i2c_end
                                    137 	.globl _i2c_send
                                    138 	.globl _write_byte_LCD
                                    139 	.globl _write_nibble_LCD_data
                                    140 	.globl _pulse_en_LCD
                                    141 	.globl _write_nibble_LCD_cmd
                                    142 	.globl _send_LCD
                                    143 	.globl _command_LCD
                                    144 	.globl _data_LCD
                                    145 	.globl _init_LCD
                                    146 	.globl _delay
                                    147 ;--------------------------------------------------------
                                    148 ; special function registers
                                    149 ;--------------------------------------------------------
                                    150 	.area RSEG    (ABS,DATA)
      000000                        151 	.org 0x0000
                           000080   152 _P0	=	0x0080
                           000081   153 _SP	=	0x0081
                           000082   154 _DPL	=	0x0082
                           000083   155 _DPH	=	0x0083
                           000087   156 _PCON	=	0x0087
                           000088   157 _TCON	=	0x0088
                           000089   158 _TMOD	=	0x0089
                           00008A   159 _TL0	=	0x008a
                           00008B   160 _TL1	=	0x008b
                           00008C   161 _TH0	=	0x008c
                           00008D   162 _TH1	=	0x008d
                           000090   163 _P1	=	0x0090
                           000098   164 _SCON	=	0x0098
                           000099   165 _SBUF	=	0x0099
                           0000A0   166 _P2	=	0x00a0
                           0000A8   167 _IE	=	0x00a8
                           0000B0   168 _P3	=	0x00b0
                           0000B8   169 _IP	=	0x00b8
                           0000D0   170 _PSW	=	0x00d0
                           0000E0   171 _ACC	=	0x00e0
                           0000F0   172 _B	=	0x00f0
                                    173 ;--------------------------------------------------------
                                    174 ; special function bits
                                    175 ;--------------------------------------------------------
                                    176 	.area RSEG    (ABS,DATA)
      000000                        177 	.org 0x0000
                           000080   178 _P0_0	=	0x0080
                           000081   179 _P0_1	=	0x0081
                           000082   180 _P0_2	=	0x0082
                           000083   181 _P0_3	=	0x0083
                           000084   182 _P0_4	=	0x0084
                           000085   183 _P0_5	=	0x0085
                           000086   184 _P0_6	=	0x0086
                           000087   185 _P0_7	=	0x0087
                           000088   186 _IT0	=	0x0088
                           000089   187 _IE0	=	0x0089
                           00008A   188 _IT1	=	0x008a
                           00008B   189 _IE1	=	0x008b
                           00008C   190 _TR0	=	0x008c
                           00008D   191 _TF0	=	0x008d
                           00008E   192 _TR1	=	0x008e
                           00008F   193 _TF1	=	0x008f
                           000090   194 _P1_0	=	0x0090
                           000091   195 _P1_1	=	0x0091
                           000092   196 _P1_2	=	0x0092
                           000093   197 _P1_3	=	0x0093
                           000094   198 _P1_4	=	0x0094
                           000095   199 _P1_5	=	0x0095
                           000096   200 _P1_6	=	0x0096
                           000097   201 _P1_7	=	0x0097
                           000098   202 _RI	=	0x0098
                           000099   203 _TI	=	0x0099
                           00009A   204 _RB8	=	0x009a
                           00009B   205 _TB8	=	0x009b
                           00009C   206 _REN	=	0x009c
                           00009D   207 _SM2	=	0x009d
                           00009E   208 _SM1	=	0x009e
                           00009F   209 _SM0	=	0x009f
                           0000A0   210 _P2_0	=	0x00a0
                           0000A1   211 _P2_1	=	0x00a1
                           0000A2   212 _P2_2	=	0x00a2
                           0000A3   213 _P2_3	=	0x00a3
                           0000A4   214 _P2_4	=	0x00a4
                           0000A5   215 _P2_5	=	0x00a5
                           0000A6   216 _P2_6	=	0x00a6
                           0000A7   217 _P2_7	=	0x00a7
                           0000A8   218 _EX0	=	0x00a8
                           0000A9   219 _ET0	=	0x00a9
                           0000AA   220 _EX1	=	0x00aa
                           0000AB   221 _ET1	=	0x00ab
                           0000AC   222 _ES	=	0x00ac
                           0000AF   223 _EA	=	0x00af
                           0000B0   224 _P3_0	=	0x00b0
                           0000B1   225 _P3_1	=	0x00b1
                           0000B2   226 _P3_2	=	0x00b2
                           0000B3   227 _P3_3	=	0x00b3
                           0000B4   228 _P3_4	=	0x00b4
                           0000B5   229 _P3_5	=	0x00b5
                           0000B6   230 _P3_6	=	0x00b6
                           0000B7   231 _P3_7	=	0x00b7
                           0000B0   232 _RXD	=	0x00b0
                           0000B1   233 _TXD	=	0x00b1
                           0000B2   234 _INT0	=	0x00b2
                           0000B3   235 _INT1	=	0x00b3
                           0000B4   236 _T0	=	0x00b4
                           0000B5   237 _T1	=	0x00b5
                           0000B6   238 _WR	=	0x00b6
                           0000B7   239 _RD	=	0x00b7
                           0000B8   240 _PX0	=	0x00b8
                           0000B9   241 _PT0	=	0x00b9
                           0000BA   242 _PX1	=	0x00ba
                           0000BB   243 _PT1	=	0x00bb
                           0000BC   244 _PS	=	0x00bc
                           0000D0   245 _P	=	0x00d0
                           0000D1   246 _F1	=	0x00d1
                           0000D2   247 _OV	=	0x00d2
                           0000D3   248 _RS0	=	0x00d3
                           0000D4   249 _RS1	=	0x00d4
                           0000D5   250 _F0	=	0x00d5
                           0000D6   251 _AC	=	0x00d6
                           0000D7   252 _CY	=	0x00d7
                                    253 ;--------------------------------------------------------
                                    254 ; overlayable register banks
                                    255 ;--------------------------------------------------------
                                    256 	.area REG_BANK_0	(REL,OVR,DATA)
      000000                        257 	.ds 8
                                    258 ;--------------------------------------------------------
                                    259 ; internal ram data
                                    260 ;--------------------------------------------------------
                                    261 	.area DSEG    (DATA)
      000008                        262 _i::
      000008                        263 	.ds 1
      000009                        264 _i2c_begin_PARM_2:
      000009                        265 	.ds 1
      00000A                        266 _i2c_send_PARM_2:
      00000A                        267 	.ds 1
      00000B                        268 _i2c_send_PARM_3:
      00000B                        269 	.ds 1
      00000C                        270 _addr::
      00000C                        271 	.ds 1
      00000D                        272 _state::
      00000D                        273 	.ds 1
      00000E                        274 _send_LCD_PARM_2:
      00000E                        275 	.ds 1
      00000F                        276 _delay_millis_65536_61:
      00000F                        277 	.ds 4
      000013                        278 _frame::
      000013                        279 	.ds 2
      000015                        280 _msg::
      000015                        281 	.ds 4
      000019                        282 _printLCD_PARM_2:
      000019                        283 	.ds 1
      00001A                        284 _printLCD_i_65536_67:
      00001A                        285 	.ds 2
      00001C                        286 _strobeLCD_i_131072_71:
      00001C                        287 	.ds 2
      00001E                        288 _strobeLCD_sloc0_1_0:
      00001E                        289 	.ds 3
      000021                        290 _strobeLCD_sloc1_1_0:
      000021                        291 	.ds 3
      000024                        292 _fr::
      000024                        293 	.ds 2
                                    294 ;--------------------------------------------------------
                                    295 ; overlayable items in internal ram 
                                    296 ;--------------------------------------------------------
                                    297 	.area	OSEG    (OVR,DATA)
                                    298 	.area	OSEG    (OVR,DATA)
      000026                        299 _getStr_PARM_2:
      000026                        300 	.ds 3
                                    301 	.area	OSEG    (OVR,DATA)
                                    302 	.area	OSEG    (OVR,DATA)
                                    303 ;--------------------------------------------------------
                                    304 ; Stack segment in internal ram 
                                    305 ;--------------------------------------------------------
                                    306 	.area	SSEG
      000029                        307 __start__stack:
      000029                        308 	.ds	1
                                    309 
                                    310 ;--------------------------------------------------------
                                    311 ; indirectly addressable internal ram data
                                    312 ;--------------------------------------------------------
                                    313 	.area ISEG    (DATA)
                                    314 ;--------------------------------------------------------
                                    315 ; absolute internal ram data
                                    316 ;--------------------------------------------------------
                                    317 	.area IABS    (ABS,DATA)
                                    318 	.area IABS    (ABS,DATA)
                                    319 ;--------------------------------------------------------
                                    320 ; bit data
                                    321 ;--------------------------------------------------------
                                    322 	.area BSEG    (BIT)
                                    323 ;--------------------------------------------------------
                                    324 ; paged external ram data
                                    325 ;--------------------------------------------------------
                                    326 	.area PSEG    (PAG,XDATA)
                                    327 ;--------------------------------------------------------
                                    328 ; external ram data
                                    329 ;--------------------------------------------------------
                                    330 	.area XSEG    (XDATA)
                                    331 ;--------------------------------------------------------
                                    332 ; absolute external ram data
                                    333 ;--------------------------------------------------------
                                    334 	.area XABS    (ABS,XDATA)
                                    335 ;--------------------------------------------------------
                                    336 ; external initialized ram data
                                    337 ;--------------------------------------------------------
                                    338 	.area XISEG   (XDATA)
                                    339 	.area HOME    (CODE)
                                    340 	.area GSINIT0 (CODE)
                                    341 	.area GSINIT1 (CODE)
                                    342 	.area GSINIT2 (CODE)
                                    343 	.area GSINIT3 (CODE)
                                    344 	.area GSINIT4 (CODE)
                                    345 	.area GSINIT5 (CODE)
                                    346 	.area GSINIT  (CODE)
                                    347 	.area GSFINAL (CODE)
                                    348 	.area CSEG    (CODE)
                                    349 ;--------------------------------------------------------
                                    350 ; interrupt vector 
                                    351 ;--------------------------------------------------------
                                    352 	.area HOME    (CODE)
      000000                        353 __interrupt_vect:
      000000 02 00 06         [24]  354 	ljmp	__sdcc_gsinit_startup
                                    355 ;--------------------------------------------------------
                                    356 ; global & static initialisations
                                    357 ;--------------------------------------------------------
                                    358 	.area HOME    (CODE)
                                    359 	.area GSINIT  (CODE)
                                    360 	.area GSFINAL (CODE)
                                    361 	.area GSINIT  (CODE)
                                    362 	.globl __sdcc_gsinit_startup
                                    363 	.globl __sdcc_program_startup
                                    364 	.globl __start__stack
                                    365 	.globl __mcs51_genXINIT
                                    366 	.globl __mcs51_genXRAMCLEAR
                                    367 	.globl __mcs51_genRAMCLEAR
                                    368 ;	i2c8051.c:5: unsigned char i=0;
      00005F 75 08 00         [24]  369 	mov	_i,#0x00
                                    370 ;	LCD1602.c:6: unsigned char addr=0;
      000062 75 0C 00         [24]  371 	mov	_addr,#0x00
                                    372 ;	LCD1602.c:7: unsigned char state=0;
      000065 75 0D 00         [24]  373 	mov	_state,#0x00
                                    374 ;	stcboot.c:21: unsigned int frame=0;
      000068 E4               [12]  375 	clr	a
      000069 F5 13            [12]  376 	mov	_frame,a
      00006B F5 14            [12]  377 	mov	(_frame + 1),a
                                    378 ;	stcboot.c:89: unsigned int fr=0;
      00006D F5 24            [12]  379 	mov	_fr,a
      00006F F5 25            [12]  380 	mov	(_fr + 1),a
                                    381 	.area GSFINAL (CODE)
      000071 02 00 03         [24]  382 	ljmp	__sdcc_program_startup
                                    383 ;--------------------------------------------------------
                                    384 ; Home
                                    385 ;--------------------------------------------------------
                                    386 	.area HOME    (CODE)
                                    387 	.area HOME    (CODE)
      000003                        388 __sdcc_program_startup:
      000003 02 06 1C         [24]  389 	ljmp	_main
                                    390 ;	return from main will return to caller
                                    391 ;--------------------------------------------------------
                                    392 ; code
                                    393 ;--------------------------------------------------------
                                    394 	.area CSEG    (CODE)
                                    395 ;------------------------------------------------------------
                                    396 ;Allocation info for local variables in function 'getChar'
                                    397 ;------------------------------------------------------------
                                    398 ;c                         Allocated to registers r7 
                                    399 ;------------------------------------------------------------
                                    400 ;	anodeDisplay.h:84: unsigned char getChar(char c){
                                    401 ;	-----------------------------------------
                                    402 ;	 function getChar
                                    403 ;	-----------------------------------------
      000074                        404 _getChar:
                           000007   405 	ar7 = 0x07
                           000006   406 	ar6 = 0x06
                           000005   407 	ar5 = 0x05
                           000004   408 	ar4 = 0x04
                           000003   409 	ar3 = 0x03
                           000002   410 	ar2 = 0x02
                           000001   411 	ar1 = 0x01
                           000000   412 	ar0 = 0x00
      000074 AF 82            [24]  413 	mov	r7,dpl
                                    414 ;	anodeDisplay.h:85: if(c>=48&&c<=57)
      000076 BF 30 00         [24]  415 	cjne	r7,#0x30,00138$
      000079                        416 00138$:
      000079 40 1E            [24]  417 	jc	00109$
      00007B EF               [12]  418 	mov	a,r7
      00007C 24 C6            [12]  419 	add	a,#0xff - 0x39
      00007E 40 19            [24]  420 	jc	00109$
                                    421 ;	anodeDisplay.h:86: return numArray[c-48];
      000080 8F 06            [24]  422 	mov	ar6,r7
      000082 EE               [12]  423 	mov	a,r6
      000083 24 D0            [12]  424 	add	a,#0xd0
      000085 FE               [12]  425 	mov	r6,a
      000086 33               [12]  426 	rlc	a
      000087 95 E0            [12]  427 	subb	a,acc
      000089 FD               [12]  428 	mov	r5,a
      00008A EE               [12]  429 	mov	a,r6
      00008B 24 EE            [12]  430 	add	a,#_numArray
      00008D F5 82            [12]  431 	mov	dpl,a
      00008F ED               [12]  432 	mov	a,r5
      000090 34 08            [12]  433 	addc	a,#(_numArray >> 8)
      000092 F5 83            [12]  434 	mov	dph,a
      000094 E4               [12]  435 	clr	a
      000095 93               [24]  436 	movc	a,@a+dptr
      000096 F5 82            [12]  437 	mov	dpl,a
      000098 22               [24]  438 	ret
      000099                        439 00109$:
                                    440 ;	anodeDisplay.h:87: else if(c>=65&&c<=90)
      000099 BF 41 00         [24]  441 	cjne	r7,#0x41,00141$
      00009C                        442 00141$:
      00009C 40 1E            [24]  443 	jc	00105$
      00009E EF               [12]  444 	mov	a,r7
      00009F 24 A5            [12]  445 	add	a,#0xff - 0x5a
      0000A1 40 19            [24]  446 	jc	00105$
                                    447 ;	anodeDisplay.h:88: return alphaArray[c-65];
      0000A3 8F 06            [24]  448 	mov	ar6,r7
      0000A5 EE               [12]  449 	mov	a,r6
      0000A6 24 BF            [12]  450 	add	a,#0xbf
      0000A8 FE               [12]  451 	mov	r6,a
      0000A9 33               [12]  452 	rlc	a
      0000AA 95 E0            [12]  453 	subb	a,acc
      0000AC FD               [12]  454 	mov	r5,a
      0000AD EE               [12]  455 	mov	a,r6
      0000AE 24 D4            [12]  456 	add	a,#_alphaArray
      0000B0 F5 82            [12]  457 	mov	dpl,a
      0000B2 ED               [12]  458 	mov	a,r5
      0000B3 34 08            [12]  459 	addc	a,#(_alphaArray >> 8)
      0000B5 F5 83            [12]  460 	mov	dph,a
      0000B7 E4               [12]  461 	clr	a
      0000B8 93               [24]  462 	movc	a,@a+dptr
      0000B9 F5 82            [12]  463 	mov	dpl,a
      0000BB 22               [24]  464 	ret
      0000BC                        465 00105$:
                                    466 ;	anodeDisplay.h:89: else if(c>=97&&c<=122)
      0000BC BF 61 00         [24]  467 	cjne	r7,#0x61,00144$
      0000BF                        468 00144$:
      0000BF 40 1C            [24]  469 	jc	00110$
      0000C1 EF               [12]  470 	mov	a,r7
      0000C2 24 85            [12]  471 	add	a,#0xff - 0x7a
      0000C4 40 17            [24]  472 	jc	00110$
                                    473 ;	anodeDisplay.h:90: return alphaArray[c-97];
      0000C6 EF               [12]  474 	mov	a,r7
      0000C7 24 9F            [12]  475 	add	a,#0x9f
      0000C9 FF               [12]  476 	mov	r7,a
      0000CA 33               [12]  477 	rlc	a
      0000CB 95 E0            [12]  478 	subb	a,acc
      0000CD FE               [12]  479 	mov	r6,a
      0000CE EF               [12]  480 	mov	a,r7
      0000CF 24 D4            [12]  481 	add	a,#_alphaArray
      0000D1 F5 82            [12]  482 	mov	dpl,a
      0000D3 EE               [12]  483 	mov	a,r6
      0000D4 34 08            [12]  484 	addc	a,#(_alphaArray >> 8)
      0000D6 F5 83            [12]  485 	mov	dph,a
      0000D8 E4               [12]  486 	clr	a
      0000D9 93               [24]  487 	movc	a,@a+dptr
      0000DA F5 82            [12]  488 	mov	dpl,a
      0000DC 22               [24]  489 	ret
      0000DD                        490 00110$:
                                    491 ;	anodeDisplay.h:91: return 0;
      0000DD 75 82 00         [24]  492 	mov	dpl,#0x00
                                    493 ;	anodeDisplay.h:92: }
      0000E0 22               [24]  494 	ret
                                    495 ;------------------------------------------------------------
                                    496 ;Allocation info for local variables in function 'getStr'
                                    497 ;------------------------------------------------------------
                                    498 ;str                       Allocated with name '_getStr_PARM_2'
                                    499 ;out                       Allocated to registers r5 r6 r7 
                                    500 ;i                         Allocated to registers r4 
                                    501 ;------------------------------------------------------------
                                    502 ;	anodeDisplay.h:93: void getStr(unsigned char* out, const char* str){
                                    503 ;	-----------------------------------------
                                    504 ;	 function getStr
                                    505 ;	-----------------------------------------
      0000E1                        506 _getStr:
      0000E1 AD 82            [24]  507 	mov	r5,dpl
      0000E3 AE 83            [24]  508 	mov	r6,dph
      0000E5 AF F0            [24]  509 	mov	r7,b
                                    510 ;	anodeDisplay.h:94: for(unsigned char i=0;str[i]!=0;i++){
      0000E7 7C 00            [12]  511 	mov	r4,#0x00
      0000E9                        512 00103$:
      0000E9 EC               [12]  513 	mov	a,r4
      0000EA 25 26            [12]  514 	add	a,_getStr_PARM_2
      0000EC F9               [12]  515 	mov	r1,a
      0000ED E4               [12]  516 	clr	a
      0000EE 35 27            [12]  517 	addc	a,(_getStr_PARM_2 + 1)
      0000F0 FA               [12]  518 	mov	r2,a
      0000F1 AB 28            [24]  519 	mov	r3,(_getStr_PARM_2 + 2)
      0000F3 89 82            [24]  520 	mov	dpl,r1
      0000F5 8A 83            [24]  521 	mov	dph,r2
      0000F7 8B F0            [24]  522 	mov	b,r3
      0000F9 12 08 71         [24]  523 	lcall	__gptrget
      0000FC FB               [12]  524 	mov	r3,a
      0000FD 60 15            [24]  525 	jz	00105$
                                    526 ;	anodeDisplay.h:95: out[i]=str[i];
      0000FF EC               [12]  527 	mov	a,r4
      000100 2D               [12]  528 	add	a,r5
      000101 F8               [12]  529 	mov	r0,a
      000102 E4               [12]  530 	clr	a
      000103 3E               [12]  531 	addc	a,r6
      000104 F9               [12]  532 	mov	r1,a
      000105 8F 02            [24]  533 	mov	ar2,r7
      000107 88 82            [24]  534 	mov	dpl,r0
      000109 89 83            [24]  535 	mov	dph,r1
      00010B 8A F0            [24]  536 	mov	b,r2
      00010D EB               [12]  537 	mov	a,r3
      00010E 12 07 9D         [24]  538 	lcall	__gptrput
                                    539 ;	anodeDisplay.h:94: for(unsigned char i=0;str[i]!=0;i++){
      000111 0C               [12]  540 	inc	r4
      000112 80 D5            [24]  541 	sjmp	00103$
      000114                        542 00105$:
                                    543 ;	anodeDisplay.h:97: }
      000114 22               [24]  544 	ret
                                    545 ;------------------------------------------------------------
                                    546 ;Allocation info for local variables in function 'setBit'
                                    547 ;------------------------------------------------------------
                                    548 ;bit                       Allocated to registers r7 
                                    549 ;------------------------------------------------------------
                                    550 ;	i2c8051.c:6: void setBit(unsigned char bit) {
                                    551 ;	-----------------------------------------
                                    552 ;	 function setBit
                                    553 ;	-----------------------------------------
      000115                        554 _setBit:
                                    555 ;	i2c8051.c:7: SDA=bit; //digitalWrite(SDA, bit);
                                    556 ;	assignBit
      000115 E5 82            [12]  557 	mov	a,dpl
      000117 24 FF            [12]  558 	add	a,#0xff
      000119 92 92            [24]  559 	mov	_P1_2,c
                                    560 ;	i2c8051.c:8: SCL=1; //digitalWrite(SCL, HIGH);
                                    561 ;	assignBit
      00011B D2 91            [12]  562 	setb	_P1_1
                                    563 ;	i2c8051.c:9: SCL=0; //digitalWrite(SCL, LOW);
                                    564 ;	assignBit
      00011D C2 91            [12]  565 	clr	_P1_1
                                    566 ;	i2c8051.c:10: SDA=0; //digitalWrite(SDA, LOW);
                                    567 ;	assignBit
      00011F C2 92            [12]  568 	clr	_P1_2
                                    569 ;	i2c8051.c:11: }
      000121 22               [24]  570 	ret
                                    571 ;------------------------------------------------------------
                                    572 ;Allocation info for local variables in function 'setNibble'
                                    573 ;------------------------------------------------------------
                                    574 ;nibble                    Allocated to registers r7 
                                    575 ;mask                      Allocated to registers r6 
                                    576 ;------------------------------------------------------------
                                    577 ;	i2c8051.c:12: void setNibble(unsigned char nibble){
                                    578 ;	-----------------------------------------
                                    579 ;	 function setNibble
                                    580 ;	-----------------------------------------
      000122                        581 _setNibble:
      000122 AF 82            [24]  582 	mov	r7,dpl
                                    583 ;	i2c8051.c:13: unsigned char mask=_BV(3);
      000124 7E 08            [12]  584 	mov	r6,#0x08
                                    585 ;	i2c8051.c:14: while(mask>0){
      000126                        586 00101$:
      000126 EE               [12]  587 	mov	a,r6
      000127 60 15            [24]  588 	jz	00104$
                                    589 ;	i2c8051.c:15: setBit(nibble&mask);
      000129 EE               [12]  590 	mov	a,r6
      00012A 5F               [12]  591 	anl	a,r7
      00012B F5 82            [12]  592 	mov	dpl,a
      00012D C0 07            [24]  593 	push	ar7
      00012F C0 06            [24]  594 	push	ar6
      000131 12 01 15         [24]  595 	lcall	_setBit
      000134 D0 06            [24]  596 	pop	ar6
      000136 D0 07            [24]  597 	pop	ar7
                                    598 ;	i2c8051.c:16: mask>>=1;
      000138 EE               [12]  599 	mov	a,r6
      000139 C3               [12]  600 	clr	c
      00013A 13               [12]  601 	rrc	a
      00013B FE               [12]  602 	mov	r6,a
      00013C 80 E8            [24]  603 	sjmp	00101$
      00013E                        604 00104$:
                                    605 ;	i2c8051.c:18: }
      00013E 22               [24]  606 	ret
                                    607 ;------------------------------------------------------------
                                    608 ;Allocation info for local variables in function 'setByte'
                                    609 ;------------------------------------------------------------
                                    610 ;bits                      Allocated to registers r7 
                                    611 ;mask                      Allocated to registers r6 
                                    612 ;------------------------------------------------------------
                                    613 ;	i2c8051.c:19: void setByte(unsigned char bits){
                                    614 ;	-----------------------------------------
                                    615 ;	 function setByte
                                    616 ;	-----------------------------------------
      00013F                        617 _setByte:
      00013F AF 82            [24]  618 	mov	r7,dpl
                                    619 ;	i2c8051.c:20: unsigned char mask=_BV(7);
      000141 7E 80            [12]  620 	mov	r6,#0x80
                                    621 ;	i2c8051.c:21: while(mask>0){
      000143                        622 00101$:
      000143 EE               [12]  623 	mov	a,r6
      000144 60 15            [24]  624 	jz	00104$
                                    625 ;	i2c8051.c:22: setBit(bits&mask);
      000146 EE               [12]  626 	mov	a,r6
      000147 5F               [12]  627 	anl	a,r7
      000148 F5 82            [12]  628 	mov	dpl,a
      00014A C0 07            [24]  629 	push	ar7
      00014C C0 06            [24]  630 	push	ar6
      00014E 12 01 15         [24]  631 	lcall	_setBit
      000151 D0 06            [24]  632 	pop	ar6
      000153 D0 07            [24]  633 	pop	ar7
                                    634 ;	i2c8051.c:23: mask>>=1;
      000155 EE               [12]  635 	mov	a,r6
      000156 C3               [12]  636 	clr	c
      000157 13               [12]  637 	rrc	a
      000158 FE               [12]  638 	mov	r6,a
      000159 80 E8            [24]  639 	sjmp	00101$
      00015B                        640 00104$:
                                    641 ;	i2c8051.c:25: }
      00015B 22               [24]  642 	ret
                                    643 ;------------------------------------------------------------
                                    644 ;Allocation info for local variables in function 'readBit'
                                    645 ;------------------------------------------------------------
                                    646 ;r                         Allocated to registers 
                                    647 ;------------------------------------------------------------
                                    648 ;	i2c8051.c:26: unsigned char readBit() {
                                    649 ;	-----------------------------------------
                                    650 ;	 function readBit
                                    651 ;	-----------------------------------------
      00015C                        652 _readBit:
                                    653 ;	i2c8051.c:27: SCL=1; //digitalWrite(SCL, HIGH);
                                    654 ;	assignBit
      00015C D2 91            [12]  655 	setb	_P1_1
                                    656 ;	i2c8051.c:28: unsigned char r = SDA; //digitalRead(SDA);
      00015E A2 92            [12]  657 	mov	c,_P1_2
      000160 E4               [12]  658 	clr	a
      000161 33               [12]  659 	rlc	a
      000162 F5 82            [12]  660 	mov	dpl,a
                                    661 ;	i2c8051.c:29: SCL=0; //digitalWrite(SCL, LOW);
                                    662 ;	assignBit
      000164 C2 91            [12]  663 	clr	_P1_1
                                    664 ;	i2c8051.c:30: return r;
                                    665 ;	i2c8051.c:31: }
      000166 22               [24]  666 	ret
                                    667 ;------------------------------------------------------------
                                    668 ;Allocation info for local variables in function 'readByte'
                                    669 ;------------------------------------------------------------
                                    670 ;value                     Allocated to registers r7 
                                    671 ;i                         Allocated to registers r6 
                                    672 ;------------------------------------------------------------
                                    673 ;	i2c8051.c:32: unsigned char readByte(){
                                    674 ;	-----------------------------------------
                                    675 ;	 function readByte
                                    676 ;	-----------------------------------------
      000167                        677 _readByte:
                                    678 ;	i2c8051.c:33: unsigned char value = 0;
      000167 7F 00            [12]  679 	mov	r7,#0x00
                                    680 ;	i2c8051.c:34: for (unsigned char i = 0; i < 8; i++) {
      000169 7E 00            [12]  681 	mov	r6,#0x00
      00016B                        682 00103$:
      00016B BE 08 00         [24]  683 	cjne	r6,#0x08,00116$
      00016E                        684 00116$:
      00016E 50 18            [24]  685 	jnc	00101$
                                    686 ;	i2c8051.c:35: value = (value << 1) | readBit();
      000170 8F 05            [24]  687 	mov	ar5,r7
      000172 ED               [12]  688 	mov	a,r5
      000173 2D               [12]  689 	add	a,r5
      000174 FD               [12]  690 	mov	r5,a
      000175 C0 06            [24]  691 	push	ar6
      000177 C0 05            [24]  692 	push	ar5
      000179 12 01 5C         [24]  693 	lcall	_readBit
      00017C AC 82            [24]  694 	mov	r4,dpl
      00017E D0 05            [24]  695 	pop	ar5
      000180 D0 06            [24]  696 	pop	ar6
      000182 EC               [12]  697 	mov	a,r4
      000183 4D               [12]  698 	orl	a,r5
      000184 FF               [12]  699 	mov	r7,a
                                    700 ;	i2c8051.c:34: for (unsigned char i = 0; i < 8; i++) {
      000185 0E               [12]  701 	inc	r6
      000186 80 E3            [24]  702 	sjmp	00103$
      000188                        703 00101$:
                                    704 ;	i2c8051.c:37: return value;
      000188 8F 82            [24]  705 	mov	dpl,r7
                                    706 ;	i2c8051.c:38: }
      00018A 22               [24]  707 	ret
                                    708 ;------------------------------------------------------------
                                    709 ;Allocation info for local variables in function 'i2c_begin'
                                    710 ;------------------------------------------------------------
                                    711 ;rw                        Allocated with name '_i2c_begin_PARM_2'
                                    712 ;addr                      Allocated to registers r7 
                                    713 ;------------------------------------------------------------
                                    714 ;	i2c8051.c:39: unsigned char i2c_begin(unsigned char addr,unsigned char rw){
                                    715 ;	-----------------------------------------
                                    716 ;	 function i2c_begin
                                    717 ;	-----------------------------------------
      00018B                        718 _i2c_begin:
      00018B AF 82            [24]  719 	mov	r7,dpl
                                    720 ;	i2c8051.c:40: i2c_end(); //also start cond
      00018D C0 07            [24]  721 	push	ar7
      00018F 12 01 B0         [24]  722 	lcall	_i2c_end
      000192 D0 07            [24]  723 	pop	ar7
                                    724 ;	i2c8051.c:41: SDA=0; //digitalWrite(SDA,LOW);
                                    725 ;	assignBit
      000194 C2 92            [12]  726 	clr	_P1_2
                                    727 ;	i2c8051.c:42: SCL=0;//digitalWrite(SCL,LOW);
                                    728 ;	assignBit
      000196 C2 91            [12]  729 	clr	_P1_1
                                    730 ;	i2c8051.c:43: setByte(addr<<1|rw);
      000198 EF               [12]  731 	mov	a,r7
      000199 2F               [12]  732 	add	a,r7
      00019A FF               [12]  733 	mov	r7,a
      00019B E5 09            [12]  734 	mov	a,_i2c_begin_PARM_2
      00019D 4F               [12]  735 	orl	a,r7
      00019E F5 82            [12]  736 	mov	dpl,a
      0001A0 12 01 3F         [24]  737 	lcall	_setByte
                                    738 ;	i2c8051.c:44: SDA=0;//pinMode(SDA, INPUT);
                                    739 ;	assignBit
      0001A3 C2 92            [12]  740 	clr	_P1_2
                                    741 ;	i2c8051.c:45: return readBit(); //ACK
                                    742 ;	i2c8051.c:46: }
      0001A5 02 01 5C         [24]  743 	ljmp	_readBit
                                    744 ;------------------------------------------------------------
                                    745 ;Allocation info for local variables in function 'i2c_write'
                                    746 ;------------------------------------------------------------
                                    747 ;data                      Allocated to registers 
                                    748 ;------------------------------------------------------------
                                    749 ;	i2c8051.c:47: unsigned char i2c_write(unsigned char data){
                                    750 ;	-----------------------------------------
                                    751 ;	 function i2c_write
                                    752 ;	-----------------------------------------
      0001A8                        753 _i2c_write:
                                    754 ;	i2c8051.c:48: setByte(data); //dataframe
      0001A8 12 01 3F         [24]  755 	lcall	_setByte
                                    756 ;	i2c8051.c:49: SDA=0; //pinMode(SDA, INPUT);
                                    757 ;	assignBit
      0001AB C2 92            [12]  758 	clr	_P1_2
                                    759 ;	i2c8051.c:50: return readBit(); //ACK
                                    760 ;	i2c8051.c:51: }
      0001AD 02 01 5C         [24]  761 	ljmp	_readBit
                                    762 ;------------------------------------------------------------
                                    763 ;Allocation info for local variables in function 'i2c_end'
                                    764 ;------------------------------------------------------------
                                    765 ;	i2c8051.c:52: void i2c_end(){
                                    766 ;	-----------------------------------------
                                    767 ;	 function i2c_end
                                    768 ;	-----------------------------------------
      0001B0                        769 _i2c_end:
                                    770 ;	i2c8051.c:53: SCL=1; //digitalWrite(SCL,HIGH);
                                    771 ;	assignBit
      0001B0 D2 91            [12]  772 	setb	_P1_1
                                    773 ;	i2c8051.c:54: SDA=1; //digitalWrite(SDA,HIGH);
                                    774 ;	assignBit
      0001B2 D2 92            [12]  775 	setb	_P1_2
                                    776 ;	i2c8051.c:55: }
      0001B4 22               [24]  777 	ret
                                    778 ;------------------------------------------------------------
                                    779 ;Allocation info for local variables in function 'i2c_send'
                                    780 ;------------------------------------------------------------
                                    781 ;rw                        Allocated with name '_i2c_send_PARM_2'
                                    782 ;data                      Allocated with name '_i2c_send_PARM_3'
                                    783 ;addr                      Allocated to registers 
                                    784 ;------------------------------------------------------------
                                    785 ;	i2c8051.c:56: void i2c_send(unsigned char addr,unsigned char rw,unsigned char data){
                                    786 ;	-----------------------------------------
                                    787 ;	 function i2c_send
                                    788 ;	-----------------------------------------
      0001B5                        789 _i2c_send:
                                    790 ;	i2c8051.c:57: i2c_begin(addr,rw);
      0001B5 85 0A 09         [24]  791 	mov	_i2c_begin_PARM_2,_i2c_send_PARM_2
      0001B8 12 01 8B         [24]  792 	lcall	_i2c_begin
                                    793 ;	i2c8051.c:58: i2c_write(data);
      0001BB 85 0B 82         [24]  794 	mov	dpl,_i2c_send_PARM_3
      0001BE 12 01 A8         [24]  795 	lcall	_i2c_write
                                    796 ;	i2c8051.c:59: i2c_end();
                                    797 ;	i2c8051.c:60: }
      0001C1 02 01 B0         [24]  798 	ljmp	_i2c_end
                                    799 ;------------------------------------------------------------
                                    800 ;Allocation info for local variables in function 'write_byte_LCD'
                                    801 ;------------------------------------------------------------
                                    802 ;data                      Allocated to registers 
                                    803 ;------------------------------------------------------------
                                    804 ;	LCD1602.c:8: void write_byte_LCD(unsigned char data){
                                    805 ;	-----------------------------------------
                                    806 ;	 function write_byte_LCD
                                    807 ;	-----------------------------------------
      0001C4                        808 _write_byte_LCD:
      0001C4 85 82 0B         [24]  809 	mov	_i2c_send_PARM_3,dpl
                                    810 ;	LCD1602.c:9: i2c_send(addr,WRITE,data);
      0001C7 75 0A 00         [24]  811 	mov	_i2c_send_PARM_2,#0x00
      0001CA 85 0C 82         [24]  812 	mov	dpl,_addr
      0001CD 12 01 B5         [24]  813 	lcall	_i2c_send
                                    814 ;	LCD1602.c:10: delay(1);
      0001D0 90 00 01         [24]  815 	mov	dptr,#(0x01&0x00ff)
      0001D3 E4               [12]  816 	clr	a
      0001D4 F5 F0            [12]  817 	mov	b,a
                                    818 ;	LCD1602.c:11: }
      0001D6 02 03 7F         [24]  819 	ljmp	_delay
                                    820 ;------------------------------------------------------------
                                    821 ;Allocation info for local variables in function 'write_nibble_LCD_data'
                                    822 ;------------------------------------------------------------
                                    823 ;nibble                    Allocated to registers r7 
                                    824 ;------------------------------------------------------------
                                    825 ;	LCD1602.c:12: void write_nibble_LCD_data(unsigned char nibble){
                                    826 ;	-----------------------------------------
                                    827 ;	 function write_nibble_LCD_data
                                    828 ;	-----------------------------------------
      0001D9                        829 _write_nibble_LCD_data:
                                    830 ;	LCD1602.c:13: nibble<<=4;
      0001D9 E5 82            [12]  831 	mov	a,dpl
      0001DB C4               [12]  832 	swap	a
      0001DC 54 F0            [12]  833 	anl	a,#0xf0
      0001DE FF               [12]  834 	mov	r7,a
                                    835 ;	LCD1602.c:14: write_byte_LCD(nibble|0b00001101);
      0001DF 7E 00            [12]  836 	mov	r6,#0x00
      0001E1 74 0D            [12]  837 	mov	a,#0x0d
      0001E3 4F               [12]  838 	orl	a,r7
      0001E4 FC               [12]  839 	mov	r4,a
      0001E5 8E 05            [24]  840 	mov	ar5,r6
      0001E7 8C 82            [24]  841 	mov	dpl,r4
      0001E9 C0 07            [24]  842 	push	ar7
      0001EB C0 06            [24]  843 	push	ar6
      0001ED C0 04            [24]  844 	push	ar4
      0001EF 12 01 C4         [24]  845 	lcall	_write_byte_LCD
      0001F2 D0 04            [24]  846 	pop	ar4
      0001F4 D0 06            [24]  847 	pop	ar6
      0001F6 D0 07            [24]  848 	pop	ar7
                                    849 ;	LCD1602.c:15: write_byte_LCD(nibble|0b00001001);
      0001F8 43 07 09         [24]  850 	orl	ar7,#0x09
      0001FB 8F 82            [24]  851 	mov	dpl,r7
      0001FD C0 04            [24]  852 	push	ar4
      0001FF 12 01 C4         [24]  853 	lcall	_write_byte_LCD
      000202 D0 04            [24]  854 	pop	ar4
                                    855 ;	LCD1602.c:16: write_byte_LCD(nibble|0b00001101);
      000204 8C 82            [24]  856 	mov	dpl,r4
                                    857 ;	LCD1602.c:17: }
      000206 02 01 C4         [24]  858 	ljmp	_write_byte_LCD
                                    859 ;------------------------------------------------------------
                                    860 ;Allocation info for local variables in function 'pulse_en_LCD'
                                    861 ;------------------------------------------------------------
                                    862 ;nibble                    Allocated to registers r7 
                                    863 ;------------------------------------------------------------
                                    864 ;	LCD1602.c:18: void pulse_en_LCD(unsigned char nibble){;
                                    865 ;	-----------------------------------------
                                    866 ;	 function pulse_en_LCD
                                    867 ;	-----------------------------------------
      000209                        868 _pulse_en_LCD:
      000209 AF 82            [24]  869 	mov	r7,dpl
                                    870 ;	LCD1602.c:19: write_byte_LCD(nibble|En);
      00020B 8F 05            [24]  871 	mov	ar5,r7
      00020D 43 05 04         [24]  872 	orl	ar5,#0x04
      000210 8D 82            [24]  873 	mov	dpl,r5
      000212 C0 07            [24]  874 	push	ar7
      000214 C0 05            [24]  875 	push	ar5
      000216 12 01 C4         [24]  876 	lcall	_write_byte_LCD
      000219 D0 05            [24]  877 	pop	ar5
      00021B D0 07            [24]  878 	pop	ar7
                                    879 ;	LCD1602.c:20: write_byte_LCD(nibble&~En);
      00021D 74 FB            [12]  880 	mov	a,#0xfb
      00021F 5F               [12]  881 	anl	a,r7
      000220 F5 82            [12]  882 	mov	dpl,a
      000222 C0 05            [24]  883 	push	ar5
      000224 12 01 C4         [24]  884 	lcall	_write_byte_LCD
      000227 D0 05            [24]  885 	pop	ar5
                                    886 ;	LCD1602.c:21: write_byte_LCD(nibble|En);
      000229 8D 82            [24]  887 	mov	dpl,r5
                                    888 ;	LCD1602.c:22: }
      00022B 02 01 C4         [24]  889 	ljmp	_write_byte_LCD
                                    890 ;------------------------------------------------------------
                                    891 ;Allocation info for local variables in function 'write_nibble_LCD_cmd'
                                    892 ;------------------------------------------------------------
                                    893 ;nibble                    Allocated to registers r7 
                                    894 ;------------------------------------------------------------
                                    895 ;	LCD1602.c:23: void write_nibble_LCD_cmd(unsigned char nibble){
                                    896 ;	-----------------------------------------
                                    897 ;	 function write_nibble_LCD_cmd
                                    898 ;	-----------------------------------------
      00022E                        899 _write_nibble_LCD_cmd:
                                    900 ;	LCD1602.c:24: nibble<<=4;
      00022E E5 82            [12]  901 	mov	a,dpl
      000230 C4               [12]  902 	swap	a
      000231 54 F0            [12]  903 	anl	a,#0xf0
      000233 FF               [12]  904 	mov	r7,a
                                    905 ;	LCD1602.c:25: write_byte_LCD(nibble|0b00000100);
      000234 7E 00            [12]  906 	mov	r6,#0x00
      000236 74 04            [12]  907 	mov	a,#0x04
      000238 4F               [12]  908 	orl	a,r7
      000239 FC               [12]  909 	mov	r4,a
      00023A 8E 05            [24]  910 	mov	ar5,r6
      00023C 8C 82            [24]  911 	mov	dpl,r4
      00023E C0 07            [24]  912 	push	ar7
      000240 C0 06            [24]  913 	push	ar6
      000242 C0 04            [24]  914 	push	ar4
      000244 12 01 C4         [24]  915 	lcall	_write_byte_LCD
      000247 D0 04            [24]  916 	pop	ar4
      000249 D0 06            [24]  917 	pop	ar6
      00024B D0 07            [24]  918 	pop	ar7
                                    919 ;	LCD1602.c:26: write_byte_LCD(nibble|0b00000000);
      00024D 8F 82            [24]  920 	mov	dpl,r7
      00024F C0 04            [24]  921 	push	ar4
      000251 12 01 C4         [24]  922 	lcall	_write_byte_LCD
      000254 D0 04            [24]  923 	pop	ar4
                                    924 ;	LCD1602.c:27: write_byte_LCD(nibble|0b00000100);
      000256 8C 82            [24]  925 	mov	dpl,r4
                                    926 ;	LCD1602.c:28: }
      000258 02 01 C4         [24]  927 	ljmp	_write_byte_LCD
                                    928 ;------------------------------------------------------------
                                    929 ;Allocation info for local variables in function 'send_LCD'
                                    930 ;------------------------------------------------------------
                                    931 ;mode                      Allocated with name '_send_LCD_PARM_2'
                                    932 ;data                      Allocated to registers r7 
                                    933 ;highnib                   Allocated to registers r6 
                                    934 ;lownib                    Allocated to registers r7 
                                    935 ;------------------------------------------------------------
                                    936 ;	LCD1602.c:29: void send_LCD(unsigned char data, unsigned char mode) {
                                    937 ;	-----------------------------------------
                                    938 ;	 function send_LCD
                                    939 ;	-----------------------------------------
      00025B                        940 _send_LCD:
      00025B AF 82            [24]  941 	mov	r7,dpl
                                    942 ;	LCD1602.c:36: unsigned char highnib=data&0xF0;
      00025D 74 F0            [12]  943 	mov	a,#0xf0
      00025F 5F               [12]  944 	anl	a,r7
      000260 FE               [12]  945 	mov	r6,a
                                    946 ;	LCD1602.c:37: unsigned char lownib=(data<<4);
      000261 EF               [12]  947 	mov	a,r7
      000262 C4               [12]  948 	swap	a
      000263 54 F0            [12]  949 	anl	a,#0xf0
      000265 FF               [12]  950 	mov	r7,a
                                    951 ;	LCD1602.c:38: pulse_en_LCD(highnib|state|mode);
      000266 E5 0D            [12]  952 	mov	a,_state
      000268 4E               [12]  953 	orl	a,r6
      000269 45 0E            [12]  954 	orl	a,_send_LCD_PARM_2
      00026B F5 82            [12]  955 	mov	dpl,a
      00026D C0 07            [24]  956 	push	ar7
      00026F 12 02 09         [24]  957 	lcall	_pulse_en_LCD
      000272 D0 07            [24]  958 	pop	ar7
                                    959 ;	LCD1602.c:39: pulse_en_LCD(lownib|state|mode);
      000274 E5 0D            [12]  960 	mov	a,_state
      000276 4F               [12]  961 	orl	a,r7
      000277 45 0E            [12]  962 	orl	a,_send_LCD_PARM_2
      000279 F5 82            [12]  963 	mov	dpl,a
                                    964 ;	LCD1602.c:40: }
      00027B 02 02 09         [24]  965 	ljmp	_pulse_en_LCD
                                    966 ;------------------------------------------------------------
                                    967 ;Allocation info for local variables in function 'command_LCD'
                                    968 ;------------------------------------------------------------
                                    969 ;data                      Allocated to registers 
                                    970 ;------------------------------------------------------------
                                    971 ;	LCD1602.c:41: void command_LCD(unsigned char data){
                                    972 ;	-----------------------------------------
                                    973 ;	 function command_LCD
                                    974 ;	-----------------------------------------
      00027E                        975 _command_LCD:
                                    976 ;	LCD1602.c:42: send_LCD(data,LCD_CMD);
      00027E 75 0E 00         [24]  977 	mov	_send_LCD_PARM_2,#0x00
                                    978 ;	LCD1602.c:43: }
      000281 02 02 5B         [24]  979 	ljmp	_send_LCD
                                    980 ;------------------------------------------------------------
                                    981 ;Allocation info for local variables in function 'data_LCD'
                                    982 ;------------------------------------------------------------
                                    983 ;data                      Allocated to registers 
                                    984 ;------------------------------------------------------------
                                    985 ;	LCD1602.c:44: void data_LCD(unsigned char data){
                                    986 ;	-----------------------------------------
                                    987 ;	 function data_LCD
                                    988 ;	-----------------------------------------
      000284                        989 _data_LCD:
                                    990 ;	LCD1602.c:45: send_LCD(data,LCD_DATA);
      000284 75 0E 01         [24]  991 	mov	_send_LCD_PARM_2,#0x01
                                    992 ;	LCD1602.c:46: }
      000287 02 02 5B         [24]  993 	ljmp	_send_LCD
                                    994 ;------------------------------------------------------------
                                    995 ;Allocation info for local variables in function 'write_LCD'
                                    996 ;------------------------------------------------------------
                                    997 ;data                      Allocated to registers r7 
                                    998 ;highnib                   Allocated to registers 
                                    999 ;lownib                    Allocated to registers r7 
                                   1000 ;------------------------------------------------------------
                                   1001 ;	LCD1602.c:47: void write_LCD(unsigned char data){
                                   1002 ;	-----------------------------------------
                                   1003 ;	 function write_LCD
                                   1004 ;	-----------------------------------------
      00028A                       1005 _write_LCD:
                                   1006 ;	LCD1602.c:48: unsigned char highnib=data>>4;
      00028A E5 82            [12] 1007 	mov	a,dpl
      00028C FF               [12] 1008 	mov	r7,a
      00028D C4               [12] 1009 	swap	a
      00028E 54 0F            [12] 1010 	anl	a,#0x0f
      000290 F5 82            [12] 1011 	mov	dpl,a
                                   1012 ;	LCD1602.c:49: unsigned char lownib=(data<<4)>>4;
      000292 E4               [12] 1013 	clr	a
      000293 C4               [12] 1014 	swap	a
      000294 54 F0            [12] 1015 	anl	a,#0xf0
      000296 CF               [12] 1016 	xch	a,r7
      000297 C4               [12] 1017 	swap	a
      000298 CF               [12] 1018 	xch	a,r7
      000299 6F               [12] 1019 	xrl	a,r7
      00029A CF               [12] 1020 	xch	a,r7
      00029B 54 F0            [12] 1021 	anl	a,#0xf0
      00029D CF               [12] 1022 	xch	a,r7
      00029E 6F               [12] 1023 	xrl	a,r7
      00029F C4               [12] 1024 	swap	a
      0002A0 CF               [12] 1025 	xch	a,r7
      0002A1 C4               [12] 1026 	swap	a
      0002A2 54 0F            [12] 1027 	anl	a,#0x0f
      0002A4 6F               [12] 1028 	xrl	a,r7
      0002A5 CF               [12] 1029 	xch	a,r7
      0002A6 54 0F            [12] 1030 	anl	a,#0x0f
      0002A8 CF               [12] 1031 	xch	a,r7
      0002A9 6F               [12] 1032 	xrl	a,r7
      0002AA CF               [12] 1033 	xch	a,r7
      0002AB 30 E3 02         [24] 1034 	jnb	acc.3,00103$
      0002AE 44 F0            [12] 1035 	orl	a,#0xf0
      0002B0                       1036 00103$:
                                   1037 ;	LCD1602.c:50: write_nibble_LCD_data(highnib);
      0002B0 C0 07            [24] 1038 	push	ar7
      0002B2 12 01 D9         [24] 1039 	lcall	_write_nibble_LCD_data
      0002B5 D0 07            [24] 1040 	pop	ar7
                                   1041 ;	LCD1602.c:51: write_nibble_LCD_data(lownib);
      0002B7 8F 82            [24] 1042 	mov	dpl,r7
                                   1043 ;	LCD1602.c:52: }
      0002B9 02 01 D9         [24] 1044 	ljmp	_write_nibble_LCD_data
                                   1045 ;------------------------------------------------------------
                                   1046 ;Allocation info for local variables in function 'init_LCD'
                                   1047 ;------------------------------------------------------------
                                   1048 ;_addr                     Allocated to registers 
                                   1049 ;------------------------------------------------------------
                                   1050 ;	LCD1602.c:60: void init_LCD(unsigned char _addr){
                                   1051 ;	-----------------------------------------
                                   1052 ;	 function init_LCD
                                   1053 ;	-----------------------------------------
      0002BC                       1054 _init_LCD:
      0002BC 85 82 0C         [24] 1055 	mov	_addr,dpl
                                   1056 ;	LCD1602.c:63: state = 0b00001000;
      0002BF 75 0D 08         [24] 1057 	mov	_state,#0x08
                                   1058 ;	LCD1602.c:66: delay(50);
      0002C2 90 00 32         [24] 1059 	mov	dptr,#(0x32&0x00ff)
      0002C5 E4               [12] 1060 	clr	a
      0002C6 F5 F0            [12] 1061 	mov	b,a
      0002C8 12 03 7F         [24] 1062 	lcall	_delay
                                   1063 ;	LCD1602.c:73: command_LCD(0x02); 
      0002CB 75 82 02         [24] 1064 	mov	dpl,#0x02
      0002CE 12 02 7E         [24] 1065 	lcall	_command_LCD
                                   1066 ;	LCD1602.c:74: delay(5); // wait min 4.1ms
      0002D1 90 00 05         [24] 1067 	mov	dptr,#(0x05&0x00ff)
      0002D4 E4               [12] 1068 	clr	a
      0002D5 F5 F0            [12] 1069 	mov	b,a
      0002D7 12 03 7F         [24] 1070 	lcall	_delay
                                   1071 ;	LCD1602.c:75: command_LCD(0x02);
      0002DA 75 82 02         [24] 1072 	mov	dpl,#0x02
      0002DD 12 02 7E         [24] 1073 	lcall	_command_LCD
                                   1074 ;	LCD1602.c:76: delay(5); // wait min 4.1ms
      0002E0 90 00 05         [24] 1075 	mov	dptr,#(0x05&0x00ff)
      0002E3 E4               [12] 1076 	clr	a
      0002E4 F5 F0            [12] 1077 	mov	b,a
      0002E6 12 03 7F         [24] 1078 	lcall	_delay
                                   1079 ;	LCD1602.c:79: command_LCD(0x03);
      0002E9 75 82 03         [24] 1080 	mov	dpl,#0x03
      0002EC 12 02 7E         [24] 1081 	lcall	_command_LCD
                                   1082 ;	LCD1602.c:80: delay(5);
      0002EF 90 00 05         [24] 1083 	mov	dptr,#(0x05&0x00ff)
      0002F2 E4               [12] 1084 	clr	a
      0002F3 F5 F0            [12] 1085 	mov	b,a
      0002F5 12 03 7F         [24] 1086 	lcall	_delay
                                   1087 ;	LCD1602.c:83: command_LCD(0x00);
      0002F8 75 82 00         [24] 1088 	mov	dpl,#0x00
      0002FB 12 02 7E         [24] 1089 	lcall	_command_LCD
                                   1090 ;	LCD1602.c:84: delay(5);
      0002FE 90 00 05         [24] 1091 	mov	dptr,#(0x05&0x00ff)
      000301 E4               [12] 1092 	clr	a
      000302 F5 F0            [12] 1093 	mov	b,a
      000304 12 03 7F         [24] 1094 	lcall	_delay
                                   1095 ;	LCD1602.c:87: command_LCD(0x0E);
      000307 75 82 0E         [24] 1096 	mov	dpl,#0x0e
      00030A 12 02 7E         [24] 1097 	lcall	_command_LCD
                                   1098 ;	LCD1602.c:88: delay(5);
      00030D 90 00 05         [24] 1099 	mov	dptr,#(0x05&0x00ff)
      000310 E4               [12] 1100 	clr	a
      000311 F5 F0            [12] 1101 	mov	b,a
      000313 12 03 7F         [24] 1102 	lcall	_delay
                                   1103 ;	LCD1602.c:91: command_LCD(0x00);
      000316 75 82 00         [24] 1104 	mov	dpl,#0x00
      000319 12 02 7E         [24] 1105 	lcall	_command_LCD
                                   1106 ;	LCD1602.c:92: delay(5);
      00031C 90 00 05         [24] 1107 	mov	dptr,#(0x05&0x00ff)
      00031F E4               [12] 1108 	clr	a
      000320 F5 F0            [12] 1109 	mov	b,a
      000322 12 03 7F         [24] 1110 	lcall	_delay
                                   1111 ;	LCD1602.c:93: command_LCD(0x03);
      000325 75 82 03         [24] 1112 	mov	dpl,#0x03
      000328 12 02 7E         [24] 1113 	lcall	_command_LCD
                                   1114 ;	LCD1602.c:94: delay(5);
      00032B 90 00 05         [24] 1115 	mov	dptr,#(0x05&0x00ff)
      00032E E4               [12] 1116 	clr	a
      00032F F5 F0            [12] 1117 	mov	b,a
      000331 12 03 7F         [24] 1118 	lcall	_delay
                                   1119 ;	LCD1602.c:96: send_LCD('G',1);
      000334 75 0E 01         [24] 1120 	mov	_send_LCD_PARM_2,#0x01
      000337 75 82 47         [24] 1121 	mov	dpl,#0x47
      00033A 12 02 5B         [24] 1122 	lcall	_send_LCD
                                   1123 ;	LCD1602.c:97: write_LCD('O');
      00033D 75 82 4F         [24] 1124 	mov	dpl,#0x4f
      000340 12 02 8A         [24] 1125 	lcall	_write_LCD
                                   1126 ;	LCD1602.c:98: write_LCD('O');
      000343 75 82 4F         [24] 1127 	mov	dpl,#0x4f
      000346 12 02 8A         [24] 1128 	lcall	_write_LCD
                                   1129 ;	LCD1602.c:99: write_LCD('D');
      000349 75 82 44         [24] 1130 	mov	dpl,#0x44
      00034C 12 02 8A         [24] 1131 	lcall	_write_LCD
                                   1132 ;	LCD1602.c:100: write_LCD('B');
      00034F 75 82 42         [24] 1133 	mov	dpl,#0x42
      000352 12 02 8A         [24] 1134 	lcall	_write_LCD
                                   1135 ;	LCD1602.c:101: write_LCD('Y');
      000355 75 82 59         [24] 1136 	mov	dpl,#0x59
      000358 12 02 8A         [24] 1137 	lcall	_write_LCD
                                   1138 ;	LCD1602.c:102: write_LCD('E');
      00035B 75 82 45         [24] 1139 	mov	dpl,#0x45
      00035E 12 02 8A         [24] 1140 	lcall	_write_LCD
                                   1141 ;	LCD1602.c:103: write_LCD(' ');
      000361 75 82 20         [24] 1142 	mov	dpl,#0x20
      000364 12 02 8A         [24] 1143 	lcall	_write_LCD
                                   1144 ;	LCD1602.c:104: write_LCD('B');
      000367 75 82 42         [24] 1145 	mov	dpl,#0x42
      00036A 12 02 8A         [24] 1146 	lcall	_write_LCD
                                   1147 ;	LCD1602.c:105: write_LCD('O');
      00036D 75 82 4F         [24] 1148 	mov	dpl,#0x4f
      000370 12 02 8A         [24] 1149 	lcall	_write_LCD
                                   1150 ;	LCD1602.c:106: write_LCD('B');
      000373 75 82 42         [24] 1151 	mov	dpl,#0x42
      000376 12 02 8A         [24] 1152 	lcall	_write_LCD
                                   1153 ;	LCD1602.c:107: write_LCD('!');
      000379 75 82 21         [24] 1154 	mov	dpl,#0x21
                                   1155 ;	LCD1602.c:126: }
      00037C 02 02 8A         [24] 1156 	ljmp	_write_LCD
                                   1157 ;------------------------------------------------------------
                                   1158 ;Allocation info for local variables in function 'delay'
                                   1159 ;------------------------------------------------------------
                                   1160 ;millis                    Allocated with name '_delay_millis_65536_61'
                                   1161 ;i                         Allocated to registers r2 r3 
                                   1162 ;j                         Allocated to registers r0 r1 
                                   1163 ;------------------------------------------------------------
                                   1164 ;	utils8051.c:2: void delay(unsigned long int millis)
                                   1165 ;	-----------------------------------------
                                   1166 ;	 function delay
                                   1167 ;	-----------------------------------------
      00037F                       1168 _delay:
                                   1169 ;	utils8051.c:5: millis *= 0.998f;
      00037F 12 07 51         [24] 1170 	lcall	___ulong2fs
      000382 AC 82            [24] 1171 	mov	r4,dpl
      000384 AD 83            [24] 1172 	mov	r5,dph
      000386 AE F0            [24] 1173 	mov	r6,b
      000388 FF               [12] 1174 	mov	r7,a
      000389 C0 04            [24] 1175 	push	ar4
      00038B C0 05            [24] 1176 	push	ar5
      00038D C0 06            [24] 1177 	push	ar6
      00038F C0 07            [24] 1178 	push	ar7
      000391 90 7C EE         [24] 1179 	mov	dptr,#0x7cee
      000394 75 F0 7F         [24] 1180 	mov	b,#0x7f
      000397 74 3F            [12] 1181 	mov	a,#0x3f
      000399 12 06 4D         [24] 1182 	lcall	___fsmul
      00039C AC 82            [24] 1183 	mov	r4,dpl
      00039E AD 83            [24] 1184 	mov	r5,dph
      0003A0 AE F0            [24] 1185 	mov	r6,b
      0003A2 FF               [12] 1186 	mov	r7,a
      0003A3 E5 81            [12] 1187 	mov	a,sp
      0003A5 24 FC            [12] 1188 	add	a,#0xfc
      0003A7 F5 81            [12] 1189 	mov	sp,a
      0003A9 8C 82            [24] 1190 	mov	dpl,r4
      0003AB 8D 83            [24] 1191 	mov	dph,r5
      0003AD 8E F0            [24] 1192 	mov	b,r6
      0003AF EF               [12] 1193 	mov	a,r7
      0003B0 12 07 64         [24] 1194 	lcall	___fs2ulong
      0003B3 85 82 0F         [24] 1195 	mov	_delay_millis_65536_61,dpl
      0003B6 85 83 10         [24] 1196 	mov	(_delay_millis_65536_61 + 1),dph
      0003B9 85 F0 11         [24] 1197 	mov	(_delay_millis_65536_61 + 2),b
      0003BC F5 12            [12] 1198 	mov	(_delay_millis_65536_61 + 3),a
                                   1199 ;	utils8051.c:6: for (int i = 0; i < 44; i++)
      0003BE 7A 00            [12] 1200 	mov	r2,#0x00
      0003C0 7B 00            [12] 1201 	mov	r3,#0x00
      0003C2                       1202 00107$:
      0003C2 C3               [12] 1203 	clr	c
      0003C3 EA               [12] 1204 	mov	a,r2
      0003C4 94 2C            [12] 1205 	subb	a,#0x2c
      0003C6 EB               [12] 1206 	mov	a,r3
      0003C7 64 80            [12] 1207 	xrl	a,#0x80
      0003C9 94 80            [12] 1208 	subb	a,#0x80
      0003CB 50 2B            [24] 1209 	jnc	00102$
                                   1210 ;	utils8051.c:8: for (unsigned int j = 0; j < millis; j++)
      0003CD 78 00            [12] 1211 	mov	r0,#0x00
      0003CF 79 00            [12] 1212 	mov	r1,#0x00
      0003D1                       1213 00104$:
      0003D1 88 04            [24] 1214 	mov	ar4,r0
      0003D3 89 05            [24] 1215 	mov	ar5,r1
      0003D5 7E 00            [12] 1216 	mov	r6,#0x00
      0003D7 7F 00            [12] 1217 	mov	r7,#0x00
      0003D9 C3               [12] 1218 	clr	c
      0003DA EC               [12] 1219 	mov	a,r4
      0003DB 95 0F            [12] 1220 	subb	a,_delay_millis_65536_61
      0003DD ED               [12] 1221 	mov	a,r5
      0003DE 95 10            [12] 1222 	subb	a,(_delay_millis_65536_61 + 1)
      0003E0 EE               [12] 1223 	mov	a,r6
      0003E1 95 11            [12] 1224 	subb	a,(_delay_millis_65536_61 + 2)
      0003E3 EF               [12] 1225 	mov	a,r7
      0003E4 95 12            [12] 1226 	subb	a,(_delay_millis_65536_61 + 3)
      0003E6 50 09            [24] 1227 	jnc	00108$
                                   1228 ;	utils8051.c:10: P1_0 = !P1_0;
      0003E8 B2 90            [12] 1229 	cpl	_P1_0
                                   1230 ;	utils8051.c:8: for (unsigned int j = 0; j < millis; j++)
      0003EA 08               [12] 1231 	inc	r0
      0003EB B8 00 E3         [24] 1232 	cjne	r0,#0x00,00104$
      0003EE 09               [12] 1233 	inc	r1
      0003EF 80 E0            [24] 1234 	sjmp	00104$
      0003F1                       1235 00108$:
                                   1236 ;	utils8051.c:6: for (int i = 0; i < 44; i++)
      0003F1 0A               [12] 1237 	inc	r2
      0003F2 BA 00 CD         [24] 1238 	cjne	r2,#0x00,00107$
      0003F5 0B               [12] 1239 	inc	r3
      0003F6 80 CA            [24] 1240 	sjmp	00107$
      0003F8                       1241 00102$:
                                   1242 ;	utils8051.c:13: P1_0 = 1;
                                   1243 ;	assignBit
      0003F8 D2 90            [12] 1244 	setb	_P1_0
                                   1245 ;	utils8051.c:14: }
      0003FA 22               [24] 1246 	ret
                                   1247 ;------------------------------------------------------------
                                   1248 ;Allocation info for local variables in function 'printLCD'
                                   1249 ;------------------------------------------------------------
                                   1250 ;base                      Allocated with name '_printLCD_PARM_2'
                                   1251 ;i                         Allocated with name '_printLCD_i_65536_67'
                                   1252 ;------------------------------------------------------------
                                   1253 ;	stcboot.c:28: void printLCD(unsigned int i,unsigned char base){
                                   1254 ;	-----------------------------------------
                                   1255 ;	 function printLCD
                                   1256 ;	-----------------------------------------
      0003FB                       1257 _printLCD:
      0003FB 85 82 1A         [24] 1258 	mov	_printLCD_i_65536_67,dpl
      0003FE 85 83 1B         [24] 1259 	mov	(_printLCD_i_65536_67 + 1),dph
                                   1260 ;	stcboot.c:30: P0 = numArray[(i/base*base*base)%base];
      000401 AC 19            [24] 1261 	mov	r4,_printLCD_PARM_2
      000403 7D 00            [12] 1262 	mov	r5,#0x00
      000405 8C 26            [24] 1263 	mov	__divuint_PARM_2,r4
      000407 8D 27            [24] 1264 	mov	(__divuint_PARM_2 + 1),r5
      000409 85 1A 82         [24] 1265 	mov	dpl,_printLCD_i_65536_67
      00040C 85 1B 83         [24] 1266 	mov	dph,(_printLCD_i_65536_67 + 1)
      00040F C0 05            [24] 1267 	push	ar5
      000411 C0 04            [24] 1268 	push	ar4
      000413 12 06 24         [24] 1269 	lcall	__divuint
      000416 AA 82            [24] 1270 	mov	r2,dpl
      000418 AB 83            [24] 1271 	mov	r3,dph
      00041A D0 04            [24] 1272 	pop	ar4
      00041C D0 05            [24] 1273 	pop	ar5
      00041E 8C 26            [24] 1274 	mov	__mulint_PARM_2,r4
      000420 8D 27            [24] 1275 	mov	(__mulint_PARM_2 + 1),r5
      000422 8A 82            [24] 1276 	mov	dpl,r2
      000424 8B 83            [24] 1277 	mov	dph,r3
      000426 C0 05            [24] 1278 	push	ar5
      000428 C0 04            [24] 1279 	push	ar4
      00042A C0 03            [24] 1280 	push	ar3
      00042C C0 02            [24] 1281 	push	ar2
      00042E 12 07 B8         [24] 1282 	lcall	__mulint
      000431 A8 82            [24] 1283 	mov	r0,dpl
      000433 A9 83            [24] 1284 	mov	r1,dph
      000435 D0 02            [24] 1285 	pop	ar2
      000437 D0 03            [24] 1286 	pop	ar3
      000439 D0 04            [24] 1287 	pop	ar4
      00043B D0 05            [24] 1288 	pop	ar5
      00043D 8C 26            [24] 1289 	mov	__mulint_PARM_2,r4
      00043F 8D 27            [24] 1290 	mov	(__mulint_PARM_2 + 1),r5
      000441 88 82            [24] 1291 	mov	dpl,r0
      000443 89 83            [24] 1292 	mov	dph,r1
      000445 C0 05            [24] 1293 	push	ar5
      000447 C0 04            [24] 1294 	push	ar4
      000449 C0 03            [24] 1295 	push	ar3
      00044B C0 02            [24] 1296 	push	ar2
      00044D C0 01            [24] 1297 	push	ar1
      00044F C0 00            [24] 1298 	push	ar0
      000451 12 07 B8         [24] 1299 	lcall	__mulint
      000454 D0 00            [24] 1300 	pop	ar0
      000456 D0 01            [24] 1301 	pop	ar1
      000458 D0 02            [24] 1302 	pop	ar2
      00045A D0 03            [24] 1303 	pop	ar3
      00045C D0 04            [24] 1304 	pop	ar4
      00045E D0 05            [24] 1305 	pop	ar5
      000460 8C 26            [24] 1306 	mov	__moduint_PARM_2,r4
      000462 8D 27            [24] 1307 	mov	(__moduint_PARM_2 + 1),r5
      000464 C0 05            [24] 1308 	push	ar5
      000466 C0 04            [24] 1309 	push	ar4
      000468 C0 03            [24] 1310 	push	ar3
      00046A C0 02            [24] 1311 	push	ar2
      00046C C0 01            [24] 1312 	push	ar1
      00046E C0 00            [24] 1313 	push	ar0
      000470 12 07 D5         [24] 1314 	lcall	__moduint
      000473 AE 82            [24] 1315 	mov	r6,dpl
      000475 AF 83            [24] 1316 	mov	r7,dph
      000477 EE               [12] 1317 	mov	a,r6
      000478 24 EE            [12] 1318 	add	a,#_numArray
      00047A F5 82            [12] 1319 	mov	dpl,a
      00047C EF               [12] 1320 	mov	a,r7
      00047D 34 08            [12] 1321 	addc	a,#(_numArray >> 8)
      00047F F5 83            [12] 1322 	mov	dph,a
      000481 E4               [12] 1323 	clr	a
      000482 93               [24] 1324 	movc	a,@a+dptr
      000483 F5 80            [12] 1325 	mov	_P0,a
                                   1326 ;	stcboot.c:31: P2_0 = 0;
                                   1327 ;	assignBit
      000485 C2 A0            [12] 1328 	clr	_P2_0
                                   1329 ;	stcboot.c:32: delay(1);
      000487 90 00 01         [24] 1330 	mov	dptr,#(0x01&0x00ff)
      00048A E4               [12] 1331 	clr	a
      00048B F5 F0            [12] 1332 	mov	b,a
      00048D 12 03 7F         [24] 1333 	lcall	_delay
      000490 D0 00            [24] 1334 	pop	ar0
      000492 D0 01            [24] 1335 	pop	ar1
      000494 D0 02            [24] 1336 	pop	ar2
      000496 D0 03            [24] 1337 	pop	ar3
      000498 D0 04            [24] 1338 	pop	ar4
      00049A D0 05            [24] 1339 	pop	ar5
                                   1340 ;	stcboot.c:33: P2_0 = 1;
                                   1341 ;	assignBit
      00049C D2 A0            [12] 1342 	setb	_P2_0
                                   1343 ;	stcboot.c:35: P0 = numArray[(i/base*base)%base];
      00049E 8C 26            [24] 1344 	mov	__moduint_PARM_2,r4
      0004A0 8D 27            [24] 1345 	mov	(__moduint_PARM_2 + 1),r5
      0004A2 88 82            [24] 1346 	mov	dpl,r0
      0004A4 89 83            [24] 1347 	mov	dph,r1
      0004A6 C0 05            [24] 1348 	push	ar5
      0004A8 C0 04            [24] 1349 	push	ar4
      0004AA C0 03            [24] 1350 	push	ar3
      0004AC C0 02            [24] 1351 	push	ar2
      0004AE 12 07 D5         [24] 1352 	lcall	__moduint
      0004B1 AE 82            [24] 1353 	mov	r6,dpl
      0004B3 AF 83            [24] 1354 	mov	r7,dph
      0004B5 EE               [12] 1355 	mov	a,r6
      0004B6 24 EE            [12] 1356 	add	a,#_numArray
      0004B8 F5 82            [12] 1357 	mov	dpl,a
      0004BA EF               [12] 1358 	mov	a,r7
      0004BB 34 08            [12] 1359 	addc	a,#(_numArray >> 8)
      0004BD F5 83            [12] 1360 	mov	dph,a
      0004BF E4               [12] 1361 	clr	a
      0004C0 93               [24] 1362 	movc	a,@a+dptr
      0004C1 F5 80            [12] 1363 	mov	_P0,a
                                   1364 ;	stcboot.c:36: P2_1 = 0;
                                   1365 ;	assignBit
      0004C3 C2 A1            [12] 1366 	clr	_P2_1
                                   1367 ;	stcboot.c:37: delay(1);
      0004C5 90 00 01         [24] 1368 	mov	dptr,#(0x01&0x00ff)
      0004C8 E4               [12] 1369 	clr	a
      0004C9 F5 F0            [12] 1370 	mov	b,a
      0004CB 12 03 7F         [24] 1371 	lcall	_delay
      0004CE D0 02            [24] 1372 	pop	ar2
      0004D0 D0 03            [24] 1373 	pop	ar3
      0004D2 D0 04            [24] 1374 	pop	ar4
      0004D4 D0 05            [24] 1375 	pop	ar5
                                   1376 ;	stcboot.c:38: P2_1 = 1;
                                   1377 ;	assignBit
      0004D6 D2 A1            [12] 1378 	setb	_P2_1
                                   1379 ;	stcboot.c:40: P0 = numArray[(i/base)%base];
      0004D8 8C 26            [24] 1380 	mov	__moduint_PARM_2,r4
      0004DA 8D 27            [24] 1381 	mov	(__moduint_PARM_2 + 1),r5
      0004DC 8A 82            [24] 1382 	mov	dpl,r2
      0004DE 8B 83            [24] 1383 	mov	dph,r3
      0004E0 C0 05            [24] 1384 	push	ar5
      0004E2 C0 04            [24] 1385 	push	ar4
      0004E4 12 07 D5         [24] 1386 	lcall	__moduint
      0004E7 AE 82            [24] 1387 	mov	r6,dpl
      0004E9 AF 83            [24] 1388 	mov	r7,dph
      0004EB EE               [12] 1389 	mov	a,r6
      0004EC 24 EE            [12] 1390 	add	a,#_numArray
      0004EE F5 82            [12] 1391 	mov	dpl,a
      0004F0 EF               [12] 1392 	mov	a,r7
      0004F1 34 08            [12] 1393 	addc	a,#(_numArray >> 8)
      0004F3 F5 83            [12] 1394 	mov	dph,a
      0004F5 E4               [12] 1395 	clr	a
      0004F6 93               [24] 1396 	movc	a,@a+dptr
      0004F7 F5 80            [12] 1397 	mov	_P0,a
                                   1398 ;	stcboot.c:41: P2_2 = 0;
                                   1399 ;	assignBit
      0004F9 C2 A2            [12] 1400 	clr	_P2_2
                                   1401 ;	stcboot.c:42: delay(1);
      0004FB 90 00 01         [24] 1402 	mov	dptr,#(0x01&0x00ff)
      0004FE E4               [12] 1403 	clr	a
      0004FF F5 F0            [12] 1404 	mov	b,a
      000501 12 03 7F         [24] 1405 	lcall	_delay
      000504 D0 04            [24] 1406 	pop	ar4
      000506 D0 05            [24] 1407 	pop	ar5
                                   1408 ;	stcboot.c:43: P2_2 = 1;
                                   1409 ;	assignBit
      000508 D2 A2            [12] 1410 	setb	_P2_2
                                   1411 ;	stcboot.c:45: P0 = numArray[i%base];
      00050A 8C 26            [24] 1412 	mov	__moduint_PARM_2,r4
      00050C 8D 27            [24] 1413 	mov	(__moduint_PARM_2 + 1),r5
      00050E 85 1A 82         [24] 1414 	mov	dpl,_printLCD_i_65536_67
      000511 85 1B 83         [24] 1415 	mov	dph,(_printLCD_i_65536_67 + 1)
      000514 12 07 D5         [24] 1416 	lcall	__moduint
      000517 AE 82            [24] 1417 	mov	r6,dpl
      000519 AF 83            [24] 1418 	mov	r7,dph
      00051B EE               [12] 1419 	mov	a,r6
      00051C 24 EE            [12] 1420 	add	a,#_numArray
      00051E F5 82            [12] 1421 	mov	dpl,a
      000520 EF               [12] 1422 	mov	a,r7
      000521 34 08            [12] 1423 	addc	a,#(_numArray >> 8)
      000523 F5 83            [12] 1424 	mov	dph,a
      000525 E4               [12] 1425 	clr	a
      000526 93               [24] 1426 	movc	a,@a+dptr
      000527 F5 80            [12] 1427 	mov	_P0,a
                                   1428 ;	stcboot.c:46: P2_3 = 0;
                                   1429 ;	assignBit
      000529 C2 A3            [12] 1430 	clr	_P2_3
                                   1431 ;	stcboot.c:47: delay(1);
      00052B 90 00 01         [24] 1432 	mov	dptr,#(0x01&0x00ff)
      00052E E4               [12] 1433 	clr	a
      00052F F5 F0            [12] 1434 	mov	b,a
      000531 12 03 7F         [24] 1435 	lcall	_delay
                                   1436 ;	stcboot.c:48: P2_3 = 1;
                                   1437 ;	assignBit
      000534 D2 A3            [12] 1438 	setb	_P2_3
                                   1439 ;	stcboot.c:50: }
      000536 22               [24] 1440 	ret
                                   1441 ;------------------------------------------------------------
                                   1442 ;Allocation info for local variables in function 'strobeLCD'
                                   1443 ;------------------------------------------------------------
                                   1444 ;str                       Allocated to registers r5 r6 r7 
                                   1445 ;i                         Allocated with name '_strobeLCD_i_131072_71'
                                   1446 ;sloc0                     Allocated with name '_strobeLCD_sloc0_1_0'
                                   1447 ;sloc1                     Allocated with name '_strobeLCD_sloc1_1_0'
                                   1448 ;------------------------------------------------------------
                                   1449 ;	stcboot.c:51: void strobeLCD(unsigned char * str){
                                   1450 ;	-----------------------------------------
                                   1451 ;	 function strobeLCD
                                   1452 ;	-----------------------------------------
      000537                       1453 _strobeLCD:
      000537 AD 82            [24] 1454 	mov	r5,dpl
      000539 AE 83            [24] 1455 	mov	r6,dph
      00053B AF F0            [24] 1456 	mov	r7,b
                                   1457 ;	stcboot.c:52: for(int i=0;i<10;i++){
      00053D 74 01            [12] 1458 	mov	a,#0x01
      00053F 2D               [12] 1459 	add	a,r5
      000540 FA               [12] 1460 	mov	r2,a
      000541 E4               [12] 1461 	clr	a
      000542 3E               [12] 1462 	addc	a,r6
      000543 FB               [12] 1463 	mov	r3,a
      000544 8F 04            [24] 1464 	mov	ar4,r7
      000546 74 02            [12] 1465 	mov	a,#0x02
      000548 2D               [12] 1466 	add	a,r5
      000549 F5 1E            [12] 1467 	mov	_strobeLCD_sloc0_1_0,a
      00054B E4               [12] 1468 	clr	a
      00054C 3E               [12] 1469 	addc	a,r6
      00054D F5 1F            [12] 1470 	mov	(_strobeLCD_sloc0_1_0 + 1),a
      00054F 8F 20            [24] 1471 	mov	(_strobeLCD_sloc0_1_0 + 2),r7
      000551 74 03            [12] 1472 	mov	a,#0x03
      000553 2D               [12] 1473 	add	a,r5
      000554 F5 21            [12] 1474 	mov	_strobeLCD_sloc1_1_0,a
      000556 E4               [12] 1475 	clr	a
      000557 3E               [12] 1476 	addc	a,r6
      000558 F5 22            [12] 1477 	mov	(_strobeLCD_sloc1_1_0 + 1),a
      00055A 8F 23            [24] 1478 	mov	(_strobeLCD_sloc1_1_0 + 2),r7
      00055C E4               [12] 1479 	clr	a
      00055D F5 1C            [12] 1480 	mov	_strobeLCD_i_131072_71,a
      00055F F5 1D            [12] 1481 	mov	(_strobeLCD_i_131072_71 + 1),a
      000561                       1482 00103$:
      000561 C3               [12] 1483 	clr	c
      000562 E5 1C            [12] 1484 	mov	a,_strobeLCD_i_131072_71
      000564 94 0A            [12] 1485 	subb	a,#0x0a
      000566 E5 1D            [12] 1486 	mov	a,(_strobeLCD_i_131072_71 + 1)
      000568 64 80            [12] 1487 	xrl	a,#0x80
      00056A 94 80            [12] 1488 	subb	a,#0x80
      00056C 40 01            [24] 1489 	jc	00116$
      00056E 22               [24] 1490 	ret
      00056F                       1491 00116$:
                                   1492 ;	stcboot.c:53: P0 = ~str[0];
      00056F 8D 82            [24] 1493 	mov	dpl,r5
      000571 8E 83            [24] 1494 	mov	dph,r6
      000573 8F F0            [24] 1495 	mov	b,r7
      000575 12 08 71         [24] 1496 	lcall	__gptrget
      000578 F4               [12] 1497 	cpl	a
      000579 F5 80            [12] 1498 	mov	_P0,a
                                   1499 ;	stcboot.c:54: P2_0 = 0;
                                   1500 ;	assignBit
      00057B C2 A0            [12] 1501 	clr	_P2_0
                                   1502 ;	stcboot.c:55: delay(1);
      00057D 90 00 01         [24] 1503 	mov	dptr,#(0x01&0x00ff)
      000580 E4               [12] 1504 	clr	a
      000581 F5 F0            [12] 1505 	mov	b,a
      000583 C0 07            [24] 1506 	push	ar7
      000585 C0 06            [24] 1507 	push	ar6
      000587 C0 05            [24] 1508 	push	ar5
      000589 C0 04            [24] 1509 	push	ar4
      00058B C0 03            [24] 1510 	push	ar3
      00058D C0 02            [24] 1511 	push	ar2
      00058F 12 03 7F         [24] 1512 	lcall	_delay
      000592 D0 02            [24] 1513 	pop	ar2
      000594 D0 03            [24] 1514 	pop	ar3
      000596 D0 04            [24] 1515 	pop	ar4
                                   1516 ;	stcboot.c:56: P2_0 = 1;
                                   1517 ;	assignBit
      000598 D2 A0            [12] 1518 	setb	_P2_0
                                   1519 ;	stcboot.c:58: P0 = ~str[1];
      00059A 8A 82            [24] 1520 	mov	dpl,r2
      00059C 8B 83            [24] 1521 	mov	dph,r3
      00059E 8C F0            [24] 1522 	mov	b,r4
      0005A0 12 08 71         [24] 1523 	lcall	__gptrget
      0005A3 F4               [12] 1524 	cpl	a
      0005A4 F5 80            [12] 1525 	mov	_P0,a
                                   1526 ;	stcboot.c:59: P2_1 = 0;
                                   1527 ;	assignBit
      0005A6 C2 A1            [12] 1528 	clr	_P2_1
                                   1529 ;	stcboot.c:60: delay(1);
      0005A8 90 00 01         [24] 1530 	mov	dptr,#(0x01&0x00ff)
      0005AB E4               [12] 1531 	clr	a
      0005AC F5 F0            [12] 1532 	mov	b,a
      0005AE C0 04            [24] 1533 	push	ar4
      0005B0 C0 03            [24] 1534 	push	ar3
      0005B2 C0 02            [24] 1535 	push	ar2
      0005B4 12 03 7F         [24] 1536 	lcall	_delay
                                   1537 ;	stcboot.c:61: P2_1 = 1;
                                   1538 ;	assignBit
      0005B7 D2 A1            [12] 1539 	setb	_P2_1
                                   1540 ;	stcboot.c:63: P0 = ~str[2];
      0005B9 85 1E 82         [24] 1541 	mov	dpl,_strobeLCD_sloc0_1_0
      0005BC 85 1F 83         [24] 1542 	mov	dph,(_strobeLCD_sloc0_1_0 + 1)
      0005BF 85 20 F0         [24] 1543 	mov	b,(_strobeLCD_sloc0_1_0 + 2)
      0005C2 12 08 71         [24] 1544 	lcall	__gptrget
      0005C5 F4               [12] 1545 	cpl	a
      0005C6 F5 80            [12] 1546 	mov	_P0,a
                                   1547 ;	stcboot.c:64: P2_2 = 0;
                                   1548 ;	assignBit
      0005C8 C2 A2            [12] 1549 	clr	_P2_2
                                   1550 ;	stcboot.c:65: delay(1);
      0005CA 90 00 01         [24] 1551 	mov	dptr,#(0x01&0x00ff)
      0005CD E4               [12] 1552 	clr	a
      0005CE F5 F0            [12] 1553 	mov	b,a
      0005D0 12 03 7F         [24] 1554 	lcall	_delay
                                   1555 ;	stcboot.c:66: P2_2 = 1;
                                   1556 ;	assignBit
      0005D3 D2 A2            [12] 1557 	setb	_P2_2
                                   1558 ;	stcboot.c:68: P0 = ~str[3];
      0005D5 85 21 82         [24] 1559 	mov	dpl,_strobeLCD_sloc1_1_0
      0005D8 85 22 83         [24] 1560 	mov	dph,(_strobeLCD_sloc1_1_0 + 1)
      0005DB 85 23 F0         [24] 1561 	mov	b,(_strobeLCD_sloc1_1_0 + 2)
      0005DE 12 08 71         [24] 1562 	lcall	__gptrget
      0005E1 F4               [12] 1563 	cpl	a
      0005E2 F5 80            [12] 1564 	mov	_P0,a
                                   1565 ;	stcboot.c:69: P2_3 = 0;
                                   1566 ;	assignBit
      0005E4 C2 A3            [12] 1567 	clr	_P2_3
                                   1568 ;	stcboot.c:70: delay(1);
      0005E6 90 00 01         [24] 1569 	mov	dptr,#(0x01&0x00ff)
      0005E9 E4               [12] 1570 	clr	a
      0005EA F5 F0            [12] 1571 	mov	b,a
      0005EC 12 03 7F         [24] 1572 	lcall	_delay
      0005EF D0 02            [24] 1573 	pop	ar2
      0005F1 D0 03            [24] 1574 	pop	ar3
      0005F3 D0 04            [24] 1575 	pop	ar4
      0005F5 D0 05            [24] 1576 	pop	ar5
      0005F7 D0 06            [24] 1577 	pop	ar6
      0005F9 D0 07            [24] 1578 	pop	ar7
                                   1579 ;	stcboot.c:71: P2_3 = 1;
                                   1580 ;	assignBit
      0005FB D2 A3            [12] 1581 	setb	_P2_3
                                   1582 ;	stcboot.c:52: for(int i=0;i<10;i++){
      0005FD 05 1C            [12] 1583 	inc	_strobeLCD_i_131072_71
      0005FF E4               [12] 1584 	clr	a
      000600 B5 1C 02         [24] 1585 	cjne	a,_strobeLCD_i_131072_71,00117$
      000603 05 1D            [12] 1586 	inc	(_strobeLCD_i_131072_71 + 1)
      000605                       1587 00117$:
                                   1588 ;	stcboot.c:73: }
      000605 02 05 61         [24] 1589 	ljmp	00103$
                                   1590 ;------------------------------------------------------------
                                   1591 ;Allocation info for local variables in function 'setup'
                                   1592 ;------------------------------------------------------------
                                   1593 ;	stcboot.c:74: void setup(){
                                   1594 ;	-----------------------------------------
                                   1595 ;	 function setup
                                   1596 ;	-----------------------------------------
      000608                       1597 _setup:
                                   1598 ;	stcboot.c:82: init_LCD(0x27);
      000608 75 82 27         [24] 1599 	mov	dpl,#0x27
                                   1600 ;	stcboot.c:88: }
      00060B 02 02 BC         [24] 1601 	ljmp	_init_LCD
                                   1602 ;------------------------------------------------------------
                                   1603 ;Allocation info for local variables in function 'loop'
                                   1604 ;------------------------------------------------------------
                                   1605 ;	stcboot.c:90: void loop(){
                                   1606 ;	-----------------------------------------
                                   1607 ;	 function loop
                                   1608 ;	-----------------------------------------
      00060E                       1609 _loop:
                                   1610 ;	stcboot.c:95: if(P1_7)
                                   1611 ;	stcboot.c:96: P1_7=0;
                                   1612 ;	assignBit
      00060E 10 97 02         [24] 1613 	jbc	_P1_7,00103$
                                   1614 ;	stcboot.c:98: P1_7=1;
                                   1615 ;	assignBit
      000611 D2 97            [12] 1616 	setb	_P1_7
      000613                       1617 00103$:
                                   1618 ;	stcboot.c:100: delay(500);
      000613 90 01 F4         [24] 1619 	mov	dptr,#0x01f4
      000616 E4               [12] 1620 	clr	a
      000617 F5 F0            [12] 1621 	mov	b,a
                                   1622 ;	stcboot.c:101: }
      000619 02 03 7F         [24] 1623 	ljmp	_delay
                                   1624 ;------------------------------------------------------------
                                   1625 ;Allocation info for local variables in function 'main'
                                   1626 ;------------------------------------------------------------
                                   1627 ;	stcboot.c:102: void main(void){
                                   1628 ;	-----------------------------------------
                                   1629 ;	 function main
                                   1630 ;	-----------------------------------------
      00061C                       1631 _main:
                                   1632 ;	stcboot.c:103: setup();
      00061C 12 06 08         [24] 1633 	lcall	_setup
                                   1634 ;	stcboot.c:104: while (1) {
      00061F                       1635 00102$:
                                   1636 ;	stcboot.c:105: loop();
      00061F 12 06 0E         [24] 1637 	lcall	_loop
                                   1638 ;	stcboot.c:107: }
      000622 80 FB            [24] 1639 	sjmp	00102$
                                   1640 	.area CSEG    (CODE)
                                   1641 	.area CONST   (CODE)
      0008D4                       1642 _alphaArray:
      0008D4 88                    1643 	.db #0x88	; 136
      0008D5 83                    1644 	.db #0x83	; 131
      0008D6 C6                    1645 	.db #0xc6	; 198
      0008D7 A1                    1646 	.db #0xa1	; 161
      0008D8 86                    1647 	.db #0x86	; 134
      0008D9 8E                    1648 	.db #0x8e	; 142
      0008DA C2                    1649 	.db #0xc2	; 194
      0008DB 8B                    1650 	.db #0x8b	; 139
      0008DC CF                    1651 	.db #0xcf	; 207
      0008DD E1                    1652 	.db #0xe1	; 225
      0008DE 8A                    1653 	.db #0x8a	; 138
      0008DF C7                    1654 	.db #0xc7	; 199
      0008E0 EA                    1655 	.db #0xea	; 234
      0008E1 CB                    1656 	.db #0xcb	; 203
      0008E2 A3                    1657 	.db #0xa3	; 163
      0008E3 8C                    1658 	.db #0x8c	; 140
      0008E4 98                    1659 	.db #0x98	; 152
      0008E5 CC                    1660 	.db #0xcc	; 204
      0008E6 92                    1661 	.db #0x92	; 146
      0008E7 87                    1662 	.db #0x87	; 135
      0008E8 C1                    1663 	.db #0xc1	; 193
      0008E9 C5                    1664 	.db #0xc5	; 197
      0008EA D5                    1665 	.db #0xd5	; 213
      0008EB 89                    1666 	.db #0x89	; 137
      0008EC 91                    1667 	.db #0x91	; 145
      0008ED B4                    1668 	.db #0xb4	; 180
      0008EE                       1669 _numArray:
      0008EE C0                    1670 	.db #0xc0	; 192
      0008EF F9                    1671 	.db #0xf9	; 249
      0008F0 A4                    1672 	.db #0xa4	; 164
      0008F1 B0                    1673 	.db #0xb0	; 176
      0008F2 99                    1674 	.db #0x99	; 153
      0008F3 92                    1675 	.db #0x92	; 146
      0008F4 82                    1676 	.db #0x82	; 130
      0008F5 F8                    1677 	.db #0xf8	; 248
      0008F6 80                    1678 	.db #0x80	; 128
      0008F7 90                    1679 	.db #0x90	; 144
      0008F8 88                    1680 	.db #0x88	; 136
      0008F9 83                    1681 	.db #0x83	; 131
      0008FA C6                    1682 	.db #0xc6	; 198
      0008FB A1                    1683 	.db #0xa1	; 161
      0008FC 86                    1684 	.db #0x86	; 134
      0008FD 8E                    1685 	.db #0x8e	; 142
                                   1686 	.area XINIT   (CODE)
                                   1687 	.area CABS    (ABS,CODE)
