:03000000020006F5
:03005F0002000399
:0300030002006296
:200062007F007D007E00C3ED9464EE64809480501D7B007C00C3EB9464EC64809480500731
:190082000BBB00F10C80EE0DBD00DB0E80D88F0674FFC39EF5900F80C9E3
:06003500E4787FF6D8FD1F
:200013007900E94400601B7A0090009F780075A0E0E493F2A308B8000205A0D9F4DAF27515
:02003300A0FF2C
:20003B007800E84400600A790075A0E0E4F309D8FC7800E84400600C790090E000E4F0A305
:04005B00D8FCD9FAFA
:0D00060075810712009BE582600302000374
:04009B007582002248
:00000001FF
