                                      1 ;--------------------------------------------------------
                                      2 ; File Created by SDCC : free open source ANSI-C Compiler
                                      3 ; Version 3.8.0 #10562 (Linux)
                                      4 ;--------------------------------------------------------
                                      5 	.module stcboot
                                      6 	.optsdcc -mmcs51 --model-small
                                      7 	
                                      8 ;--------------------------------------------------------
                                      9 ; Public variables in this module
                                     10 ;--------------------------------------------------------
                                     11 	.globl _getStr_PARM_2
                                     12 	.globl _numArray
                                     13 	.globl _alphaArray
                                     14 	.globl _main
                                     15 	.globl _loop
                                     16 	.globl _setup
                                     17 	.globl _strobeLCD
                                     18 	.globl _printLCD
                                     19 	.globl _delay
                                     20 	.globl _getStr
                                     21 	.globl _getChar
                                     22 	.globl _CY
                                     23 	.globl _AC
                                     24 	.globl _F0
                                     25 	.globl _RS1
                                     26 	.globl _RS0
                                     27 	.globl _OV
                                     28 	.globl _F1
                                     29 	.globl _P
                                     30 	.globl _PS
                                     31 	.globl _PT1
                                     32 	.globl _PX1
                                     33 	.globl _PT0
                                     34 	.globl _PX0
                                     35 	.globl _RD
                                     36 	.globl _WR
                                     37 	.globl _T1
                                     38 	.globl _T0
                                     39 	.globl _INT1
                                     40 	.globl _INT0
                                     41 	.globl _TXD
                                     42 	.globl _RXD
                                     43 	.globl _P3_7
                                     44 	.globl _P3_6
                                     45 	.globl _P3_5
                                     46 	.globl _P3_4
                                     47 	.globl _P3_3
                                     48 	.globl _P3_2
                                     49 	.globl _P3_1
                                     50 	.globl _P3_0
                                     51 	.globl _EA
                                     52 	.globl _ES
                                     53 	.globl _ET1
                                     54 	.globl _EX1
                                     55 	.globl _ET0
                                     56 	.globl _EX0
                                     57 	.globl _P2_7
                                     58 	.globl _P2_6
                                     59 	.globl _P2_5
                                     60 	.globl _P2_4
                                     61 	.globl _P2_3
                                     62 	.globl _P2_2
                                     63 	.globl _P2_1
                                     64 	.globl _P2_0
                                     65 	.globl _SM0
                                     66 	.globl _SM1
                                     67 	.globl _SM2
                                     68 	.globl _REN
                                     69 	.globl _TB8
                                     70 	.globl _RB8
                                     71 	.globl _TI
                                     72 	.globl _RI
                                     73 	.globl _P1_7
                                     74 	.globl _P1_6
                                     75 	.globl _P1_5
                                     76 	.globl _P1_4
                                     77 	.globl _P1_3
                                     78 	.globl _P1_2
                                     79 	.globl _P1_1
                                     80 	.globl _P1_0
                                     81 	.globl _TF1
                                     82 	.globl _TR1
                                     83 	.globl _TF0
                                     84 	.globl _TR0
                                     85 	.globl _IE1
                                     86 	.globl _IT1
                                     87 	.globl _IE0
                                     88 	.globl _IT0
                                     89 	.globl _P0_7
                                     90 	.globl _P0_6
                                     91 	.globl _P0_5
                                     92 	.globl _P0_4
                                     93 	.globl _P0_3
                                     94 	.globl _P0_2
                                     95 	.globl _P0_1
                                     96 	.globl _P0_0
                                     97 	.globl _B
                                     98 	.globl _ACC
                                     99 	.globl _PSW
                                    100 	.globl _IP
                                    101 	.globl _P3
                                    102 	.globl _IE
                                    103 	.globl _P2
                                    104 	.globl _SBUF
                                    105 	.globl _SCON
                                    106 	.globl _P1
                                    107 	.globl _TH1
                                    108 	.globl _TH0
                                    109 	.globl _TL1
                                    110 	.globl _TL0
                                    111 	.globl _TMOD
                                    112 	.globl _TCON
                                    113 	.globl _PCON
                                    114 	.globl _DPH
                                    115 	.globl _DPL
                                    116 	.globl _SP
                                    117 	.globl _P0
                                    118 	.globl _fr
                                    119 	.globl _printLCD_PARM_2
                                    120 	.globl _msg
                                    121 	.globl _frame
                                    122 	.globl _i2c_begin_PARM_2
                                    123 	.globl _i
                                    124 	.globl _init_i2c
                                    125 	.globl _setBit
                                    126 	.globl _setByte
                                    127 	.globl _readBit
                                    128 	.globl _readByte
                                    129 	.globl _i2c_begin
                                    130 	.globl _i2c_write
                                    131 	.globl _i2c_end
                                    132 ;--------------------------------------------------------
                                    133 ; special function registers
                                    134 ;--------------------------------------------------------
                                    135 	.area RSEG    (ABS,DATA)
      000000                        136 	.org 0x0000
                           000080   137 _P0	=	0x0080
                           000081   138 _SP	=	0x0081
                           000082   139 _DPL	=	0x0082
                           000083   140 _DPH	=	0x0083
                           000087   141 _PCON	=	0x0087
                           000088   142 _TCON	=	0x0088
                           000089   143 _TMOD	=	0x0089
                           00008A   144 _TL0	=	0x008a
                           00008B   145 _TL1	=	0x008b
                           00008C   146 _TH0	=	0x008c
                           00008D   147 _TH1	=	0x008d
                           000090   148 _P1	=	0x0090
                           000098   149 _SCON	=	0x0098
                           000099   150 _SBUF	=	0x0099
                           0000A0   151 _P2	=	0x00a0
                           0000A8   152 _IE	=	0x00a8
                           0000B0   153 _P3	=	0x00b0
                           0000B8   154 _IP	=	0x00b8
                           0000D0   155 _PSW	=	0x00d0
                           0000E0   156 _ACC	=	0x00e0
                           0000F0   157 _B	=	0x00f0
                                    158 ;--------------------------------------------------------
                                    159 ; special function bits
                                    160 ;--------------------------------------------------------
                                    161 	.area RSEG    (ABS,DATA)
      000000                        162 	.org 0x0000
                           000080   163 _P0_0	=	0x0080
                           000081   164 _P0_1	=	0x0081
                           000082   165 _P0_2	=	0x0082
                           000083   166 _P0_3	=	0x0083
                           000084   167 _P0_4	=	0x0084
                           000085   168 _P0_5	=	0x0085
                           000086   169 _P0_6	=	0x0086
                           000087   170 _P0_7	=	0x0087
                           000088   171 _IT0	=	0x0088
                           000089   172 _IE0	=	0x0089
                           00008A   173 _IT1	=	0x008a
                           00008B   174 _IE1	=	0x008b
                           00008C   175 _TR0	=	0x008c
                           00008D   176 _TF0	=	0x008d
                           00008E   177 _TR1	=	0x008e
                           00008F   178 _TF1	=	0x008f
                           000090   179 _P1_0	=	0x0090
                           000091   180 _P1_1	=	0x0091
                           000092   181 _P1_2	=	0x0092
                           000093   182 _P1_3	=	0x0093
                           000094   183 _P1_4	=	0x0094
                           000095   184 _P1_5	=	0x0095
                           000096   185 _P1_6	=	0x0096
                           000097   186 _P1_7	=	0x0097
                           000098   187 _RI	=	0x0098
                           000099   188 _TI	=	0x0099
                           00009A   189 _RB8	=	0x009a
                           00009B   190 _TB8	=	0x009b
                           00009C   191 _REN	=	0x009c
                           00009D   192 _SM2	=	0x009d
                           00009E   193 _SM1	=	0x009e
                           00009F   194 _SM0	=	0x009f
                           0000A0   195 _P2_0	=	0x00a0
                           0000A1   196 _P2_1	=	0x00a1
                           0000A2   197 _P2_2	=	0x00a2
                           0000A3   198 _P2_3	=	0x00a3
                           0000A4   199 _P2_4	=	0x00a4
                           0000A5   200 _P2_5	=	0x00a5
                           0000A6   201 _P2_6	=	0x00a6
                           0000A7   202 _P2_7	=	0x00a7
                           0000A8   203 _EX0	=	0x00a8
                           0000A9   204 _ET0	=	0x00a9
                           0000AA   205 _EX1	=	0x00aa
                           0000AB   206 _ET1	=	0x00ab
                           0000AC   207 _ES	=	0x00ac
                           0000AF   208 _EA	=	0x00af
                           0000B0   209 _P3_0	=	0x00b0
                           0000B1   210 _P3_1	=	0x00b1
                           0000B2   211 _P3_2	=	0x00b2
                           0000B3   212 _P3_3	=	0x00b3
                           0000B4   213 _P3_4	=	0x00b4
                           0000B5   214 _P3_5	=	0x00b5
                           0000B6   215 _P3_6	=	0x00b6
                           0000B7   216 _P3_7	=	0x00b7
                           0000B0   217 _RXD	=	0x00b0
                           0000B1   218 _TXD	=	0x00b1
                           0000B2   219 _INT0	=	0x00b2
                           0000B3   220 _INT1	=	0x00b3
                           0000B4   221 _T0	=	0x00b4
                           0000B5   222 _T1	=	0x00b5
                           0000B6   223 _WR	=	0x00b6
                           0000B7   224 _RD	=	0x00b7
                           0000B8   225 _PX0	=	0x00b8
                           0000B9   226 _PT0	=	0x00b9
                           0000BA   227 _PX1	=	0x00ba
                           0000BB   228 _PT1	=	0x00bb
                           0000BC   229 _PS	=	0x00bc
                           0000D0   230 _P	=	0x00d0
                           0000D1   231 _F1	=	0x00d1
                           0000D2   232 _OV	=	0x00d2
                           0000D3   233 _RS0	=	0x00d3
                           0000D4   234 _RS1	=	0x00d4
                           0000D5   235 _F0	=	0x00d5
                           0000D6   236 _AC	=	0x00d6
                           0000D7   237 _CY	=	0x00d7
                                    238 ;--------------------------------------------------------
                                    239 ; overlayable register banks
                                    240 ;--------------------------------------------------------
                                    241 	.area REG_BANK_0	(REL,OVR,DATA)
      000000                        242 	.ds 8
                                    243 ;--------------------------------------------------------
                                    244 ; internal ram data
                                    245 ;--------------------------------------------------------
                                    246 	.area DSEG    (DATA)
      000000                        247 _i::
      000000                        248 	.ds 1
      000001                        249 _i2c_begin_PARM_2:
      000001                        250 	.ds 1
      000002                        251 _frame::
      000002                        252 	.ds 2
      000004                        253 _msg::
      000004                        254 	.ds 4
      000008                        255 _delay_millis_65536_27:
      000008                        256 	.ds 4
      00000C                        257 _printLCD_PARM_2:
      00000C                        258 	.ds 1
      00000D                        259 _printLCD_i_65536_33:
      00000D                        260 	.ds 2
      00000F                        261 _strobeLCD_i_131072_37:
      00000F                        262 	.ds 2
      000011                        263 _strobeLCD_sloc0_1_0:
      000011                        264 	.ds 3
      000014                        265 _strobeLCD_sloc1_1_0:
      000014                        266 	.ds 3
      000017                        267 _fr::
      000017                        268 	.ds 2
                                    269 ;--------------------------------------------------------
                                    270 ; overlayable items in internal ram 
                                    271 ;--------------------------------------------------------
                                    272 	.area	OSEG    (OVR,DATA)
                                    273 	.area	OSEG    (OVR,DATA)
      000000                        274 _getStr_PARM_2:
      000000                        275 	.ds 3
                                    276 	.area	OSEG    (OVR,DATA)
                                    277 	.area	OSEG    (OVR,DATA)
                                    278 ;--------------------------------------------------------
                                    279 ; Stack segment in internal ram 
                                    280 ;--------------------------------------------------------
                                    281 	.area	SSEG
      000000                        282 __start__stack:
      000000                        283 	.ds	1
                                    284 
                                    285 ;--------------------------------------------------------
                                    286 ; indirectly addressable internal ram data
                                    287 ;--------------------------------------------------------
                                    288 	.area ISEG    (DATA)
                                    289 ;--------------------------------------------------------
                                    290 ; absolute internal ram data
                                    291 ;--------------------------------------------------------
                                    292 	.area IABS    (ABS,DATA)
                                    293 	.area IABS    (ABS,DATA)
                                    294 ;--------------------------------------------------------
                                    295 ; bit data
                                    296 ;--------------------------------------------------------
                                    297 	.area BSEG    (BIT)
                                    298 ;--------------------------------------------------------
                                    299 ; paged external ram data
                                    300 ;--------------------------------------------------------
                                    301 	.area PSEG    (PAG,XDATA)
                                    302 ;--------------------------------------------------------
                                    303 ; external ram data
                                    304 ;--------------------------------------------------------
                                    305 	.area XSEG    (XDATA)
                                    306 ;--------------------------------------------------------
                                    307 ; absolute external ram data
                                    308 ;--------------------------------------------------------
                                    309 	.area XABS    (ABS,XDATA)
                                    310 ;--------------------------------------------------------
                                    311 ; external initialized ram data
                                    312 ;--------------------------------------------------------
                                    313 	.area XISEG   (XDATA)
                                    314 	.area HOME    (CODE)
                                    315 	.area GSINIT0 (CODE)
                                    316 	.area GSINIT1 (CODE)
                                    317 	.area GSINIT2 (CODE)
                                    318 	.area GSINIT3 (CODE)
                                    319 	.area GSINIT4 (CODE)
                                    320 	.area GSINIT5 (CODE)
                                    321 	.area GSINIT  (CODE)
                                    322 	.area GSFINAL (CODE)
                                    323 	.area CSEG    (CODE)
                                    324 ;--------------------------------------------------------
                                    325 ; interrupt vector 
                                    326 ;--------------------------------------------------------
                                    327 	.area HOME    (CODE)
      000000                        328 __interrupt_vect:
      000000 02r00r00         [24]  329 	ljmp	__sdcc_gsinit_startup
                                    330 ;--------------------------------------------------------
                                    331 ; global & static initialisations
                                    332 ;--------------------------------------------------------
                                    333 	.area HOME    (CODE)
                                    334 	.area GSINIT  (CODE)
                                    335 	.area GSFINAL (CODE)
                                    336 	.area GSINIT  (CODE)
                                    337 	.globl __sdcc_gsinit_startup
                                    338 	.globl __sdcc_program_startup
                                    339 	.globl __start__stack
                                    340 	.globl __mcs51_genXINIT
                                    341 	.globl __mcs51_genXRAMCLEAR
                                    342 	.globl __mcs51_genRAMCLEAR
                                    343 ;	PCF8574.c:7: unsigned char i=0;
      000000 75*00 00         [24]  344 	mov	_i,#0x00
                                    345 ;	stcboot.c:18: unsigned int frame=0;
      000003 E4               [12]  346 	clr	a
      000004 F5*02            [12]  347 	mov	_frame,a
      000006 F5*03            [12]  348 	mov	(_frame + 1),a
                                    349 ;	stcboot.c:91: unsigned int fr=0;
      000008 F5*17            [12]  350 	mov	_fr,a
      00000A F5*18            [12]  351 	mov	(_fr + 1),a
                                    352 	.area GSFINAL (CODE)
      000000 02r00r03         [24]  353 	ljmp	__sdcc_program_startup
                                    354 ;--------------------------------------------------------
                                    355 ; Home
                                    356 ;--------------------------------------------------------
                                    357 	.area HOME    (CODE)
                                    358 	.area HOME    (CODE)
      000003                        359 __sdcc_program_startup:
      000003 02r03rDE         [24]  360 	ljmp	_main
                                    361 ;	return from main will return to caller
                                    362 ;--------------------------------------------------------
                                    363 ; code
                                    364 ;--------------------------------------------------------
                                    365 	.area CSEG    (CODE)
                                    366 ;------------------------------------------------------------
                                    367 ;Allocation info for local variables in function 'getChar'
                                    368 ;------------------------------------------------------------
                                    369 ;c                         Allocated to registers r7 
                                    370 ;------------------------------------------------------------
                                    371 ;	anodeDisplay.h:84: unsigned char getChar(char c){
                                    372 ;	-----------------------------------------
                                    373 ;	 function getChar
                                    374 ;	-----------------------------------------
      000000                        375 _getChar:
                           000007   376 	ar7 = 0x07
                           000006   377 	ar6 = 0x06
                           000005   378 	ar5 = 0x05
                           000004   379 	ar4 = 0x04
                           000003   380 	ar3 = 0x03
                           000002   381 	ar2 = 0x02
                           000001   382 	ar1 = 0x01
                           000000   383 	ar0 = 0x00
      000000 AF 82            [24]  384 	mov	r7,dpl
                                    385 ;	anodeDisplay.h:85: if(c>=48&&c<=57)
      000002 BF 30 00         [24]  386 	cjne	r7,#0x30,00138$
      000005                        387 00138$:
      000005 40 1E            [24]  388 	jc	00109$
      000007 EF               [12]  389 	mov	a,r7
      000008 24 C6            [12]  390 	add	a,#0xff - 0x39
      00000A 40 19            [24]  391 	jc	00109$
                                    392 ;	anodeDisplay.h:86: return numArray[c-48];
      00000C 8F 06            [24]  393 	mov	ar6,r7
      00000E EE               [12]  394 	mov	a,r6
      00000F 24 D0            [12]  395 	add	a,#0xd0
      000011 FE               [12]  396 	mov	r6,a
      000012 33               [12]  397 	rlc	a
      000013 95 E0            [12]  398 	subb	a,acc
      000015 FD               [12]  399 	mov	r5,a
      000016 EE               [12]  400 	mov	a,r6
      000017 24r1A            [12]  401 	add	a,#_numArray
      000019 F5 82            [12]  402 	mov	dpl,a
      00001B ED               [12]  403 	mov	a,r5
      00001C 34s00            [12]  404 	addc	a,#(_numArray >> 8)
      00001E F5 83            [12]  405 	mov	dph,a
      000020 E4               [12]  406 	clr	a
      000021 93               [24]  407 	movc	a,@a+dptr
      000022 F5 82            [12]  408 	mov	dpl,a
      000024 22               [24]  409 	ret
      000025                        410 00109$:
                                    411 ;	anodeDisplay.h:87: else if(c>=65&&c<=90)
      000025 BF 41 00         [24]  412 	cjne	r7,#0x41,00141$
      000028                        413 00141$:
      000028 40 1E            [24]  414 	jc	00105$
      00002A EF               [12]  415 	mov	a,r7
      00002B 24 A5            [12]  416 	add	a,#0xff - 0x5a
      00002D 40 19            [24]  417 	jc	00105$
                                    418 ;	anodeDisplay.h:88: return alphaArray[c-65];
      00002F 8F 06            [24]  419 	mov	ar6,r7
      000031 EE               [12]  420 	mov	a,r6
      000032 24 BF            [12]  421 	add	a,#0xbf
      000034 FE               [12]  422 	mov	r6,a
      000035 33               [12]  423 	rlc	a
      000036 95 E0            [12]  424 	subb	a,acc
      000038 FD               [12]  425 	mov	r5,a
      000039 EE               [12]  426 	mov	a,r6
      00003A 24r00            [12]  427 	add	a,#_alphaArray
      00003C F5 82            [12]  428 	mov	dpl,a
      00003E ED               [12]  429 	mov	a,r5
      00003F 34s00            [12]  430 	addc	a,#(_alphaArray >> 8)
      000041 F5 83            [12]  431 	mov	dph,a
      000043 E4               [12]  432 	clr	a
      000044 93               [24]  433 	movc	a,@a+dptr
      000045 F5 82            [12]  434 	mov	dpl,a
      000047 22               [24]  435 	ret
      000048                        436 00105$:
                                    437 ;	anodeDisplay.h:89: else if(c>=97&&c<=122)
      000048 BF 61 00         [24]  438 	cjne	r7,#0x61,00144$
      00004B                        439 00144$:
      00004B 40 1C            [24]  440 	jc	00110$
      00004D EF               [12]  441 	mov	a,r7
      00004E 24 85            [12]  442 	add	a,#0xff - 0x7a
      000050 40 17            [24]  443 	jc	00110$
                                    444 ;	anodeDisplay.h:90: return alphaArray[c-97];
      000052 EF               [12]  445 	mov	a,r7
      000053 24 9F            [12]  446 	add	a,#0x9f
      000055 FF               [12]  447 	mov	r7,a
      000056 33               [12]  448 	rlc	a
      000057 95 E0            [12]  449 	subb	a,acc
      000059 FE               [12]  450 	mov	r6,a
      00005A EF               [12]  451 	mov	a,r7
      00005B 24r00            [12]  452 	add	a,#_alphaArray
      00005D F5 82            [12]  453 	mov	dpl,a
      00005F EE               [12]  454 	mov	a,r6
      000060 34s00            [12]  455 	addc	a,#(_alphaArray >> 8)
      000062 F5 83            [12]  456 	mov	dph,a
      000064 E4               [12]  457 	clr	a
      000065 93               [24]  458 	movc	a,@a+dptr
      000066 F5 82            [12]  459 	mov	dpl,a
      000068 22               [24]  460 	ret
      000069                        461 00110$:
                                    462 ;	anodeDisplay.h:91: return 0;
      000069 75 82 00         [24]  463 	mov	dpl,#0x00
                                    464 ;	anodeDisplay.h:92: }
      00006C 22               [24]  465 	ret
                                    466 ;------------------------------------------------------------
                                    467 ;Allocation info for local variables in function 'getStr'
                                    468 ;------------------------------------------------------------
                                    469 ;str                       Allocated with name '_getStr_PARM_2'
                                    470 ;out                       Allocated to registers r5 r6 r7 
                                    471 ;i                         Allocated to registers r4 
                                    472 ;------------------------------------------------------------
                                    473 ;	anodeDisplay.h:93: void getStr(unsigned char* out, const char* str){
                                    474 ;	-----------------------------------------
                                    475 ;	 function getStr
                                    476 ;	-----------------------------------------
      00006D                        477 _getStr:
      00006D AD 82            [24]  478 	mov	r5,dpl
      00006F AE 83            [24]  479 	mov	r6,dph
      000071 AF F0            [24]  480 	mov	r7,b
                                    481 ;	anodeDisplay.h:94: for(unsigned char i=0;str[i]!=0;i++){
      000073 7C 00            [12]  482 	mov	r4,#0x00
      000075                        483 00103$:
      000075 EC               [12]  484 	mov	a,r4
      000076 25*00            [12]  485 	add	a,_getStr_PARM_2
      000078 F9               [12]  486 	mov	r1,a
      000079 E4               [12]  487 	clr	a
      00007A 35*01            [12]  488 	addc	a,(_getStr_PARM_2 + 1)
      00007C FA               [12]  489 	mov	r2,a
      00007D AB*02            [24]  490 	mov	r3,(_getStr_PARM_2 + 2)
      00007F 89 82            [24]  491 	mov	dpl,r1
      000081 8A 83            [24]  492 	mov	dph,r2
      000083 8B F0            [24]  493 	mov	b,r3
      000085 12r00r00         [24]  494 	lcall	__gptrget
      000088 FB               [12]  495 	mov	r3,a
      000089 60 15            [24]  496 	jz	00105$
                                    497 ;	anodeDisplay.h:95: out[i]=str[i];
      00008B EC               [12]  498 	mov	a,r4
      00008C 2D               [12]  499 	add	a,r5
      00008D F8               [12]  500 	mov	r0,a
      00008E E4               [12]  501 	clr	a
      00008F 3E               [12]  502 	addc	a,r6
      000090 F9               [12]  503 	mov	r1,a
      000091 8F 02            [24]  504 	mov	ar2,r7
      000093 88 82            [24]  505 	mov	dpl,r0
      000095 89 83            [24]  506 	mov	dph,r1
      000097 8A F0            [24]  507 	mov	b,r2
      000099 EB               [12]  508 	mov	a,r3
      00009A 12r00r00         [24]  509 	lcall	__gptrput
                                    510 ;	anodeDisplay.h:94: for(unsigned char i=0;str[i]!=0;i++){
      00009D 0C               [12]  511 	inc	r4
      00009E 80 D5            [24]  512 	sjmp	00103$
      0000A0                        513 00105$:
                                    514 ;	anodeDisplay.h:97: }
      0000A0 22               [24]  515 	ret
                                    516 ;------------------------------------------------------------
                                    517 ;Allocation info for local variables in function 'init_i2c'
                                    518 ;------------------------------------------------------------
                                    519 ;	PCF8574.c:8: void init_i2c(){
                                    520 ;	-----------------------------------------
                                    521 ;	 function init_i2c
                                    522 ;	-----------------------------------------
      0000A1                        523 _init_i2c:
                                    524 ;	PCF8574.c:11: SDA = 1;//digitalWrite(SDA,HIGH);
                                    525 ;	assignBit
      0000A1 D2 90            [12]  526 	setb	_P1_0
                                    527 ;	PCF8574.c:12: SCL = 1;//digitalWrite(SCL,HIGH);
                                    528 ;	assignBit
      0000A3 D2 91            [12]  529 	setb	_P1_1
                                    530 ;	PCF8574.c:13: }
      0000A5 22               [24]  531 	ret
                                    532 ;------------------------------------------------------------
                                    533 ;Allocation info for local variables in function 'setBit'
                                    534 ;------------------------------------------------------------
                                    535 ;bit                       Allocated to registers r7 
                                    536 ;------------------------------------------------------------
                                    537 ;	PCF8574.c:14: void setBit(unsigned char bit) {
                                    538 ;	-----------------------------------------
                                    539 ;	 function setBit
                                    540 ;	-----------------------------------------
      0000A6                        541 _setBit:
                                    542 ;	PCF8574.c:15: SDA=bit; //digitalWrite(SDA, bit);
                                    543 ;	assignBit
      0000A6 E5 82            [12]  544 	mov	a,dpl
      0000A8 24 FF            [12]  545 	add	a,#0xff
      0000AA 92 90            [24]  546 	mov	_P1_0,c
                                    547 ;	PCF8574.c:16: SCL=1; //digitalWrite(SCL, HIGH);
                                    548 ;	assignBit
      0000AC D2 91            [12]  549 	setb	_P1_1
                                    550 ;	PCF8574.c:17: SCL=0; //digitalWrite(SCL, LOW);
                                    551 ;	assignBit
      0000AE C2 91            [12]  552 	clr	_P1_1
                                    553 ;	PCF8574.c:18: SDA=0; //digitalWrite(SDA, LOW);
                                    554 ;	assignBit
      0000B0 C2 90            [12]  555 	clr	_P1_0
                                    556 ;	PCF8574.c:19: }
      0000B2 22               [24]  557 	ret
                                    558 ;------------------------------------------------------------
                                    559 ;Allocation info for local variables in function 'setByte'
                                    560 ;------------------------------------------------------------
                                    561 ;bits                      Allocated to registers r7 
                                    562 ;mask                      Allocated to registers r6 
                                    563 ;------------------------------------------------------------
                                    564 ;	PCF8574.c:20: void setByte(unsigned char bits){
                                    565 ;	-----------------------------------------
                                    566 ;	 function setByte
                                    567 ;	-----------------------------------------
      0000B3                        568 _setByte:
      0000B3 AF 82            [24]  569 	mov	r7,dpl
                                    570 ;	PCF8574.c:21: unsigned char mask=_BV(7);
      0000B5 7E 80            [12]  571 	mov	r6,#0x80
                                    572 ;	PCF8574.c:22: while(mask>0){
      0000B7                        573 00101$:
      0000B7 EE               [12]  574 	mov	a,r6
      0000B8 60 15            [24]  575 	jz	00104$
                                    576 ;	PCF8574.c:23: setBit(bits&mask);
      0000BA EE               [12]  577 	mov	a,r6
      0000BB 5F               [12]  578 	anl	a,r7
      0000BC F5 82            [12]  579 	mov	dpl,a
      0000BE C0 07            [24]  580 	push	ar7
      0000C0 C0 06            [24]  581 	push	ar6
      0000C2 12r00rA6         [24]  582 	lcall	_setBit
      0000C5 D0 06            [24]  583 	pop	ar6
      0000C7 D0 07            [24]  584 	pop	ar7
                                    585 ;	PCF8574.c:24: mask>>=1;
      0000C9 EE               [12]  586 	mov	a,r6
      0000CA C3               [12]  587 	clr	c
      0000CB 13               [12]  588 	rrc	a
      0000CC FE               [12]  589 	mov	r6,a
      0000CD 80 E8            [24]  590 	sjmp	00101$
      0000CF                        591 00104$:
                                    592 ;	PCF8574.c:26: }
      0000CF 22               [24]  593 	ret
                                    594 ;------------------------------------------------------------
                                    595 ;Allocation info for local variables in function 'readBit'
                                    596 ;------------------------------------------------------------
                                    597 ;r                         Allocated to registers 
                                    598 ;------------------------------------------------------------
                                    599 ;	PCF8574.c:27: unsigned char readBit() {
                                    600 ;	-----------------------------------------
                                    601 ;	 function readBit
                                    602 ;	-----------------------------------------
      0000D0                        603 _readBit:
                                    604 ;	PCF8574.c:28: SCL=1; //digitalWrite(SCL, HIGH);
                                    605 ;	assignBit
      0000D0 D2 91            [12]  606 	setb	_P1_1
                                    607 ;	PCF8574.c:29: unsigned char r = SDA; //digitalRead(SDA);
      0000D2 A2 90            [12]  608 	mov	c,_P1_0
      0000D4 E4               [12]  609 	clr	a
      0000D5 33               [12]  610 	rlc	a
      0000D6 F5 82            [12]  611 	mov	dpl,a
                                    612 ;	PCF8574.c:30: SCL=0; //digitalWrite(SCL, LOW);
                                    613 ;	assignBit
      0000D8 C2 91            [12]  614 	clr	_P1_1
                                    615 ;	PCF8574.c:31: return r;
                                    616 ;	PCF8574.c:32: }
      0000DA 22               [24]  617 	ret
                                    618 ;------------------------------------------------------------
                                    619 ;Allocation info for local variables in function 'readByte'
                                    620 ;------------------------------------------------------------
                                    621 ;value                     Allocated to registers r7 
                                    622 ;i                         Allocated to registers r6 
                                    623 ;------------------------------------------------------------
                                    624 ;	PCF8574.c:33: unsigned char readByte(){
                                    625 ;	-----------------------------------------
                                    626 ;	 function readByte
                                    627 ;	-----------------------------------------
      0000DB                        628 _readByte:
                                    629 ;	PCF8574.c:34: unsigned char value = 0;
      0000DB 7F 00            [12]  630 	mov	r7,#0x00
                                    631 ;	PCF8574.c:35: for (unsigned char i = 0; i < 8; i++) {
      0000DD 7E 00            [12]  632 	mov	r6,#0x00
      0000DF                        633 00103$:
      0000DF BE 08 00         [24]  634 	cjne	r6,#0x08,00116$
      0000E2                        635 00116$:
      0000E2 50 18            [24]  636 	jnc	00101$
                                    637 ;	PCF8574.c:36: value = (value << 1) | readBit();
      0000E4 8F 05            [24]  638 	mov	ar5,r7
      0000E6 ED               [12]  639 	mov	a,r5
      0000E7 2D               [12]  640 	add	a,r5
      0000E8 FD               [12]  641 	mov	r5,a
      0000E9 C0 06            [24]  642 	push	ar6
      0000EB C0 05            [24]  643 	push	ar5
      0000ED 12r00rD0         [24]  644 	lcall	_readBit
      0000F0 AC 82            [24]  645 	mov	r4,dpl
      0000F2 D0 05            [24]  646 	pop	ar5
      0000F4 D0 06            [24]  647 	pop	ar6
      0000F6 EC               [12]  648 	mov	a,r4
      0000F7 4D               [12]  649 	orl	a,r5
      0000F8 FF               [12]  650 	mov	r7,a
                                    651 ;	PCF8574.c:35: for (unsigned char i = 0; i < 8; i++) {
      0000F9 0E               [12]  652 	inc	r6
      0000FA 80 E3            [24]  653 	sjmp	00103$
      0000FC                        654 00101$:
                                    655 ;	PCF8574.c:38: return value;
      0000FC 8F 82            [24]  656 	mov	dpl,r7
                                    657 ;	PCF8574.c:39: }
      0000FE 22               [24]  658 	ret
                                    659 ;------------------------------------------------------------
                                    660 ;Allocation info for local variables in function 'i2c_begin'
                                    661 ;------------------------------------------------------------
                                    662 ;rw                        Allocated with name '_i2c_begin_PARM_2'
                                    663 ;addr                      Allocated to registers r7 
                                    664 ;------------------------------------------------------------
                                    665 ;	PCF8574.c:40: unsigned char i2c_begin(unsigned char addr,unsigned char rw){
                                    666 ;	-----------------------------------------
                                    667 ;	 function i2c_begin
                                    668 ;	-----------------------------------------
      0000FF                        669 _i2c_begin:
      0000FF AF 82            [24]  670 	mov	r7,dpl
                                    671 ;	PCF8574.c:41: SDA=0; //digitalWrite(SDA,LOW);
                                    672 ;	assignBit
      000101 C2 90            [12]  673 	clr	_P1_0
                                    674 ;	PCF8574.c:42: SCL=0;//digitalWrite(SCL,LOW);
                                    675 ;	assignBit
      000103 C2 91            [12]  676 	clr	_P1_1
                                    677 ;	PCF8574.c:43: setByte(addr<<1|rw);
      000105 EF               [12]  678 	mov	a,r7
      000106 2F               [12]  679 	add	a,r7
      000107 FF               [12]  680 	mov	r7,a
      000108 E5*01            [12]  681 	mov	a,_i2c_begin_PARM_2
      00010A 4F               [12]  682 	orl	a,r7
      00010B F5 82            [12]  683 	mov	dpl,a
      00010D 12r00rB3         [24]  684 	lcall	_setByte
                                    685 ;	PCF8574.c:44: SDA=0;//pinMode(SDA, INPUT);
                                    686 ;	assignBit
      000110 C2 90            [12]  687 	clr	_P1_0
                                    688 ;	PCF8574.c:45: return readBit(); //ACK
                                    689 ;	PCF8574.c:46: }
      000112 02r00rD0         [24]  690 	ljmp	_readBit
                                    691 ;------------------------------------------------------------
                                    692 ;Allocation info for local variables in function 'i2c_write'
                                    693 ;------------------------------------------------------------
                                    694 ;data                      Allocated to registers 
                                    695 ;------------------------------------------------------------
                                    696 ;	PCF8574.c:47: unsigned char i2c_write(unsigned char data){
                                    697 ;	-----------------------------------------
                                    698 ;	 function i2c_write
                                    699 ;	-----------------------------------------
      000115                        700 _i2c_write:
                                    701 ;	PCF8574.c:49: setByte(data); //dataframe
      000115 12r00rB3         [24]  702 	lcall	_setByte
                                    703 ;	PCF8574.c:50: SDA=0; //pinMode(SDA, INPUT);
                                    704 ;	assignBit
      000118 C2 90            [12]  705 	clr	_P1_0
                                    706 ;	PCF8574.c:51: return readBit(); //ACK
                                    707 ;	PCF8574.c:52: }
      00011A 02r00rD0         [24]  708 	ljmp	_readBit
                                    709 ;------------------------------------------------------------
                                    710 ;Allocation info for local variables in function 'i2c_end'
                                    711 ;------------------------------------------------------------
                                    712 ;	PCF8574.c:53: void i2c_end(){
                                    713 ;	-----------------------------------------
                                    714 ;	 function i2c_end
                                    715 ;	-----------------------------------------
      00011D                        716 _i2c_end:
                                    717 ;	PCF8574.c:54: SCL=1; //digitalWrite(SCL,HIGH);
                                    718 ;	assignBit
      00011D D2 91            [12]  719 	setb	_P1_1
                                    720 ;	PCF8574.c:55: SDA=1; //digitalWrite(SDA,HIGH);
                                    721 ;	assignBit
      00011F D2 90            [12]  722 	setb	_P1_0
                                    723 ;	PCF8574.c:56: }
      000121 22               [24]  724 	ret
                                    725 ;------------------------------------------------------------
                                    726 ;Allocation info for local variables in function 'delay'
                                    727 ;------------------------------------------------------------
                                    728 ;millis                    Allocated with name '_delay_millis_65536_27'
                                    729 ;i                         Allocated to registers r2 r3 
                                    730 ;j                         Allocated to registers r0 r1 
                                    731 ;------------------------------------------------------------
                                    732 ;	stcboot.c:21: void delay(unsigned long int millis)
                                    733 ;	-----------------------------------------
                                    734 ;	 function delay
                                    735 ;	-----------------------------------------
      000122                        736 _delay:
                                    737 ;	stcboot.c:24: millis *= 0.998f;
      000122 12r00r00         [24]  738 	lcall	___ulong2fs
      000125 AC 82            [24]  739 	mov	r4,dpl
      000127 AD 83            [24]  740 	mov	r5,dph
      000129 AE F0            [24]  741 	mov	r6,b
      00012B FF               [12]  742 	mov	r7,a
      00012C C0 04            [24]  743 	push	ar4
      00012E C0 05            [24]  744 	push	ar5
      000130 C0 06            [24]  745 	push	ar6
      000132 C0 07            [24]  746 	push	ar7
      000134 90 7C EE         [24]  747 	mov	dptr,#0x7cee
      000137 75 F0 7F         [24]  748 	mov	b,#0x7f
      00013A 74 3F            [12]  749 	mov	a,#0x3f
      00013C 12r00r00         [24]  750 	lcall	___fsmul
      00013F AC 82            [24]  751 	mov	r4,dpl
      000141 AD 83            [24]  752 	mov	r5,dph
      000143 AE F0            [24]  753 	mov	r6,b
      000145 FF               [12]  754 	mov	r7,a
      000146 E5 81            [12]  755 	mov	a,sp
      000148 24 FC            [12]  756 	add	a,#0xfc
      00014A F5 81            [12]  757 	mov	sp,a
      00014C 8C 82            [24]  758 	mov	dpl,r4
      00014E 8D 83            [24]  759 	mov	dph,r5
      000150 8E F0            [24]  760 	mov	b,r6
      000152 EF               [12]  761 	mov	a,r7
      000153 12r00r00         [24]  762 	lcall	___fs2ulong
      000156 85 82*08         [24]  763 	mov	_delay_millis_65536_27,dpl
      000159 85 83*09         [24]  764 	mov	(_delay_millis_65536_27 + 1),dph
      00015C 85 F0*0A         [24]  765 	mov	(_delay_millis_65536_27 + 2),b
      00015F F5*0B            [12]  766 	mov	(_delay_millis_65536_27 + 3),a
                                    767 ;	stcboot.c:25: for (int i = 0; i < 44; i++)
      000161 7A 00            [12]  768 	mov	r2,#0x00
      000163 7B 00            [12]  769 	mov	r3,#0x00
      000165                        770 00107$:
      000165 C3               [12]  771 	clr	c
      000166 EA               [12]  772 	mov	a,r2
      000167 94 2C            [12]  773 	subb	a,#0x2c
      000169 EB               [12]  774 	mov	a,r3
      00016A 64 80            [12]  775 	xrl	a,#0x80
      00016C 94 80            [12]  776 	subb	a,#0x80
      00016E 50 29            [24]  777 	jnc	00109$
                                    778 ;	stcboot.c:27: for (unsigned int j = 0; j < millis; j++)
      000170 78 00            [12]  779 	mov	r0,#0x00
      000172 79 00            [12]  780 	mov	r1,#0x00
      000174                        781 00104$:
      000174 88 04            [24]  782 	mov	ar4,r0
      000176 89 05            [24]  783 	mov	ar5,r1
      000178 7E 00            [12]  784 	mov	r6,#0x00
      00017A 7F 00            [12]  785 	mov	r7,#0x00
      00017C C3               [12]  786 	clr	c
      00017D EC               [12]  787 	mov	a,r4
      00017E 95*08            [12]  788 	subb	a,_delay_millis_65536_27
      000180 ED               [12]  789 	mov	a,r5
      000181 95*09            [12]  790 	subb	a,(_delay_millis_65536_27 + 1)
      000183 EE               [12]  791 	mov	a,r6
      000184 95*0A            [12]  792 	subb	a,(_delay_millis_65536_27 + 2)
      000186 EF               [12]  793 	mov	a,r7
      000187 95*0B            [12]  794 	subb	a,(_delay_millis_65536_27 + 3)
      000189 50 07            [24]  795 	jnc	00108$
      00018B 08               [12]  796 	inc	r0
      00018C B8 00 E5         [24]  797 	cjne	r0,#0x00,00104$
      00018F 09               [12]  798 	inc	r1
      000190 80 E2            [24]  799 	sjmp	00104$
      000192                        800 00108$:
                                    801 ;	stcboot.c:25: for (int i = 0; i < 44; i++)
      000192 0A               [12]  802 	inc	r2
      000193 BA 00 CF         [24]  803 	cjne	r2,#0x00,00107$
      000196 0B               [12]  804 	inc	r3
      000197 80 CC            [24]  805 	sjmp	00107$
      000199                        806 00109$:
                                    807 ;	stcboot.c:33: }
      000199 22               [24]  808 	ret
                                    809 ;------------------------------------------------------------
                                    810 ;Allocation info for local variables in function 'printLCD'
                                    811 ;------------------------------------------------------------
                                    812 ;base                      Allocated with name '_printLCD_PARM_2'
                                    813 ;i                         Allocated with name '_printLCD_i_65536_33'
                                    814 ;------------------------------------------------------------
                                    815 ;	stcboot.c:34: void printLCD(unsigned int i,unsigned char base){
                                    816 ;	-----------------------------------------
                                    817 ;	 function printLCD
                                    818 ;	-----------------------------------------
      00019A                        819 _printLCD:
      00019A 85 82*0D         [24]  820 	mov	_printLCD_i_65536_33,dpl
      00019D 85 83*0E         [24]  821 	mov	(_printLCD_i_65536_33 + 1),dph
                                    822 ;	stcboot.c:36: P0 = numArray[(i/base*base*base)%base];
      0001A0 AC*0C            [24]  823 	mov	r4,_printLCD_PARM_2
      0001A2 7D 00            [12]  824 	mov	r5,#0x00
      0001A4 8C*00            [24]  825 	mov	__divuint_PARM_2,r4
      0001A6 8D*01            [24]  826 	mov	(__divuint_PARM_2 + 1),r5
      0001A8 85*0D 82         [24]  827 	mov	dpl,_printLCD_i_65536_33
      0001AB 85*0E 83         [24]  828 	mov	dph,(_printLCD_i_65536_33 + 1)
      0001AE C0 05            [24]  829 	push	ar5
      0001B0 C0 04            [24]  830 	push	ar4
      0001B2 12r00r00         [24]  831 	lcall	__divuint
      0001B5 AA 82            [24]  832 	mov	r2,dpl
      0001B7 AB 83            [24]  833 	mov	r3,dph
      0001B9 D0 04            [24]  834 	pop	ar4
      0001BB D0 05            [24]  835 	pop	ar5
      0001BD 8C*00            [24]  836 	mov	__mulint_PARM_2,r4
      0001BF 8D*01            [24]  837 	mov	(__mulint_PARM_2 + 1),r5
      0001C1 8A 82            [24]  838 	mov	dpl,r2
      0001C3 8B 83            [24]  839 	mov	dph,r3
      0001C5 C0 05            [24]  840 	push	ar5
      0001C7 C0 04            [24]  841 	push	ar4
      0001C9 C0 03            [24]  842 	push	ar3
      0001CB C0 02            [24]  843 	push	ar2
      0001CD 12r00r00         [24]  844 	lcall	__mulint
      0001D0 A8 82            [24]  845 	mov	r0,dpl
      0001D2 A9 83            [24]  846 	mov	r1,dph
      0001D4 D0 02            [24]  847 	pop	ar2
      0001D6 D0 03            [24]  848 	pop	ar3
      0001D8 D0 04            [24]  849 	pop	ar4
      0001DA D0 05            [24]  850 	pop	ar5
      0001DC 8C*00            [24]  851 	mov	__mulint_PARM_2,r4
      0001DE 8D*01            [24]  852 	mov	(__mulint_PARM_2 + 1),r5
      0001E0 88 82            [24]  853 	mov	dpl,r0
      0001E2 89 83            [24]  854 	mov	dph,r1
      0001E4 C0 05            [24]  855 	push	ar5
      0001E6 C0 04            [24]  856 	push	ar4
      0001E8 C0 03            [24]  857 	push	ar3
      0001EA C0 02            [24]  858 	push	ar2
      0001EC C0 01            [24]  859 	push	ar1
      0001EE C0 00            [24]  860 	push	ar0
      0001F0 12r00r00         [24]  861 	lcall	__mulint
      0001F3 D0 00            [24]  862 	pop	ar0
      0001F5 D0 01            [24]  863 	pop	ar1
      0001F7 D0 02            [24]  864 	pop	ar2
      0001F9 D0 03            [24]  865 	pop	ar3
      0001FB D0 04            [24]  866 	pop	ar4
      0001FD D0 05            [24]  867 	pop	ar5
      0001FF 8C*00            [24]  868 	mov	__moduint_PARM_2,r4
      000201 8D*01            [24]  869 	mov	(__moduint_PARM_2 + 1),r5
      000203 C0 05            [24]  870 	push	ar5
      000205 C0 04            [24]  871 	push	ar4
      000207 C0 03            [24]  872 	push	ar3
      000209 C0 02            [24]  873 	push	ar2
      00020B C0 01            [24]  874 	push	ar1
      00020D C0 00            [24]  875 	push	ar0
      00020F 12r00r00         [24]  876 	lcall	__moduint
      000212 AE 82            [24]  877 	mov	r6,dpl
      000214 AF 83            [24]  878 	mov	r7,dph
      000216 EE               [12]  879 	mov	a,r6
      000217 24r1A            [12]  880 	add	a,#_numArray
      000219 F5 82            [12]  881 	mov	dpl,a
      00021B EF               [12]  882 	mov	a,r7
      00021C 34s00            [12]  883 	addc	a,#(_numArray >> 8)
      00021E F5 83            [12]  884 	mov	dph,a
      000220 E4               [12]  885 	clr	a
      000221 93               [24]  886 	movc	a,@a+dptr
      000222 F5 80            [12]  887 	mov	_P0,a
                                    888 ;	stcboot.c:37: P2_0 = 0;
                                    889 ;	assignBit
      000224 C2 A0            [12]  890 	clr	_P2_0
                                    891 ;	stcboot.c:38: delay(1);
      000226 90 00 01         [24]  892 	mov	dptr,#(0x01&0x00ff)
      000229 E4               [12]  893 	clr	a
      00022A F5 F0            [12]  894 	mov	b,a
      00022C 12r01r22         [24]  895 	lcall	_delay
      00022F D0 00            [24]  896 	pop	ar0
      000231 D0 01            [24]  897 	pop	ar1
      000233 D0 02            [24]  898 	pop	ar2
      000235 D0 03            [24]  899 	pop	ar3
      000237 D0 04            [24]  900 	pop	ar4
      000239 D0 05            [24]  901 	pop	ar5
                                    902 ;	stcboot.c:39: P2_0 = 1;
                                    903 ;	assignBit
      00023B D2 A0            [12]  904 	setb	_P2_0
                                    905 ;	stcboot.c:41: P0 = numArray[(i/base*base)%base];
      00023D 8C*00            [24]  906 	mov	__moduint_PARM_2,r4
      00023F 8D*01            [24]  907 	mov	(__moduint_PARM_2 + 1),r5
      000241 88 82            [24]  908 	mov	dpl,r0
      000243 89 83            [24]  909 	mov	dph,r1
      000245 C0 05            [24]  910 	push	ar5
      000247 C0 04            [24]  911 	push	ar4
      000249 C0 03            [24]  912 	push	ar3
      00024B C0 02            [24]  913 	push	ar2
      00024D 12r00r00         [24]  914 	lcall	__moduint
      000250 AE 82            [24]  915 	mov	r6,dpl
      000252 AF 83            [24]  916 	mov	r7,dph
      000254 EE               [12]  917 	mov	a,r6
      000255 24r1A            [12]  918 	add	a,#_numArray
      000257 F5 82            [12]  919 	mov	dpl,a
      000259 EF               [12]  920 	mov	a,r7
      00025A 34s00            [12]  921 	addc	a,#(_numArray >> 8)
      00025C F5 83            [12]  922 	mov	dph,a
      00025E E4               [12]  923 	clr	a
      00025F 93               [24]  924 	movc	a,@a+dptr
      000260 F5 80            [12]  925 	mov	_P0,a
                                    926 ;	stcboot.c:42: P2_1 = 0;
                                    927 ;	assignBit
      000262 C2 A1            [12]  928 	clr	_P2_1
                                    929 ;	stcboot.c:43: delay(1);
      000264 90 00 01         [24]  930 	mov	dptr,#(0x01&0x00ff)
      000267 E4               [12]  931 	clr	a
      000268 F5 F0            [12]  932 	mov	b,a
      00026A 12r01r22         [24]  933 	lcall	_delay
      00026D D0 02            [24]  934 	pop	ar2
      00026F D0 03            [24]  935 	pop	ar3
      000271 D0 04            [24]  936 	pop	ar4
      000273 D0 05            [24]  937 	pop	ar5
                                    938 ;	stcboot.c:44: P2_1 = 1;
                                    939 ;	assignBit
      000275 D2 A1            [12]  940 	setb	_P2_1
                                    941 ;	stcboot.c:46: P0 = numArray[(i/base)%base];
      000277 8C*00            [24]  942 	mov	__moduint_PARM_2,r4
      000279 8D*01            [24]  943 	mov	(__moduint_PARM_2 + 1),r5
      00027B 8A 82            [24]  944 	mov	dpl,r2
      00027D 8B 83            [24]  945 	mov	dph,r3
      00027F C0 05            [24]  946 	push	ar5
      000281 C0 04            [24]  947 	push	ar4
      000283 12r00r00         [24]  948 	lcall	__moduint
      000286 AE 82            [24]  949 	mov	r6,dpl
      000288 AF 83            [24]  950 	mov	r7,dph
      00028A EE               [12]  951 	mov	a,r6
      00028B 24r1A            [12]  952 	add	a,#_numArray
      00028D F5 82            [12]  953 	mov	dpl,a
      00028F EF               [12]  954 	mov	a,r7
      000290 34s00            [12]  955 	addc	a,#(_numArray >> 8)
      000292 F5 83            [12]  956 	mov	dph,a
      000294 E4               [12]  957 	clr	a
      000295 93               [24]  958 	movc	a,@a+dptr
      000296 F5 80            [12]  959 	mov	_P0,a
                                    960 ;	stcboot.c:47: P2_2 = 0;
                                    961 ;	assignBit
      000298 C2 A2            [12]  962 	clr	_P2_2
                                    963 ;	stcboot.c:48: delay(1);
      00029A 90 00 01         [24]  964 	mov	dptr,#(0x01&0x00ff)
      00029D E4               [12]  965 	clr	a
      00029E F5 F0            [12]  966 	mov	b,a
      0002A0 12r01r22         [24]  967 	lcall	_delay
      0002A3 D0 04            [24]  968 	pop	ar4
      0002A5 D0 05            [24]  969 	pop	ar5
                                    970 ;	stcboot.c:49: P2_2 = 1;
                                    971 ;	assignBit
      0002A7 D2 A2            [12]  972 	setb	_P2_2
                                    973 ;	stcboot.c:51: P0 = numArray[i%base];
      0002A9 8C*00            [24]  974 	mov	__moduint_PARM_2,r4
      0002AB 8D*01            [24]  975 	mov	(__moduint_PARM_2 + 1),r5
      0002AD 85*0D 82         [24]  976 	mov	dpl,_printLCD_i_65536_33
      0002B0 85*0E 83         [24]  977 	mov	dph,(_printLCD_i_65536_33 + 1)
      0002B3 12r00r00         [24]  978 	lcall	__moduint
      0002B6 AE 82            [24]  979 	mov	r6,dpl
      0002B8 AF 83            [24]  980 	mov	r7,dph
      0002BA EE               [12]  981 	mov	a,r6
      0002BB 24r1A            [12]  982 	add	a,#_numArray
      0002BD F5 82            [12]  983 	mov	dpl,a
      0002BF EF               [12]  984 	mov	a,r7
      0002C0 34s00            [12]  985 	addc	a,#(_numArray >> 8)
      0002C2 F5 83            [12]  986 	mov	dph,a
      0002C4 E4               [12]  987 	clr	a
      0002C5 93               [24]  988 	movc	a,@a+dptr
      0002C6 F5 80            [12]  989 	mov	_P0,a
                                    990 ;	stcboot.c:52: P2_3 = 0;
                                    991 ;	assignBit
      0002C8 C2 A3            [12]  992 	clr	_P2_3
                                    993 ;	stcboot.c:53: delay(1);
      0002CA 90 00 01         [24]  994 	mov	dptr,#(0x01&0x00ff)
      0002CD E4               [12]  995 	clr	a
      0002CE F5 F0            [12]  996 	mov	b,a
      0002D0 12r01r22         [24]  997 	lcall	_delay
                                    998 ;	stcboot.c:54: P2_3 = 1;
                                    999 ;	assignBit
      0002D3 D2 A3            [12] 1000 	setb	_P2_3
                                   1001 ;	stcboot.c:56: }
      0002D5 22               [24] 1002 	ret
                                   1003 ;------------------------------------------------------------
                                   1004 ;Allocation info for local variables in function 'strobeLCD'
                                   1005 ;------------------------------------------------------------
                                   1006 ;str                       Allocated to registers r5 r6 r7 
                                   1007 ;i                         Allocated with name '_strobeLCD_i_131072_37'
                                   1008 ;sloc0                     Allocated with name '_strobeLCD_sloc0_1_0'
                                   1009 ;sloc1                     Allocated with name '_strobeLCD_sloc1_1_0'
                                   1010 ;------------------------------------------------------------
                                   1011 ;	stcboot.c:57: void strobeLCD(unsigned char * str){
                                   1012 ;	-----------------------------------------
                                   1013 ;	 function strobeLCD
                                   1014 ;	-----------------------------------------
      0002D6                       1015 _strobeLCD:
      0002D6 AD 82            [24] 1016 	mov	r5,dpl
      0002D8 AE 83            [24] 1017 	mov	r6,dph
      0002DA AF F0            [24] 1018 	mov	r7,b
                                   1019 ;	stcboot.c:58: for(int i=0;i<10;i++){
      0002DC 74 01            [12] 1020 	mov	a,#0x01
      0002DE 2D               [12] 1021 	add	a,r5
      0002DF FA               [12] 1022 	mov	r2,a
      0002E0 E4               [12] 1023 	clr	a
      0002E1 3E               [12] 1024 	addc	a,r6
      0002E2 FB               [12] 1025 	mov	r3,a
      0002E3 8F 04            [24] 1026 	mov	ar4,r7
      0002E5 74 02            [12] 1027 	mov	a,#0x02
      0002E7 2D               [12] 1028 	add	a,r5
      0002E8 F5*11            [12] 1029 	mov	_strobeLCD_sloc0_1_0,a
      0002EA E4               [12] 1030 	clr	a
      0002EB 3E               [12] 1031 	addc	a,r6
      0002EC F5*12            [12] 1032 	mov	(_strobeLCD_sloc0_1_0 + 1),a
      0002EE 8F*13            [24] 1033 	mov	(_strobeLCD_sloc0_1_0 + 2),r7
      0002F0 74 03            [12] 1034 	mov	a,#0x03
      0002F2 2D               [12] 1035 	add	a,r5
      0002F3 F5*14            [12] 1036 	mov	_strobeLCD_sloc1_1_0,a
      0002F5 E4               [12] 1037 	clr	a
      0002F6 3E               [12] 1038 	addc	a,r6
      0002F7 F5*15            [12] 1039 	mov	(_strobeLCD_sloc1_1_0 + 1),a
      0002F9 8F*16            [24] 1040 	mov	(_strobeLCD_sloc1_1_0 + 2),r7
      0002FB E4               [12] 1041 	clr	a
      0002FC F5*0F            [12] 1042 	mov	_strobeLCD_i_131072_37,a
      0002FE F5*10            [12] 1043 	mov	(_strobeLCD_i_131072_37 + 1),a
      000300                       1044 00103$:
      000300 C3               [12] 1045 	clr	c
      000301 E5*0F            [12] 1046 	mov	a,_strobeLCD_i_131072_37
      000303 94 0A            [12] 1047 	subb	a,#0x0a
      000305 E5*10            [12] 1048 	mov	a,(_strobeLCD_i_131072_37 + 1)
      000307 64 80            [12] 1049 	xrl	a,#0x80
      000309 94 80            [12] 1050 	subb	a,#0x80
      00030B 40 01            [24] 1051 	jc	00116$
      00030D 22               [24] 1052 	ret
      00030E                       1053 00116$:
                                   1054 ;	stcboot.c:59: P0 = ~str[0];
      00030E 8D 82            [24] 1055 	mov	dpl,r5
      000310 8E 83            [24] 1056 	mov	dph,r6
      000312 8F F0            [24] 1057 	mov	b,r7
      000314 12r00r00         [24] 1058 	lcall	__gptrget
      000317 F4               [12] 1059 	cpl	a
      000318 F5 80            [12] 1060 	mov	_P0,a
                                   1061 ;	stcboot.c:60: P2_0 = 0;
                                   1062 ;	assignBit
      00031A C2 A0            [12] 1063 	clr	_P2_0
                                   1064 ;	stcboot.c:61: delay(1);
      00031C 90 00 01         [24] 1065 	mov	dptr,#(0x01&0x00ff)
      00031F E4               [12] 1066 	clr	a
      000320 F5 F0            [12] 1067 	mov	b,a
      000322 C0 07            [24] 1068 	push	ar7
      000324 C0 06            [24] 1069 	push	ar6
      000326 C0 05            [24] 1070 	push	ar5
      000328 C0 04            [24] 1071 	push	ar4
      00032A C0 03            [24] 1072 	push	ar3
      00032C C0 02            [24] 1073 	push	ar2
      00032E 12r01r22         [24] 1074 	lcall	_delay
      000331 D0 02            [24] 1075 	pop	ar2
      000333 D0 03            [24] 1076 	pop	ar3
      000335 D0 04            [24] 1077 	pop	ar4
                                   1078 ;	stcboot.c:62: P2_0 = 1;
                                   1079 ;	assignBit
      000337 D2 A0            [12] 1080 	setb	_P2_0
                                   1081 ;	stcboot.c:64: P0 = ~str[1];
      000339 8A 82            [24] 1082 	mov	dpl,r2
      00033B 8B 83            [24] 1083 	mov	dph,r3
      00033D 8C F0            [24] 1084 	mov	b,r4
      00033F 12r00r00         [24] 1085 	lcall	__gptrget
      000342 F4               [12] 1086 	cpl	a
      000343 F5 80            [12] 1087 	mov	_P0,a
                                   1088 ;	stcboot.c:65: P2_1 = 0;
                                   1089 ;	assignBit
      000345 C2 A1            [12] 1090 	clr	_P2_1
                                   1091 ;	stcboot.c:66: delay(1);
      000347 90 00 01         [24] 1092 	mov	dptr,#(0x01&0x00ff)
      00034A E4               [12] 1093 	clr	a
      00034B F5 F0            [12] 1094 	mov	b,a
      00034D C0 04            [24] 1095 	push	ar4
      00034F C0 03            [24] 1096 	push	ar3
      000351 C0 02            [24] 1097 	push	ar2
      000353 12r01r22         [24] 1098 	lcall	_delay
                                   1099 ;	stcboot.c:67: P2_1 = 1;
                                   1100 ;	assignBit
      000356 D2 A1            [12] 1101 	setb	_P2_1
                                   1102 ;	stcboot.c:69: P0 = ~str[2];
      000358 85*11 82         [24] 1103 	mov	dpl,_strobeLCD_sloc0_1_0
      00035B 85*12 83         [24] 1104 	mov	dph,(_strobeLCD_sloc0_1_0 + 1)
      00035E 85*13 F0         [24] 1105 	mov	b,(_strobeLCD_sloc0_1_0 + 2)
      000361 12r00r00         [24] 1106 	lcall	__gptrget
      000364 F4               [12] 1107 	cpl	a
      000365 F5 80            [12] 1108 	mov	_P0,a
                                   1109 ;	stcboot.c:70: P2_2 = 0;
                                   1110 ;	assignBit
      000367 C2 A2            [12] 1111 	clr	_P2_2
                                   1112 ;	stcboot.c:71: delay(1);
      000369 90 00 01         [24] 1113 	mov	dptr,#(0x01&0x00ff)
      00036C E4               [12] 1114 	clr	a
      00036D F5 F0            [12] 1115 	mov	b,a
      00036F 12r01r22         [24] 1116 	lcall	_delay
                                   1117 ;	stcboot.c:72: P2_2 = 1;
                                   1118 ;	assignBit
      000372 D2 A2            [12] 1119 	setb	_P2_2
                                   1120 ;	stcboot.c:74: P0 = ~str[3];
      000374 85*14 82         [24] 1121 	mov	dpl,_strobeLCD_sloc1_1_0
      000377 85*15 83         [24] 1122 	mov	dph,(_strobeLCD_sloc1_1_0 + 1)
      00037A 85*16 F0         [24] 1123 	mov	b,(_strobeLCD_sloc1_1_0 + 2)
      00037D 12r00r00         [24] 1124 	lcall	__gptrget
      000380 F4               [12] 1125 	cpl	a
      000381 F5 80            [12] 1126 	mov	_P0,a
                                   1127 ;	stcboot.c:75: P2_3 = 0;
                                   1128 ;	assignBit
      000383 C2 A3            [12] 1129 	clr	_P2_3
                                   1130 ;	stcboot.c:76: delay(1);
      000385 90 00 01         [24] 1131 	mov	dptr,#(0x01&0x00ff)
      000388 E4               [12] 1132 	clr	a
      000389 F5 F0            [12] 1133 	mov	b,a
      00038B 12r01r22         [24] 1134 	lcall	_delay
      00038E D0 02            [24] 1135 	pop	ar2
      000390 D0 03            [24] 1136 	pop	ar3
      000392 D0 04            [24] 1137 	pop	ar4
      000394 D0 05            [24] 1138 	pop	ar5
      000396 D0 06            [24] 1139 	pop	ar6
      000398 D0 07            [24] 1140 	pop	ar7
                                   1141 ;	stcboot.c:77: P2_3 = 1;
                                   1142 ;	assignBit
      00039A D2 A3            [12] 1143 	setb	_P2_3
                                   1144 ;	stcboot.c:58: for(int i=0;i<10;i++){
      00039C 05*0F            [12] 1145 	inc	_strobeLCD_i_131072_37
      00039E E4               [12] 1146 	clr	a
      00039F B5*0F 02         [24] 1147 	cjne	a,_strobeLCD_i_131072_37,00117$
      0003A2 05*10            [12] 1148 	inc	(_strobeLCD_i_131072_37 + 1)
      0003A4                       1149 00117$:
                                   1150 ;	stcboot.c:79: }
      0003A4 02r03r00         [24] 1151 	ljmp	00103$
                                   1152 ;------------------------------------------------------------
                                   1153 ;Allocation info for local variables in function 'setup'
                                   1154 ;------------------------------------------------------------
                                   1155 ;	stcboot.c:80: void setup(){
                                   1156 ;	-----------------------------------------
                                   1157 ;	 function setup
                                   1158 ;	-----------------------------------------
      0003A7                       1159 _setup:
                                   1160 ;	stcboot.c:88: init_i2c();
      0003A7 12r00rA1         [24] 1161 	lcall	_init_i2c
                                   1162 ;	stcboot.c:89: i2c_begin(XGPIO_ADDR,WRITE);
      0003AA 75*01 00         [24] 1163 	mov	_i2c_begin_PARM_2,#0x00
      0003AD 75 82 27         [24] 1164 	mov	dpl,#0x27
                                   1165 ;	stcboot.c:90: }
      0003B0 02r00rFF         [24] 1166 	ljmp	_i2c_begin
                                   1167 ;------------------------------------------------------------
                                   1168 ;Allocation info for local variables in function 'loop'
                                   1169 ;------------------------------------------------------------
                                   1170 ;	stcboot.c:92: void loop(){
                                   1171 ;	-----------------------------------------
                                   1172 ;	 function loop
                                   1173 ;	-----------------------------------------
      0003B3                       1174 _loop:
                                   1175 ;	stcboot.c:96: i2c_write(8-fr++);
      0003B3 AE*17            [24] 1176 	mov	r6,_fr
      0003B5 05*17            [12] 1177 	inc	_fr
      0003B7 E4               [12] 1178 	clr	a
      0003B8 B5*17 02         [24] 1179 	cjne	a,_fr,00109$
      0003BB 05*18            [12] 1180 	inc	(_fr + 1)
      0003BD                       1181 00109$:
      0003BD 74 08            [12] 1182 	mov	a,#0x08
      0003BF C3               [12] 1183 	clr	c
      0003C0 9E               [12] 1184 	subb	a,r6
      0003C1 F5 82            [12] 1185 	mov	dpl,a
      0003C3 12r01r15         [24] 1186 	lcall	_i2c_write
                                   1187 ;	stcboot.c:97: if(fr>8)fr=0;
      0003C6 C3               [12] 1188 	clr	c
      0003C7 74 08            [12] 1189 	mov	a,#0x08
      0003C9 95*17            [12] 1190 	subb	a,_fr
      0003CB E4               [12] 1191 	clr	a
      0003CC 95*18            [12] 1192 	subb	a,(_fr + 1)
      0003CE 50 05            [24] 1193 	jnc	00102$
      0003D0 E4               [12] 1194 	clr	a
      0003D1 F5*17            [12] 1195 	mov	_fr,a
      0003D3 F5*18            [12] 1196 	mov	(_fr + 1),a
      0003D5                       1197 00102$:
                                   1198 ;	stcboot.c:98: delay(500);
      0003D5 90 01 F4         [24] 1199 	mov	dptr,#0x01f4
      0003D8 E4               [12] 1200 	clr	a
      0003D9 F5 F0            [12] 1201 	mov	b,a
                                   1202 ;	stcboot.c:99: }
      0003DB 02r01r22         [24] 1203 	ljmp	_delay
                                   1204 ;------------------------------------------------------------
                                   1205 ;Allocation info for local variables in function 'main'
                                   1206 ;------------------------------------------------------------
                                   1207 ;	stcboot.c:100: void main(void){
                                   1208 ;	-----------------------------------------
                                   1209 ;	 function main
                                   1210 ;	-----------------------------------------
      0003DE                       1211 _main:
                                   1212 ;	stcboot.c:101: setup();
      0003DE 12r03rA7         [24] 1213 	lcall	_setup
                                   1214 ;	stcboot.c:102: while (1) {
      0003E1                       1215 00102$:
                                   1216 ;	stcboot.c:103: loop();
      0003E1 12r03rB3         [24] 1217 	lcall	_loop
                                   1218 ;	stcboot.c:105: }
      0003E4 80 FB            [24] 1219 	sjmp	00102$
                                   1220 	.area CSEG    (CODE)
                                   1221 	.area CONST   (CODE)
      000000                       1222 _alphaArray:
      000000 88                    1223 	.db #0x88	; 136
      000001 83                    1224 	.db #0x83	; 131
      000002 C6                    1225 	.db #0xc6	; 198
      000003 A1                    1226 	.db #0xa1	; 161
      000004 86                    1227 	.db #0x86	; 134
      000005 8E                    1228 	.db #0x8e	; 142
      000006 C2                    1229 	.db #0xc2	; 194
      000007 8B                    1230 	.db #0x8b	; 139
      000008 CF                    1231 	.db #0xcf	; 207
      000009 E1                    1232 	.db #0xe1	; 225
      00000A 8A                    1233 	.db #0x8a	; 138
      00000B C7                    1234 	.db #0xc7	; 199
      00000C EA                    1235 	.db #0xea	; 234
      00000D CB                    1236 	.db #0xcb	; 203
      00000E A3                    1237 	.db #0xa3	; 163
      00000F 8C                    1238 	.db #0x8c	; 140
      000010 98                    1239 	.db #0x98	; 152
      000011 CC                    1240 	.db #0xcc	; 204
      000012 92                    1241 	.db #0x92	; 146
      000013 87                    1242 	.db #0x87	; 135
      000014 C1                    1243 	.db #0xc1	; 193
      000015 C5                    1244 	.db #0xc5	; 197
      000016 D5                    1245 	.db #0xd5	; 213
      000017 89                    1246 	.db #0x89	; 137
      000018 91                    1247 	.db #0x91	; 145
      000019 B4                    1248 	.db #0xb4	; 180
      00001A                       1249 _numArray:
      00001A C0                    1250 	.db #0xc0	; 192
      00001B F9                    1251 	.db #0xf9	; 249
      00001C A4                    1252 	.db #0xa4	; 164
      00001D B0                    1253 	.db #0xb0	; 176
      00001E 99                    1254 	.db #0x99	; 153
      00001F 92                    1255 	.db #0x92	; 146
      000020 82                    1256 	.db #0x82	; 130
      000021 F8                    1257 	.db #0xf8	; 248
      000022 80                    1258 	.db #0x80	; 128
      000023 90                    1259 	.db #0x90	; 144
      000024 88                    1260 	.db #0x88	; 136
      000025 83                    1261 	.db #0x83	; 131
      000026 C6                    1262 	.db #0xc6	; 198
      000027 A1                    1263 	.db #0xa1	; 161
      000028 86                    1264 	.db #0x86	; 134
      000029 8E                    1265 	.db #0x8e	; 142
                                   1266 	.area XINIT   (CODE)
                                   1267 	.area CABS    (ABS,CODE)
