:03000000020006F5
:0F005F00750800E4F50AF50BF51FF52002000304
:0300030002044CA8
:20006E00AF82BF3000401EEF24C640198F06EE24D0FE3395E0FDEE241EF582ED3407F58361
:20008E00E493F58222BF4100401EEF24A540198F06EE24BFFE3395E0FDEE2404F582ED341C
:2000AE0007F583E493F58222BF6100401CEF24854017EF249FFF3395E0FEEF2404F582EE65
:2000CE003407F583E493F5822275820022AD82AE83AFF07C00EC2521F9E43522FAAB238904
:2000EE00828A838BF01206A1FB6015EC2DF8E43EF98F02888289838AF0EB1205CD0C80D542
:20010E0022D290D29122E58224FF9290D291C291C29022AF827E80EE6015EE5FF582C007D5
:20012E00C006120114D006D007EEC313FE80E822D291A290E433F582C291227F007E00BE78
:20014E00080050188F05ED2DFDC006C00512013EAC82D005D006EC4DFF0E80E38F8222AF36
:20016E0082C290C291EF2FFFE5094FF582120121C29002013E120121C29002013ED291D2B6
:20018E009022120581AC82AD83AEF0FFC004C005C006C007907CEE75F07F743F12047DAC26
:2001AE0082AD83AEF0FFE58124FCF5818C828D838EF0EF12059485821085831185F012F504
:2001CE00137A007B00C3EA942CEB64809480502978007900880489057E007F00C3EC9510E4
:2001EE00ED9511EE9512EF9513500708B800E50980E20ABA00CF0B80CC2285821585831685
:20020E00AC147D008C218D22851582851683C005C004120454AA82AB83D004D0058C218DCD
:20022E00228A828B83C005C004C003C0021205E8A882A983D002D003D004D0058C218D2267
:20024E0088828983C005C004C003C002C001C0001205E8D000D001D002D003D004D0058C71
:20026E00218D22C005C004C003C002C001C000120605AE82AF83EE241EF582EF3407F58349
:20028E00E493F580C2A0900001E4F5F0120190D000D001D002D003D004D005D2A08C218D6A
:2002AE002288828983C005C004C003C002120605AE82AF83EE241EF582EF3407F583E493AB
:2002CE00F580C2A1900001E4F5F0120190D002D003D004D005D2A18C218D228A828B83C044
:2002EE0005C004120605AE82AF83EE241EF582EF3407F583E493F580C2A2900001E4F5F0B5
:20030E00120190D004D005D2A28C218D22851582851683120605AE82AF83EE241EF582EF64
:20032E003407F583E493F580C2A3900001E4F5F0120190D2A322AD82AE83AFF074012DFA7C
:20034E00E43EFB8F0474022DF519E43EF51A8F1B74032DF51CE43EF51D8F1EE4F517F518C0
:20036E00C3E517940AE518648094804001228D828E838FF01206A1F4F580C2A0900001E422
:20038E00F5F0C007C006C005C004C003C002120190D002D003D004D2A08A828B838CF01299
:2003AE0006A1F4F580C2A1900001E4F5F0C004C003C002120190D2A1851982851A83851B21
:2003CE00F01206A1F4F580C2A2900001E4F5F0120190D2A2851C82851D83851EF01206A194
:2003EE00F4F580C2A3900001E4F5F0120190D002D003D004D005D006D007D2A30517E4B5FF
:20040E001702051802036E12010F75090075822702016DAE1F051FE4B51F0205207408C3E8
:20042E009EF582120183C37408951FE495205005E4F51FF5209001F4E4F5F002019012041E
:06044E001512042180FBE1
:200704008883C6A1868EC28BCFE18AC7EACBA38C98CC9287C1C5D58991B4C0F9A4B099923F
:0A07240082F880908883C6A1868EBB
:200454007A10E4FBFCE58225E0F582E58333F583EB33FBEC33FCEB9521F5F0EC952240068A
:09047400FCABF0438201DADD2249
:20047D00120520BC0003020673EF60FA30D502B2D1E583B4FF03020689E582B4FF03020647
:20049D0089258340072482400B0206732483145003020689F582EA8DF0A4A8F0EA8EF0A496
:2004BD0028F8E435F0F9EB8DF0A428E935F0F9E433CA8FF0A429F9EA35F0FAEBF88EF0A48E
:2004DD0029F9EA35F0FAE433FBEC8DF0A429F9EA35F0FAE43BFBE88FF0A42AFAEB35F0FB36
:2004FD00E433CCFD8EF0A42AFAEB35F0FBE43CFCED8FF0A42BFBEC35F0FC20E70312054EE0
:03051D0002065281
:20052000AA82AB83A2F73392D1F5826002D2F7ACF0E58124F9F8E6FD08E6FE0886F008E63E
:0E054000A2F73392D5F5836002D2F7AFF02216
:06003500E4787FF6D8FD1F
:20054E007804EC7011E58224F8500AF582E4C9CACBFCD8EF22EC7820058220E713D58201AC
:13056E0022C3E933F9EA33FAEB33FBEC33FCD8EA158222BA
:200013007900E94400601B7A0090072E780075A0E0E493F2A308B8000205A0D9F4DAF2757F
:02003300A0FF2C
:13058100FCABF0AA83A982749EC2D1F58212054E0206529D
:200594007F9E1205BB30D103020673C3EF9582500974FFF5F0F583F5822279001206BD8977
:0705B400828A838BF0EC2228
:1205BB00AA82AB83A2F73392D1F5826002D2F7ACF02245
:1B05CD0020F71130F6138883A88220F509F6A8837583002280FEF280F5F0222D
:1D05E800E5828521F0A4C582C0F08522F0A4D0F025F0C5838521F0A42583F583228A
:20060500E521452260467A01E52125E0F521E522334012F522E5829521E583952240030AFA
:2006250080E6C3E52213F522E52113F521C3E5829521F5F0E58395224005F58385F082C3D1
:0D064500E52213F522E52113F521DAE1226B
:20003B007800E84400600A790075A0E0E4F309D8FC7800E84400600C790090E000E4F0A305
:04005B00D8FCD9FAFA
:20065200B98003EA13B34010EA2401FAE43BFBE43CFC50047C800582BC000EBB000BBA00EC
:2006720008E4F5F0F583F58222A2D1E582138CF092F78B838A8222E4F583F58275F080F4AC
:0F069200A2D11322E4F583F58275F0C0747F22A4
:0D000600758123120700E5826003020003EC
:1C06A10020F71430F6148883A88220F507E6A88375830022E280F7E49322E02268
:2006BD006040F82582500274FFF582E824F8501ECCCBCAF9E4CC24F85014CBCAF9E4CB2445
:2006DD00F8500BCAF9E4CA24F8500379002224086010F8C3EC13FCEB13FBEA13FAE913F9F8
:0306FD00D8F1220F
:0407000075820022DC
:00000001FF
