                                      1 ;--------------------------------------------------------
                                      2 ; File Created by SDCC : free open source ANSI-C Compiler
                                      3 ; Version 3.8.0 #10562 (Linux)
                                      4 ;--------------------------------------------------------
                                      5 	.module stcboot
                                      6 	.optsdcc -mmcs51 --model-small
                                      7 	
                                      8 ;--------------------------------------------------------
                                      9 ; Public variables in this module
                                     10 ;--------------------------------------------------------
                                     11 	.globl _getStr_PARM_2
                                     12 	.globl _numArray
                                     13 	.globl _alphaArray
                                     14 	.globl _main
                                     15 	.globl _loop
                                     16 	.globl _setup
                                     17 	.globl _strobeLCD
                                     18 	.globl _printLCD
                                     19 	.globl _delay
                                     20 	.globl _getStr
                                     21 	.globl _getChar
                                     22 	.globl _CY
                                     23 	.globl _AC
                                     24 	.globl _F0
                                     25 	.globl _RS1
                                     26 	.globl _RS0
                                     27 	.globl _OV
                                     28 	.globl _F1
                                     29 	.globl _P
                                     30 	.globl _PS
                                     31 	.globl _PT1
                                     32 	.globl _PX1
                                     33 	.globl _PT0
                                     34 	.globl _PX0
                                     35 	.globl _RD
                                     36 	.globl _WR
                                     37 	.globl _T1
                                     38 	.globl _T0
                                     39 	.globl _INT1
                                     40 	.globl _INT0
                                     41 	.globl _TXD
                                     42 	.globl _RXD
                                     43 	.globl _P3_7
                                     44 	.globl _P3_6
                                     45 	.globl _P3_5
                                     46 	.globl _P3_4
                                     47 	.globl _P3_3
                                     48 	.globl _P3_2
                                     49 	.globl _P3_1
                                     50 	.globl _P3_0
                                     51 	.globl _EA
                                     52 	.globl _ES
                                     53 	.globl _ET1
                                     54 	.globl _EX1
                                     55 	.globl _ET0
                                     56 	.globl _EX0
                                     57 	.globl _P2_7
                                     58 	.globl _P2_6
                                     59 	.globl _P2_5
                                     60 	.globl _P2_4
                                     61 	.globl _P2_3
                                     62 	.globl _P2_2
                                     63 	.globl _P2_1
                                     64 	.globl _P2_0
                                     65 	.globl _SM0
                                     66 	.globl _SM1
                                     67 	.globl _SM2
                                     68 	.globl _REN
                                     69 	.globl _TB8
                                     70 	.globl _RB8
                                     71 	.globl _TI
                                     72 	.globl _RI
                                     73 	.globl _P1_7
                                     74 	.globl _P1_6
                                     75 	.globl _P1_5
                                     76 	.globl _P1_4
                                     77 	.globl _P1_3
                                     78 	.globl _P1_2
                                     79 	.globl _P1_1
                                     80 	.globl _P1_0
                                     81 	.globl _TF1
                                     82 	.globl _TR1
                                     83 	.globl _TF0
                                     84 	.globl _TR0
                                     85 	.globl _IE1
                                     86 	.globl _IT1
                                     87 	.globl _IE0
                                     88 	.globl _IT0
                                     89 	.globl _P0_7
                                     90 	.globl _P0_6
                                     91 	.globl _P0_5
                                     92 	.globl _P0_4
                                     93 	.globl _P0_3
                                     94 	.globl _P0_2
                                     95 	.globl _P0_1
                                     96 	.globl _P0_0
                                     97 	.globl _B
                                     98 	.globl _ACC
                                     99 	.globl _PSW
                                    100 	.globl _IP
                                    101 	.globl _P3
                                    102 	.globl _IE
                                    103 	.globl _P2
                                    104 	.globl _SBUF
                                    105 	.globl _SCON
                                    106 	.globl _P1
                                    107 	.globl _TH1
                                    108 	.globl _TH0
                                    109 	.globl _TL1
                                    110 	.globl _TL0
                                    111 	.globl _TMOD
                                    112 	.globl _TCON
                                    113 	.globl _PCON
                                    114 	.globl _DPH
                                    115 	.globl _DPL
                                    116 	.globl _SP
                                    117 	.globl _P0
                                    118 	.globl _fr
                                    119 	.globl _printLCD_PARM_2
                                    120 	.globl _msg
                                    121 	.globl _frame
                                    122 	.globl _i2c_begin_PARM_2
                                    123 	.globl _i
                                    124 	.globl _init_i2c
                                    125 	.globl _setBit
                                    126 	.globl _setByte
                                    127 	.globl _readBit
                                    128 	.globl _readByte
                                    129 	.globl _i2c_begin
                                    130 	.globl _i2c_write
                                    131 	.globl _i2c_end
                                    132 ;--------------------------------------------------------
                                    133 ; special function registers
                                    134 ;--------------------------------------------------------
                                    135 	.area RSEG    (ABS,DATA)
      000000                        136 	.org 0x0000
                           000080   137 _P0	=	0x0080
                           000081   138 _SP	=	0x0081
                           000082   139 _DPL	=	0x0082
                           000083   140 _DPH	=	0x0083
                           000087   141 _PCON	=	0x0087
                           000088   142 _TCON	=	0x0088
                           000089   143 _TMOD	=	0x0089
                           00008A   144 _TL0	=	0x008a
                           00008B   145 _TL1	=	0x008b
                           00008C   146 _TH0	=	0x008c
                           00008D   147 _TH1	=	0x008d
                           000090   148 _P1	=	0x0090
                           000098   149 _SCON	=	0x0098
                           000099   150 _SBUF	=	0x0099
                           0000A0   151 _P2	=	0x00a0
                           0000A8   152 _IE	=	0x00a8
                           0000B0   153 _P3	=	0x00b0
                           0000B8   154 _IP	=	0x00b8
                           0000D0   155 _PSW	=	0x00d0
                           0000E0   156 _ACC	=	0x00e0
                           0000F0   157 _B	=	0x00f0
                                    158 ;--------------------------------------------------------
                                    159 ; special function bits
                                    160 ;--------------------------------------------------------
                                    161 	.area RSEG    (ABS,DATA)
      000000                        162 	.org 0x0000
                           000080   163 _P0_0	=	0x0080
                           000081   164 _P0_1	=	0x0081
                           000082   165 _P0_2	=	0x0082
                           000083   166 _P0_3	=	0x0083
                           000084   167 _P0_4	=	0x0084
                           000085   168 _P0_5	=	0x0085
                           000086   169 _P0_6	=	0x0086
                           000087   170 _P0_7	=	0x0087
                           000088   171 _IT0	=	0x0088
                           000089   172 _IE0	=	0x0089
                           00008A   173 _IT1	=	0x008a
                           00008B   174 _IE1	=	0x008b
                           00008C   175 _TR0	=	0x008c
                           00008D   176 _TF0	=	0x008d
                           00008E   177 _TR1	=	0x008e
                           00008F   178 _TF1	=	0x008f
                           000090   179 _P1_0	=	0x0090
                           000091   180 _P1_1	=	0x0091
                           000092   181 _P1_2	=	0x0092
                           000093   182 _P1_3	=	0x0093
                           000094   183 _P1_4	=	0x0094
                           000095   184 _P1_5	=	0x0095
                           000096   185 _P1_6	=	0x0096
                           000097   186 _P1_7	=	0x0097
                           000098   187 _RI	=	0x0098
                           000099   188 _TI	=	0x0099
                           00009A   189 _RB8	=	0x009a
                           00009B   190 _TB8	=	0x009b
                           00009C   191 _REN	=	0x009c
                           00009D   192 _SM2	=	0x009d
                           00009E   193 _SM1	=	0x009e
                           00009F   194 _SM0	=	0x009f
                           0000A0   195 _P2_0	=	0x00a0
                           0000A1   196 _P2_1	=	0x00a1
                           0000A2   197 _P2_2	=	0x00a2
                           0000A3   198 _P2_3	=	0x00a3
                           0000A4   199 _P2_4	=	0x00a4
                           0000A5   200 _P2_5	=	0x00a5
                           0000A6   201 _P2_6	=	0x00a6
                           0000A7   202 _P2_7	=	0x00a7
                           0000A8   203 _EX0	=	0x00a8
                           0000A9   204 _ET0	=	0x00a9
                           0000AA   205 _EX1	=	0x00aa
                           0000AB   206 _ET1	=	0x00ab
                           0000AC   207 _ES	=	0x00ac
                           0000AF   208 _EA	=	0x00af
                           0000B0   209 _P3_0	=	0x00b0
                           0000B1   210 _P3_1	=	0x00b1
                           0000B2   211 _P3_2	=	0x00b2
                           0000B3   212 _P3_3	=	0x00b3
                           0000B4   213 _P3_4	=	0x00b4
                           0000B5   214 _P3_5	=	0x00b5
                           0000B6   215 _P3_6	=	0x00b6
                           0000B7   216 _P3_7	=	0x00b7
                           0000B0   217 _RXD	=	0x00b0
                           0000B1   218 _TXD	=	0x00b1
                           0000B2   219 _INT0	=	0x00b2
                           0000B3   220 _INT1	=	0x00b3
                           0000B4   221 _T0	=	0x00b4
                           0000B5   222 _T1	=	0x00b5
                           0000B6   223 _WR	=	0x00b6
                           0000B7   224 _RD	=	0x00b7
                           0000B8   225 _PX0	=	0x00b8
                           0000B9   226 _PT0	=	0x00b9
                           0000BA   227 _PX1	=	0x00ba
                           0000BB   228 _PT1	=	0x00bb
                           0000BC   229 _PS	=	0x00bc
                           0000D0   230 _P	=	0x00d0
                           0000D1   231 _F1	=	0x00d1
                           0000D2   232 _OV	=	0x00d2
                           0000D3   233 _RS0	=	0x00d3
                           0000D4   234 _RS1	=	0x00d4
                           0000D5   235 _F0	=	0x00d5
                           0000D6   236 _AC	=	0x00d6
                           0000D7   237 _CY	=	0x00d7
                                    238 ;--------------------------------------------------------
                                    239 ; overlayable register banks
                                    240 ;--------------------------------------------------------
                                    241 	.area REG_BANK_0	(REL,OVR,DATA)
      000000                        242 	.ds 8
                                    243 ;--------------------------------------------------------
                                    244 ; internal ram data
                                    245 ;--------------------------------------------------------
                                    246 	.area DSEG    (DATA)
      000008                        247 _i::
      000008                        248 	.ds 1
      000009                        249 _i2c_begin_PARM_2:
      000009                        250 	.ds 1
      00000A                        251 _frame::
      00000A                        252 	.ds 2
      00000C                        253 _msg::
      00000C                        254 	.ds 4
      000010                        255 _delay_millis_65536_27:
      000010                        256 	.ds 4
      000014                        257 _printLCD_PARM_2:
      000014                        258 	.ds 1
      000015                        259 _printLCD_i_65536_33:
      000015                        260 	.ds 2
      000017                        261 _strobeLCD_i_131072_37:
      000017                        262 	.ds 2
      000019                        263 _strobeLCD_sloc0_1_0:
      000019                        264 	.ds 3
      00001C                        265 _strobeLCD_sloc1_1_0:
      00001C                        266 	.ds 3
      00001F                        267 _fr::
      00001F                        268 	.ds 2
                                    269 ;--------------------------------------------------------
                                    270 ; overlayable items in internal ram 
                                    271 ;--------------------------------------------------------
                                    272 	.area	OSEG    (OVR,DATA)
                                    273 	.area	OSEG    (OVR,DATA)
      000021                        274 _getStr_PARM_2:
      000021                        275 	.ds 3
                                    276 	.area	OSEG    (OVR,DATA)
                                    277 	.area	OSEG    (OVR,DATA)
                                    278 ;--------------------------------------------------------
                                    279 ; Stack segment in internal ram 
                                    280 ;--------------------------------------------------------
                                    281 	.area	SSEG
      000024                        282 __start__stack:
      000024                        283 	.ds	1
                                    284 
                                    285 ;--------------------------------------------------------
                                    286 ; indirectly addressable internal ram data
                                    287 ;--------------------------------------------------------
                                    288 	.area ISEG    (DATA)
                                    289 ;--------------------------------------------------------
                                    290 ; absolute internal ram data
                                    291 ;--------------------------------------------------------
                                    292 	.area IABS    (ABS,DATA)
                                    293 	.area IABS    (ABS,DATA)
                                    294 ;--------------------------------------------------------
                                    295 ; bit data
                                    296 ;--------------------------------------------------------
                                    297 	.area BSEG    (BIT)
                                    298 ;--------------------------------------------------------
                                    299 ; paged external ram data
                                    300 ;--------------------------------------------------------
                                    301 	.area PSEG    (PAG,XDATA)
                                    302 ;--------------------------------------------------------
                                    303 ; external ram data
                                    304 ;--------------------------------------------------------
                                    305 	.area XSEG    (XDATA)
                                    306 ;--------------------------------------------------------
                                    307 ; absolute external ram data
                                    308 ;--------------------------------------------------------
                                    309 	.area XABS    (ABS,XDATA)
                                    310 ;--------------------------------------------------------
                                    311 ; external initialized ram data
                                    312 ;--------------------------------------------------------
                                    313 	.area XISEG   (XDATA)
                                    314 	.area HOME    (CODE)
                                    315 	.area GSINIT0 (CODE)
                                    316 	.area GSINIT1 (CODE)
                                    317 	.area GSINIT2 (CODE)
                                    318 	.area GSINIT3 (CODE)
                                    319 	.area GSINIT4 (CODE)
                                    320 	.area GSINIT5 (CODE)
                                    321 	.area GSINIT  (CODE)
                                    322 	.area GSFINAL (CODE)
                                    323 	.area CSEG    (CODE)
                                    324 ;--------------------------------------------------------
                                    325 ; interrupt vector 
                                    326 ;--------------------------------------------------------
                                    327 	.area HOME    (CODE)
      000000                        328 __interrupt_vect:
      000000 02 00 06         [24]  329 	ljmp	__sdcc_gsinit_startup
                                    330 ;--------------------------------------------------------
                                    331 ; global & static initialisations
                                    332 ;--------------------------------------------------------
                                    333 	.area HOME    (CODE)
                                    334 	.area GSINIT  (CODE)
                                    335 	.area GSFINAL (CODE)
                                    336 	.area GSINIT  (CODE)
                                    337 	.globl __sdcc_gsinit_startup
                                    338 	.globl __sdcc_program_startup
                                    339 	.globl __start__stack
                                    340 	.globl __mcs51_genXINIT
                                    341 	.globl __mcs51_genXRAMCLEAR
                                    342 	.globl __mcs51_genRAMCLEAR
                                    343 ;	PCF8574.c:7: unsigned char i=0;
      00005F 75 08 00         [24]  344 	mov	_i,#0x00
                                    345 ;	stcboot.c:18: unsigned int frame=0;
      000062 E4               [12]  346 	clr	a
      000063 F5 0A            [12]  347 	mov	_frame,a
      000065 F5 0B            [12]  348 	mov	(_frame + 1),a
                                    349 ;	stcboot.c:91: unsigned int fr=0;
      000067 F5 1F            [12]  350 	mov	_fr,a
      000069 F5 20            [12]  351 	mov	(_fr + 1),a
                                    352 	.area GSFINAL (CODE)
      00006B 02 00 03         [24]  353 	ljmp	__sdcc_program_startup
                                    354 ;--------------------------------------------------------
                                    355 ; Home
                                    356 ;--------------------------------------------------------
                                    357 	.area HOME    (CODE)
                                    358 	.area HOME    (CODE)
      000003                        359 __sdcc_program_startup:
      000003 02 04 4C         [24]  360 	ljmp	_main
                                    361 ;	return from main will return to caller
                                    362 ;--------------------------------------------------------
                                    363 ; code
                                    364 ;--------------------------------------------------------
                                    365 	.area CSEG    (CODE)
                                    366 ;------------------------------------------------------------
                                    367 ;Allocation info for local variables in function 'getChar'
                                    368 ;------------------------------------------------------------
                                    369 ;c                         Allocated to registers r7 
                                    370 ;------------------------------------------------------------
                                    371 ;	anodeDisplay.h:84: unsigned char getChar(char c){
                                    372 ;	-----------------------------------------
                                    373 ;	 function getChar
                                    374 ;	-----------------------------------------
      00006E                        375 _getChar:
                           000007   376 	ar7 = 0x07
                           000006   377 	ar6 = 0x06
                           000005   378 	ar5 = 0x05
                           000004   379 	ar4 = 0x04
                           000003   380 	ar3 = 0x03
                           000002   381 	ar2 = 0x02
                           000001   382 	ar1 = 0x01
                           000000   383 	ar0 = 0x00
      00006E AF 82            [24]  384 	mov	r7,dpl
                                    385 ;	anodeDisplay.h:85: if(c>=48&&c<=57)
      000070 BF 30 00         [24]  386 	cjne	r7,#0x30,00138$
      000073                        387 00138$:
      000073 40 1E            [24]  388 	jc	00109$
      000075 EF               [12]  389 	mov	a,r7
      000076 24 C6            [12]  390 	add	a,#0xff - 0x39
      000078 40 19            [24]  391 	jc	00109$
                                    392 ;	anodeDisplay.h:86: return numArray[c-48];
      00007A 8F 06            [24]  393 	mov	ar6,r7
      00007C EE               [12]  394 	mov	a,r6
      00007D 24 D0            [12]  395 	add	a,#0xd0
      00007F FE               [12]  396 	mov	r6,a
      000080 33               [12]  397 	rlc	a
      000081 95 E0            [12]  398 	subb	a,acc
      000083 FD               [12]  399 	mov	r5,a
      000084 EE               [12]  400 	mov	a,r6
      000085 24 1E            [12]  401 	add	a,#_numArray
      000087 F5 82            [12]  402 	mov	dpl,a
      000089 ED               [12]  403 	mov	a,r5
      00008A 34 07            [12]  404 	addc	a,#(_numArray >> 8)
      00008C F5 83            [12]  405 	mov	dph,a
      00008E E4               [12]  406 	clr	a
      00008F 93               [24]  407 	movc	a,@a+dptr
      000090 F5 82            [12]  408 	mov	dpl,a
      000092 22               [24]  409 	ret
      000093                        410 00109$:
                                    411 ;	anodeDisplay.h:87: else if(c>=65&&c<=90)
      000093 BF 41 00         [24]  412 	cjne	r7,#0x41,00141$
      000096                        413 00141$:
      000096 40 1E            [24]  414 	jc	00105$
      000098 EF               [12]  415 	mov	a,r7
      000099 24 A5            [12]  416 	add	a,#0xff - 0x5a
      00009B 40 19            [24]  417 	jc	00105$
                                    418 ;	anodeDisplay.h:88: return alphaArray[c-65];
      00009D 8F 06            [24]  419 	mov	ar6,r7
      00009F EE               [12]  420 	mov	a,r6
      0000A0 24 BF            [12]  421 	add	a,#0xbf
      0000A2 FE               [12]  422 	mov	r6,a
      0000A3 33               [12]  423 	rlc	a
      0000A4 95 E0            [12]  424 	subb	a,acc
      0000A6 FD               [12]  425 	mov	r5,a
      0000A7 EE               [12]  426 	mov	a,r6
      0000A8 24 04            [12]  427 	add	a,#_alphaArray
      0000AA F5 82            [12]  428 	mov	dpl,a
      0000AC ED               [12]  429 	mov	a,r5
      0000AD 34 07            [12]  430 	addc	a,#(_alphaArray >> 8)
      0000AF F5 83            [12]  431 	mov	dph,a
      0000B1 E4               [12]  432 	clr	a
      0000B2 93               [24]  433 	movc	a,@a+dptr
      0000B3 F5 82            [12]  434 	mov	dpl,a
      0000B5 22               [24]  435 	ret
      0000B6                        436 00105$:
                                    437 ;	anodeDisplay.h:89: else if(c>=97&&c<=122)
      0000B6 BF 61 00         [24]  438 	cjne	r7,#0x61,00144$
      0000B9                        439 00144$:
      0000B9 40 1C            [24]  440 	jc	00110$
      0000BB EF               [12]  441 	mov	a,r7
      0000BC 24 85            [12]  442 	add	a,#0xff - 0x7a
      0000BE 40 17            [24]  443 	jc	00110$
                                    444 ;	anodeDisplay.h:90: return alphaArray[c-97];
      0000C0 EF               [12]  445 	mov	a,r7
      0000C1 24 9F            [12]  446 	add	a,#0x9f
      0000C3 FF               [12]  447 	mov	r7,a
      0000C4 33               [12]  448 	rlc	a
      0000C5 95 E0            [12]  449 	subb	a,acc
      0000C7 FE               [12]  450 	mov	r6,a
      0000C8 EF               [12]  451 	mov	a,r7
      0000C9 24 04            [12]  452 	add	a,#_alphaArray
      0000CB F5 82            [12]  453 	mov	dpl,a
      0000CD EE               [12]  454 	mov	a,r6
      0000CE 34 07            [12]  455 	addc	a,#(_alphaArray >> 8)
      0000D0 F5 83            [12]  456 	mov	dph,a
      0000D2 E4               [12]  457 	clr	a
      0000D3 93               [24]  458 	movc	a,@a+dptr
      0000D4 F5 82            [12]  459 	mov	dpl,a
      0000D6 22               [24]  460 	ret
      0000D7                        461 00110$:
                                    462 ;	anodeDisplay.h:91: return 0;
      0000D7 75 82 00         [24]  463 	mov	dpl,#0x00
                                    464 ;	anodeDisplay.h:92: }
      0000DA 22               [24]  465 	ret
                                    466 ;------------------------------------------------------------
                                    467 ;Allocation info for local variables in function 'getStr'
                                    468 ;------------------------------------------------------------
                                    469 ;str                       Allocated with name '_getStr_PARM_2'
                                    470 ;out                       Allocated to registers r5 r6 r7 
                                    471 ;i                         Allocated to registers r4 
                                    472 ;------------------------------------------------------------
                                    473 ;	anodeDisplay.h:93: void getStr(unsigned char* out, const char* str){
                                    474 ;	-----------------------------------------
                                    475 ;	 function getStr
                                    476 ;	-----------------------------------------
      0000DB                        477 _getStr:
      0000DB AD 82            [24]  478 	mov	r5,dpl
      0000DD AE 83            [24]  479 	mov	r6,dph
      0000DF AF F0            [24]  480 	mov	r7,b
                                    481 ;	anodeDisplay.h:94: for(unsigned char i=0;str[i]!=0;i++){
      0000E1 7C 00            [12]  482 	mov	r4,#0x00
      0000E3                        483 00103$:
      0000E3 EC               [12]  484 	mov	a,r4
      0000E4 25 21            [12]  485 	add	a,_getStr_PARM_2
      0000E6 F9               [12]  486 	mov	r1,a
      0000E7 E4               [12]  487 	clr	a
      0000E8 35 22            [12]  488 	addc	a,(_getStr_PARM_2 + 1)
      0000EA FA               [12]  489 	mov	r2,a
      0000EB AB 23            [24]  490 	mov	r3,(_getStr_PARM_2 + 2)
      0000ED 89 82            [24]  491 	mov	dpl,r1
      0000EF 8A 83            [24]  492 	mov	dph,r2
      0000F1 8B F0            [24]  493 	mov	b,r3
      0000F3 12 06 A1         [24]  494 	lcall	__gptrget
      0000F6 FB               [12]  495 	mov	r3,a
      0000F7 60 15            [24]  496 	jz	00105$
                                    497 ;	anodeDisplay.h:95: out[i]=str[i];
      0000F9 EC               [12]  498 	mov	a,r4
      0000FA 2D               [12]  499 	add	a,r5
      0000FB F8               [12]  500 	mov	r0,a
      0000FC E4               [12]  501 	clr	a
      0000FD 3E               [12]  502 	addc	a,r6
      0000FE F9               [12]  503 	mov	r1,a
      0000FF 8F 02            [24]  504 	mov	ar2,r7
      000101 88 82            [24]  505 	mov	dpl,r0
      000103 89 83            [24]  506 	mov	dph,r1
      000105 8A F0            [24]  507 	mov	b,r2
      000107 EB               [12]  508 	mov	a,r3
      000108 12 05 CD         [24]  509 	lcall	__gptrput
                                    510 ;	anodeDisplay.h:94: for(unsigned char i=0;str[i]!=0;i++){
      00010B 0C               [12]  511 	inc	r4
      00010C 80 D5            [24]  512 	sjmp	00103$
      00010E                        513 00105$:
                                    514 ;	anodeDisplay.h:97: }
      00010E 22               [24]  515 	ret
                                    516 ;------------------------------------------------------------
                                    517 ;Allocation info for local variables in function 'init_i2c'
                                    518 ;------------------------------------------------------------
                                    519 ;	PCF8574.c:8: void init_i2c(){
                                    520 ;	-----------------------------------------
                                    521 ;	 function init_i2c
                                    522 ;	-----------------------------------------
      00010F                        523 _init_i2c:
                                    524 ;	PCF8574.c:11: SDA = 1;//digitalWrite(SDA,HIGH);
                                    525 ;	assignBit
      00010F D2 90            [12]  526 	setb	_P1_0
                                    527 ;	PCF8574.c:12: SCL = 1;//digitalWrite(SCL,HIGH);
                                    528 ;	assignBit
      000111 D2 91            [12]  529 	setb	_P1_1
                                    530 ;	PCF8574.c:13: }
      000113 22               [24]  531 	ret
                                    532 ;------------------------------------------------------------
                                    533 ;Allocation info for local variables in function 'setBit'
                                    534 ;------------------------------------------------------------
                                    535 ;bit                       Allocated to registers r7 
                                    536 ;------------------------------------------------------------
                                    537 ;	PCF8574.c:14: void setBit(unsigned char bit) {
                                    538 ;	-----------------------------------------
                                    539 ;	 function setBit
                                    540 ;	-----------------------------------------
      000114                        541 _setBit:
                                    542 ;	PCF8574.c:15: SDA=bit; //digitalWrite(SDA, bit);
                                    543 ;	assignBit
      000114 E5 82            [12]  544 	mov	a,dpl
      000116 24 FF            [12]  545 	add	a,#0xff
      000118 92 90            [24]  546 	mov	_P1_0,c
                                    547 ;	PCF8574.c:16: SCL=1; //digitalWrite(SCL, HIGH);
                                    548 ;	assignBit
      00011A D2 91            [12]  549 	setb	_P1_1
                                    550 ;	PCF8574.c:17: SCL=0; //digitalWrite(SCL, LOW);
                                    551 ;	assignBit
      00011C C2 91            [12]  552 	clr	_P1_1
                                    553 ;	PCF8574.c:18: SDA=0; //digitalWrite(SDA, LOW);
                                    554 ;	assignBit
      00011E C2 90            [12]  555 	clr	_P1_0
                                    556 ;	PCF8574.c:19: }
      000120 22               [24]  557 	ret
                                    558 ;------------------------------------------------------------
                                    559 ;Allocation info for local variables in function 'setByte'
                                    560 ;------------------------------------------------------------
                                    561 ;bits                      Allocated to registers r7 
                                    562 ;mask                      Allocated to registers r6 
                                    563 ;------------------------------------------------------------
                                    564 ;	PCF8574.c:20: void setByte(unsigned char bits){
                                    565 ;	-----------------------------------------
                                    566 ;	 function setByte
                                    567 ;	-----------------------------------------
      000121                        568 _setByte:
      000121 AF 82            [24]  569 	mov	r7,dpl
                                    570 ;	PCF8574.c:21: unsigned char mask=_BV(7);
      000123 7E 80            [12]  571 	mov	r6,#0x80
                                    572 ;	PCF8574.c:22: while(mask>0){
      000125                        573 00101$:
      000125 EE               [12]  574 	mov	a,r6
      000126 60 15            [24]  575 	jz	00104$
                                    576 ;	PCF8574.c:23: setBit(bits&mask);
      000128 EE               [12]  577 	mov	a,r6
      000129 5F               [12]  578 	anl	a,r7
      00012A F5 82            [12]  579 	mov	dpl,a
      00012C C0 07            [24]  580 	push	ar7
      00012E C0 06            [24]  581 	push	ar6
      000130 12 01 14         [24]  582 	lcall	_setBit
      000133 D0 06            [24]  583 	pop	ar6
      000135 D0 07            [24]  584 	pop	ar7
                                    585 ;	PCF8574.c:24: mask>>=1;
      000137 EE               [12]  586 	mov	a,r6
      000138 C3               [12]  587 	clr	c
      000139 13               [12]  588 	rrc	a
      00013A FE               [12]  589 	mov	r6,a
      00013B 80 E8            [24]  590 	sjmp	00101$
      00013D                        591 00104$:
                                    592 ;	PCF8574.c:26: }
      00013D 22               [24]  593 	ret
                                    594 ;------------------------------------------------------------
                                    595 ;Allocation info for local variables in function 'readBit'
                                    596 ;------------------------------------------------------------
                                    597 ;r                         Allocated to registers 
                                    598 ;------------------------------------------------------------
                                    599 ;	PCF8574.c:27: unsigned char readBit() {
                                    600 ;	-----------------------------------------
                                    601 ;	 function readBit
                                    602 ;	-----------------------------------------
      00013E                        603 _readBit:
                                    604 ;	PCF8574.c:28: SCL=1; //digitalWrite(SCL, HIGH);
                                    605 ;	assignBit
      00013E D2 91            [12]  606 	setb	_P1_1
                                    607 ;	PCF8574.c:29: unsigned char r = SDA; //digitalRead(SDA);
      000140 A2 90            [12]  608 	mov	c,_P1_0
      000142 E4               [12]  609 	clr	a
      000143 33               [12]  610 	rlc	a
      000144 F5 82            [12]  611 	mov	dpl,a
                                    612 ;	PCF8574.c:30: SCL=0; //digitalWrite(SCL, LOW);
                                    613 ;	assignBit
      000146 C2 91            [12]  614 	clr	_P1_1
                                    615 ;	PCF8574.c:31: return r;
                                    616 ;	PCF8574.c:32: }
      000148 22               [24]  617 	ret
                                    618 ;------------------------------------------------------------
                                    619 ;Allocation info for local variables in function 'readByte'
                                    620 ;------------------------------------------------------------
                                    621 ;value                     Allocated to registers r7 
                                    622 ;i                         Allocated to registers r6 
                                    623 ;------------------------------------------------------------
                                    624 ;	PCF8574.c:33: unsigned char readByte(){
                                    625 ;	-----------------------------------------
                                    626 ;	 function readByte
                                    627 ;	-----------------------------------------
      000149                        628 _readByte:
                                    629 ;	PCF8574.c:34: unsigned char value = 0;
      000149 7F 00            [12]  630 	mov	r7,#0x00
                                    631 ;	PCF8574.c:35: for (unsigned char i = 0; i < 8; i++) {
      00014B 7E 00            [12]  632 	mov	r6,#0x00
      00014D                        633 00103$:
      00014D BE 08 00         [24]  634 	cjne	r6,#0x08,00116$
      000150                        635 00116$:
      000150 50 18            [24]  636 	jnc	00101$
                                    637 ;	PCF8574.c:36: value = (value << 1) | readBit();
      000152 8F 05            [24]  638 	mov	ar5,r7
      000154 ED               [12]  639 	mov	a,r5
      000155 2D               [12]  640 	add	a,r5
      000156 FD               [12]  641 	mov	r5,a
      000157 C0 06            [24]  642 	push	ar6
      000159 C0 05            [24]  643 	push	ar5
      00015B 12 01 3E         [24]  644 	lcall	_readBit
      00015E AC 82            [24]  645 	mov	r4,dpl
      000160 D0 05            [24]  646 	pop	ar5
      000162 D0 06            [24]  647 	pop	ar6
      000164 EC               [12]  648 	mov	a,r4
      000165 4D               [12]  649 	orl	a,r5
      000166 FF               [12]  650 	mov	r7,a
                                    651 ;	PCF8574.c:35: for (unsigned char i = 0; i < 8; i++) {
      000167 0E               [12]  652 	inc	r6
      000168 80 E3            [24]  653 	sjmp	00103$
      00016A                        654 00101$:
                                    655 ;	PCF8574.c:38: return value;
      00016A 8F 82            [24]  656 	mov	dpl,r7
                                    657 ;	PCF8574.c:39: }
      00016C 22               [24]  658 	ret
                                    659 ;------------------------------------------------------------
                                    660 ;Allocation info for local variables in function 'i2c_begin'
                                    661 ;------------------------------------------------------------
                                    662 ;rw                        Allocated with name '_i2c_begin_PARM_2'
                                    663 ;addr                      Allocated to registers r7 
                                    664 ;------------------------------------------------------------
                                    665 ;	PCF8574.c:40: unsigned char i2c_begin(unsigned char addr,unsigned char rw){
                                    666 ;	-----------------------------------------
                                    667 ;	 function i2c_begin
                                    668 ;	-----------------------------------------
      00016D                        669 _i2c_begin:
      00016D AF 82            [24]  670 	mov	r7,dpl
                                    671 ;	PCF8574.c:41: SDA=0; //digitalWrite(SDA,LOW);
                                    672 ;	assignBit
      00016F C2 90            [12]  673 	clr	_P1_0
                                    674 ;	PCF8574.c:42: SCL=0;//digitalWrite(SCL,LOW);
                                    675 ;	assignBit
      000171 C2 91            [12]  676 	clr	_P1_1
                                    677 ;	PCF8574.c:43: setByte(addr<<1|rw);
      000173 EF               [12]  678 	mov	a,r7
      000174 2F               [12]  679 	add	a,r7
      000175 FF               [12]  680 	mov	r7,a
      000176 E5 09            [12]  681 	mov	a,_i2c_begin_PARM_2
      000178 4F               [12]  682 	orl	a,r7
      000179 F5 82            [12]  683 	mov	dpl,a
      00017B 12 01 21         [24]  684 	lcall	_setByte
                                    685 ;	PCF8574.c:44: SDA=0;//pinMode(SDA, INPUT);
                                    686 ;	assignBit
      00017E C2 90            [12]  687 	clr	_P1_0
                                    688 ;	PCF8574.c:45: return readBit(); //ACK
                                    689 ;	PCF8574.c:46: }
      000180 02 01 3E         [24]  690 	ljmp	_readBit
                                    691 ;------------------------------------------------------------
                                    692 ;Allocation info for local variables in function 'i2c_write'
                                    693 ;------------------------------------------------------------
                                    694 ;data                      Allocated to registers 
                                    695 ;------------------------------------------------------------
                                    696 ;	PCF8574.c:47: unsigned char i2c_write(unsigned char data){
                                    697 ;	-----------------------------------------
                                    698 ;	 function i2c_write
                                    699 ;	-----------------------------------------
      000183                        700 _i2c_write:
                                    701 ;	PCF8574.c:49: setByte(data); //dataframe
      000183 12 01 21         [24]  702 	lcall	_setByte
                                    703 ;	PCF8574.c:50: SDA=0; //pinMode(SDA, INPUT);
                                    704 ;	assignBit
      000186 C2 90            [12]  705 	clr	_P1_0
                                    706 ;	PCF8574.c:51: return readBit(); //ACK
                                    707 ;	PCF8574.c:52: }
      000188 02 01 3E         [24]  708 	ljmp	_readBit
                                    709 ;------------------------------------------------------------
                                    710 ;Allocation info for local variables in function 'i2c_end'
                                    711 ;------------------------------------------------------------
                                    712 ;	PCF8574.c:53: void i2c_end(){
                                    713 ;	-----------------------------------------
                                    714 ;	 function i2c_end
                                    715 ;	-----------------------------------------
      00018B                        716 _i2c_end:
                                    717 ;	PCF8574.c:54: SCL=1; //digitalWrite(SCL,HIGH);
                                    718 ;	assignBit
      00018B D2 91            [12]  719 	setb	_P1_1
                                    720 ;	PCF8574.c:55: SDA=1; //digitalWrite(SDA,HIGH);
                                    721 ;	assignBit
      00018D D2 90            [12]  722 	setb	_P1_0
                                    723 ;	PCF8574.c:56: }
      00018F 22               [24]  724 	ret
                                    725 ;------------------------------------------------------------
                                    726 ;Allocation info for local variables in function 'delay'
                                    727 ;------------------------------------------------------------
                                    728 ;millis                    Allocated with name '_delay_millis_65536_27'
                                    729 ;i                         Allocated to registers r2 r3 
                                    730 ;j                         Allocated to registers r0 r1 
                                    731 ;------------------------------------------------------------
                                    732 ;	stcboot.c:21: void delay(unsigned long int millis)
                                    733 ;	-----------------------------------------
                                    734 ;	 function delay
                                    735 ;	-----------------------------------------
      000190                        736 _delay:
                                    737 ;	stcboot.c:24: millis *= 0.998f;
      000190 12 05 81         [24]  738 	lcall	___ulong2fs
      000193 AC 82            [24]  739 	mov	r4,dpl
      000195 AD 83            [24]  740 	mov	r5,dph
      000197 AE F0            [24]  741 	mov	r6,b
      000199 FF               [12]  742 	mov	r7,a
      00019A C0 04            [24]  743 	push	ar4
      00019C C0 05            [24]  744 	push	ar5
      00019E C0 06            [24]  745 	push	ar6
      0001A0 C0 07            [24]  746 	push	ar7
      0001A2 90 7C EE         [24]  747 	mov	dptr,#0x7cee
      0001A5 75 F0 7F         [24]  748 	mov	b,#0x7f
      0001A8 74 3F            [12]  749 	mov	a,#0x3f
      0001AA 12 04 7D         [24]  750 	lcall	___fsmul
      0001AD AC 82            [24]  751 	mov	r4,dpl
      0001AF AD 83            [24]  752 	mov	r5,dph
      0001B1 AE F0            [24]  753 	mov	r6,b
      0001B3 FF               [12]  754 	mov	r7,a
      0001B4 E5 81            [12]  755 	mov	a,sp
      0001B6 24 FC            [12]  756 	add	a,#0xfc
      0001B8 F5 81            [12]  757 	mov	sp,a
      0001BA 8C 82            [24]  758 	mov	dpl,r4
      0001BC 8D 83            [24]  759 	mov	dph,r5
      0001BE 8E F0            [24]  760 	mov	b,r6
      0001C0 EF               [12]  761 	mov	a,r7
      0001C1 12 05 94         [24]  762 	lcall	___fs2ulong
      0001C4 85 82 10         [24]  763 	mov	_delay_millis_65536_27,dpl
      0001C7 85 83 11         [24]  764 	mov	(_delay_millis_65536_27 + 1),dph
      0001CA 85 F0 12         [24]  765 	mov	(_delay_millis_65536_27 + 2),b
      0001CD F5 13            [12]  766 	mov	(_delay_millis_65536_27 + 3),a
                                    767 ;	stcboot.c:25: for (int i = 0; i < 44; i++)
      0001CF 7A 00            [12]  768 	mov	r2,#0x00
      0001D1 7B 00            [12]  769 	mov	r3,#0x00
      0001D3                        770 00107$:
      0001D3 C3               [12]  771 	clr	c
      0001D4 EA               [12]  772 	mov	a,r2
      0001D5 94 2C            [12]  773 	subb	a,#0x2c
      0001D7 EB               [12]  774 	mov	a,r3
      0001D8 64 80            [12]  775 	xrl	a,#0x80
      0001DA 94 80            [12]  776 	subb	a,#0x80
      0001DC 50 29            [24]  777 	jnc	00109$
                                    778 ;	stcboot.c:27: for (unsigned int j = 0; j < millis; j++)
      0001DE 78 00            [12]  779 	mov	r0,#0x00
      0001E0 79 00            [12]  780 	mov	r1,#0x00
      0001E2                        781 00104$:
      0001E2 88 04            [24]  782 	mov	ar4,r0
      0001E4 89 05            [24]  783 	mov	ar5,r1
      0001E6 7E 00            [12]  784 	mov	r6,#0x00
      0001E8 7F 00            [12]  785 	mov	r7,#0x00
      0001EA C3               [12]  786 	clr	c
      0001EB EC               [12]  787 	mov	a,r4
      0001EC 95 10            [12]  788 	subb	a,_delay_millis_65536_27
      0001EE ED               [12]  789 	mov	a,r5
      0001EF 95 11            [12]  790 	subb	a,(_delay_millis_65536_27 + 1)
      0001F1 EE               [12]  791 	mov	a,r6
      0001F2 95 12            [12]  792 	subb	a,(_delay_millis_65536_27 + 2)
      0001F4 EF               [12]  793 	mov	a,r7
      0001F5 95 13            [12]  794 	subb	a,(_delay_millis_65536_27 + 3)
      0001F7 50 07            [24]  795 	jnc	00108$
      0001F9 08               [12]  796 	inc	r0
      0001FA B8 00 E5         [24]  797 	cjne	r0,#0x00,00104$
      0001FD 09               [12]  798 	inc	r1
      0001FE 80 E2            [24]  799 	sjmp	00104$
      000200                        800 00108$:
                                    801 ;	stcboot.c:25: for (int i = 0; i < 44; i++)
      000200 0A               [12]  802 	inc	r2
      000201 BA 00 CF         [24]  803 	cjne	r2,#0x00,00107$
      000204 0B               [12]  804 	inc	r3
      000205 80 CC            [24]  805 	sjmp	00107$
      000207                        806 00109$:
                                    807 ;	stcboot.c:33: }
      000207 22               [24]  808 	ret
                                    809 ;------------------------------------------------------------
                                    810 ;Allocation info for local variables in function 'printLCD'
                                    811 ;------------------------------------------------------------
                                    812 ;base                      Allocated with name '_printLCD_PARM_2'
                                    813 ;i                         Allocated with name '_printLCD_i_65536_33'
                                    814 ;------------------------------------------------------------
                                    815 ;	stcboot.c:34: void printLCD(unsigned int i,unsigned char base){
                                    816 ;	-----------------------------------------
                                    817 ;	 function printLCD
                                    818 ;	-----------------------------------------
      000208                        819 _printLCD:
      000208 85 82 15         [24]  820 	mov	_printLCD_i_65536_33,dpl
      00020B 85 83 16         [24]  821 	mov	(_printLCD_i_65536_33 + 1),dph
                                    822 ;	stcboot.c:36: P0 = numArray[(i/base*base*base)%base];
      00020E AC 14            [24]  823 	mov	r4,_printLCD_PARM_2
      000210 7D 00            [12]  824 	mov	r5,#0x00
      000212 8C 21            [24]  825 	mov	__divuint_PARM_2,r4
      000214 8D 22            [24]  826 	mov	(__divuint_PARM_2 + 1),r5
      000216 85 15 82         [24]  827 	mov	dpl,_printLCD_i_65536_33
      000219 85 16 83         [24]  828 	mov	dph,(_printLCD_i_65536_33 + 1)
      00021C C0 05            [24]  829 	push	ar5
      00021E C0 04            [24]  830 	push	ar4
      000220 12 04 54         [24]  831 	lcall	__divuint
      000223 AA 82            [24]  832 	mov	r2,dpl
      000225 AB 83            [24]  833 	mov	r3,dph
      000227 D0 04            [24]  834 	pop	ar4
      000229 D0 05            [24]  835 	pop	ar5
      00022B 8C 21            [24]  836 	mov	__mulint_PARM_2,r4
      00022D 8D 22            [24]  837 	mov	(__mulint_PARM_2 + 1),r5
      00022F 8A 82            [24]  838 	mov	dpl,r2
      000231 8B 83            [24]  839 	mov	dph,r3
      000233 C0 05            [24]  840 	push	ar5
      000235 C0 04            [24]  841 	push	ar4
      000237 C0 03            [24]  842 	push	ar3
      000239 C0 02            [24]  843 	push	ar2
      00023B 12 05 E8         [24]  844 	lcall	__mulint
      00023E A8 82            [24]  845 	mov	r0,dpl
      000240 A9 83            [24]  846 	mov	r1,dph
      000242 D0 02            [24]  847 	pop	ar2
      000244 D0 03            [24]  848 	pop	ar3
      000246 D0 04            [24]  849 	pop	ar4
      000248 D0 05            [24]  850 	pop	ar5
      00024A 8C 21            [24]  851 	mov	__mulint_PARM_2,r4
      00024C 8D 22            [24]  852 	mov	(__mulint_PARM_2 + 1),r5
      00024E 88 82            [24]  853 	mov	dpl,r0
      000250 89 83            [24]  854 	mov	dph,r1
      000252 C0 05            [24]  855 	push	ar5
      000254 C0 04            [24]  856 	push	ar4
      000256 C0 03            [24]  857 	push	ar3
      000258 C0 02            [24]  858 	push	ar2
      00025A C0 01            [24]  859 	push	ar1
      00025C C0 00            [24]  860 	push	ar0
      00025E 12 05 E8         [24]  861 	lcall	__mulint
      000261 D0 00            [24]  862 	pop	ar0
      000263 D0 01            [24]  863 	pop	ar1
      000265 D0 02            [24]  864 	pop	ar2
      000267 D0 03            [24]  865 	pop	ar3
      000269 D0 04            [24]  866 	pop	ar4
      00026B D0 05            [24]  867 	pop	ar5
      00026D 8C 21            [24]  868 	mov	__moduint_PARM_2,r4
      00026F 8D 22            [24]  869 	mov	(__moduint_PARM_2 + 1),r5
      000271 C0 05            [24]  870 	push	ar5
      000273 C0 04            [24]  871 	push	ar4
      000275 C0 03            [24]  872 	push	ar3
      000277 C0 02            [24]  873 	push	ar2
      000279 C0 01            [24]  874 	push	ar1
      00027B C0 00            [24]  875 	push	ar0
      00027D 12 06 05         [24]  876 	lcall	__moduint
      000280 AE 82            [24]  877 	mov	r6,dpl
      000282 AF 83            [24]  878 	mov	r7,dph
      000284 EE               [12]  879 	mov	a,r6
      000285 24 1E            [12]  880 	add	a,#_numArray
      000287 F5 82            [12]  881 	mov	dpl,a
      000289 EF               [12]  882 	mov	a,r7
      00028A 34 07            [12]  883 	addc	a,#(_numArray >> 8)
      00028C F5 83            [12]  884 	mov	dph,a
      00028E E4               [12]  885 	clr	a
      00028F 93               [24]  886 	movc	a,@a+dptr
      000290 F5 80            [12]  887 	mov	_P0,a
                                    888 ;	stcboot.c:37: P2_0 = 0;
                                    889 ;	assignBit
      000292 C2 A0            [12]  890 	clr	_P2_0
                                    891 ;	stcboot.c:38: delay(1);
      000294 90 00 01         [24]  892 	mov	dptr,#(0x01&0x00ff)
      000297 E4               [12]  893 	clr	a
      000298 F5 F0            [12]  894 	mov	b,a
      00029A 12 01 90         [24]  895 	lcall	_delay
      00029D D0 00            [24]  896 	pop	ar0
      00029F D0 01            [24]  897 	pop	ar1
      0002A1 D0 02            [24]  898 	pop	ar2
      0002A3 D0 03            [24]  899 	pop	ar3
      0002A5 D0 04            [24]  900 	pop	ar4
      0002A7 D0 05            [24]  901 	pop	ar5
                                    902 ;	stcboot.c:39: P2_0 = 1;
                                    903 ;	assignBit
      0002A9 D2 A0            [12]  904 	setb	_P2_0
                                    905 ;	stcboot.c:41: P0 = numArray[(i/base*base)%base];
      0002AB 8C 21            [24]  906 	mov	__moduint_PARM_2,r4
      0002AD 8D 22            [24]  907 	mov	(__moduint_PARM_2 + 1),r5
      0002AF 88 82            [24]  908 	mov	dpl,r0
      0002B1 89 83            [24]  909 	mov	dph,r1
      0002B3 C0 05            [24]  910 	push	ar5
      0002B5 C0 04            [24]  911 	push	ar4
      0002B7 C0 03            [24]  912 	push	ar3
      0002B9 C0 02            [24]  913 	push	ar2
      0002BB 12 06 05         [24]  914 	lcall	__moduint
      0002BE AE 82            [24]  915 	mov	r6,dpl
      0002C0 AF 83            [24]  916 	mov	r7,dph
      0002C2 EE               [12]  917 	mov	a,r6
      0002C3 24 1E            [12]  918 	add	a,#_numArray
      0002C5 F5 82            [12]  919 	mov	dpl,a
      0002C7 EF               [12]  920 	mov	a,r7
      0002C8 34 07            [12]  921 	addc	a,#(_numArray >> 8)
      0002CA F5 83            [12]  922 	mov	dph,a
      0002CC E4               [12]  923 	clr	a
      0002CD 93               [24]  924 	movc	a,@a+dptr
      0002CE F5 80            [12]  925 	mov	_P0,a
                                    926 ;	stcboot.c:42: P2_1 = 0;
                                    927 ;	assignBit
      0002D0 C2 A1            [12]  928 	clr	_P2_1
                                    929 ;	stcboot.c:43: delay(1);
      0002D2 90 00 01         [24]  930 	mov	dptr,#(0x01&0x00ff)
      0002D5 E4               [12]  931 	clr	a
      0002D6 F5 F0            [12]  932 	mov	b,a
      0002D8 12 01 90         [24]  933 	lcall	_delay
      0002DB D0 02            [24]  934 	pop	ar2
      0002DD D0 03            [24]  935 	pop	ar3
      0002DF D0 04            [24]  936 	pop	ar4
      0002E1 D0 05            [24]  937 	pop	ar5
                                    938 ;	stcboot.c:44: P2_1 = 1;
                                    939 ;	assignBit
      0002E3 D2 A1            [12]  940 	setb	_P2_1
                                    941 ;	stcboot.c:46: P0 = numArray[(i/base)%base];
      0002E5 8C 21            [24]  942 	mov	__moduint_PARM_2,r4
      0002E7 8D 22            [24]  943 	mov	(__moduint_PARM_2 + 1),r5
      0002E9 8A 82            [24]  944 	mov	dpl,r2
      0002EB 8B 83            [24]  945 	mov	dph,r3
      0002ED C0 05            [24]  946 	push	ar5
      0002EF C0 04            [24]  947 	push	ar4
      0002F1 12 06 05         [24]  948 	lcall	__moduint
      0002F4 AE 82            [24]  949 	mov	r6,dpl
      0002F6 AF 83            [24]  950 	mov	r7,dph
      0002F8 EE               [12]  951 	mov	a,r6
      0002F9 24 1E            [12]  952 	add	a,#_numArray
      0002FB F5 82            [12]  953 	mov	dpl,a
      0002FD EF               [12]  954 	mov	a,r7
      0002FE 34 07            [12]  955 	addc	a,#(_numArray >> 8)
      000300 F5 83            [12]  956 	mov	dph,a
      000302 E4               [12]  957 	clr	a
      000303 93               [24]  958 	movc	a,@a+dptr
      000304 F5 80            [12]  959 	mov	_P0,a
                                    960 ;	stcboot.c:47: P2_2 = 0;
                                    961 ;	assignBit
      000306 C2 A2            [12]  962 	clr	_P2_2
                                    963 ;	stcboot.c:48: delay(1);
      000308 90 00 01         [24]  964 	mov	dptr,#(0x01&0x00ff)
      00030B E4               [12]  965 	clr	a
      00030C F5 F0            [12]  966 	mov	b,a
      00030E 12 01 90         [24]  967 	lcall	_delay
      000311 D0 04            [24]  968 	pop	ar4
      000313 D0 05            [24]  969 	pop	ar5
                                    970 ;	stcboot.c:49: P2_2 = 1;
                                    971 ;	assignBit
      000315 D2 A2            [12]  972 	setb	_P2_2
                                    973 ;	stcboot.c:51: P0 = numArray[i%base];
      000317 8C 21            [24]  974 	mov	__moduint_PARM_2,r4
      000319 8D 22            [24]  975 	mov	(__moduint_PARM_2 + 1),r5
      00031B 85 15 82         [24]  976 	mov	dpl,_printLCD_i_65536_33
      00031E 85 16 83         [24]  977 	mov	dph,(_printLCD_i_65536_33 + 1)
      000321 12 06 05         [24]  978 	lcall	__moduint
      000324 AE 82            [24]  979 	mov	r6,dpl
      000326 AF 83            [24]  980 	mov	r7,dph
      000328 EE               [12]  981 	mov	a,r6
      000329 24 1E            [12]  982 	add	a,#_numArray
      00032B F5 82            [12]  983 	mov	dpl,a
      00032D EF               [12]  984 	mov	a,r7
      00032E 34 07            [12]  985 	addc	a,#(_numArray >> 8)
      000330 F5 83            [12]  986 	mov	dph,a
      000332 E4               [12]  987 	clr	a
      000333 93               [24]  988 	movc	a,@a+dptr
      000334 F5 80            [12]  989 	mov	_P0,a
                                    990 ;	stcboot.c:52: P2_3 = 0;
                                    991 ;	assignBit
      000336 C2 A3            [12]  992 	clr	_P2_3
                                    993 ;	stcboot.c:53: delay(1);
      000338 90 00 01         [24]  994 	mov	dptr,#(0x01&0x00ff)
      00033B E4               [12]  995 	clr	a
      00033C F5 F0            [12]  996 	mov	b,a
      00033E 12 01 90         [24]  997 	lcall	_delay
                                    998 ;	stcboot.c:54: P2_3 = 1;
                                    999 ;	assignBit
      000341 D2 A3            [12] 1000 	setb	_P2_3
                                   1001 ;	stcboot.c:56: }
      000343 22               [24] 1002 	ret
                                   1003 ;------------------------------------------------------------
                                   1004 ;Allocation info for local variables in function 'strobeLCD'
                                   1005 ;------------------------------------------------------------
                                   1006 ;str                       Allocated to registers r5 r6 r7 
                                   1007 ;i                         Allocated with name '_strobeLCD_i_131072_37'
                                   1008 ;sloc0                     Allocated with name '_strobeLCD_sloc0_1_0'
                                   1009 ;sloc1                     Allocated with name '_strobeLCD_sloc1_1_0'
                                   1010 ;------------------------------------------------------------
                                   1011 ;	stcboot.c:57: void strobeLCD(unsigned char * str){
                                   1012 ;	-----------------------------------------
                                   1013 ;	 function strobeLCD
                                   1014 ;	-----------------------------------------
      000344                       1015 _strobeLCD:
      000344 AD 82            [24] 1016 	mov	r5,dpl
      000346 AE 83            [24] 1017 	mov	r6,dph
      000348 AF F0            [24] 1018 	mov	r7,b
                                   1019 ;	stcboot.c:58: for(int i=0;i<10;i++){
      00034A 74 01            [12] 1020 	mov	a,#0x01
      00034C 2D               [12] 1021 	add	a,r5
      00034D FA               [12] 1022 	mov	r2,a
      00034E E4               [12] 1023 	clr	a
      00034F 3E               [12] 1024 	addc	a,r6
      000350 FB               [12] 1025 	mov	r3,a
      000351 8F 04            [24] 1026 	mov	ar4,r7
      000353 74 02            [12] 1027 	mov	a,#0x02
      000355 2D               [12] 1028 	add	a,r5
      000356 F5 19            [12] 1029 	mov	_strobeLCD_sloc0_1_0,a
      000358 E4               [12] 1030 	clr	a
      000359 3E               [12] 1031 	addc	a,r6
      00035A F5 1A            [12] 1032 	mov	(_strobeLCD_sloc0_1_0 + 1),a
      00035C 8F 1B            [24] 1033 	mov	(_strobeLCD_sloc0_1_0 + 2),r7
      00035E 74 03            [12] 1034 	mov	a,#0x03
      000360 2D               [12] 1035 	add	a,r5
      000361 F5 1C            [12] 1036 	mov	_strobeLCD_sloc1_1_0,a
      000363 E4               [12] 1037 	clr	a
      000364 3E               [12] 1038 	addc	a,r6
      000365 F5 1D            [12] 1039 	mov	(_strobeLCD_sloc1_1_0 + 1),a
      000367 8F 1E            [24] 1040 	mov	(_strobeLCD_sloc1_1_0 + 2),r7
      000369 E4               [12] 1041 	clr	a
      00036A F5 17            [12] 1042 	mov	_strobeLCD_i_131072_37,a
      00036C F5 18            [12] 1043 	mov	(_strobeLCD_i_131072_37 + 1),a
      00036E                       1044 00103$:
      00036E C3               [12] 1045 	clr	c
      00036F E5 17            [12] 1046 	mov	a,_strobeLCD_i_131072_37
      000371 94 0A            [12] 1047 	subb	a,#0x0a
      000373 E5 18            [12] 1048 	mov	a,(_strobeLCD_i_131072_37 + 1)
      000375 64 80            [12] 1049 	xrl	a,#0x80
      000377 94 80            [12] 1050 	subb	a,#0x80
      000379 40 01            [24] 1051 	jc	00116$
      00037B 22               [24] 1052 	ret
      00037C                       1053 00116$:
                                   1054 ;	stcboot.c:59: P0 = ~str[0];
      00037C 8D 82            [24] 1055 	mov	dpl,r5
      00037E 8E 83            [24] 1056 	mov	dph,r6
      000380 8F F0            [24] 1057 	mov	b,r7
      000382 12 06 A1         [24] 1058 	lcall	__gptrget
      000385 F4               [12] 1059 	cpl	a
      000386 F5 80            [12] 1060 	mov	_P0,a
                                   1061 ;	stcboot.c:60: P2_0 = 0;
                                   1062 ;	assignBit
      000388 C2 A0            [12] 1063 	clr	_P2_0
                                   1064 ;	stcboot.c:61: delay(1);
      00038A 90 00 01         [24] 1065 	mov	dptr,#(0x01&0x00ff)
      00038D E4               [12] 1066 	clr	a
      00038E F5 F0            [12] 1067 	mov	b,a
      000390 C0 07            [24] 1068 	push	ar7
      000392 C0 06            [24] 1069 	push	ar6
      000394 C0 05            [24] 1070 	push	ar5
      000396 C0 04            [24] 1071 	push	ar4
      000398 C0 03            [24] 1072 	push	ar3
      00039A C0 02            [24] 1073 	push	ar2
      00039C 12 01 90         [24] 1074 	lcall	_delay
      00039F D0 02            [24] 1075 	pop	ar2
      0003A1 D0 03            [24] 1076 	pop	ar3
      0003A3 D0 04            [24] 1077 	pop	ar4
                                   1078 ;	stcboot.c:62: P2_0 = 1;
                                   1079 ;	assignBit
      0003A5 D2 A0            [12] 1080 	setb	_P2_0
                                   1081 ;	stcboot.c:64: P0 = ~str[1];
      0003A7 8A 82            [24] 1082 	mov	dpl,r2
      0003A9 8B 83            [24] 1083 	mov	dph,r3
      0003AB 8C F0            [24] 1084 	mov	b,r4
      0003AD 12 06 A1         [24] 1085 	lcall	__gptrget
      0003B0 F4               [12] 1086 	cpl	a
      0003B1 F5 80            [12] 1087 	mov	_P0,a
                                   1088 ;	stcboot.c:65: P2_1 = 0;
                                   1089 ;	assignBit
      0003B3 C2 A1            [12] 1090 	clr	_P2_1
                                   1091 ;	stcboot.c:66: delay(1);
      0003B5 90 00 01         [24] 1092 	mov	dptr,#(0x01&0x00ff)
      0003B8 E4               [12] 1093 	clr	a
      0003B9 F5 F0            [12] 1094 	mov	b,a
      0003BB C0 04            [24] 1095 	push	ar4
      0003BD C0 03            [24] 1096 	push	ar3
      0003BF C0 02            [24] 1097 	push	ar2
      0003C1 12 01 90         [24] 1098 	lcall	_delay
                                   1099 ;	stcboot.c:67: P2_1 = 1;
                                   1100 ;	assignBit
      0003C4 D2 A1            [12] 1101 	setb	_P2_1
                                   1102 ;	stcboot.c:69: P0 = ~str[2];
      0003C6 85 19 82         [24] 1103 	mov	dpl,_strobeLCD_sloc0_1_0
      0003C9 85 1A 83         [24] 1104 	mov	dph,(_strobeLCD_sloc0_1_0 + 1)
      0003CC 85 1B F0         [24] 1105 	mov	b,(_strobeLCD_sloc0_1_0 + 2)
      0003CF 12 06 A1         [24] 1106 	lcall	__gptrget
      0003D2 F4               [12] 1107 	cpl	a
      0003D3 F5 80            [12] 1108 	mov	_P0,a
                                   1109 ;	stcboot.c:70: P2_2 = 0;
                                   1110 ;	assignBit
      0003D5 C2 A2            [12] 1111 	clr	_P2_2
                                   1112 ;	stcboot.c:71: delay(1);
      0003D7 90 00 01         [24] 1113 	mov	dptr,#(0x01&0x00ff)
      0003DA E4               [12] 1114 	clr	a
      0003DB F5 F0            [12] 1115 	mov	b,a
      0003DD 12 01 90         [24] 1116 	lcall	_delay
                                   1117 ;	stcboot.c:72: P2_2 = 1;
                                   1118 ;	assignBit
      0003E0 D2 A2            [12] 1119 	setb	_P2_2
                                   1120 ;	stcboot.c:74: P0 = ~str[3];
      0003E2 85 1C 82         [24] 1121 	mov	dpl,_strobeLCD_sloc1_1_0
      0003E5 85 1D 83         [24] 1122 	mov	dph,(_strobeLCD_sloc1_1_0 + 1)
      0003E8 85 1E F0         [24] 1123 	mov	b,(_strobeLCD_sloc1_1_0 + 2)
      0003EB 12 06 A1         [24] 1124 	lcall	__gptrget
      0003EE F4               [12] 1125 	cpl	a
      0003EF F5 80            [12] 1126 	mov	_P0,a
                                   1127 ;	stcboot.c:75: P2_3 = 0;
                                   1128 ;	assignBit
      0003F1 C2 A3            [12] 1129 	clr	_P2_3
                                   1130 ;	stcboot.c:76: delay(1);
      0003F3 90 00 01         [24] 1131 	mov	dptr,#(0x01&0x00ff)
      0003F6 E4               [12] 1132 	clr	a
      0003F7 F5 F0            [12] 1133 	mov	b,a
      0003F9 12 01 90         [24] 1134 	lcall	_delay
      0003FC D0 02            [24] 1135 	pop	ar2
      0003FE D0 03            [24] 1136 	pop	ar3
      000400 D0 04            [24] 1137 	pop	ar4
      000402 D0 05            [24] 1138 	pop	ar5
      000404 D0 06            [24] 1139 	pop	ar6
      000406 D0 07            [24] 1140 	pop	ar7
                                   1141 ;	stcboot.c:77: P2_3 = 1;
                                   1142 ;	assignBit
      000408 D2 A3            [12] 1143 	setb	_P2_3
                                   1144 ;	stcboot.c:58: for(int i=0;i<10;i++){
      00040A 05 17            [12] 1145 	inc	_strobeLCD_i_131072_37
      00040C E4               [12] 1146 	clr	a
      00040D B5 17 02         [24] 1147 	cjne	a,_strobeLCD_i_131072_37,00117$
      000410 05 18            [12] 1148 	inc	(_strobeLCD_i_131072_37 + 1)
      000412                       1149 00117$:
                                   1150 ;	stcboot.c:79: }
      000412 02 03 6E         [24] 1151 	ljmp	00103$
                                   1152 ;------------------------------------------------------------
                                   1153 ;Allocation info for local variables in function 'setup'
                                   1154 ;------------------------------------------------------------
                                   1155 ;	stcboot.c:80: void setup(){
                                   1156 ;	-----------------------------------------
                                   1157 ;	 function setup
                                   1158 ;	-----------------------------------------
      000415                       1159 _setup:
                                   1160 ;	stcboot.c:88: init_i2c();
      000415 12 01 0F         [24] 1161 	lcall	_init_i2c
                                   1162 ;	stcboot.c:89: i2c_begin(XGPIO_ADDR,WRITE);
      000418 75 09 00         [24] 1163 	mov	_i2c_begin_PARM_2,#0x00
      00041B 75 82 27         [24] 1164 	mov	dpl,#0x27
                                   1165 ;	stcboot.c:90: }
      00041E 02 01 6D         [24] 1166 	ljmp	_i2c_begin
                                   1167 ;------------------------------------------------------------
                                   1168 ;Allocation info for local variables in function 'loop'
                                   1169 ;------------------------------------------------------------
                                   1170 ;	stcboot.c:92: void loop(){
                                   1171 ;	-----------------------------------------
                                   1172 ;	 function loop
                                   1173 ;	-----------------------------------------
      000421                       1174 _loop:
                                   1175 ;	stcboot.c:96: i2c_write(8-fr++);
      000421 AE 1F            [24] 1176 	mov	r6,_fr
      000423 05 1F            [12] 1177 	inc	_fr
      000425 E4               [12] 1178 	clr	a
      000426 B5 1F 02         [24] 1179 	cjne	a,_fr,00109$
      000429 05 20            [12] 1180 	inc	(_fr + 1)
      00042B                       1181 00109$:
      00042B 74 08            [12] 1182 	mov	a,#0x08
      00042D C3               [12] 1183 	clr	c
      00042E 9E               [12] 1184 	subb	a,r6
      00042F F5 82            [12] 1185 	mov	dpl,a
      000431 12 01 83         [24] 1186 	lcall	_i2c_write
                                   1187 ;	stcboot.c:97: if(fr>8)fr=0;
      000434 C3               [12] 1188 	clr	c
      000435 74 08            [12] 1189 	mov	a,#0x08
      000437 95 1F            [12] 1190 	subb	a,_fr
      000439 E4               [12] 1191 	clr	a
      00043A 95 20            [12] 1192 	subb	a,(_fr + 1)
      00043C 50 05            [24] 1193 	jnc	00102$
      00043E E4               [12] 1194 	clr	a
      00043F F5 1F            [12] 1195 	mov	_fr,a
      000441 F5 20            [12] 1196 	mov	(_fr + 1),a
      000443                       1197 00102$:
                                   1198 ;	stcboot.c:98: delay(500);
      000443 90 01 F4         [24] 1199 	mov	dptr,#0x01f4
      000446 E4               [12] 1200 	clr	a
      000447 F5 F0            [12] 1201 	mov	b,a
                                   1202 ;	stcboot.c:99: }
      000449 02 01 90         [24] 1203 	ljmp	_delay
                                   1204 ;------------------------------------------------------------
                                   1205 ;Allocation info for local variables in function 'main'
                                   1206 ;------------------------------------------------------------
                                   1207 ;	stcboot.c:100: void main(void){
                                   1208 ;	-----------------------------------------
                                   1209 ;	 function main
                                   1210 ;	-----------------------------------------
      00044C                       1211 _main:
                                   1212 ;	stcboot.c:101: setup();
      00044C 12 04 15         [24] 1213 	lcall	_setup
                                   1214 ;	stcboot.c:102: while (1) {
      00044F                       1215 00102$:
                                   1216 ;	stcboot.c:103: loop();
      00044F 12 04 21         [24] 1217 	lcall	_loop
                                   1218 ;	stcboot.c:105: }
      000452 80 FB            [24] 1219 	sjmp	00102$
                                   1220 	.area CSEG    (CODE)
                                   1221 	.area CONST   (CODE)
      000704                       1222 _alphaArray:
      000704 88                    1223 	.db #0x88	; 136
      000705 83                    1224 	.db #0x83	; 131
      000706 C6                    1225 	.db #0xc6	; 198
      000707 A1                    1226 	.db #0xa1	; 161
      000708 86                    1227 	.db #0x86	; 134
      000709 8E                    1228 	.db #0x8e	; 142
      00070A C2                    1229 	.db #0xc2	; 194
      00070B 8B                    1230 	.db #0x8b	; 139
      00070C CF                    1231 	.db #0xcf	; 207
      00070D E1                    1232 	.db #0xe1	; 225
      00070E 8A                    1233 	.db #0x8a	; 138
      00070F C7                    1234 	.db #0xc7	; 199
      000710 EA                    1235 	.db #0xea	; 234
      000711 CB                    1236 	.db #0xcb	; 203
      000712 A3                    1237 	.db #0xa3	; 163
      000713 8C                    1238 	.db #0x8c	; 140
      000714 98                    1239 	.db #0x98	; 152
      000715 CC                    1240 	.db #0xcc	; 204
      000716 92                    1241 	.db #0x92	; 146
      000717 87                    1242 	.db #0x87	; 135
      000718 C1                    1243 	.db #0xc1	; 193
      000719 C5                    1244 	.db #0xc5	; 197
      00071A D5                    1245 	.db #0xd5	; 213
      00071B 89                    1246 	.db #0x89	; 137
      00071C 91                    1247 	.db #0x91	; 145
      00071D B4                    1248 	.db #0xb4	; 180
      00071E                       1249 _numArray:
      00071E C0                    1250 	.db #0xc0	; 192
      00071F F9                    1251 	.db #0xf9	; 249
      000720 A4                    1252 	.db #0xa4	; 164
      000721 B0                    1253 	.db #0xb0	; 176
      000722 99                    1254 	.db #0x99	; 153
      000723 92                    1255 	.db #0x92	; 146
      000724 82                    1256 	.db #0x82	; 130
      000725 F8                    1257 	.db #0xf8	; 248
      000726 80                    1258 	.db #0x80	; 128
      000727 90                    1259 	.db #0x90	; 144
      000728 88                    1260 	.db #0x88	; 136
      000729 83                    1261 	.db #0x83	; 131
      00072A C6                    1262 	.db #0xc6	; 198
      00072B A1                    1263 	.db #0xa1	; 161
      00072C 86                    1264 	.db #0x86	; 134
      00072D 8E                    1265 	.db #0x8e	; 142
                                   1266 	.area XINIT   (CODE)
                                   1267 	.area CABS    (ABS,CODE)
