                                      1 ;--------------------------------------------------------
                                      2 ; File Created by SDCC : free open source ANSI-C Compiler
                                      3 ; Version 3.8.0 #10562 (Linux)
                                      4 ;--------------------------------------------------------
                                      5 	.module stcboot
                                      6 	.optsdcc -mmcs51 --model-small
                                      7 	
                                      8 ;--------------------------------------------------------
                                      9 ; Public variables in this module
                                     10 ;--------------------------------------------------------
                                     11 	.globl _getStr_PARM_2
                                     12 	.globl _numArray
                                     13 	.globl _alphaArray
                                     14 	.globl _main
                                     15 	.globl _loop
                                     16 	.globl _setup
                                     17 	.globl _strobeLCD
                                     18 	.globl _printLCD
                                     19 	.globl _delay
                                     20 	.globl _getStr
                                     21 	.globl _getChar
                                     22 	.globl _CY
                                     23 	.globl _AC
                                     24 	.globl _F0
                                     25 	.globl _RS1
                                     26 	.globl _RS0
                                     27 	.globl _OV
                                     28 	.globl _F1
                                     29 	.globl _P
                                     30 	.globl _PS
                                     31 	.globl _PT1
                                     32 	.globl _PX1
                                     33 	.globl _PT0
                                     34 	.globl _PX0
                                     35 	.globl _RD
                                     36 	.globl _WR
                                     37 	.globl _T1
                                     38 	.globl _T0
                                     39 	.globl _INT1
                                     40 	.globl _INT0
                                     41 	.globl _TXD
                                     42 	.globl _RXD
                                     43 	.globl _P3_7
                                     44 	.globl _P3_6
                                     45 	.globl _P3_5
                                     46 	.globl _P3_4
                                     47 	.globl _P3_3
                                     48 	.globl _P3_2
                                     49 	.globl _P3_1
                                     50 	.globl _P3_0
                                     51 	.globl _EA
                                     52 	.globl _ES
                                     53 	.globl _ET1
                                     54 	.globl _EX1
                                     55 	.globl _ET0
                                     56 	.globl _EX0
                                     57 	.globl _P2_7
                                     58 	.globl _P2_6
                                     59 	.globl _P2_5
                                     60 	.globl _P2_4
                                     61 	.globl _P2_3
                                     62 	.globl _P2_2
                                     63 	.globl _P2_1
                                     64 	.globl _P2_0
                                     65 	.globl _SM0
                                     66 	.globl _SM1
                                     67 	.globl _SM2
                                     68 	.globl _REN
                                     69 	.globl _TB8
                                     70 	.globl _RB8
                                     71 	.globl _TI
                                     72 	.globl _RI
                                     73 	.globl _P1_7
                                     74 	.globl _P1_6
                                     75 	.globl _P1_5
                                     76 	.globl _P1_4
                                     77 	.globl _P1_3
                                     78 	.globl _P1_2
                                     79 	.globl _P1_1
                                     80 	.globl _P1_0
                                     81 	.globl _TF1
                                     82 	.globl _TR1
                                     83 	.globl _TF0
                                     84 	.globl _TR0
                                     85 	.globl _IE1
                                     86 	.globl _IT1
                                     87 	.globl _IE0
                                     88 	.globl _IT0
                                     89 	.globl _P0_7
                                     90 	.globl _P0_6
                                     91 	.globl _P0_5
                                     92 	.globl _P0_4
                                     93 	.globl _P0_3
                                     94 	.globl _P0_2
                                     95 	.globl _P0_1
                                     96 	.globl _P0_0
                                     97 	.globl _B
                                     98 	.globl _ACC
                                     99 	.globl _PSW
                                    100 	.globl _IP
                                    101 	.globl _P3
                                    102 	.globl _IE
                                    103 	.globl _P2
                                    104 	.globl _SBUF
                                    105 	.globl _SCON
                                    106 	.globl _P1
                                    107 	.globl _TH1
                                    108 	.globl _TH0
                                    109 	.globl _TL1
                                    110 	.globl _TL0
                                    111 	.globl _TMOD
                                    112 	.globl _TCON
                                    113 	.globl _PCON
                                    114 	.globl _DPH
                                    115 	.globl _DPL
                                    116 	.globl _SP
                                    117 	.globl _P0
                                    118 	.globl _printLCD_PARM_2
                                    119 ;--------------------------------------------------------
                                    120 ; special function registers
                                    121 ;--------------------------------------------------------
                                    122 	.area RSEG    (ABS,DATA)
      000000                        123 	.org 0x0000
                           000080   124 _P0	=	0x0080
                           000081   125 _SP	=	0x0081
                           000082   126 _DPL	=	0x0082
                           000083   127 _DPH	=	0x0083
                           000087   128 _PCON	=	0x0087
                           000088   129 _TCON	=	0x0088
                           000089   130 _TMOD	=	0x0089
                           00008A   131 _TL0	=	0x008a
                           00008B   132 _TL1	=	0x008b
                           00008C   133 _TH0	=	0x008c
                           00008D   134 _TH1	=	0x008d
                           000090   135 _P1	=	0x0090
                           000098   136 _SCON	=	0x0098
                           000099   137 _SBUF	=	0x0099
                           0000A0   138 _P2	=	0x00a0
                           0000A8   139 _IE	=	0x00a8
                           0000B0   140 _P3	=	0x00b0
                           0000B8   141 _IP	=	0x00b8
                           0000D0   142 _PSW	=	0x00d0
                           0000E0   143 _ACC	=	0x00e0
                           0000F0   144 _B	=	0x00f0
                                    145 ;--------------------------------------------------------
                                    146 ; special function bits
                                    147 ;--------------------------------------------------------
                                    148 	.area RSEG    (ABS,DATA)
      000000                        149 	.org 0x0000
                           000080   150 _P0_0	=	0x0080
                           000081   151 _P0_1	=	0x0081
                           000082   152 _P0_2	=	0x0082
                           000083   153 _P0_3	=	0x0083
                           000084   154 _P0_4	=	0x0084
                           000085   155 _P0_5	=	0x0085
                           000086   156 _P0_6	=	0x0086
                           000087   157 _P0_7	=	0x0087
                           000088   158 _IT0	=	0x0088
                           000089   159 _IE0	=	0x0089
                           00008A   160 _IT1	=	0x008a
                           00008B   161 _IE1	=	0x008b
                           00008C   162 _TR0	=	0x008c
                           00008D   163 _TF0	=	0x008d
                           00008E   164 _TR1	=	0x008e
                           00008F   165 _TF1	=	0x008f
                           000090   166 _P1_0	=	0x0090
                           000091   167 _P1_1	=	0x0091
                           000092   168 _P1_2	=	0x0092
                           000093   169 _P1_3	=	0x0093
                           000094   170 _P1_4	=	0x0094
                           000095   171 _P1_5	=	0x0095
                           000096   172 _P1_6	=	0x0096
                           000097   173 _P1_7	=	0x0097
                           000098   174 _RI	=	0x0098
                           000099   175 _TI	=	0x0099
                           00009A   176 _RB8	=	0x009a
                           00009B   177 _TB8	=	0x009b
                           00009C   178 _REN	=	0x009c
                           00009D   179 _SM2	=	0x009d
                           00009E   180 _SM1	=	0x009e
                           00009F   181 _SM0	=	0x009f
                           0000A0   182 _P2_0	=	0x00a0
                           0000A1   183 _P2_1	=	0x00a1
                           0000A2   184 _P2_2	=	0x00a2
                           0000A3   185 _P2_3	=	0x00a3
                           0000A4   186 _P2_4	=	0x00a4
                           0000A5   187 _P2_5	=	0x00a5
                           0000A6   188 _P2_6	=	0x00a6
                           0000A7   189 _P2_7	=	0x00a7
                           0000A8   190 _EX0	=	0x00a8
                           0000A9   191 _ET0	=	0x00a9
                           0000AA   192 _EX1	=	0x00aa
                           0000AB   193 _ET1	=	0x00ab
                           0000AC   194 _ES	=	0x00ac
                           0000AF   195 _EA	=	0x00af
                           0000B0   196 _P3_0	=	0x00b0
                           0000B1   197 _P3_1	=	0x00b1
                           0000B2   198 _P3_2	=	0x00b2
                           0000B3   199 _P3_3	=	0x00b3
                           0000B4   200 _P3_4	=	0x00b4
                           0000B5   201 _P3_5	=	0x00b5
                           0000B6   202 _P3_6	=	0x00b6
                           0000B7   203 _P3_7	=	0x00b7
                           0000B0   204 _RXD	=	0x00b0
                           0000B1   205 _TXD	=	0x00b1
                           0000B2   206 _INT0	=	0x00b2
                           0000B3   207 _INT1	=	0x00b3
                           0000B4   208 _T0	=	0x00b4
                           0000B5   209 _T1	=	0x00b5
                           0000B6   210 _WR	=	0x00b6
                           0000B7   211 _RD	=	0x00b7
                           0000B8   212 _PX0	=	0x00b8
                           0000B9   213 _PT0	=	0x00b9
                           0000BA   214 _PX1	=	0x00ba
                           0000BB   215 _PT1	=	0x00bb
                           0000BC   216 _PS	=	0x00bc
                           0000D0   217 _P	=	0x00d0
                           0000D1   218 _F1	=	0x00d1
                           0000D2   219 _OV	=	0x00d2
                           0000D3   220 _RS0	=	0x00d3
                           0000D4   221 _RS1	=	0x00d4
                           0000D5   222 _F0	=	0x00d5
                           0000D6   223 _AC	=	0x00d6
                           0000D7   224 _CY	=	0x00d7
                                    225 ;--------------------------------------------------------
                                    226 ; overlayable register banks
                                    227 ;--------------------------------------------------------
                                    228 	.area REG_BANK_0	(REL,OVR,DATA)
      000000                        229 	.ds 8
                                    230 ;--------------------------------------------------------
                                    231 ; internal ram data
                                    232 ;--------------------------------------------------------
                                    233 	.area DSEG    (DATA)
      000008                        234 _delay_millis_65536_7:
      000008                        235 	.ds 4
      00000C                        236 _printLCD_PARM_2:
      00000C                        237 	.ds 1
      00000D                        238 _printLCD_i_65536_13:
      00000D                        239 	.ds 2
      00000F                        240 _strobeLCD_i_131072_17:
      00000F                        241 	.ds 2
      000011                        242 _strobeLCD_sloc0_1_0:
      000011                        243 	.ds 3
      000014                        244 _strobeLCD_sloc1_1_0:
      000014                        245 	.ds 3
      000017                        246 _loop_msg_65536_20:
      000017                        247 	.ds 4
                                    248 ;--------------------------------------------------------
                                    249 ; overlayable items in internal ram 
                                    250 ;--------------------------------------------------------
                                    251 	.area	OSEG    (OVR,DATA)
                                    252 	.area	OSEG    (OVR,DATA)
      00001B                        253 _getStr_PARM_2:
      00001B                        254 	.ds 3
                                    255 ;--------------------------------------------------------
                                    256 ; Stack segment in internal ram 
                                    257 ;--------------------------------------------------------
                                    258 	.area	SSEG
      00001E                        259 __start__stack:
      00001E                        260 	.ds	1
                                    261 
                                    262 ;--------------------------------------------------------
                                    263 ; indirectly addressable internal ram data
                                    264 ;--------------------------------------------------------
                                    265 	.area ISEG    (DATA)
                                    266 ;--------------------------------------------------------
                                    267 ; absolute internal ram data
                                    268 ;--------------------------------------------------------
                                    269 	.area IABS    (ABS,DATA)
                                    270 	.area IABS    (ABS,DATA)
                                    271 ;--------------------------------------------------------
                                    272 ; bit data
                                    273 ;--------------------------------------------------------
                                    274 	.area BSEG    (BIT)
                                    275 ;--------------------------------------------------------
                                    276 ; paged external ram data
                                    277 ;--------------------------------------------------------
                                    278 	.area PSEG    (PAG,XDATA)
                                    279 ;--------------------------------------------------------
                                    280 ; external ram data
                                    281 ;--------------------------------------------------------
                                    282 	.area XSEG    (XDATA)
                                    283 ;--------------------------------------------------------
                                    284 ; absolute external ram data
                                    285 ;--------------------------------------------------------
                                    286 	.area XABS    (ABS,XDATA)
                                    287 ;--------------------------------------------------------
                                    288 ; external initialized ram data
                                    289 ;--------------------------------------------------------
                                    290 	.area XISEG   (XDATA)
                                    291 	.area HOME    (CODE)
                                    292 	.area GSINIT0 (CODE)
                                    293 	.area GSINIT1 (CODE)
                                    294 	.area GSINIT2 (CODE)
                                    295 	.area GSINIT3 (CODE)
                                    296 	.area GSINIT4 (CODE)
                                    297 	.area GSINIT5 (CODE)
                                    298 	.area GSINIT  (CODE)
                                    299 	.area GSFINAL (CODE)
                                    300 	.area CSEG    (CODE)
                                    301 ;--------------------------------------------------------
                                    302 ; interrupt vector 
                                    303 ;--------------------------------------------------------
                                    304 	.area HOME    (CODE)
      000000                        305 __interrupt_vect:
      000000 02 00 06         [24]  306 	ljmp	__sdcc_gsinit_startup
                                    307 ;--------------------------------------------------------
                                    308 ; global & static initialisations
                                    309 ;--------------------------------------------------------
                                    310 	.area HOME    (CODE)
                                    311 	.area GSINIT  (CODE)
                                    312 	.area GSFINAL (CODE)
                                    313 	.area GSINIT  (CODE)
                                    314 	.globl __sdcc_gsinit_startup
                                    315 	.globl __sdcc_program_startup
                                    316 	.globl __start__stack
                                    317 	.globl __mcs51_genXINIT
                                    318 	.globl __mcs51_genXRAMCLEAR
                                    319 	.globl __mcs51_genRAMCLEAR
                                    320 	.area GSFINAL (CODE)
      00005F 02 00 03         [24]  321 	ljmp	__sdcc_program_startup
                                    322 ;--------------------------------------------------------
                                    323 ; Home
                                    324 ;--------------------------------------------------------
                                    325 	.area HOME    (CODE)
                                    326 	.area HOME    (CODE)
      000003                        327 __sdcc_program_startup:
      000003 02 03 B0         [24]  328 	ljmp	_main
                                    329 ;	return from main will return to caller
                                    330 ;--------------------------------------------------------
                                    331 ; code
                                    332 ;--------------------------------------------------------
                                    333 	.area CSEG    (CODE)
                                    334 ;------------------------------------------------------------
                                    335 ;Allocation info for local variables in function 'getChar'
                                    336 ;------------------------------------------------------------
                                    337 ;c                         Allocated to registers r7 
                                    338 ;------------------------------------------------------------
                                    339 ;	anodeDisplay.h:84: unsigned char getChar(char c){
                                    340 ;	-----------------------------------------
                                    341 ;	 function getChar
                                    342 ;	-----------------------------------------
      000062                        343 _getChar:
                           000007   344 	ar7 = 0x07
                           000006   345 	ar6 = 0x06
                           000005   346 	ar5 = 0x05
                           000004   347 	ar4 = 0x04
                           000003   348 	ar3 = 0x03
                           000002   349 	ar2 = 0x02
                           000001   350 	ar1 = 0x01
                           000000   351 	ar0 = 0x00
      000062 AF 82            [24]  352 	mov	r7,dpl
                                    353 ;	anodeDisplay.h:85: if(c>=48&&c<=57)
      000064 BF 30 00         [24]  354 	cjne	r7,#0x30,00138$
      000067                        355 00138$:
      000067 40 1E            [24]  356 	jc	00109$
      000069 EF               [12]  357 	mov	a,r7
      00006A 24 C6            [12]  358 	add	a,#0xff - 0x39
      00006C 40 19            [24]  359 	jc	00109$
                                    360 ;	anodeDisplay.h:86: return numArray[c-48];
      00006E 8F 06            [24]  361 	mov	ar6,r7
      000070 EE               [12]  362 	mov	a,r6
      000071 24 D0            [12]  363 	add	a,#0xd0
      000073 FE               [12]  364 	mov	r6,a
      000074 33               [12]  365 	rlc	a
      000075 95 E0            [12]  366 	subb	a,acc
      000077 FD               [12]  367 	mov	r5,a
      000078 EE               [12]  368 	mov	a,r6
      000079 24 80            [12]  369 	add	a,#_numArray
      00007B F5 82            [12]  370 	mov	dpl,a
      00007D ED               [12]  371 	mov	a,r5
      00007E 34 06            [12]  372 	addc	a,#(_numArray >> 8)
      000080 F5 83            [12]  373 	mov	dph,a
      000082 E4               [12]  374 	clr	a
      000083 93               [24]  375 	movc	a,@a+dptr
      000084 F5 82            [12]  376 	mov	dpl,a
      000086 22               [24]  377 	ret
      000087                        378 00109$:
                                    379 ;	anodeDisplay.h:87: else if(c>=65&&c<=90)
      000087 BF 41 00         [24]  380 	cjne	r7,#0x41,00141$
      00008A                        381 00141$:
      00008A 40 1E            [24]  382 	jc	00105$
      00008C EF               [12]  383 	mov	a,r7
      00008D 24 A5            [12]  384 	add	a,#0xff - 0x5a
      00008F 40 19            [24]  385 	jc	00105$
                                    386 ;	anodeDisplay.h:88: return alphaArray[c-65];
      000091 8F 06            [24]  387 	mov	ar6,r7
      000093 EE               [12]  388 	mov	a,r6
      000094 24 BF            [12]  389 	add	a,#0xbf
      000096 FE               [12]  390 	mov	r6,a
      000097 33               [12]  391 	rlc	a
      000098 95 E0            [12]  392 	subb	a,acc
      00009A FD               [12]  393 	mov	r5,a
      00009B EE               [12]  394 	mov	a,r6
      00009C 24 66            [12]  395 	add	a,#_alphaArray
      00009E F5 82            [12]  396 	mov	dpl,a
      0000A0 ED               [12]  397 	mov	a,r5
      0000A1 34 06            [12]  398 	addc	a,#(_alphaArray >> 8)
      0000A3 F5 83            [12]  399 	mov	dph,a
      0000A5 E4               [12]  400 	clr	a
      0000A6 93               [24]  401 	movc	a,@a+dptr
      0000A7 F5 82            [12]  402 	mov	dpl,a
      0000A9 22               [24]  403 	ret
      0000AA                        404 00105$:
                                    405 ;	anodeDisplay.h:89: else if(c>=97&&c<=122)
      0000AA BF 61 00         [24]  406 	cjne	r7,#0x61,00144$
      0000AD                        407 00144$:
      0000AD 40 1C            [24]  408 	jc	00110$
      0000AF EF               [12]  409 	mov	a,r7
      0000B0 24 85            [12]  410 	add	a,#0xff - 0x7a
      0000B2 40 17            [24]  411 	jc	00110$
                                    412 ;	anodeDisplay.h:90: return alphaArray[c-97];
      0000B4 EF               [12]  413 	mov	a,r7
      0000B5 24 9F            [12]  414 	add	a,#0x9f
      0000B7 FF               [12]  415 	mov	r7,a
      0000B8 33               [12]  416 	rlc	a
      0000B9 95 E0            [12]  417 	subb	a,acc
      0000BB FE               [12]  418 	mov	r6,a
      0000BC EF               [12]  419 	mov	a,r7
      0000BD 24 66            [12]  420 	add	a,#_alphaArray
      0000BF F5 82            [12]  421 	mov	dpl,a
      0000C1 EE               [12]  422 	mov	a,r6
      0000C2 34 06            [12]  423 	addc	a,#(_alphaArray >> 8)
      0000C4 F5 83            [12]  424 	mov	dph,a
      0000C6 E4               [12]  425 	clr	a
      0000C7 93               [24]  426 	movc	a,@a+dptr
      0000C8 F5 82            [12]  427 	mov	dpl,a
      0000CA 22               [24]  428 	ret
      0000CB                        429 00110$:
                                    430 ;	anodeDisplay.h:91: return 0;
      0000CB 75 82 00         [24]  431 	mov	dpl,#0x00
                                    432 ;	anodeDisplay.h:92: }
      0000CE 22               [24]  433 	ret
                                    434 ;------------------------------------------------------------
                                    435 ;Allocation info for local variables in function 'getStr'
                                    436 ;------------------------------------------------------------
                                    437 ;str                       Allocated with name '_getStr_PARM_2'
                                    438 ;out                       Allocated to registers r5 r6 r7 
                                    439 ;i                         Allocated to registers r4 
                                    440 ;------------------------------------------------------------
                                    441 ;	anodeDisplay.h:93: void getStr(unsigned char* out, const char* str){
                                    442 ;	-----------------------------------------
                                    443 ;	 function getStr
                                    444 ;	-----------------------------------------
      0000CF                        445 _getStr:
      0000CF AD 82            [24]  446 	mov	r5,dpl
      0000D1 AE 83            [24]  447 	mov	r6,dph
      0000D3 AF F0            [24]  448 	mov	r7,b
                                    449 ;	anodeDisplay.h:94: for(unsigned char i=0;str[i]!=0;i++){
      0000D5 7C 00            [12]  450 	mov	r4,#0x00
      0000D7                        451 00103$:
      0000D7 EC               [12]  452 	mov	a,r4
      0000D8 25 1B            [12]  453 	add	a,_getStr_PARM_2
      0000DA F9               [12]  454 	mov	r1,a
      0000DB E4               [12]  455 	clr	a
      0000DC 35 1C            [12]  456 	addc	a,(_getStr_PARM_2 + 1)
      0000DE FA               [12]  457 	mov	r2,a
      0000DF AB 1D            [24]  458 	mov	r3,(_getStr_PARM_2 + 2)
      0000E1 89 82            [24]  459 	mov	dpl,r1
      0000E3 8A 83            [24]  460 	mov	dph,r2
      0000E5 8B F0            [24]  461 	mov	b,r3
      0000E7 12 06 03         [24]  462 	lcall	__gptrget
      0000EA FB               [12]  463 	mov	r3,a
      0000EB 60 15            [24]  464 	jz	00105$
                                    465 ;	anodeDisplay.h:95: out[i]=str[i];
      0000ED EC               [12]  466 	mov	a,r4
      0000EE 2D               [12]  467 	add	a,r5
      0000EF F8               [12]  468 	mov	r0,a
      0000F0 E4               [12]  469 	clr	a
      0000F1 3E               [12]  470 	addc	a,r6
      0000F2 F9               [12]  471 	mov	r1,a
      0000F3 8F 02            [24]  472 	mov	ar2,r7
      0000F5 88 82            [24]  473 	mov	dpl,r0
      0000F7 89 83            [24]  474 	mov	dph,r1
      0000F9 8A F0            [24]  475 	mov	b,r2
      0000FB EB               [12]  476 	mov	a,r3
      0000FC 12 05 2F         [24]  477 	lcall	__gptrput
                                    478 ;	anodeDisplay.h:94: for(unsigned char i=0;str[i]!=0;i++){
      0000FF 0C               [12]  479 	inc	r4
      000100 80 D5            [24]  480 	sjmp	00103$
      000102                        481 00105$:
                                    482 ;	anodeDisplay.h:97: }
      000102 22               [24]  483 	ret
                                    484 ;------------------------------------------------------------
                                    485 ;Allocation info for local variables in function 'delay'
                                    486 ;------------------------------------------------------------
                                    487 ;millis                    Allocated with name '_delay_millis_65536_7'
                                    488 ;i                         Allocated to registers r2 r3 
                                    489 ;j                         Allocated to registers r0 r1 
                                    490 ;------------------------------------------------------------
                                    491 ;	stcboot.c:18: void delay(unsigned long int millis)
                                    492 ;	-----------------------------------------
                                    493 ;	 function delay
                                    494 ;	-----------------------------------------
      000103                        495 _delay:
                                    496 ;	stcboot.c:21: millis *= 0.998f;
      000103 12 04 E3         [24]  497 	lcall	___ulong2fs
      000106 AC 82            [24]  498 	mov	r4,dpl
      000108 AD 83            [24]  499 	mov	r5,dph
      00010A AE F0            [24]  500 	mov	r6,b
      00010C FF               [12]  501 	mov	r7,a
      00010D C0 04            [24]  502 	push	ar4
      00010F C0 05            [24]  503 	push	ar5
      000111 C0 06            [24]  504 	push	ar6
      000113 C0 07            [24]  505 	push	ar7
      000115 90 7C EE         [24]  506 	mov	dptr,#0x7cee
      000118 75 F0 7F         [24]  507 	mov	b,#0x7f
      00011B 74 3F            [12]  508 	mov	a,#0x3f
      00011D 12 03 DF         [24]  509 	lcall	___fsmul
      000120 AC 82            [24]  510 	mov	r4,dpl
      000122 AD 83            [24]  511 	mov	r5,dph
      000124 AE F0            [24]  512 	mov	r6,b
      000126 FF               [12]  513 	mov	r7,a
      000127 E5 81            [12]  514 	mov	a,sp
      000129 24 FC            [12]  515 	add	a,#0xfc
      00012B F5 81            [12]  516 	mov	sp,a
      00012D 8C 82            [24]  517 	mov	dpl,r4
      00012F 8D 83            [24]  518 	mov	dph,r5
      000131 8E F0            [24]  519 	mov	b,r6
      000133 EF               [12]  520 	mov	a,r7
      000134 12 04 F6         [24]  521 	lcall	___fs2ulong
      000137 85 82 08         [24]  522 	mov	_delay_millis_65536_7,dpl
      00013A 85 83 09         [24]  523 	mov	(_delay_millis_65536_7 + 1),dph
      00013D 85 F0 0A         [24]  524 	mov	(_delay_millis_65536_7 + 2),b
      000140 F5 0B            [12]  525 	mov	(_delay_millis_65536_7 + 3),a
                                    526 ;	stcboot.c:22: for (int i = 0; i < 44; i++)
      000142 7A 00            [12]  527 	mov	r2,#0x00
      000144 7B 00            [12]  528 	mov	r3,#0x00
      000146                        529 00107$:
      000146 C3               [12]  530 	clr	c
      000147 EA               [12]  531 	mov	a,r2
      000148 94 2C            [12]  532 	subb	a,#0x2c
      00014A EB               [12]  533 	mov	a,r3
      00014B 64 80            [12]  534 	xrl	a,#0x80
      00014D 94 80            [12]  535 	subb	a,#0x80
      00014F 50 29            [24]  536 	jnc	00109$
                                    537 ;	stcboot.c:24: for (unsigned int j = 0; j < millis; j++)
      000151 78 00            [12]  538 	mov	r0,#0x00
      000153 79 00            [12]  539 	mov	r1,#0x00
      000155                        540 00104$:
      000155 88 04            [24]  541 	mov	ar4,r0
      000157 89 05            [24]  542 	mov	ar5,r1
      000159 7E 00            [12]  543 	mov	r6,#0x00
      00015B 7F 00            [12]  544 	mov	r7,#0x00
      00015D C3               [12]  545 	clr	c
      00015E EC               [12]  546 	mov	a,r4
      00015F 95 08            [12]  547 	subb	a,_delay_millis_65536_7
      000161 ED               [12]  548 	mov	a,r5
      000162 95 09            [12]  549 	subb	a,(_delay_millis_65536_7 + 1)
      000164 EE               [12]  550 	mov	a,r6
      000165 95 0A            [12]  551 	subb	a,(_delay_millis_65536_7 + 2)
      000167 EF               [12]  552 	mov	a,r7
      000168 95 0B            [12]  553 	subb	a,(_delay_millis_65536_7 + 3)
      00016A 50 07            [24]  554 	jnc	00108$
      00016C 08               [12]  555 	inc	r0
      00016D B8 00 E5         [24]  556 	cjne	r0,#0x00,00104$
      000170 09               [12]  557 	inc	r1
      000171 80 E2            [24]  558 	sjmp	00104$
      000173                        559 00108$:
                                    560 ;	stcboot.c:22: for (int i = 0; i < 44; i++)
      000173 0A               [12]  561 	inc	r2
      000174 BA 00 CF         [24]  562 	cjne	r2,#0x00,00107$
      000177 0B               [12]  563 	inc	r3
      000178 80 CC            [24]  564 	sjmp	00107$
      00017A                        565 00109$:
                                    566 ;	stcboot.c:30: }
      00017A 22               [24]  567 	ret
                                    568 ;------------------------------------------------------------
                                    569 ;Allocation info for local variables in function 'printLCD'
                                    570 ;------------------------------------------------------------
                                    571 ;base                      Allocated with name '_printLCD_PARM_2'
                                    572 ;i                         Allocated with name '_printLCD_i_65536_13'
                                    573 ;------------------------------------------------------------
                                    574 ;	stcboot.c:31: void printLCD(unsigned int i,unsigned char base){
                                    575 ;	-----------------------------------------
                                    576 ;	 function printLCD
                                    577 ;	-----------------------------------------
      00017B                        578 _printLCD:
      00017B 85 82 0D         [24]  579 	mov	_printLCD_i_65536_13,dpl
      00017E 85 83 0E         [24]  580 	mov	(_printLCD_i_65536_13 + 1),dph
                                    581 ;	stcboot.c:33: P0 = numArray[(i/base*base*base)%base];
      000181 AC 0C            [24]  582 	mov	r4,_printLCD_PARM_2
      000183 7D 00            [12]  583 	mov	r5,#0x00
      000185 8C 1B            [24]  584 	mov	__divuint_PARM_2,r4
      000187 8D 1C            [24]  585 	mov	(__divuint_PARM_2 + 1),r5
      000189 85 0D 82         [24]  586 	mov	dpl,_printLCD_i_65536_13
      00018C 85 0E 83         [24]  587 	mov	dph,(_printLCD_i_65536_13 + 1)
      00018F C0 05            [24]  588 	push	ar5
      000191 C0 04            [24]  589 	push	ar4
      000193 12 03 B6         [24]  590 	lcall	__divuint
      000196 AA 82            [24]  591 	mov	r2,dpl
      000198 AB 83            [24]  592 	mov	r3,dph
      00019A D0 04            [24]  593 	pop	ar4
      00019C D0 05            [24]  594 	pop	ar5
      00019E 8C 1B            [24]  595 	mov	__mulint_PARM_2,r4
      0001A0 8D 1C            [24]  596 	mov	(__mulint_PARM_2 + 1),r5
      0001A2 8A 82            [24]  597 	mov	dpl,r2
      0001A4 8B 83            [24]  598 	mov	dph,r3
      0001A6 C0 05            [24]  599 	push	ar5
      0001A8 C0 04            [24]  600 	push	ar4
      0001AA C0 03            [24]  601 	push	ar3
      0001AC C0 02            [24]  602 	push	ar2
      0001AE 12 05 4A         [24]  603 	lcall	__mulint
      0001B1 A8 82            [24]  604 	mov	r0,dpl
      0001B3 A9 83            [24]  605 	mov	r1,dph
      0001B5 D0 02            [24]  606 	pop	ar2
      0001B7 D0 03            [24]  607 	pop	ar3
      0001B9 D0 04            [24]  608 	pop	ar4
      0001BB D0 05            [24]  609 	pop	ar5
      0001BD 8C 1B            [24]  610 	mov	__mulint_PARM_2,r4
      0001BF 8D 1C            [24]  611 	mov	(__mulint_PARM_2 + 1),r5
      0001C1 88 82            [24]  612 	mov	dpl,r0
      0001C3 89 83            [24]  613 	mov	dph,r1
      0001C5 C0 05            [24]  614 	push	ar5
      0001C7 C0 04            [24]  615 	push	ar4
      0001C9 C0 03            [24]  616 	push	ar3
      0001CB C0 02            [24]  617 	push	ar2
      0001CD C0 01            [24]  618 	push	ar1
      0001CF C0 00            [24]  619 	push	ar0
      0001D1 12 05 4A         [24]  620 	lcall	__mulint
      0001D4 D0 00            [24]  621 	pop	ar0
      0001D6 D0 01            [24]  622 	pop	ar1
      0001D8 D0 02            [24]  623 	pop	ar2
      0001DA D0 03            [24]  624 	pop	ar3
      0001DC D0 04            [24]  625 	pop	ar4
      0001DE D0 05            [24]  626 	pop	ar5
      0001E0 8C 1B            [24]  627 	mov	__moduint_PARM_2,r4
      0001E2 8D 1C            [24]  628 	mov	(__moduint_PARM_2 + 1),r5
      0001E4 C0 05            [24]  629 	push	ar5
      0001E6 C0 04            [24]  630 	push	ar4
      0001E8 C0 03            [24]  631 	push	ar3
      0001EA C0 02            [24]  632 	push	ar2
      0001EC C0 01            [24]  633 	push	ar1
      0001EE C0 00            [24]  634 	push	ar0
      0001F0 12 05 67         [24]  635 	lcall	__moduint
      0001F3 AE 82            [24]  636 	mov	r6,dpl
      0001F5 AF 83            [24]  637 	mov	r7,dph
      0001F7 EE               [12]  638 	mov	a,r6
      0001F8 24 80            [12]  639 	add	a,#_numArray
      0001FA F5 82            [12]  640 	mov	dpl,a
      0001FC EF               [12]  641 	mov	a,r7
      0001FD 34 06            [12]  642 	addc	a,#(_numArray >> 8)
      0001FF F5 83            [12]  643 	mov	dph,a
      000201 E4               [12]  644 	clr	a
      000202 93               [24]  645 	movc	a,@a+dptr
      000203 F5 80            [12]  646 	mov	_P0,a
                                    647 ;	stcboot.c:34: P2_0 = 0;
                                    648 ;	assignBit
      000205 C2 A0            [12]  649 	clr	_P2_0
                                    650 ;	stcboot.c:35: delay(1);
      000207 90 00 01         [24]  651 	mov	dptr,#(0x01&0x00ff)
      00020A E4               [12]  652 	clr	a
      00020B F5 F0            [12]  653 	mov	b,a
      00020D 12 01 03         [24]  654 	lcall	_delay
      000210 D0 00            [24]  655 	pop	ar0
      000212 D0 01            [24]  656 	pop	ar1
      000214 D0 02            [24]  657 	pop	ar2
      000216 D0 03            [24]  658 	pop	ar3
      000218 D0 04            [24]  659 	pop	ar4
      00021A D0 05            [24]  660 	pop	ar5
                                    661 ;	stcboot.c:36: P2_0 = 1;
                                    662 ;	assignBit
      00021C D2 A0            [12]  663 	setb	_P2_0
                                    664 ;	stcboot.c:38: P0 = numArray[(i/base*base)%base];
      00021E 8C 1B            [24]  665 	mov	__moduint_PARM_2,r4
      000220 8D 1C            [24]  666 	mov	(__moduint_PARM_2 + 1),r5
      000222 88 82            [24]  667 	mov	dpl,r0
      000224 89 83            [24]  668 	mov	dph,r1
      000226 C0 05            [24]  669 	push	ar5
      000228 C0 04            [24]  670 	push	ar4
      00022A C0 03            [24]  671 	push	ar3
      00022C C0 02            [24]  672 	push	ar2
      00022E 12 05 67         [24]  673 	lcall	__moduint
      000231 AE 82            [24]  674 	mov	r6,dpl
      000233 AF 83            [24]  675 	mov	r7,dph
      000235 EE               [12]  676 	mov	a,r6
      000236 24 80            [12]  677 	add	a,#_numArray
      000238 F5 82            [12]  678 	mov	dpl,a
      00023A EF               [12]  679 	mov	a,r7
      00023B 34 06            [12]  680 	addc	a,#(_numArray >> 8)
      00023D F5 83            [12]  681 	mov	dph,a
      00023F E4               [12]  682 	clr	a
      000240 93               [24]  683 	movc	a,@a+dptr
      000241 F5 80            [12]  684 	mov	_P0,a
                                    685 ;	stcboot.c:39: P2_1 = 0;
                                    686 ;	assignBit
      000243 C2 A1            [12]  687 	clr	_P2_1
                                    688 ;	stcboot.c:40: delay(1);
      000245 90 00 01         [24]  689 	mov	dptr,#(0x01&0x00ff)
      000248 E4               [12]  690 	clr	a
      000249 F5 F0            [12]  691 	mov	b,a
      00024B 12 01 03         [24]  692 	lcall	_delay
      00024E D0 02            [24]  693 	pop	ar2
      000250 D0 03            [24]  694 	pop	ar3
      000252 D0 04            [24]  695 	pop	ar4
      000254 D0 05            [24]  696 	pop	ar5
                                    697 ;	stcboot.c:41: P2_1 = 1;
                                    698 ;	assignBit
      000256 D2 A1            [12]  699 	setb	_P2_1
                                    700 ;	stcboot.c:43: P0 = numArray[(i/base)%base];
      000258 8C 1B            [24]  701 	mov	__moduint_PARM_2,r4
      00025A 8D 1C            [24]  702 	mov	(__moduint_PARM_2 + 1),r5
      00025C 8A 82            [24]  703 	mov	dpl,r2
      00025E 8B 83            [24]  704 	mov	dph,r3
      000260 C0 05            [24]  705 	push	ar5
      000262 C0 04            [24]  706 	push	ar4
      000264 12 05 67         [24]  707 	lcall	__moduint
      000267 AE 82            [24]  708 	mov	r6,dpl
      000269 AF 83            [24]  709 	mov	r7,dph
      00026B EE               [12]  710 	mov	a,r6
      00026C 24 80            [12]  711 	add	a,#_numArray
      00026E F5 82            [12]  712 	mov	dpl,a
      000270 EF               [12]  713 	mov	a,r7
      000271 34 06            [12]  714 	addc	a,#(_numArray >> 8)
      000273 F5 83            [12]  715 	mov	dph,a
      000275 E4               [12]  716 	clr	a
      000276 93               [24]  717 	movc	a,@a+dptr
      000277 F5 80            [12]  718 	mov	_P0,a
                                    719 ;	stcboot.c:44: P2_2 = 0;
                                    720 ;	assignBit
      000279 C2 A2            [12]  721 	clr	_P2_2
                                    722 ;	stcboot.c:45: delay(1);
      00027B 90 00 01         [24]  723 	mov	dptr,#(0x01&0x00ff)
      00027E E4               [12]  724 	clr	a
      00027F F5 F0            [12]  725 	mov	b,a
      000281 12 01 03         [24]  726 	lcall	_delay
      000284 D0 04            [24]  727 	pop	ar4
      000286 D0 05            [24]  728 	pop	ar5
                                    729 ;	stcboot.c:46: P2_2 = 1;
                                    730 ;	assignBit
      000288 D2 A2            [12]  731 	setb	_P2_2
                                    732 ;	stcboot.c:48: P0 = numArray[i%base];
      00028A 8C 1B            [24]  733 	mov	__moduint_PARM_2,r4
      00028C 8D 1C            [24]  734 	mov	(__moduint_PARM_2 + 1),r5
      00028E 85 0D 82         [24]  735 	mov	dpl,_printLCD_i_65536_13
      000291 85 0E 83         [24]  736 	mov	dph,(_printLCD_i_65536_13 + 1)
      000294 12 05 67         [24]  737 	lcall	__moduint
      000297 AE 82            [24]  738 	mov	r6,dpl
      000299 AF 83            [24]  739 	mov	r7,dph
      00029B EE               [12]  740 	mov	a,r6
      00029C 24 80            [12]  741 	add	a,#_numArray
      00029E F5 82            [12]  742 	mov	dpl,a
      0002A0 EF               [12]  743 	mov	a,r7
      0002A1 34 06            [12]  744 	addc	a,#(_numArray >> 8)
      0002A3 F5 83            [12]  745 	mov	dph,a
      0002A5 E4               [12]  746 	clr	a
      0002A6 93               [24]  747 	movc	a,@a+dptr
      0002A7 F5 80            [12]  748 	mov	_P0,a
                                    749 ;	stcboot.c:49: P2_3 = 0;
                                    750 ;	assignBit
      0002A9 C2 A3            [12]  751 	clr	_P2_3
                                    752 ;	stcboot.c:50: delay(1);
      0002AB 90 00 01         [24]  753 	mov	dptr,#(0x01&0x00ff)
      0002AE E4               [12]  754 	clr	a
      0002AF F5 F0            [12]  755 	mov	b,a
      0002B1 12 01 03         [24]  756 	lcall	_delay
                                    757 ;	stcboot.c:51: P2_3 = 1;
                                    758 ;	assignBit
      0002B4 D2 A3            [12]  759 	setb	_P2_3
                                    760 ;	stcboot.c:53: }
      0002B6 22               [24]  761 	ret
                                    762 ;------------------------------------------------------------
                                    763 ;Allocation info for local variables in function 'strobeLCD'
                                    764 ;------------------------------------------------------------
                                    765 ;str                       Allocated to registers r5 r6 r7 
                                    766 ;i                         Allocated with name '_strobeLCD_i_131072_17'
                                    767 ;sloc0                     Allocated with name '_strobeLCD_sloc0_1_0'
                                    768 ;sloc1                     Allocated with name '_strobeLCD_sloc1_1_0'
                                    769 ;------------------------------------------------------------
                                    770 ;	stcboot.c:54: void strobeLCD(unsigned char * str){
                                    771 ;	-----------------------------------------
                                    772 ;	 function strobeLCD
                                    773 ;	-----------------------------------------
      0002B7                        774 _strobeLCD:
      0002B7 AD 82            [24]  775 	mov	r5,dpl
      0002B9 AE 83            [24]  776 	mov	r6,dph
      0002BB AF F0            [24]  777 	mov	r7,b
                                    778 ;	stcboot.c:55: for(int i=0;i<10;i++){
      0002BD 74 01            [12]  779 	mov	a,#0x01
      0002BF 2D               [12]  780 	add	a,r5
      0002C0 FA               [12]  781 	mov	r2,a
      0002C1 E4               [12]  782 	clr	a
      0002C2 3E               [12]  783 	addc	a,r6
      0002C3 FB               [12]  784 	mov	r3,a
      0002C4 8F 04            [24]  785 	mov	ar4,r7
      0002C6 74 02            [12]  786 	mov	a,#0x02
      0002C8 2D               [12]  787 	add	a,r5
      0002C9 F5 11            [12]  788 	mov	_strobeLCD_sloc0_1_0,a
      0002CB E4               [12]  789 	clr	a
      0002CC 3E               [12]  790 	addc	a,r6
      0002CD F5 12            [12]  791 	mov	(_strobeLCD_sloc0_1_0 + 1),a
      0002CF 8F 13            [24]  792 	mov	(_strobeLCD_sloc0_1_0 + 2),r7
      0002D1 74 03            [12]  793 	mov	a,#0x03
      0002D3 2D               [12]  794 	add	a,r5
      0002D4 F5 14            [12]  795 	mov	_strobeLCD_sloc1_1_0,a
      0002D6 E4               [12]  796 	clr	a
      0002D7 3E               [12]  797 	addc	a,r6
      0002D8 F5 15            [12]  798 	mov	(_strobeLCD_sloc1_1_0 + 1),a
      0002DA 8F 16            [24]  799 	mov	(_strobeLCD_sloc1_1_0 + 2),r7
      0002DC E4               [12]  800 	clr	a
      0002DD F5 0F            [12]  801 	mov	_strobeLCD_i_131072_17,a
      0002DF F5 10            [12]  802 	mov	(_strobeLCD_i_131072_17 + 1),a
      0002E1                        803 00103$:
      0002E1 C3               [12]  804 	clr	c
      0002E2 E5 0F            [12]  805 	mov	a,_strobeLCD_i_131072_17
      0002E4 94 0A            [12]  806 	subb	a,#0x0a
      0002E6 E5 10            [12]  807 	mov	a,(_strobeLCD_i_131072_17 + 1)
      0002E8 64 80            [12]  808 	xrl	a,#0x80
      0002EA 94 80            [12]  809 	subb	a,#0x80
      0002EC 40 01            [24]  810 	jc	00116$
      0002EE 22               [24]  811 	ret
      0002EF                        812 00116$:
                                    813 ;	stcboot.c:56: P0 = ~str[0];
      0002EF 8D 82            [24]  814 	mov	dpl,r5
      0002F1 8E 83            [24]  815 	mov	dph,r6
      0002F3 8F F0            [24]  816 	mov	b,r7
      0002F5 12 06 03         [24]  817 	lcall	__gptrget
      0002F8 F4               [12]  818 	cpl	a
      0002F9 F5 80            [12]  819 	mov	_P0,a
                                    820 ;	stcboot.c:57: P2_0 = 0;
                                    821 ;	assignBit
      0002FB C2 A0            [12]  822 	clr	_P2_0
                                    823 ;	stcboot.c:58: delay(1);
      0002FD 90 00 01         [24]  824 	mov	dptr,#(0x01&0x00ff)
      000300 E4               [12]  825 	clr	a
      000301 F5 F0            [12]  826 	mov	b,a
      000303 C0 07            [24]  827 	push	ar7
      000305 C0 06            [24]  828 	push	ar6
      000307 C0 05            [24]  829 	push	ar5
      000309 C0 04            [24]  830 	push	ar4
      00030B C0 03            [24]  831 	push	ar3
      00030D C0 02            [24]  832 	push	ar2
      00030F 12 01 03         [24]  833 	lcall	_delay
      000312 D0 02            [24]  834 	pop	ar2
      000314 D0 03            [24]  835 	pop	ar3
      000316 D0 04            [24]  836 	pop	ar4
                                    837 ;	stcboot.c:59: P2_0 = 1;
                                    838 ;	assignBit
      000318 D2 A0            [12]  839 	setb	_P2_0
                                    840 ;	stcboot.c:61: P0 = ~str[1];
      00031A 8A 82            [24]  841 	mov	dpl,r2
      00031C 8B 83            [24]  842 	mov	dph,r3
      00031E 8C F0            [24]  843 	mov	b,r4
      000320 12 06 03         [24]  844 	lcall	__gptrget
      000323 F4               [12]  845 	cpl	a
      000324 F5 80            [12]  846 	mov	_P0,a
                                    847 ;	stcboot.c:62: P2_1 = 0;
                                    848 ;	assignBit
      000326 C2 A1            [12]  849 	clr	_P2_1
                                    850 ;	stcboot.c:63: delay(1);
      000328 90 00 01         [24]  851 	mov	dptr,#(0x01&0x00ff)
      00032B E4               [12]  852 	clr	a
      00032C F5 F0            [12]  853 	mov	b,a
      00032E C0 04            [24]  854 	push	ar4
      000330 C0 03            [24]  855 	push	ar3
      000332 C0 02            [24]  856 	push	ar2
      000334 12 01 03         [24]  857 	lcall	_delay
                                    858 ;	stcboot.c:64: P2_1 = 1;
                                    859 ;	assignBit
      000337 D2 A1            [12]  860 	setb	_P2_1
                                    861 ;	stcboot.c:66: P0 = ~str[2];
      000339 85 11 82         [24]  862 	mov	dpl,_strobeLCD_sloc0_1_0
      00033C 85 12 83         [24]  863 	mov	dph,(_strobeLCD_sloc0_1_0 + 1)
      00033F 85 13 F0         [24]  864 	mov	b,(_strobeLCD_sloc0_1_0 + 2)
      000342 12 06 03         [24]  865 	lcall	__gptrget
      000345 F4               [12]  866 	cpl	a
      000346 F5 80            [12]  867 	mov	_P0,a
                                    868 ;	stcboot.c:67: P2_2 = 0;
                                    869 ;	assignBit
      000348 C2 A2            [12]  870 	clr	_P2_2
                                    871 ;	stcboot.c:68: delay(1);
      00034A 90 00 01         [24]  872 	mov	dptr,#(0x01&0x00ff)
      00034D E4               [12]  873 	clr	a
      00034E F5 F0            [12]  874 	mov	b,a
      000350 12 01 03         [24]  875 	lcall	_delay
                                    876 ;	stcboot.c:69: P2_2 = 1;
                                    877 ;	assignBit
      000353 D2 A2            [12]  878 	setb	_P2_2
                                    879 ;	stcboot.c:71: P0 = ~str[3];
      000355 85 14 82         [24]  880 	mov	dpl,_strobeLCD_sloc1_1_0
      000358 85 15 83         [24]  881 	mov	dph,(_strobeLCD_sloc1_1_0 + 1)
      00035B 85 16 F0         [24]  882 	mov	b,(_strobeLCD_sloc1_1_0 + 2)
      00035E 12 06 03         [24]  883 	lcall	__gptrget
      000361 F4               [12]  884 	cpl	a
      000362 F5 80            [12]  885 	mov	_P0,a
                                    886 ;	stcboot.c:72: P2_3 = 0;
                                    887 ;	assignBit
      000364 C2 A3            [12]  888 	clr	_P2_3
                                    889 ;	stcboot.c:73: delay(1);
      000366 90 00 01         [24]  890 	mov	dptr,#(0x01&0x00ff)
      000369 E4               [12]  891 	clr	a
      00036A F5 F0            [12]  892 	mov	b,a
      00036C 12 01 03         [24]  893 	lcall	_delay
      00036F D0 02            [24]  894 	pop	ar2
      000371 D0 03            [24]  895 	pop	ar3
      000373 D0 04            [24]  896 	pop	ar4
      000375 D0 05            [24]  897 	pop	ar5
      000377 D0 06            [24]  898 	pop	ar6
      000379 D0 07            [24]  899 	pop	ar7
                                    900 ;	stcboot.c:74: P2_3 = 1;
                                    901 ;	assignBit
      00037B D2 A3            [12]  902 	setb	_P2_3
                                    903 ;	stcboot.c:55: for(int i=0;i<10;i++){
      00037D 05 0F            [12]  904 	inc	_strobeLCD_i_131072_17
      00037F E4               [12]  905 	clr	a
      000380 B5 0F 02         [24]  906 	cjne	a,_strobeLCD_i_131072_17,00117$
      000383 05 10            [12]  907 	inc	(_strobeLCD_i_131072_17 + 1)
      000385                        908 00117$:
                                    909 ;	stcboot.c:76: }
      000385 02 02 E1         [24]  910 	ljmp	00103$
                                    911 ;------------------------------------------------------------
                                    912 ;Allocation info for local variables in function 'setup'
                                    913 ;------------------------------------------------------------
                                    914 ;	stcboot.c:77: void setup(){
                                    915 ;	-----------------------------------------
                                    916 ;	 function setup
                                    917 ;	-----------------------------------------
      000388                        918 _setup:
                                    919 ;	stcboot.c:78: return;
                                    920 ;	stcboot.c:79: }
      000388 22               [24]  921 	ret
                                    922 ;------------------------------------------------------------
                                    923 ;Allocation info for local variables in function 'loop'
                                    924 ;------------------------------------------------------------
                                    925 ;frame                     Allocated to registers 
                                    926 ;msg                       Allocated with name '_loop_msg_65536_20'
                                    927 ;------------------------------------------------------------
                                    928 ;	stcboot.c:80: void loop(){
                                    929 ;	-----------------------------------------
                                    930 ;	 function loop
                                    931 ;	-----------------------------------------
      000389                        932 _loop:
                                    933 ;	stcboot.c:83: getStr(msg,"1234");
      000389 75 1B 90         [24]  934 	mov	_getStr_PARM_2,#___str_0
      00038C 75 1C 06         [24]  935 	mov	(_getStr_PARM_2 + 1),#(___str_0 >> 8)
      00038F 75 1D 80         [24]  936 	mov	(_getStr_PARM_2 + 2),#0x80
      000392 90 00 17         [24]  937 	mov	dptr,#_loop_msg_65536_20
      000395 75 F0 40         [24]  938 	mov	b,#0x40
      000398 12 00 CF         [24]  939 	lcall	_getStr
                                    940 ;	stcboot.c:84: while (1) {
      00039B                        941 00104$:
                                    942 ;	stcboot.c:85: P1 = P3;//255-frame%255;
      00039B 85 B0 90         [24]  943 	mov	_P1,_P3
                                    944 ;	stcboot.c:86: printLCD(P3,16);
      00039E AE B0            [24]  945 	mov	r6,_P3
      0003A0 7F 00            [12]  946 	mov	r7,#0x00
      0003A2 75 0C 10         [24]  947 	mov	_printLCD_PARM_2,#0x10
      0003A5 8E 82            [24]  948 	mov	dpl,r6
      0003A7 8F 83            [24]  949 	mov	dph,r7
      0003A9 12 01 7B         [24]  950 	lcall	_printLCD
                                    951 ;	stcboot.c:88: if(P3_5)
      0003AC A2 B5            [12]  952 	mov	c,_P3_5
                                    953 ;	stcboot.c:89: frame++;
                                    954 ;	stcboot.c:91: }
      0003AE 80 EB            [24]  955 	sjmp	00104$
                                    956 ;------------------------------------------------------------
                                    957 ;Allocation info for local variables in function 'main'
                                    958 ;------------------------------------------------------------
                                    959 ;	stcboot.c:92: void main(void){
                                    960 ;	-----------------------------------------
                                    961 ;	 function main
                                    962 ;	-----------------------------------------
      0003B0                        963 _main:
                                    964 ;	stcboot.c:93: setup();
      0003B0 12 03 88         [24]  965 	lcall	_setup
                                    966 ;	stcboot.c:94: loop();
                                    967 ;	stcboot.c:95: }
      0003B3 02 03 89         [24]  968 	ljmp	_loop
                                    969 	.area CSEG    (CODE)
                                    970 	.area CONST   (CODE)
      000666                        971 _alphaArray:
      000666 88                     972 	.db #0x88	; 136
      000667 83                     973 	.db #0x83	; 131
      000668 C6                     974 	.db #0xc6	; 198
      000669 A1                     975 	.db #0xa1	; 161
      00066A 86                     976 	.db #0x86	; 134
      00066B 8E                     977 	.db #0x8e	; 142
      00066C C2                     978 	.db #0xc2	; 194
      00066D 8B                     979 	.db #0x8b	; 139
      00066E CF                     980 	.db #0xcf	; 207
      00066F E1                     981 	.db #0xe1	; 225
      000670 8A                     982 	.db #0x8a	; 138
      000671 C7                     983 	.db #0xc7	; 199
      000672 EA                     984 	.db #0xea	; 234
      000673 CB                     985 	.db #0xcb	; 203
      000674 A3                     986 	.db #0xa3	; 163
      000675 8C                     987 	.db #0x8c	; 140
      000676 98                     988 	.db #0x98	; 152
      000677 CC                     989 	.db #0xcc	; 204
      000678 92                     990 	.db #0x92	; 146
      000679 87                     991 	.db #0x87	; 135
      00067A C1                     992 	.db #0xc1	; 193
      00067B C5                     993 	.db #0xc5	; 197
      00067C D5                     994 	.db #0xd5	; 213
      00067D 89                     995 	.db #0x89	; 137
      00067E 91                     996 	.db #0x91	; 145
      00067F B4                     997 	.db #0xb4	; 180
      000680                        998 _numArray:
      000680 C0                     999 	.db #0xc0	; 192
      000681 F9                    1000 	.db #0xf9	; 249
      000682 A4                    1001 	.db #0xa4	; 164
      000683 B0                    1002 	.db #0xb0	; 176
      000684 99                    1003 	.db #0x99	; 153
      000685 92                    1004 	.db #0x92	; 146
      000686 82                    1005 	.db #0x82	; 130
      000687 F8                    1006 	.db #0xf8	; 248
      000688 80                    1007 	.db #0x80	; 128
      000689 90                    1008 	.db #0x90	; 144
      00068A 88                    1009 	.db #0x88	; 136
      00068B 83                    1010 	.db #0x83	; 131
      00068C C6                    1011 	.db #0xc6	; 198
      00068D A1                    1012 	.db #0xa1	; 161
      00068E 86                    1013 	.db #0x86	; 134
      00068F 8E                    1014 	.db #0x8e	; 142
      000690                       1015 ___str_0:
      000690 31 32 33 34           1016 	.ascii "1234"
      000694 00                    1017 	.db 0x00
                                   1018 	.area XINIT   (CODE)
                                   1019 	.area CABS    (ABS,CODE)
