:03000000020006F5
:03005F0002000399
:030003000203B045
:20006200AF82BF3000401EEF24C640198F06EE24D0FE3395E0FDEE2480F582ED3406F5830C
:20008200E493F58222BF4100401EEF24A540198F06EE24BFFE3395E0FDEE2466F582ED34C6
:2000A20006F583E493F58222BF6100401CEF24854017EF249FFF3395E0FEEF2466F582EE10
:2000C2003406F583E493F5822275820022AD82AE83AFF07C00EC251BF9E4351CFAAB1D8923
:2000E200828A838BF0120603FB6015EC2DF8E43EF98F02888289838AF0EB12052F0C80D58A
:20010200221204E3AC82AD83AEF0FFC004C005C006C007907CEE75F07F743F1203DFAC82FE
:20012200AD83AEF0FFE58124FCF5818C828D838EF0EF1204F685820885830985F00AF50BBE
:200142007A007B00C3EA942CEB64809480502978007900880489057E007F00C3EC9508ED9E
:200162009509EE950AEF950B500708B800E50980E20ABA00CF0B80CC2285820D85830EAC7A
:200182000C7D008C1B8D1C850D82850E83C005C0041203B6AA82AB83D004D0058C1B8D1CB3
:2001A2008A828B83C005C004C003C00212054AA882A983D002D003D004D0058C1B8D1C8838
:2001C200828983C005C004C003C002C001C00012054AD000D001D002D003D004D0058C1B09
:2001E2008D1CC005C004C003C002C001C000120567AE82AF83EE2480F582EF3406F583E457
:2002020093F580C2A0900001E4F5F0120103D000D001D002D003D004D005D2A08C1B8D1C51
:2002220088828983C005C004C003C002120567AE82AF83EE2480F582EF3406F583E493F5A2
:2002420080C2A1900001E4F5F0120103D002D003D004D005D2A18C1B8D1C8A828B83C00559
:20026200C004120567AE82AF83EE2480F582EF3406F583E493F580C2A2900001E4F5F01272
:200282000103D004D005D2A28C1B8D1C850D82850E83120567AE82AF83EE2480F582EF34B5
:2002A20006F583E493F580C2A3900001E4F5F0120103D2A322AD82AE83AFF074012DFAE4E7
:2002C2003EFB8F0474022DF511E43EF5128F1374032DF514E43EF5158F16E4F50FF510C3AE
:2002E200E50F940AE510648094804001228D828E838FF0120603F4F580C2A0900001E4F52B
:20030200F0C007C006C005C004C003C002120103D002D003D004D2A08A828B838CF01206A1
:2003220003F4F580C2A1900001E4F5F0C004C003C002120103D2A18511828512838513F006
:20034200120603F4F580C2A2900001E4F5F0120103D2A28514828515838516F0120603F4FD
:20036200F580C2A3900001E4F5F0120103D002D003D004D005D006D007D2A3050FE4B50F05
:200382000205100202E122751B90751C06751D8090001775F0401200CF85B090AEB07F00A5
:1403A200750C108E828F8312017BA2B580EB12038802038919
:200666008883C6A1868EC28BCFE18AC7EACBA38C98CC9287C1C5D58991B4C0F9A4B09992DE
:0F06860082F880908883C6A1868E31323334008B
:2003B6007A10E4FBFCE58225E0F582E58333F583EB33FBEC33FCEB951BF5F0EC951C400635
:0903D600FCABF0438201DADD22E8
:2003DF00120482BC00030205D5EF60FA30D502B2D1E583B4FF030205EBE582B4FF030205C4
:2003FF00EB258340072482400B0205D524831450030205EBF582EA8DF0A4A8F0EA8EF0A411
:20041F0028F8E435F0F9EB8DF0A428E935F0F9E433CA8FF0A429F9EA35F0FAEBF88EF0A42C
:20043F0029F9EA35F0FAE433FBEC8DF0A429F9EA35F0FAE43BFBE88FF0A42AFAEB35F0FBD4
:20045F00E433CCFD8EF0A42AFAEB35F0FBE43CFCED8FF0A42BFBEC35F0FC20E7031204B01D
:03047F000205B4BF
:20048200AA82AB83A2F73392D1F5826002D2F7ACF0E58124F9F8E6FD08E6FE0886F008E6DD
:0E04A200A2F73392D5F5836002D2F7AFF022B5
:06003500E4787FF6D8FD1F
:2004B0007804EC7011E58224F8500AF582E4C9CACBFCD8EF22EC7820058220E713D582014B
:1304D00022C3E933F9EA33FAEB33FBEC33FCD8EA15822259
:200013007900E94400601B7A00900695780075A0E0E493F2A308B8000205A0D9F4DAF27519
:02003300A0FF2C
:1304E300FCABF0AA83A982749EC2D1F5821204B00205B47A
:2004F6007F9E12051D30D1030205D5C3EF9582500974FFF5F0F583F58222790012061F89F1
:07051600828A838BF0EC22C6
:12051D00AA82AB83A2F73392D1F5826002D2F7ACF022E3
:1B052F0020F71130F6138883A88220F509F6A8837583002280FEF280F5F022CB
:1D054A00E582851BF0A4C582C0F0851CF0A4D0F025F0C583851BF0A42583F583223A
:20056700E51B451C60467A01E51B25E0F51BE51C334012F51CE582951BE583951C40030AC9
:2005870080E6C3E51C13F51CE51B13F51BC3E582951BF5F0E583951C4005F58385F082C394
:0D05A700E51C13F51CE51B13F51BDAE12222
:20003B007800E84400600A790075A0E0E4F309D8FC7800E84400600C790090E000E4F0A305
:04005B00D8FCD9FAFA
:2005B400B98003EA13B34010EA2401FAE43BFBE43CFC50047C800582BC000EBB000BBA008B
:2005D40008E4F5F0F583F58222A2D1E582138CF092F78B838A8222E4F583F58275F080F44B
:0F05F400A2D11322E4F583F58275F0C0747F2243
:0D00060075811D120662E582600302000391
:1C06030020F71430F6148883A88220F507E6A88375830022E280F7E49322E02206
:20061F006040F82582500274FFF582E824F8501ECCCBCAF9E4CC24F85014CBCAF9E4CB24E3
:20063F00F8500BCAF9E4CA24F8500379002224086010F8C3EC13FCEB13FBEA13FAE913F996
:03065F00D8F122AD
:04066200758200227B
:00000001FF
