:03000000020006F5
:15005F00750800750C00750D00E4F51DF51EF52EF533020003B3
:03000300020704ED
:20007400AF82BF3000401EEF24C640198F06EE24D0FE3395E0FDEE2444F582ED340AF58332
:20009400E493F58222BF4100401EEF24A540198F06EE24BFFE3395E0FDEE242AF582ED34F0
:2000B4000AF583E493F58222BF6100401CEF24854017EF249FFF3395E0FEEF242AF582EE36
:2000D400340AF583E493F5822275820022AD82AE83AFF07C00EC2534F9E43535FAAB3689C2
:2000F400828A838BF0120959FB6015EC2DF8E43EF98F02888289838AF0EB1208850C80D5C6
:2001140022E58224FF9292D291C291C29222AF827E08EE6015EE5FF582C007C0061201153C
:20013400D006D007EEC313FE80E822AF827E80EE6015EE5FF582C007C006120115D006D001
:2001540007EEC313FE80E822D291A292E433F582C291227F007E00BE080050188F05ED2DC5
:20017400FDC006C00512015CAC82D005D006EC4DFF0E80E38F8222AF82C0071201B0D0072D
:20019400C292C291EF2FFFE5094FF58212013FC29202015C12013FC29202015CD291D29202
:2001B40022850A0912018B850B821201A80201B085820B750A00850C821201B5900001E472
:2001D400F5F00202FAAF828F057E00430504AB0E7C00EB4205EC42068D82C007C005120150
:2001F400C4D005D00774FB5F450EF582C0051201C4D0058D820201C4750F00120221900053
:2002140005E4F5F00202FA750F01020221AF828F055305F07E00AB0D7C00EB4205EC42062F
:200234008D82850F0EC0071201D9D007EFC454F0FFE50D4FF582850F0E0201D9AD82AE83E3
:20025400AFF07C00EC2DF9E43EFA8F0389828A838BF0120959FB60188B82C007C006C005D6
:20027400C00412021BD004D005D006D0070C80D422AF82E4F511F512751340F514E5102493
:20029400FD5003751001E51025102411F9E72FFE3395E04306808E8202020C75820212026A
:2002B4000C900002E4F5F00202FA75820112020C900002E4F5F00202FA85820C750D089027
:2002D4000032E4F5F01202FA75822812020C75820312020C75820212020C75820C12020C6C
:2002F40075820602020C120839AC82AD83AEF0FFC004C005C006C007907CEE75F07F743FE8
:20031400120735AC82AD83AEF0FFE58124FCF5818C828D838EF0EF12084C85821585831659
:2003340085F017F5187A007B00C3EA942CEB64809480502B78007900880489057E007F0048
:20035400C3EC9515ED9516EE9517EF95185009B29008B800E30980E00ABA00CD0B80CAD203
:20037400902285821A85831B85F01C7403251AFAE4351BFBAC1C8A828B838CF0E412088522
:200394007402251AFAE4351BFBAC1CA819790075340A893588828983C004C003C002C001D8
:2003B400C000120975AE82D000D001D002D003D00474302E8A828B838CF0120885740125EE
:2003D4001AFDE4351BFEAF1C75340A75350088828983C007C006C005C001C0001209AB7574
:2003F400340A753500120975AB82D000D001D005D006D00774302B8D828E838FF012088514
:20041400753464753500888289831209AB75340A753500120975AE8274302E851A82851B85
:2004340083851CF0020885858224858325AC237D008C348D35852482852583C005C00412EC
:20045400070CAA82AB83D004D0058C348D358A828B83C005C004C003C0021208A0A882A93B
:2004740083D002D003D004D0058C348D3588828983C005C004C003C002C001C0001208A0B6
:20049400D000D001D002D003D004D0058C348D35C005C004C003C002C001C0001208BDAEC3
:2004B40082AF83EE2444F582EF340AF583E493F580C2A0900001E4F5F01202FAD000D001AB
:2004D400D002D003D004D005D2A08C348D3588828983C005C004C003C0021208BDAE82AFEC
:2004F40083EE2444F582EF340AF583E493F580C2A1900001E4F5F01202FAD002D003D004C3
:20051400D005D2A18C348D358A828B83C005C0041208BDAE82AF83EE2444F582EF340AF532
:2005340083E493F580C2A2900001E4F5F01202FAD004D005D2A28C348D3585248285258375
:200554001208BDAE82AF83EE2444F582EF340AF583E493F580C2A3900001E4F5F01202FA23
:20057400D2A322AD82AE83AFF074012DFAE43EFB8F0474022DF528E43EF5298F2A74032D28
:20059400F52BE43EF52C8F2DE4F526F527C3E526940AE527648094804001228D828E838F8B
:2005B400F0120959F4F580C2A0900001E4F5F0C007C006C005C004C003C0021202FAD00223
:2005D400D003D004D2A08A828B838CF0120959F4F580C2A1900001E4F5F0C004C003C00275
:2005F4001202FAD2A1852882852983852AF0120959F4F580C2A2900001E4F5F01202FAD2EC
:20061400A2852B82852C83852DF0120959F4F580C2A3900001E4F5F01202FAD002D003D0FD
:2006340004D005D006D007D2A30526E4B5260205270205A17582270202CD109702D2978565
:200654002E19052E90002F75F04012037690002F75F040120250AE2E7F007534208F358EDF
:20067400828F83120975AE82AF83EE4F6015C3EE9410EF6480948040057533018053753389
:2006940000804E1202BE751000758200120285900A5475F0801202507510017582001202C9
:2006B40085900A5675F08012025075100075820F120285900A5875F080120250751001750E
:2006D400820F120285900A5A75F0801202501202AFAE2E7F007534108F358E828F831209C7
:1806F400758533101202859001F4E4F5F00202FA12064812064E80FB8B
:200A2A008883C6A1868EC28BCFE18AC7EACBA38C98CC9287C1C5D58991B4C0F9A4B0999216
:120A4A0082F880908883C6A1868E3E005E0056003C005C
:20070C007A10E4FBFCE58225E0F582E58333F583EB33FBEC33FCEB9534F5F0EC95354006A9
:09072C00FCABF0438201DADD228E
:200735001207D8BC000302092BEF60FA30D502B2D1E583B4FF03020941E582B4FF03020959
:2007550041258340072482400B02092B2483145003020941F582EA8DF0A4A8F0EA8EF0A4AD
:2007750028F8E435F0F9EB8DF0A428E935F0F9E433CA8FF0A429F9EA35F0FAEBF88EF0A4D3
:2007950029F9EA35F0FAE433FBEC8DF0A429F9EA35F0FAE43BFBE88FF0A42AFAEB35F0FB7B
:2007B500E433CCFD8EF0A42AFAEB35F0FBE43CFCED8FF0A42BFBEC35F0FC20E7031208066A
:0307D50002090A0C
:2007D800AA82AB83A2F73392D1F5826002D2F7ACF0E58124F9F8E6FD08E6FE0886F008E684
:0E07F800A2F73392D5F5836002D2F7AFF0225C
:06003500E4787FF6D8FD1F
:200806007804EC7011E58224F8500AF582E4C9CACBFCD8EF22EC7820058220E713D58201F1
:1308260022C3E933F9EA33FAEB33FBEC33FCD8EA158222FF
:200013007900E94400601B7A00900A5C780075A0E0E493F2A308B8000205A0D9F4DAF2754E
:02003300A0FF2C
:13083900FCABF0AA83A982749EC2D1F58212080602090A6C
:20084C007F9E12087330D10302092BC3EF9582500974FFF5F0F583F5822279001209E3891D
:07086C00828A838BF0EC226D
:12087300AA82AB83A2F73392D1F5826002D2F7ACF0228A
:1B08850020F71130F6138883A88220F509F6A8837583002280FEF280F5F02272
:1D08A000E5828534F0A4C582C0F08535F0A4D0F025F0C5838534F0A42583F5832296
:2008BD00E534453560467A01E53425E0F534E535334012F535E5829534E583953540030AA8
:2008DD0080E6C3E53513F535E53413F534C3E5829534F5F0E58395354005F58385F082C3A5
:0D08FD00E53513F535E53413F534DAE12265
:20003B007800E84400600A790075A0E0E4F309D8FC7800E84400600C790090E000E4F0A305
:04005B00D8FCD9FAFA
:20090A00B98003EA13B34010EA2401FAE43BFBE43CFC50047C800582BC000EBB000BBA0031
:20092A0008E4F5F0F583F58222A2D1E582138CF092F78B838A8222E4F583F58275F080F4F1
:0F094A00A2D11322E4F583F58275F0C0747F22E9
:0D000600758136120A26E5826003020003B0
:1C09590020F71430F6148883A88220F507E6A88375830022E280F7E49322E022AD
:20097500C2D5E58330E70DD2D5E4C39582F582E49583F583E53530E70BE4C39534F534E436
:160995009535F5351208BD30D50BE4C39582F582E49583F58322A6
:2009AB00C2D5E58330E70DD2D5E4C39582F582E49583F583E53530E70DB2D5E4C39534F58F
:1809CB0034E49535F53512070C30D50BE4C39582F582E49583F5832208
:2009E3006040F82582500274FFF582E824F8501ECCCBCAF9E4CC24F85014CBCAF9E4CB241C
:200A0300F8500BCAF9E4CA24F8500379002224086010F8C3EC13FCEB13FBEA13FAE913F9CE
:030A2300D8F122E5
:040A260075820022B3
:00000001FF
