                                      1 ;--------------------------------------------------------
                                      2 ; File Created by SDCC : free open source ANSI-C Compiler
                                      3 ; Version 3.8.0 #10562 (Linux)
                                      4 ;--------------------------------------------------------
                                      5 	.module stcboot
                                      6 	.optsdcc -mmcs51 --model-small
                                      7 	
                                      8 ;--------------------------------------------------------
                                      9 ; Public variables in this module
                                     10 ;--------------------------------------------------------
                                     11 	.globl _getStr_PARM_2
                                     12 	.globl _numArray
                                     13 	.globl _alphaArray
                                     14 	.globl _main
                                     15 	.globl _loop
                                     16 	.globl _setup
                                     17 	.globl _strobeLCD
                                     18 	.globl _printLCD
                                     19 	.globl _getStr
                                     20 	.globl _getChar
                                     21 	.globl _CY
                                     22 	.globl _AC
                                     23 	.globl _F0
                                     24 	.globl _RS1
                                     25 	.globl _RS0
                                     26 	.globl _OV
                                     27 	.globl _F1
                                     28 	.globl _P
                                     29 	.globl _PS
                                     30 	.globl _PT1
                                     31 	.globl _PX1
                                     32 	.globl _PT0
                                     33 	.globl _PX0
                                     34 	.globl _RD
                                     35 	.globl _WR
                                     36 	.globl _T1
                                     37 	.globl _T0
                                     38 	.globl _INT1
                                     39 	.globl _INT0
                                     40 	.globl _TXD
                                     41 	.globl _RXD
                                     42 	.globl _P3_7
                                     43 	.globl _P3_6
                                     44 	.globl _P3_5
                                     45 	.globl _P3_4
                                     46 	.globl _P3_3
                                     47 	.globl _P3_2
                                     48 	.globl _P3_1
                                     49 	.globl _P3_0
                                     50 	.globl _EA
                                     51 	.globl _ES
                                     52 	.globl _ET1
                                     53 	.globl _EX1
                                     54 	.globl _ET0
                                     55 	.globl _EX0
                                     56 	.globl _P2_7
                                     57 	.globl _P2_6
                                     58 	.globl _P2_5
                                     59 	.globl _P2_4
                                     60 	.globl _P2_3
                                     61 	.globl _P2_2
                                     62 	.globl _P2_1
                                     63 	.globl _P2_0
                                     64 	.globl _SM0
                                     65 	.globl _SM1
                                     66 	.globl _SM2
                                     67 	.globl _REN
                                     68 	.globl _TB8
                                     69 	.globl _RB8
                                     70 	.globl _TI
                                     71 	.globl _RI
                                     72 	.globl _P1_7
                                     73 	.globl _P1_6
                                     74 	.globl _P1_5
                                     75 	.globl _P1_4
                                     76 	.globl _P1_3
                                     77 	.globl _P1_2
                                     78 	.globl _P1_1
                                     79 	.globl _P1_0
                                     80 	.globl _TF1
                                     81 	.globl _TR1
                                     82 	.globl _TF0
                                     83 	.globl _TR0
                                     84 	.globl _IE1
                                     85 	.globl _IT1
                                     86 	.globl _IE0
                                     87 	.globl _IT0
                                     88 	.globl _P0_7
                                     89 	.globl _P0_6
                                     90 	.globl _P0_5
                                     91 	.globl _P0_4
                                     92 	.globl _P0_3
                                     93 	.globl _P0_2
                                     94 	.globl _P0_1
                                     95 	.globl _P0_0
                                     96 	.globl _B
                                     97 	.globl _ACC
                                     98 	.globl _PSW
                                     99 	.globl _IP
                                    100 	.globl _P3
                                    101 	.globl _IE
                                    102 	.globl _P2
                                    103 	.globl _SBUF
                                    104 	.globl _SCON
                                    105 	.globl _P1
                                    106 	.globl _TH1
                                    107 	.globl _TH0
                                    108 	.globl _TL1
                                    109 	.globl _TL0
                                    110 	.globl _TMOD
                                    111 	.globl _TCON
                                    112 	.globl _PCON
                                    113 	.globl _DPH
                                    114 	.globl _DPL
                                    115 	.globl _SP
                                    116 	.globl _P0
                                    117 	.globl _line
                                    118 	.globl _a
                                    119 	.globl _fr
                                    120 	.globl _printLCD_PARM_2
                                    121 	.globl _msg
                                    122 	.globl _frame
                                    123 	.globl _itoa_PARM_2
                                    124 	.globl _set_cursor_LCD_PARM_2
                                    125 	.globl _send_LCD_PARM_2
                                    126 	.globl _write_LCD_PARM_2
                                    127 	.globl _state
                                    128 	.globl _addr
                                    129 	.globl _i2c_send_PARM_3
                                    130 	.globl _i2c_send_PARM_2
                                    131 	.globl _i2c_begin_PARM_2
                                    132 	.globl _i
                                    133 	.globl _setBit
                                    134 	.globl _setNibble
                                    135 	.globl _setByte
                                    136 	.globl _readBit
                                    137 	.globl _readByte
                                    138 	.globl _i2c_begin
                                    139 	.globl _i2c_write
                                    140 	.globl _i2c_end
                                    141 	.globl _i2c_send
                                    142 	.globl _write_byte_LCD
                                    143 	.globl _write_LCD
                                    144 	.globl _command_LCD
                                    145 	.globl _data_LCD
                                    146 	.globl _send_LCD
                                    147 	.globl _print_LCD
                                    148 	.globl _set_cursor_LCD
                                    149 	.globl _home_LCD
                                    150 	.globl _clear_LCD
                                    151 	.globl _init_LCD
                                    152 	.globl _delay
                                    153 	.globl _itoa
                                    154 ;--------------------------------------------------------
                                    155 ; special function registers
                                    156 ;--------------------------------------------------------
                                    157 	.area RSEG    (ABS,DATA)
      000000                        158 	.org 0x0000
                           000080   159 _P0	=	0x0080
                           000081   160 _SP	=	0x0081
                           000082   161 _DPL	=	0x0082
                           000083   162 _DPH	=	0x0083
                           000087   163 _PCON	=	0x0087
                           000088   164 _TCON	=	0x0088
                           000089   165 _TMOD	=	0x0089
                           00008A   166 _TL0	=	0x008a
                           00008B   167 _TL1	=	0x008b
                           00008C   168 _TH0	=	0x008c
                           00008D   169 _TH1	=	0x008d
                           000090   170 _P1	=	0x0090
                           000098   171 _SCON	=	0x0098
                           000099   172 _SBUF	=	0x0099
                           0000A0   173 _P2	=	0x00a0
                           0000A8   174 _IE	=	0x00a8
                           0000B0   175 _P3	=	0x00b0
                           0000B8   176 _IP	=	0x00b8
                           0000D0   177 _PSW	=	0x00d0
                           0000E0   178 _ACC	=	0x00e0
                           0000F0   179 _B	=	0x00f0
                                    180 ;--------------------------------------------------------
                                    181 ; special function bits
                                    182 ;--------------------------------------------------------
                                    183 	.area RSEG    (ABS,DATA)
      000000                        184 	.org 0x0000
                           000080   185 _P0_0	=	0x0080
                           000081   186 _P0_1	=	0x0081
                           000082   187 _P0_2	=	0x0082
                           000083   188 _P0_3	=	0x0083
                           000084   189 _P0_4	=	0x0084
                           000085   190 _P0_5	=	0x0085
                           000086   191 _P0_6	=	0x0086
                           000087   192 _P0_7	=	0x0087
                           000088   193 _IT0	=	0x0088
                           000089   194 _IE0	=	0x0089
                           00008A   195 _IT1	=	0x008a
                           00008B   196 _IE1	=	0x008b
                           00008C   197 _TR0	=	0x008c
                           00008D   198 _TF0	=	0x008d
                           00008E   199 _TR1	=	0x008e
                           00008F   200 _TF1	=	0x008f
                           000090   201 _P1_0	=	0x0090
                           000091   202 _P1_1	=	0x0091
                           000092   203 _P1_2	=	0x0092
                           000093   204 _P1_3	=	0x0093
                           000094   205 _P1_4	=	0x0094
                           000095   206 _P1_5	=	0x0095
                           000096   207 _P1_6	=	0x0096
                           000097   208 _P1_7	=	0x0097
                           000098   209 _RI	=	0x0098
                           000099   210 _TI	=	0x0099
                           00009A   211 _RB8	=	0x009a
                           00009B   212 _TB8	=	0x009b
                           00009C   213 _REN	=	0x009c
                           00009D   214 _SM2	=	0x009d
                           00009E   215 _SM1	=	0x009e
                           00009F   216 _SM0	=	0x009f
                           0000A0   217 _P2_0	=	0x00a0
                           0000A1   218 _P2_1	=	0x00a1
                           0000A2   219 _P2_2	=	0x00a2
                           0000A3   220 _P2_3	=	0x00a3
                           0000A4   221 _P2_4	=	0x00a4
                           0000A5   222 _P2_5	=	0x00a5
                           0000A6   223 _P2_6	=	0x00a6
                           0000A7   224 _P2_7	=	0x00a7
                           0000A8   225 _EX0	=	0x00a8
                           0000A9   226 _ET0	=	0x00a9
                           0000AA   227 _EX1	=	0x00aa
                           0000AB   228 _ET1	=	0x00ab
                           0000AC   229 _ES	=	0x00ac
                           0000AF   230 _EA	=	0x00af
                           0000B0   231 _P3_0	=	0x00b0
                           0000B1   232 _P3_1	=	0x00b1
                           0000B2   233 _P3_2	=	0x00b2
                           0000B3   234 _P3_3	=	0x00b3
                           0000B4   235 _P3_4	=	0x00b4
                           0000B5   236 _P3_5	=	0x00b5
                           0000B6   237 _P3_6	=	0x00b6
                           0000B7   238 _P3_7	=	0x00b7
                           0000B0   239 _RXD	=	0x00b0
                           0000B1   240 _TXD	=	0x00b1
                           0000B2   241 _INT0	=	0x00b2
                           0000B3   242 _INT1	=	0x00b3
                           0000B4   243 _T0	=	0x00b4
                           0000B5   244 _T1	=	0x00b5
                           0000B6   245 _WR	=	0x00b6
                           0000B7   246 _RD	=	0x00b7
                           0000B8   247 _PX0	=	0x00b8
                           0000B9   248 _PT0	=	0x00b9
                           0000BA   249 _PX1	=	0x00ba
                           0000BB   250 _PT1	=	0x00bb
                           0000BC   251 _PS	=	0x00bc
                           0000D0   252 _P	=	0x00d0
                           0000D1   253 _F1	=	0x00d1
                           0000D2   254 _OV	=	0x00d2
                           0000D3   255 _RS0	=	0x00d3
                           0000D4   256 _RS1	=	0x00d4
                           0000D5   257 _F0	=	0x00d5
                           0000D6   258 _AC	=	0x00d6
                           0000D7   259 _CY	=	0x00d7
                                    260 ;--------------------------------------------------------
                                    261 ; overlayable register banks
                                    262 ;--------------------------------------------------------
                                    263 	.area REG_BANK_0	(REL,OVR,DATA)
      000000                        264 	.ds 8
                                    265 ;--------------------------------------------------------
                                    266 ; internal ram data
                                    267 ;--------------------------------------------------------
                                    268 	.area DSEG    (DATA)
      000000                        269 _i::
      000000                        270 	.ds 1
      000001                        271 _i2c_begin_PARM_2:
      000001                        272 	.ds 1
      000002                        273 _i2c_send_PARM_2:
      000002                        274 	.ds 1
      000003                        275 _i2c_send_PARM_3:
      000003                        276 	.ds 1
      000004                        277 _addr::
      000004                        278 	.ds 1
      000005                        279 _state::
      000005                        280 	.ds 1
      000006                        281 _write_LCD_PARM_2:
      000006                        282 	.ds 1
      000007                        283 _send_LCD_PARM_2:
      000007                        284 	.ds 1
      000008                        285 _set_cursor_LCD_PARM_2:
      000008                        286 	.ds 1
      000009                        287 _set_cursor_LCD_row_offsets_65536_57:
      000009                        288 	.ds 4
      00000D                        289 _delay_millis_65536_63:
      00000D                        290 	.ds 4
      000011                        291 _itoa_PARM_2:
      000011                        292 	.ds 1
      000012                        293 _itoa_out_65536_69:
      000012                        294 	.ds 3
      000015                        295 _frame::
      000015                        296 	.ds 2
      000017                        297 _msg::
      000017                        298 	.ds 4
      00001B                        299 _printLCD_PARM_2:
      00001B                        300 	.ds 1
      00001C                        301 _printLCD_i_65536_71:
      00001C                        302 	.ds 2
      00001E                        303 _strobeLCD_i_131072_75:
      00001E                        304 	.ds 2
      000020                        305 _strobeLCD_sloc0_1_0:
      000020                        306 	.ds 3
      000023                        307 _strobeLCD_sloc1_1_0:
      000023                        308 	.ds 3
      000026                        309 _fr::
      000026                        310 	.ds 1
      000027                        311 _a::
      000027                        312 	.ds 4
      00002B                        313 _line::
      00002B                        314 	.ds 1
                                    315 ;--------------------------------------------------------
                                    316 ; overlayable items in internal ram 
                                    317 ;--------------------------------------------------------
                                    318 	.area	OSEG    (OVR,DATA)
                                    319 	.area	OSEG    (OVR,DATA)
      000000                        320 _getStr_PARM_2:
      000000                        321 	.ds 3
                                    322 	.area	OSEG    (OVR,DATA)
                                    323 	.area	OSEG    (OVR,DATA)
                                    324 ;--------------------------------------------------------
                                    325 ; Stack segment in internal ram 
                                    326 ;--------------------------------------------------------
                                    327 	.area	SSEG
      000000                        328 __start__stack:
      000000                        329 	.ds	1
                                    330 
                                    331 ;--------------------------------------------------------
                                    332 ; indirectly addressable internal ram data
                                    333 ;--------------------------------------------------------
                                    334 	.area ISEG    (DATA)
                                    335 ;--------------------------------------------------------
                                    336 ; absolute internal ram data
                                    337 ;--------------------------------------------------------
                                    338 	.area IABS    (ABS,DATA)
                                    339 	.area IABS    (ABS,DATA)
                                    340 ;--------------------------------------------------------
                                    341 ; bit data
                                    342 ;--------------------------------------------------------
                                    343 	.area BSEG    (BIT)
                                    344 ;--------------------------------------------------------
                                    345 ; paged external ram data
                                    346 ;--------------------------------------------------------
                                    347 	.area PSEG    (PAG,XDATA)
                                    348 ;--------------------------------------------------------
                                    349 ; external ram data
                                    350 ;--------------------------------------------------------
                                    351 	.area XSEG    (XDATA)
                                    352 ;--------------------------------------------------------
                                    353 ; absolute external ram data
                                    354 ;--------------------------------------------------------
                                    355 	.area XABS    (ABS,XDATA)
                                    356 ;--------------------------------------------------------
                                    357 ; external initialized ram data
                                    358 ;--------------------------------------------------------
                                    359 	.area XISEG   (XDATA)
                                    360 	.area HOME    (CODE)
                                    361 	.area GSINIT0 (CODE)
                                    362 	.area GSINIT1 (CODE)
                                    363 	.area GSINIT2 (CODE)
                                    364 	.area GSINIT3 (CODE)
                                    365 	.area GSINIT4 (CODE)
                                    366 	.area GSINIT5 (CODE)
                                    367 	.area GSINIT  (CODE)
                                    368 	.area GSFINAL (CODE)
                                    369 	.area CSEG    (CODE)
                                    370 ;--------------------------------------------------------
                                    371 ; interrupt vector 
                                    372 ;--------------------------------------------------------
                                    373 	.area HOME    (CODE)
      000000                        374 __interrupt_vect:
      000000 02r00r00         [24]  375 	ljmp	__sdcc_gsinit_startup
                                    376 ;--------------------------------------------------------
                                    377 ; global & static initialisations
                                    378 ;--------------------------------------------------------
                                    379 	.area HOME    (CODE)
                                    380 	.area GSINIT  (CODE)
                                    381 	.area GSFINAL (CODE)
                                    382 	.area GSINIT  (CODE)
                                    383 	.globl __sdcc_gsinit_startup
                                    384 	.globl __sdcc_program_startup
                                    385 	.globl __start__stack
                                    386 	.globl __mcs51_genXINIT
                                    387 	.globl __mcs51_genXRAMCLEAR
                                    388 	.globl __mcs51_genRAMCLEAR
                                    389 ;	i2c8051.c:5: unsigned char i=0;
      000000 75*00 00         [24]  390 	mov	_i,#0x00
                                    391 ;	LCD1602.c:4: unsigned char addr=0;
      000003 75*04 00         [24]  392 	mov	_addr,#0x00
                                    393 ;	LCD1602.c:5: unsigned char state=0;
      000006 75*05 00         [24]  394 	mov	_state,#0x00
                                    395 ;	stcboot.c:21: unsigned int frame=0;
      000009 E4               [12]  396 	clr	a
      00000A F5*15            [12]  397 	mov	_frame,a
      00000C F5*16            [12]  398 	mov	(_frame + 1),a
                                    399 ;	stcboot.c:89: unsigned char fr=0;
                                    400 ;	1-genFromRTrack replaced	mov	_fr,#0x00
      00000E F5*26            [12]  401 	mov	_fr,a
                                    402 ;	stcboot.c:91: unsigned char line=0;
                                    403 ;	1-genFromRTrack replaced	mov	_line,#0x00
      000010 F5*2B            [12]  404 	mov	_line,a
                                    405 	.area GSFINAL (CODE)
      000000 02r00r03         [24]  406 	ljmp	__sdcc_program_startup
                                    407 ;--------------------------------------------------------
                                    408 ; Home
                                    409 ;--------------------------------------------------------
                                    410 	.area HOME    (CODE)
                                    411 	.area HOME    (CODE)
      000003                        412 __sdcc_program_startup:
      000003 02r06r90         [24]  413 	ljmp	_main
                                    414 ;	return from main will return to caller
                                    415 ;--------------------------------------------------------
                                    416 ; code
                                    417 ;--------------------------------------------------------
                                    418 	.area CSEG    (CODE)
                                    419 ;------------------------------------------------------------
                                    420 ;Allocation info for local variables in function 'getChar'
                                    421 ;------------------------------------------------------------
                                    422 ;c                         Allocated to registers r7 
                                    423 ;------------------------------------------------------------
                                    424 ;	anodeDisplay.h:84: unsigned char getChar(char c){
                                    425 ;	-----------------------------------------
                                    426 ;	 function getChar
                                    427 ;	-----------------------------------------
      000000                        428 _getChar:
                           000007   429 	ar7 = 0x07
                           000006   430 	ar6 = 0x06
                           000005   431 	ar5 = 0x05
                           000004   432 	ar4 = 0x04
                           000003   433 	ar3 = 0x03
                           000002   434 	ar2 = 0x02
                           000001   435 	ar1 = 0x01
                           000000   436 	ar0 = 0x00
      000000 AF 82            [24]  437 	mov	r7,dpl
                                    438 ;	anodeDisplay.h:85: if(c>=48&&c<=57)
      000002 BF 30 00         [24]  439 	cjne	r7,#0x30,00138$
      000005                        440 00138$:
      000005 40 1E            [24]  441 	jc	00109$
      000007 EF               [12]  442 	mov	a,r7
      000008 24 C6            [12]  443 	add	a,#0xff - 0x39
      00000A 40 19            [24]  444 	jc	00109$
                                    445 ;	anodeDisplay.h:86: return numArray[c-48];
      00000C 8F 06            [24]  446 	mov	ar6,r7
      00000E EE               [12]  447 	mov	a,r6
      00000F 24 D0            [12]  448 	add	a,#0xd0
      000011 FE               [12]  449 	mov	r6,a
      000012 33               [12]  450 	rlc	a
      000013 95 E0            [12]  451 	subb	a,acc
      000015 FD               [12]  452 	mov	r5,a
      000016 EE               [12]  453 	mov	a,r6
      000017 24r1A            [12]  454 	add	a,#_numArray
      000019 F5 82            [12]  455 	mov	dpl,a
      00001B ED               [12]  456 	mov	a,r5
      00001C 34s00            [12]  457 	addc	a,#(_numArray >> 8)
      00001E F5 83            [12]  458 	mov	dph,a
      000020 E4               [12]  459 	clr	a
      000021 93               [24]  460 	movc	a,@a+dptr
      000022 F5 82            [12]  461 	mov	dpl,a
      000024 22               [24]  462 	ret
      000025                        463 00109$:
                                    464 ;	anodeDisplay.h:87: else if(c>=65&&c<=90)
      000025 BF 41 00         [24]  465 	cjne	r7,#0x41,00141$
      000028                        466 00141$:
      000028 40 1E            [24]  467 	jc	00105$
      00002A EF               [12]  468 	mov	a,r7
      00002B 24 A5            [12]  469 	add	a,#0xff - 0x5a
      00002D 40 19            [24]  470 	jc	00105$
                                    471 ;	anodeDisplay.h:88: return alphaArray[c-65];
      00002F 8F 06            [24]  472 	mov	ar6,r7
      000031 EE               [12]  473 	mov	a,r6
      000032 24 BF            [12]  474 	add	a,#0xbf
      000034 FE               [12]  475 	mov	r6,a
      000035 33               [12]  476 	rlc	a
      000036 95 E0            [12]  477 	subb	a,acc
      000038 FD               [12]  478 	mov	r5,a
      000039 EE               [12]  479 	mov	a,r6
      00003A 24r00            [12]  480 	add	a,#_alphaArray
      00003C F5 82            [12]  481 	mov	dpl,a
      00003E ED               [12]  482 	mov	a,r5
      00003F 34s00            [12]  483 	addc	a,#(_alphaArray >> 8)
      000041 F5 83            [12]  484 	mov	dph,a
      000043 E4               [12]  485 	clr	a
      000044 93               [24]  486 	movc	a,@a+dptr
      000045 F5 82            [12]  487 	mov	dpl,a
      000047 22               [24]  488 	ret
      000048                        489 00105$:
                                    490 ;	anodeDisplay.h:89: else if(c>=97&&c<=122)
      000048 BF 61 00         [24]  491 	cjne	r7,#0x61,00144$
      00004B                        492 00144$:
      00004B 40 1C            [24]  493 	jc	00110$
      00004D EF               [12]  494 	mov	a,r7
      00004E 24 85            [12]  495 	add	a,#0xff - 0x7a
      000050 40 17            [24]  496 	jc	00110$
                                    497 ;	anodeDisplay.h:90: return alphaArray[c-97];
      000052 EF               [12]  498 	mov	a,r7
      000053 24 9F            [12]  499 	add	a,#0x9f
      000055 FF               [12]  500 	mov	r7,a
      000056 33               [12]  501 	rlc	a
      000057 95 E0            [12]  502 	subb	a,acc
      000059 FE               [12]  503 	mov	r6,a
      00005A EF               [12]  504 	mov	a,r7
      00005B 24r00            [12]  505 	add	a,#_alphaArray
      00005D F5 82            [12]  506 	mov	dpl,a
      00005F EE               [12]  507 	mov	a,r6
      000060 34s00            [12]  508 	addc	a,#(_alphaArray >> 8)
      000062 F5 83            [12]  509 	mov	dph,a
      000064 E4               [12]  510 	clr	a
      000065 93               [24]  511 	movc	a,@a+dptr
      000066 F5 82            [12]  512 	mov	dpl,a
      000068 22               [24]  513 	ret
      000069                        514 00110$:
                                    515 ;	anodeDisplay.h:91: return 0;
      000069 75 82 00         [24]  516 	mov	dpl,#0x00
                                    517 ;	anodeDisplay.h:92: }
      00006C 22               [24]  518 	ret
                                    519 ;------------------------------------------------------------
                                    520 ;Allocation info for local variables in function 'getStr'
                                    521 ;------------------------------------------------------------
                                    522 ;str                       Allocated with name '_getStr_PARM_2'
                                    523 ;out                       Allocated to registers r5 r6 r7 
                                    524 ;i                         Allocated to registers r4 
                                    525 ;------------------------------------------------------------
                                    526 ;	anodeDisplay.h:93: void getStr(unsigned char* out, const char* str){
                                    527 ;	-----------------------------------------
                                    528 ;	 function getStr
                                    529 ;	-----------------------------------------
      00006D                        530 _getStr:
      00006D AD 82            [24]  531 	mov	r5,dpl
      00006F AE 83            [24]  532 	mov	r6,dph
      000071 AF F0            [24]  533 	mov	r7,b
                                    534 ;	anodeDisplay.h:94: for(unsigned char i=0;str[i]!=0;i++){
      000073 7C 00            [12]  535 	mov	r4,#0x00
      000075                        536 00103$:
      000075 EC               [12]  537 	mov	a,r4
      000076 25*00            [12]  538 	add	a,_getStr_PARM_2
      000078 F9               [12]  539 	mov	r1,a
      000079 E4               [12]  540 	clr	a
      00007A 35*01            [12]  541 	addc	a,(_getStr_PARM_2 + 1)
      00007C FA               [12]  542 	mov	r2,a
      00007D AB*02            [24]  543 	mov	r3,(_getStr_PARM_2 + 2)
      00007F 89 82            [24]  544 	mov	dpl,r1
      000081 8A 83            [24]  545 	mov	dph,r2
      000083 8B F0            [24]  546 	mov	b,r3
      000085 12r00r00         [24]  547 	lcall	__gptrget
      000088 FB               [12]  548 	mov	r3,a
      000089 60 15            [24]  549 	jz	00105$
                                    550 ;	anodeDisplay.h:95: out[i]=str[i];
      00008B EC               [12]  551 	mov	a,r4
      00008C 2D               [12]  552 	add	a,r5
      00008D F8               [12]  553 	mov	r0,a
      00008E E4               [12]  554 	clr	a
      00008F 3E               [12]  555 	addc	a,r6
      000090 F9               [12]  556 	mov	r1,a
      000091 8F 02            [24]  557 	mov	ar2,r7
      000093 88 82            [24]  558 	mov	dpl,r0
      000095 89 83            [24]  559 	mov	dph,r1
      000097 8A F0            [24]  560 	mov	b,r2
      000099 EB               [12]  561 	mov	a,r3
      00009A 12r00r00         [24]  562 	lcall	__gptrput
                                    563 ;	anodeDisplay.h:94: for(unsigned char i=0;str[i]!=0;i++){
      00009D 0C               [12]  564 	inc	r4
      00009E 80 D5            [24]  565 	sjmp	00103$
      0000A0                        566 00105$:
                                    567 ;	anodeDisplay.h:97: }
      0000A0 22               [24]  568 	ret
                                    569 ;------------------------------------------------------------
                                    570 ;Allocation info for local variables in function 'setBit'
                                    571 ;------------------------------------------------------------
                                    572 ;bit                       Allocated to registers r7 
                                    573 ;------------------------------------------------------------
                                    574 ;	i2c8051.c:6: void setBit(unsigned char bit) {
                                    575 ;	-----------------------------------------
                                    576 ;	 function setBit
                                    577 ;	-----------------------------------------
      0000A1                        578 _setBit:
                                    579 ;	i2c8051.c:7: SDA=bit; //digitalWrite(SDA, bit);
                                    580 ;	assignBit
      0000A1 E5 82            [12]  581 	mov	a,dpl
      0000A3 24 FF            [12]  582 	add	a,#0xff
      0000A5 92 92            [24]  583 	mov	_P1_2,c
                                    584 ;	i2c8051.c:8: SCL=1; //digitalWrite(SCL, HIGH);
                                    585 ;	assignBit
      0000A7 D2 91            [12]  586 	setb	_P1_1
                                    587 ;	i2c8051.c:9: SCL=0; //digitalWrite(SCL, LOW);
                                    588 ;	assignBit
      0000A9 C2 91            [12]  589 	clr	_P1_1
                                    590 ;	i2c8051.c:10: SDA=0; //digitalWrite(SDA, LOW);
                                    591 ;	assignBit
      0000AB C2 92            [12]  592 	clr	_P1_2
                                    593 ;	i2c8051.c:11: }
      0000AD 22               [24]  594 	ret
                                    595 ;------------------------------------------------------------
                                    596 ;Allocation info for local variables in function 'setNibble'
                                    597 ;------------------------------------------------------------
                                    598 ;nibble                    Allocated to registers r7 
                                    599 ;mask                      Allocated to registers r6 
                                    600 ;------------------------------------------------------------
                                    601 ;	i2c8051.c:12: void setNibble(unsigned char nibble){
                                    602 ;	-----------------------------------------
                                    603 ;	 function setNibble
                                    604 ;	-----------------------------------------
      0000AE                        605 _setNibble:
      0000AE AF 82            [24]  606 	mov	r7,dpl
                                    607 ;	i2c8051.c:13: unsigned char mask=_BV(3);
      0000B0 7E 08            [12]  608 	mov	r6,#0x08
                                    609 ;	i2c8051.c:14: while(mask>0){
      0000B2                        610 00101$:
      0000B2 EE               [12]  611 	mov	a,r6
      0000B3 60 15            [24]  612 	jz	00104$
                                    613 ;	i2c8051.c:15: setBit(nibble&mask);
      0000B5 EE               [12]  614 	mov	a,r6
      0000B6 5F               [12]  615 	anl	a,r7
      0000B7 F5 82            [12]  616 	mov	dpl,a
      0000B9 C0 07            [24]  617 	push	ar7
      0000BB C0 06            [24]  618 	push	ar6
      0000BD 12r00rA1         [24]  619 	lcall	_setBit
      0000C0 D0 06            [24]  620 	pop	ar6
      0000C2 D0 07            [24]  621 	pop	ar7
                                    622 ;	i2c8051.c:16: mask>>=1;
      0000C4 EE               [12]  623 	mov	a,r6
      0000C5 C3               [12]  624 	clr	c
      0000C6 13               [12]  625 	rrc	a
      0000C7 FE               [12]  626 	mov	r6,a
      0000C8 80 E8            [24]  627 	sjmp	00101$
      0000CA                        628 00104$:
                                    629 ;	i2c8051.c:18: }
      0000CA 22               [24]  630 	ret
                                    631 ;------------------------------------------------------------
                                    632 ;Allocation info for local variables in function 'setByte'
                                    633 ;------------------------------------------------------------
                                    634 ;bits                      Allocated to registers r7 
                                    635 ;mask                      Allocated to registers r6 
                                    636 ;------------------------------------------------------------
                                    637 ;	i2c8051.c:19: void setByte(unsigned char bits){
                                    638 ;	-----------------------------------------
                                    639 ;	 function setByte
                                    640 ;	-----------------------------------------
      0000CB                        641 _setByte:
      0000CB AF 82            [24]  642 	mov	r7,dpl
                                    643 ;	i2c8051.c:20: unsigned char mask=_BV(7);
      0000CD 7E 80            [12]  644 	mov	r6,#0x80
                                    645 ;	i2c8051.c:21: while(mask>0){
      0000CF                        646 00101$:
      0000CF EE               [12]  647 	mov	a,r6
      0000D0 60 15            [24]  648 	jz	00104$
                                    649 ;	i2c8051.c:22: setBit(bits&mask);
      0000D2 EE               [12]  650 	mov	a,r6
      0000D3 5F               [12]  651 	anl	a,r7
      0000D4 F5 82            [12]  652 	mov	dpl,a
      0000D6 C0 07            [24]  653 	push	ar7
      0000D8 C0 06            [24]  654 	push	ar6
      0000DA 12r00rA1         [24]  655 	lcall	_setBit
      0000DD D0 06            [24]  656 	pop	ar6
      0000DF D0 07            [24]  657 	pop	ar7
                                    658 ;	i2c8051.c:23: mask>>=1;
      0000E1 EE               [12]  659 	mov	a,r6
      0000E2 C3               [12]  660 	clr	c
      0000E3 13               [12]  661 	rrc	a
      0000E4 FE               [12]  662 	mov	r6,a
      0000E5 80 E8            [24]  663 	sjmp	00101$
      0000E7                        664 00104$:
                                    665 ;	i2c8051.c:25: }
      0000E7 22               [24]  666 	ret
                                    667 ;------------------------------------------------------------
                                    668 ;Allocation info for local variables in function 'readBit'
                                    669 ;------------------------------------------------------------
                                    670 ;r                         Allocated to registers 
                                    671 ;------------------------------------------------------------
                                    672 ;	i2c8051.c:26: unsigned char readBit() {
                                    673 ;	-----------------------------------------
                                    674 ;	 function readBit
                                    675 ;	-----------------------------------------
      0000E8                        676 _readBit:
                                    677 ;	i2c8051.c:27: SCL=1; //digitalWrite(SCL, HIGH);
                                    678 ;	assignBit
      0000E8 D2 91            [12]  679 	setb	_P1_1
                                    680 ;	i2c8051.c:28: unsigned char r = SDA; //digitalRead(SDA);
      0000EA A2 92            [12]  681 	mov	c,_P1_2
      0000EC E4               [12]  682 	clr	a
      0000ED 33               [12]  683 	rlc	a
      0000EE F5 82            [12]  684 	mov	dpl,a
                                    685 ;	i2c8051.c:29: SCL=0; //digitalWrite(SCL, LOW);
                                    686 ;	assignBit
      0000F0 C2 91            [12]  687 	clr	_P1_1
                                    688 ;	i2c8051.c:30: return r;
                                    689 ;	i2c8051.c:31: }
      0000F2 22               [24]  690 	ret
                                    691 ;------------------------------------------------------------
                                    692 ;Allocation info for local variables in function 'readByte'
                                    693 ;------------------------------------------------------------
                                    694 ;value                     Allocated to registers r7 
                                    695 ;i                         Allocated to registers r6 
                                    696 ;------------------------------------------------------------
                                    697 ;	i2c8051.c:32: unsigned char readByte(){
                                    698 ;	-----------------------------------------
                                    699 ;	 function readByte
                                    700 ;	-----------------------------------------
      0000F3                        701 _readByte:
                                    702 ;	i2c8051.c:33: unsigned char value = 0;
      0000F3 7F 00            [12]  703 	mov	r7,#0x00
                                    704 ;	i2c8051.c:34: for (unsigned char i = 0; i < 8; i++) {
      0000F5 7E 00            [12]  705 	mov	r6,#0x00
      0000F7                        706 00103$:
      0000F7 BE 08 00         [24]  707 	cjne	r6,#0x08,00116$
      0000FA                        708 00116$:
      0000FA 50 18            [24]  709 	jnc	00101$
                                    710 ;	i2c8051.c:35: value = (value << 1) | readBit();
      0000FC 8F 05            [24]  711 	mov	ar5,r7
      0000FE ED               [12]  712 	mov	a,r5
      0000FF 2D               [12]  713 	add	a,r5
      000100 FD               [12]  714 	mov	r5,a
      000101 C0 06            [24]  715 	push	ar6
      000103 C0 05            [24]  716 	push	ar5
      000105 12r00rE8         [24]  717 	lcall	_readBit
      000108 AC 82            [24]  718 	mov	r4,dpl
      00010A D0 05            [24]  719 	pop	ar5
      00010C D0 06            [24]  720 	pop	ar6
      00010E EC               [12]  721 	mov	a,r4
      00010F 4D               [12]  722 	orl	a,r5
      000110 FF               [12]  723 	mov	r7,a
                                    724 ;	i2c8051.c:34: for (unsigned char i = 0; i < 8; i++) {
      000111 0E               [12]  725 	inc	r6
      000112 80 E3            [24]  726 	sjmp	00103$
      000114                        727 00101$:
                                    728 ;	i2c8051.c:37: return value;
      000114 8F 82            [24]  729 	mov	dpl,r7
                                    730 ;	i2c8051.c:38: }
      000116 22               [24]  731 	ret
                                    732 ;------------------------------------------------------------
                                    733 ;Allocation info for local variables in function 'i2c_begin'
                                    734 ;------------------------------------------------------------
                                    735 ;rw                        Allocated with name '_i2c_begin_PARM_2'
                                    736 ;addr                      Allocated to registers r7 
                                    737 ;------------------------------------------------------------
                                    738 ;	i2c8051.c:39: unsigned char i2c_begin(unsigned char addr,unsigned char rw){
                                    739 ;	-----------------------------------------
                                    740 ;	 function i2c_begin
                                    741 ;	-----------------------------------------
      000117                        742 _i2c_begin:
      000117 AF 82            [24]  743 	mov	r7,dpl
                                    744 ;	i2c8051.c:40: i2c_end(); //also start condition
      000119 C0 07            [24]  745 	push	ar7
      00011B 12r01r3C         [24]  746 	lcall	_i2c_end
      00011E D0 07            [24]  747 	pop	ar7
                                    748 ;	i2c8051.c:41: SDA=0; //digitalWrite(SDA,LOW);
                                    749 ;	assignBit
      000120 C2 92            [12]  750 	clr	_P1_2
                                    751 ;	i2c8051.c:42: SCL=0;//digitalWrite(SCL,LOW);
                                    752 ;	assignBit
      000122 C2 91            [12]  753 	clr	_P1_1
                                    754 ;	i2c8051.c:43: setByte(addr<<1|rw);
      000124 EF               [12]  755 	mov	a,r7
      000125 2F               [12]  756 	add	a,r7
      000126 FF               [12]  757 	mov	r7,a
      000127 E5*01            [12]  758 	mov	a,_i2c_begin_PARM_2
      000129 4F               [12]  759 	orl	a,r7
      00012A F5 82            [12]  760 	mov	dpl,a
      00012C 12r00rCB         [24]  761 	lcall	_setByte
                                    762 ;	i2c8051.c:44: SDA=0;//pinMode(SDA, INPUT);
                                    763 ;	assignBit
      00012F C2 92            [12]  764 	clr	_P1_2
                                    765 ;	i2c8051.c:45: return readBit(); //ACK
                                    766 ;	i2c8051.c:46: }
      000131 02r00rE8         [24]  767 	ljmp	_readBit
                                    768 ;------------------------------------------------------------
                                    769 ;Allocation info for local variables in function 'i2c_write'
                                    770 ;------------------------------------------------------------
                                    771 ;data                      Allocated to registers 
                                    772 ;------------------------------------------------------------
                                    773 ;	i2c8051.c:47: unsigned char i2c_write(unsigned char data){
                                    774 ;	-----------------------------------------
                                    775 ;	 function i2c_write
                                    776 ;	-----------------------------------------
      000134                        777 _i2c_write:
                                    778 ;	i2c8051.c:48: setByte(data); //dataframe
      000134 12r00rCB         [24]  779 	lcall	_setByte
                                    780 ;	i2c8051.c:49: SDA=0; //pinMode(SDA, INPUT);
                                    781 ;	assignBit
      000137 C2 92            [12]  782 	clr	_P1_2
                                    783 ;	i2c8051.c:50: return readBit(); //ACK
                                    784 ;	i2c8051.c:51: }
      000139 02r00rE8         [24]  785 	ljmp	_readBit
                                    786 ;------------------------------------------------------------
                                    787 ;Allocation info for local variables in function 'i2c_end'
                                    788 ;------------------------------------------------------------
                                    789 ;	i2c8051.c:52: void i2c_end(){
                                    790 ;	-----------------------------------------
                                    791 ;	 function i2c_end
                                    792 ;	-----------------------------------------
      00013C                        793 _i2c_end:
                                    794 ;	i2c8051.c:53: SCL=1; //digitalWrite(SCL,HIGH);
                                    795 ;	assignBit
      00013C D2 91            [12]  796 	setb	_P1_1
                                    797 ;	i2c8051.c:54: SDA=1; //digitalWrite(SDA,HIGH);
                                    798 ;	assignBit
      00013E D2 92            [12]  799 	setb	_P1_2
                                    800 ;	i2c8051.c:55: }
      000140 22               [24]  801 	ret
                                    802 ;------------------------------------------------------------
                                    803 ;Allocation info for local variables in function 'i2c_send'
                                    804 ;------------------------------------------------------------
                                    805 ;rw                        Allocated with name '_i2c_send_PARM_2'
                                    806 ;data                      Allocated with name '_i2c_send_PARM_3'
                                    807 ;addr                      Allocated to registers 
                                    808 ;------------------------------------------------------------
                                    809 ;	i2c8051.c:56: void i2c_send(unsigned char addr,unsigned char rw,unsigned char data){
                                    810 ;	-----------------------------------------
                                    811 ;	 function i2c_send
                                    812 ;	-----------------------------------------
      000141                        813 _i2c_send:
                                    814 ;	i2c8051.c:57: i2c_begin(addr,rw);
      000141 85*02*01         [24]  815 	mov	_i2c_begin_PARM_2,_i2c_send_PARM_2
      000144 12r01r17         [24]  816 	lcall	_i2c_begin
                                    817 ;	i2c8051.c:58: i2c_write(data);
      000147 85*03 82         [24]  818 	mov	dpl,_i2c_send_PARM_3
      00014A 12r01r34         [24]  819 	lcall	_i2c_write
                                    820 ;	i2c8051.c:59: i2c_end();
                                    821 ;	i2c8051.c:60: }
      00014D 02r01r3C         [24]  822 	ljmp	_i2c_end
                                    823 ;------------------------------------------------------------
                                    824 ;Allocation info for local variables in function 'write_byte_LCD'
                                    825 ;------------------------------------------------------------
                                    826 ;data                      Allocated to registers 
                                    827 ;------------------------------------------------------------
                                    828 ;	LCD1602.c:6: void write_byte_LCD(unsigned char data){
                                    829 ;	-----------------------------------------
                                    830 ;	 function write_byte_LCD
                                    831 ;	-----------------------------------------
      000150                        832 _write_byte_LCD:
      000150 85 82*03         [24]  833 	mov	_i2c_send_PARM_3,dpl
                                    834 ;	LCD1602.c:7: i2c_send(addr,WRITE,data);
      000153 75*02 00         [24]  835 	mov	_i2c_send_PARM_2,#0x00
      000156 85*04 82         [24]  836 	mov	dpl,_addr
      000159 12r01r41         [24]  837 	lcall	_i2c_send
                                    838 ;	LCD1602.c:8: delay(1);
      00015C 90 00 01         [24]  839 	mov	dptr,#(0x01&0x00ff)
      00015F E4               [12]  840 	clr	a
      000160 F5 F0            [12]  841 	mov	b,a
                                    842 ;	LCD1602.c:9: }
      000162 02r02r86         [24]  843 	ljmp	_delay
                                    844 ;------------------------------------------------------------
                                    845 ;Allocation info for local variables in function 'write_LCD'
                                    846 ;------------------------------------------------------------
                                    847 ;mode                      Allocated with name '_write_LCD_PARM_2'
                                    848 ;nibble                    Allocated to registers r7 
                                    849 ;------------------------------------------------------------
                                    850 ;	LCD1602.c:10: void write_LCD(unsigned char nibble, unsigned char mode){
                                    851 ;	-----------------------------------------
                                    852 ;	 function write_LCD
                                    853 ;	-----------------------------------------
      000165                        854 _write_LCD:
      000165 AF 82            [24]  855 	mov	r7,dpl
                                    856 ;	LCD1602.c:11: write_byte_LCD(nibble|En|mode);
      000167 8F 05            [24]  857 	mov	ar5,r7
      000169 7E 00            [12]  858 	mov	r6,#0x00
      00016B 43 05 04         [24]  859 	orl	ar5,#0x04
      00016E AB*06            [24]  860 	mov	r3,_write_LCD_PARM_2
      000170 7C 00            [12]  861 	mov	r4,#0x00
      000172 EB               [12]  862 	mov	a,r3
      000173 42 05            [12]  863 	orl	ar5,a
      000175 EC               [12]  864 	mov	a,r4
      000176 42 06            [12]  865 	orl	ar6,a
      000178 8D 82            [24]  866 	mov	dpl,r5
      00017A C0 07            [24]  867 	push	ar7
      00017C C0 05            [24]  868 	push	ar5
      00017E 12r01r50         [24]  869 	lcall	_write_byte_LCD
      000181 D0 05            [24]  870 	pop	ar5
      000183 D0 07            [24]  871 	pop	ar7
                                    872 ;	LCD1602.c:12: write_byte_LCD(nibble&~En|mode);
      000185 74 FB            [12]  873 	mov	a,#0xfb
      000187 5F               [12]  874 	anl	a,r7
      000188 45*06            [12]  875 	orl	a,_write_LCD_PARM_2
      00018A F5 82            [12]  876 	mov	dpl,a
      00018C C0 05            [24]  877 	push	ar5
      00018E 12r01r50         [24]  878 	lcall	_write_byte_LCD
      000191 D0 05            [24]  879 	pop	ar5
                                    880 ;	LCD1602.c:13: write_byte_LCD(nibble|En|mode);
      000193 8D 82            [24]  881 	mov	dpl,r5
                                    882 ;	LCD1602.c:14: }
      000195 02r01r50         [24]  883 	ljmp	_write_byte_LCD
                                    884 ;------------------------------------------------------------
                                    885 ;Allocation info for local variables in function 'command_LCD'
                                    886 ;------------------------------------------------------------
                                    887 ;data                      Allocated to registers 
                                    888 ;------------------------------------------------------------
                                    889 ;	LCD1602.c:15: void command_LCD(unsigned char data){
                                    890 ;	-----------------------------------------
                                    891 ;	 function command_LCD
                                    892 ;	-----------------------------------------
      000198                        893 _command_LCD:
                                    894 ;	LCD1602.c:16: send_LCD(data,LCD_CMD);
      000198 75*07 00         [24]  895 	mov	_send_LCD_PARM_2,#0x00
      00019B 12r01rAD         [24]  896 	lcall	_send_LCD
                                    897 ;	LCD1602.c:17: delay(5);
      00019E 90 00 05         [24]  898 	mov	dptr,#(0x05&0x00ff)
      0001A1 E4               [12]  899 	clr	a
      0001A2 F5 F0            [12]  900 	mov	b,a
                                    901 ;	LCD1602.c:18: }
      0001A4 02r02r86         [24]  902 	ljmp	_delay
                                    903 ;------------------------------------------------------------
                                    904 ;Allocation info for local variables in function 'data_LCD'
                                    905 ;------------------------------------------------------------
                                    906 ;data                      Allocated to registers 
                                    907 ;------------------------------------------------------------
                                    908 ;	LCD1602.c:19: void data_LCD(unsigned char data){
                                    909 ;	-----------------------------------------
                                    910 ;	 function data_LCD
                                    911 ;	-----------------------------------------
      0001A7                        912 _data_LCD:
                                    913 ;	LCD1602.c:20: send_LCD(data,LCD_DATA);
      0001A7 75*07 01         [24]  914 	mov	_send_LCD_PARM_2,#0x01
                                    915 ;	LCD1602.c:21: }
      0001AA 02r01rAD         [24]  916 	ljmp	_send_LCD
                                    917 ;------------------------------------------------------------
                                    918 ;Allocation info for local variables in function 'send_LCD'
                                    919 ;------------------------------------------------------------
                                    920 ;mode                      Allocated with name '_send_LCD_PARM_2'
                                    921 ;data                      Allocated to registers r7 
                                    922 ;------------------------------------------------------------
                                    923 ;	LCD1602.c:22: void send_LCD(unsigned char data, unsigned char mode) {
                                    924 ;	-----------------------------------------
                                    925 ;	 function send_LCD
                                    926 ;	-----------------------------------------
      0001AD                        927 _send_LCD:
      0001AD AF 82            [24]  928 	mov	r7,dpl
                                    929 ;	LCD1602.c:23: write_LCD((data&0xF0)|state,mode); //highnib
      0001AF 8F 05            [24]  930 	mov	ar5,r7
      0001B1 53 05 F0         [24]  931 	anl	ar5,#0xf0
      0001B4 7E 00            [12]  932 	mov	r6,#0x00
      0001B6 AB*05            [24]  933 	mov	r3,_state
      0001B8 7C 00            [12]  934 	mov	r4,#0x00
      0001BA EB               [12]  935 	mov	a,r3
      0001BB 42 05            [12]  936 	orl	ar5,a
      0001BD EC               [12]  937 	mov	a,r4
      0001BE 42 06            [12]  938 	orl	ar6,a
      0001C0 8D 82            [24]  939 	mov	dpl,r5
      0001C2 85*07*06         [24]  940 	mov	_write_LCD_PARM_2,_send_LCD_PARM_2
      0001C5 C0 07            [24]  941 	push	ar7
      0001C7 12r01r65         [24]  942 	lcall	_write_LCD
      0001CA D0 07            [24]  943 	pop	ar7
                                    944 ;	LCD1602.c:25: write_LCD((data<<4)|state,mode); //lownib
      0001CC EF               [12]  945 	mov	a,r7
      0001CD C4               [12]  946 	swap	a
      0001CE 54 F0            [12]  947 	anl	a,#0xf0
      0001D0 FF               [12]  948 	mov	r7,a
      0001D1 E5*05            [12]  949 	mov	a,_state
      0001D3 4F               [12]  950 	orl	a,r7
      0001D4 F5 82            [12]  951 	mov	dpl,a
      0001D6 85*07*06         [24]  952 	mov	_write_LCD_PARM_2,_send_LCD_PARM_2
                                    953 ;	LCD1602.c:26: }
      0001D9 02r01r65         [24]  954 	ljmp	_write_LCD
                                    955 ;------------------------------------------------------------
                                    956 ;Allocation info for local variables in function 'print_LCD'
                                    957 ;------------------------------------------------------------
                                    958 ;str                       Allocated to registers r5 r6 r7 
                                    959 ;i                         Allocated to registers r4 
                                    960 ;------------------------------------------------------------
                                    961 ;	LCD1602.c:27: void print_LCD(char* str){
                                    962 ;	-----------------------------------------
                                    963 ;	 function print_LCD
                                    964 ;	-----------------------------------------
      0001DC                        965 _print_LCD:
      0001DC AD 82            [24]  966 	mov	r5,dpl
      0001DE AE 83            [24]  967 	mov	r6,dph
      0001E0 AF F0            [24]  968 	mov	r7,b
                                    969 ;	LCD1602.c:28: for(unsigned char i=0;str[i]!=0;i++)
      0001E2 7C 00            [12]  970 	mov	r4,#0x00
      0001E4                        971 00103$:
      0001E4 EC               [12]  972 	mov	a,r4
      0001E5 2D               [12]  973 	add	a,r5
      0001E6 F9               [12]  974 	mov	r1,a
      0001E7 E4               [12]  975 	clr	a
      0001E8 3E               [12]  976 	addc	a,r6
      0001E9 FA               [12]  977 	mov	r2,a
      0001EA 8F 03            [24]  978 	mov	ar3,r7
      0001EC 89 82            [24]  979 	mov	dpl,r1
      0001EE 8A 83            [24]  980 	mov	dph,r2
      0001F0 8B F0            [24]  981 	mov	b,r3
      0001F2 12r00r00         [24]  982 	lcall	__gptrget
      0001F5 FB               [12]  983 	mov	r3,a
      0001F6 60 18            [24]  984 	jz	00105$
                                    985 ;	LCD1602.c:29: data_LCD((unsigned char)str[i]);
      0001F8 8B 82            [24]  986 	mov	dpl,r3
      0001FA C0 07            [24]  987 	push	ar7
      0001FC C0 06            [24]  988 	push	ar6
      0001FE C0 05            [24]  989 	push	ar5
      000200 C0 04            [24]  990 	push	ar4
      000202 12r01rA7         [24]  991 	lcall	_data_LCD
      000205 D0 04            [24]  992 	pop	ar4
      000207 D0 05            [24]  993 	pop	ar5
      000209 D0 06            [24]  994 	pop	ar6
      00020B D0 07            [24]  995 	pop	ar7
                                    996 ;	LCD1602.c:28: for(unsigned char i=0;str[i]!=0;i++)
      00020D 0C               [12]  997 	inc	r4
      00020E 80 D4            [24]  998 	sjmp	00103$
      000210                        999 00105$:
                                   1000 ;	LCD1602.c:30: }
      000210 22               [24] 1001 	ret
                                   1002 ;------------------------------------------------------------
                                   1003 ;Allocation info for local variables in function 'set_cursor_LCD'
                                   1004 ;------------------------------------------------------------
                                   1005 ;row                       Allocated with name '_set_cursor_LCD_PARM_2'
                                   1006 ;col                       Allocated to registers r7 
                                   1007 ;_numlines                 Allocated to registers 
                                   1008 ;row_offsets               Allocated with name '_set_cursor_LCD_row_offsets_65536_57'
                                   1009 ;------------------------------------------------------------
                                   1010 ;	LCD1602.c:31: void set_cursor_LCD(unsigned char col,unsigned char row){
                                   1011 ;	-----------------------------------------
                                   1012 ;	 function set_cursor_LCD
                                   1013 ;	-----------------------------------------
      000211                       1014 _set_cursor_LCD:
      000211 AF 82            [24] 1015 	mov	r7,dpl
                                   1016 ;	LCD1602.c:33: int row_offsets[] = { 0x00, 0x40};
      000213 E4               [12] 1017 	clr	a
      000214 F5*09            [12] 1018 	mov	(_set_cursor_LCD_row_offsets_65536_57 + 0),a
      000216 F5*0A            [12] 1019 	mov	(_set_cursor_LCD_row_offsets_65536_57 + 1),a
      000218 75*0B 40         [24] 1020 	mov	((_set_cursor_LCD_row_offsets_65536_57 + 0x0002) + 0),#0x40
                                   1021 ;	1-genFromRTrack replaced	mov	((_set_cursor_LCD_row_offsets_65536_57 + 0x0002) + 1),#0x00
      00021B F5*0C            [12] 1022 	mov	((_set_cursor_LCD_row_offsets_65536_57 + 0x0002) + 1),a
                                   1023 ;	LCD1602.c:34: if ( row > _numlines ) {
      00021D E5*08            [12] 1024 	mov	a,_set_cursor_LCD_PARM_2
      00021F 24 FD            [12] 1025 	add	a,#0xff - 0x02
      000221 50 03            [24] 1026 	jnc	00102$
                                   1027 ;	LCD1602.c:35: row = _numlines-1;    // we count rows starting w/0
      000223 75*08 01         [24] 1028 	mov	_set_cursor_LCD_PARM_2,#0x01
      000226                       1029 00102$:
                                   1030 ;	LCD1602.c:37: command_LCD(LCD_SETDDRAMADDR | (col + row_offsets[row]));
      000226 E5*08            [12] 1031 	mov	a,_set_cursor_LCD_PARM_2
      000228 25*08            [12] 1032 	add	a,_set_cursor_LCD_PARM_2
      00022A 24r09            [12] 1033 	add	a,#_set_cursor_LCD_row_offsets_65536_57
      00022C F9               [12] 1034 	mov	r1,a
      00022D E7               [12] 1035 	mov	a,@r1
      00022E 2F               [12] 1036 	add	a,r7
      00022F FE               [12] 1037 	mov	r6,a
      000230 33               [12] 1038 	rlc	a
      000231 95 E0            [12] 1039 	subb	a,acc
      000233 43 06 80         [24] 1040 	orl	ar6,#0x80
      000236 8E 82            [24] 1041 	mov	dpl,r6
                                   1042 ;	LCD1602.c:38: }
      000238 02r01r98         [24] 1043 	ljmp	_command_LCD
                                   1044 ;------------------------------------------------------------
                                   1045 ;Allocation info for local variables in function 'home_LCD'
                                   1046 ;------------------------------------------------------------
                                   1047 ;	LCD1602.c:39: void home_LCD(){
                                   1048 ;	-----------------------------------------
                                   1049 ;	 function home_LCD
                                   1050 ;	-----------------------------------------
      00023B                       1051 _home_LCD:
                                   1052 ;	LCD1602.c:40: command_LCD(LCD_RETURNHOME);
      00023B 75 82 02         [24] 1053 	mov	dpl,#0x02
      00023E 12r01r98         [24] 1054 	lcall	_command_LCD
                                   1055 ;	LCD1602.c:41: delay(2);
      000241 90 00 02         [24] 1056 	mov	dptr,#(0x02&0x00ff)
      000244 E4               [12] 1057 	clr	a
      000245 F5 F0            [12] 1058 	mov	b,a
                                   1059 ;	LCD1602.c:42: }
      000247 02r02r86         [24] 1060 	ljmp	_delay
                                   1061 ;------------------------------------------------------------
                                   1062 ;Allocation info for local variables in function 'clear_LCD'
                                   1063 ;------------------------------------------------------------
                                   1064 ;	LCD1602.c:43: void clear_LCD(){
                                   1065 ;	-----------------------------------------
                                   1066 ;	 function clear_LCD
                                   1067 ;	-----------------------------------------
      00024A                       1068 _clear_LCD:
                                   1069 ;	LCD1602.c:44: command_LCD(LCD_CLEARDISPLAY);
      00024A 75 82 01         [24] 1070 	mov	dpl,#0x01
      00024D 12r01r98         [24] 1071 	lcall	_command_LCD
                                   1072 ;	LCD1602.c:45: delay(2);
      000250 90 00 02         [24] 1073 	mov	dptr,#(0x02&0x00ff)
      000253 E4               [12] 1074 	clr	a
      000254 F5 F0            [12] 1075 	mov	b,a
                                   1076 ;	LCD1602.c:46: }
      000256 02r02r86         [24] 1077 	ljmp	_delay
                                   1078 ;------------------------------------------------------------
                                   1079 ;Allocation info for local variables in function 'init_LCD'
                                   1080 ;------------------------------------------------------------
                                   1081 ;_addr                     Allocated to registers 
                                   1082 ;------------------------------------------------------------
                                   1083 ;	LCD1602.c:47: void init_LCD(unsigned char _addr){
                                   1084 ;	-----------------------------------------
                                   1085 ;	 function init_LCD
                                   1086 ;	-----------------------------------------
      000259                       1087 _init_LCD:
      000259 85 82*04         [24] 1088 	mov	_addr,dpl
                                   1089 ;	LCD1602.c:49: state = LCD_BACKLIGHT;
      00025C 75*05 08         [24] 1090 	mov	_state,#0x08
                                   1091 ;	LCD1602.c:50: delay(50); //need at least 40ms after power rises above 2.7V
      00025F 90 00 32         [24] 1092 	mov	dptr,#(0x32&0x00ff)
      000262 E4               [12] 1093 	clr	a
      000263 F5 F0            [12] 1094 	mov	b,a
      000265 12r02r86         [24] 1095 	lcall	_delay
                                   1096 ;	LCD1602.c:51: command_LCD(LCD_FUNCTIONSET | LCD_2LINE | LCD_5x8DOTS); //LCD type settings
      000268 75 82 28         [24] 1097 	mov	dpl,#0x28
      00026B 12r01r98         [24] 1098 	lcall	_command_LCD
                                   1099 ;	LCD1602.c:52: command_LCD(0x03);// we start in 8bit mode, try to set 4 bit mode
      00026E 75 82 03         [24] 1100 	mov	dpl,#0x03
      000271 12r01r98         [24] 1101 	lcall	_command_LCD
                                   1102 ;	LCD1602.c:53: command_LCD(0x02);// finally, set to 4-bit interface
      000274 75 82 02         [24] 1103 	mov	dpl,#0x02
      000277 12r01r98         [24] 1104 	lcall	_command_LCD
                                   1105 ;	LCD1602.c:55: command_LCD(LCD_DISPLAYCONTROL | LCD_DISPLAYON | LCD_CURSOROFF | LCD_BLINKOFF); //set cursor
      00027A 75 82 0C         [24] 1106 	mov	dpl,#0x0c
      00027D 12r01r98         [24] 1107 	lcall	_command_LCD
                                   1108 ;	LCD1602.c:56: command_LCD(LCD_ENTRYMODESET | LCD_ENTRYLEFT | LCD_ENTRYSHIFTDECREMENT);  //entry mode shifting, increment address
      000280 75 82 06         [24] 1109 	mov	dpl,#0x06
                                   1110 ;	LCD1602.c:57: }
      000283 02r01r98         [24] 1111 	ljmp	_command_LCD
                                   1112 ;------------------------------------------------------------
                                   1113 ;Allocation info for local variables in function 'delay'
                                   1114 ;------------------------------------------------------------
                                   1115 ;millis                    Allocated with name '_delay_millis_65536_63'
                                   1116 ;i                         Allocated to registers r2 r3 
                                   1117 ;j                         Allocated to registers r0 r1 
                                   1118 ;------------------------------------------------------------
                                   1119 ;	utils8051.c:2: void delay(unsigned long int millis)
                                   1120 ;	-----------------------------------------
                                   1121 ;	 function delay
                                   1122 ;	-----------------------------------------
      000286                       1123 _delay:
                                   1124 ;	utils8051.c:5: millis *= 0.998f;
      000286 12r00r00         [24] 1125 	lcall	___ulong2fs
      000289 AC 82            [24] 1126 	mov	r4,dpl
      00028B AD 83            [24] 1127 	mov	r5,dph
      00028D AE F0            [24] 1128 	mov	r6,b
      00028F FF               [12] 1129 	mov	r7,a
      000290 C0 04            [24] 1130 	push	ar4
      000292 C0 05            [24] 1131 	push	ar5
      000294 C0 06            [24] 1132 	push	ar6
      000296 C0 07            [24] 1133 	push	ar7
      000298 90 7C EE         [24] 1134 	mov	dptr,#0x7cee
      00029B 75 F0 7F         [24] 1135 	mov	b,#0x7f
      00029E 74 3F            [12] 1136 	mov	a,#0x3f
      0002A0 12r00r00         [24] 1137 	lcall	___fsmul
      0002A3 AC 82            [24] 1138 	mov	r4,dpl
      0002A5 AD 83            [24] 1139 	mov	r5,dph
      0002A7 AE F0            [24] 1140 	mov	r6,b
      0002A9 FF               [12] 1141 	mov	r7,a
      0002AA E5 81            [12] 1142 	mov	a,sp
      0002AC 24 FC            [12] 1143 	add	a,#0xfc
      0002AE F5 81            [12] 1144 	mov	sp,a
      0002B0 8C 82            [24] 1145 	mov	dpl,r4
      0002B2 8D 83            [24] 1146 	mov	dph,r5
      0002B4 8E F0            [24] 1147 	mov	b,r6
      0002B6 EF               [12] 1148 	mov	a,r7
      0002B7 12r00r00         [24] 1149 	lcall	___fs2ulong
      0002BA 85 82*0D         [24] 1150 	mov	_delay_millis_65536_63,dpl
      0002BD 85 83*0E         [24] 1151 	mov	(_delay_millis_65536_63 + 1),dph
      0002C0 85 F0*0F         [24] 1152 	mov	(_delay_millis_65536_63 + 2),b
      0002C3 F5*10            [12] 1153 	mov	(_delay_millis_65536_63 + 3),a
                                   1154 ;	utils8051.c:6: for (int i = 0; i < 44; i++)
      0002C5 7A 00            [12] 1155 	mov	r2,#0x00
      0002C7 7B 00            [12] 1156 	mov	r3,#0x00
      0002C9                       1157 00107$:
      0002C9 C3               [12] 1158 	clr	c
      0002CA EA               [12] 1159 	mov	a,r2
      0002CB 94 2C            [12] 1160 	subb	a,#0x2c
      0002CD EB               [12] 1161 	mov	a,r3
      0002CE 64 80            [12] 1162 	xrl	a,#0x80
      0002D0 94 80            [12] 1163 	subb	a,#0x80
      0002D2 50 2B            [24] 1164 	jnc	00102$
                                   1165 ;	utils8051.c:8: for (unsigned int j = 0; j < millis; j++)
      0002D4 78 00            [12] 1166 	mov	r0,#0x00
      0002D6 79 00            [12] 1167 	mov	r1,#0x00
      0002D8                       1168 00104$:
      0002D8 88 04            [24] 1169 	mov	ar4,r0
      0002DA 89 05            [24] 1170 	mov	ar5,r1
      0002DC 7E 00            [12] 1171 	mov	r6,#0x00
      0002DE 7F 00            [12] 1172 	mov	r7,#0x00
      0002E0 C3               [12] 1173 	clr	c
      0002E1 EC               [12] 1174 	mov	a,r4
      0002E2 95*0D            [12] 1175 	subb	a,_delay_millis_65536_63
      0002E4 ED               [12] 1176 	mov	a,r5
      0002E5 95*0E            [12] 1177 	subb	a,(_delay_millis_65536_63 + 1)
      0002E7 EE               [12] 1178 	mov	a,r6
      0002E8 95*0F            [12] 1179 	subb	a,(_delay_millis_65536_63 + 2)
      0002EA EF               [12] 1180 	mov	a,r7
      0002EB 95*10            [12] 1181 	subb	a,(_delay_millis_65536_63 + 3)
      0002ED 50 09            [24] 1182 	jnc	00108$
                                   1183 ;	utils8051.c:10: P1_0 = !P1_0;
      0002EF B2 90            [12] 1184 	cpl	_P1_0
                                   1185 ;	utils8051.c:8: for (unsigned int j = 0; j < millis; j++)
      0002F1 08               [12] 1186 	inc	r0
      0002F2 B8 00 E3         [24] 1187 	cjne	r0,#0x00,00104$
      0002F5 09               [12] 1188 	inc	r1
      0002F6 80 E0            [24] 1189 	sjmp	00104$
      0002F8                       1190 00108$:
                                   1191 ;	utils8051.c:6: for (int i = 0; i < 44; i++)
      0002F8 0A               [12] 1192 	inc	r2
      0002F9 BA 00 CD         [24] 1193 	cjne	r2,#0x00,00107$
      0002FC 0B               [12] 1194 	inc	r3
      0002FD 80 CA            [24] 1195 	sjmp	00107$
      0002FF                       1196 00102$:
                                   1197 ;	utils8051.c:13: P1_0 = 1;
                                   1198 ;	assignBit
      0002FF D2 90            [12] 1199 	setb	_P1_0
                                   1200 ;	utils8051.c:14: }
      000301 22               [24] 1201 	ret
                                   1202 ;------------------------------------------------------------
                                   1203 ;Allocation info for local variables in function 'itoa'
                                   1204 ;------------------------------------------------------------
                                   1205 ;i                         Allocated with name '_itoa_PARM_2'
                                   1206 ;out                       Allocated with name '_itoa_out_65536_69'
                                   1207 ;------------------------------------------------------------
                                   1208 ;	utils8051.c:15: void itoa(char* out, unsigned char i){
                                   1209 ;	-----------------------------------------
                                   1210 ;	 function itoa
                                   1211 ;	-----------------------------------------
      000302                       1212 _itoa:
      000302 85 82*12         [24] 1213 	mov	_itoa_out_65536_69,dpl
      000305 85 83*13         [24] 1214 	mov	(_itoa_out_65536_69 + 1),dph
      000308 85 F0*14         [24] 1215 	mov	(_itoa_out_65536_69 + 2),b
                                   1216 ;	utils8051.c:16: out[3]=0; //end of string
      00030B 74 03            [12] 1217 	mov	a,#0x03
      00030D 25*12            [12] 1218 	add	a,_itoa_out_65536_69
      00030F FA               [12] 1219 	mov	r2,a
      000310 E4               [12] 1220 	clr	a
      000311 35*13            [12] 1221 	addc	a,(_itoa_out_65536_69 + 1)
      000313 FB               [12] 1222 	mov	r3,a
      000314 AC*14            [24] 1223 	mov	r4,(_itoa_out_65536_69 + 2)
      000316 8A 82            [24] 1224 	mov	dpl,r2
      000318 8B 83            [24] 1225 	mov	dph,r3
      00031A 8C F0            [24] 1226 	mov	b,r4
      00031C E4               [12] 1227 	clr	a
      00031D 12r00r00         [24] 1228 	lcall	__gptrput
                                   1229 ;	utils8051.c:17: out[2]=i%10+48;
      000320 74 02            [12] 1230 	mov	a,#0x02
      000322 25*12            [12] 1231 	add	a,_itoa_out_65536_69
      000324 FA               [12] 1232 	mov	r2,a
      000325 E4               [12] 1233 	clr	a
      000326 35*13            [12] 1234 	addc	a,(_itoa_out_65536_69 + 1)
      000328 FB               [12] 1235 	mov	r3,a
      000329 AC*14            [24] 1236 	mov	r4,(_itoa_out_65536_69 + 2)
      00032B A8*11            [24] 1237 	mov	r0,_itoa_PARM_2
      00032D 79 00            [12] 1238 	mov	r1,#0x00
      00032F 75*00 0A         [24] 1239 	mov	__modsint_PARM_2,#0x0a
                                   1240 ;	1-genFromRTrack replaced	mov	(__modsint_PARM_2 + 1),#0x00
      000332 89*01            [24] 1241 	mov	(__modsint_PARM_2 + 1),r1
      000334 88 82            [24] 1242 	mov	dpl,r0
      000336 89 83            [24] 1243 	mov	dph,r1
      000338 C0 04            [24] 1244 	push	ar4
      00033A C0 03            [24] 1245 	push	ar3
      00033C C0 02            [24] 1246 	push	ar2
      00033E C0 01            [24] 1247 	push	ar1
      000340 C0 00            [24] 1248 	push	ar0
      000342 12r00r00         [24] 1249 	lcall	__modsint
      000345 AE 82            [24] 1250 	mov	r6,dpl
      000347 D0 00            [24] 1251 	pop	ar0
      000349 D0 01            [24] 1252 	pop	ar1
      00034B D0 02            [24] 1253 	pop	ar2
      00034D D0 03            [24] 1254 	pop	ar3
      00034F D0 04            [24] 1255 	pop	ar4
      000351 74 30            [12] 1256 	mov	a,#0x30
      000353 2E               [12] 1257 	add	a,r6
      000354 8A 82            [24] 1258 	mov	dpl,r2
      000356 8B 83            [24] 1259 	mov	dph,r3
      000358 8C F0            [24] 1260 	mov	b,r4
      00035A 12r00r00         [24] 1261 	lcall	__gptrput
                                   1262 ;	utils8051.c:18: out[1]=(i/10)%10+48;
      00035D 74 01            [12] 1263 	mov	a,#0x01
      00035F 25*12            [12] 1264 	add	a,_itoa_out_65536_69
      000361 FD               [12] 1265 	mov	r5,a
      000362 E4               [12] 1266 	clr	a
      000363 35*13            [12] 1267 	addc	a,(_itoa_out_65536_69 + 1)
      000365 FE               [12] 1268 	mov	r6,a
      000366 AF*14            [24] 1269 	mov	r7,(_itoa_out_65536_69 + 2)
      000368 75*00 0A         [24] 1270 	mov	__divsint_PARM_2,#0x0a
      00036B 75*01 00         [24] 1271 	mov	(__divsint_PARM_2 + 1),#0x00
      00036E 88 82            [24] 1272 	mov	dpl,r0
      000370 89 83            [24] 1273 	mov	dph,r1
      000372 C0 07            [24] 1274 	push	ar7
      000374 C0 06            [24] 1275 	push	ar6
      000376 C0 05            [24] 1276 	push	ar5
      000378 C0 01            [24] 1277 	push	ar1
      00037A C0 00            [24] 1278 	push	ar0
      00037C 12r00r00         [24] 1279 	lcall	__divsint
      00037F 75*00 0A         [24] 1280 	mov	__modsint_PARM_2,#0x0a
      000382 75*01 00         [24] 1281 	mov	(__modsint_PARM_2 + 1),#0x00
      000385 12r00r00         [24] 1282 	lcall	__modsint
      000388 AB 82            [24] 1283 	mov	r3,dpl
      00038A D0 00            [24] 1284 	pop	ar0
      00038C D0 01            [24] 1285 	pop	ar1
      00038E D0 05            [24] 1286 	pop	ar5
      000390 D0 06            [24] 1287 	pop	ar6
      000392 D0 07            [24] 1288 	pop	ar7
      000394 74 30            [12] 1289 	mov	a,#0x30
      000396 2B               [12] 1290 	add	a,r3
      000397 8D 82            [24] 1291 	mov	dpl,r5
      000399 8E 83            [24] 1292 	mov	dph,r6
      00039B 8F F0            [24] 1293 	mov	b,r7
      00039D 12r00r00         [24] 1294 	lcall	__gptrput
                                   1295 ;	utils8051.c:19: out[0]=(i/100)%10+48;
      0003A0 75*00 64         [24] 1296 	mov	__divsint_PARM_2,#0x64
      0003A3 75*01 00         [24] 1297 	mov	(__divsint_PARM_2 + 1),#0x00
      0003A6 88 82            [24] 1298 	mov	dpl,r0
      0003A8 89 83            [24] 1299 	mov	dph,r1
      0003AA 12r00r00         [24] 1300 	lcall	__divsint
      0003AD 75*00 0A         [24] 1301 	mov	__modsint_PARM_2,#0x0a
      0003B0 75*01 00         [24] 1302 	mov	(__modsint_PARM_2 + 1),#0x00
      0003B3 12r00r00         [24] 1303 	lcall	__modsint
      0003B6 AE 82            [24] 1304 	mov	r6,dpl
      0003B8 74 30            [12] 1305 	mov	a,#0x30
      0003BA 2E               [12] 1306 	add	a,r6
      0003BB 85*12 82         [24] 1307 	mov	dpl,_itoa_out_65536_69
      0003BE 85*13 83         [24] 1308 	mov	dph,(_itoa_out_65536_69 + 1)
      0003C1 85*14 F0         [24] 1309 	mov	b,(_itoa_out_65536_69 + 2)
                                   1310 ;	utils8051.c:20: }
      0003C4 02r00r00         [24] 1311 	ljmp	__gptrput
                                   1312 ;------------------------------------------------------------
                                   1313 ;Allocation info for local variables in function 'printLCD'
                                   1314 ;------------------------------------------------------------
                                   1315 ;base                      Allocated with name '_printLCD_PARM_2'
                                   1316 ;i                         Allocated with name '_printLCD_i_65536_71'
                                   1317 ;------------------------------------------------------------
                                   1318 ;	stcboot.c:28: void printLCD(unsigned int i,unsigned char base){
                                   1319 ;	-----------------------------------------
                                   1320 ;	 function printLCD
                                   1321 ;	-----------------------------------------
      0003C7                       1322 _printLCD:
      0003C7 85 82*1C         [24] 1323 	mov	_printLCD_i_65536_71,dpl
      0003CA 85 83*1D         [24] 1324 	mov	(_printLCD_i_65536_71 + 1),dph
                                   1325 ;	stcboot.c:30: P0 = numArray[(i/base*base*base)%base];
      0003CD AC*1B            [24] 1326 	mov	r4,_printLCD_PARM_2
      0003CF 7D 00            [12] 1327 	mov	r5,#0x00
      0003D1 8C*00            [24] 1328 	mov	__divuint_PARM_2,r4
      0003D3 8D*01            [24] 1329 	mov	(__divuint_PARM_2 + 1),r5
      0003D5 85*1C 82         [24] 1330 	mov	dpl,_printLCD_i_65536_71
      0003D8 85*1D 83         [24] 1331 	mov	dph,(_printLCD_i_65536_71 + 1)
      0003DB C0 05            [24] 1332 	push	ar5
      0003DD C0 04            [24] 1333 	push	ar4
      0003DF 12r00r00         [24] 1334 	lcall	__divuint
      0003E2 AA 82            [24] 1335 	mov	r2,dpl
      0003E4 AB 83            [24] 1336 	mov	r3,dph
      0003E6 D0 04            [24] 1337 	pop	ar4
      0003E8 D0 05            [24] 1338 	pop	ar5
      0003EA 8C*00            [24] 1339 	mov	__mulint_PARM_2,r4
      0003EC 8D*01            [24] 1340 	mov	(__mulint_PARM_2 + 1),r5
      0003EE 8A 82            [24] 1341 	mov	dpl,r2
      0003F0 8B 83            [24] 1342 	mov	dph,r3
      0003F2 C0 05            [24] 1343 	push	ar5
      0003F4 C0 04            [24] 1344 	push	ar4
      0003F6 C0 03            [24] 1345 	push	ar3
      0003F8 C0 02            [24] 1346 	push	ar2
      0003FA 12r00r00         [24] 1347 	lcall	__mulint
      0003FD A8 82            [24] 1348 	mov	r0,dpl
      0003FF A9 83            [24] 1349 	mov	r1,dph
      000401 D0 02            [24] 1350 	pop	ar2
      000403 D0 03            [24] 1351 	pop	ar3
      000405 D0 04            [24] 1352 	pop	ar4
      000407 D0 05            [24] 1353 	pop	ar5
      000409 8C*00            [24] 1354 	mov	__mulint_PARM_2,r4
      00040B 8D*01            [24] 1355 	mov	(__mulint_PARM_2 + 1),r5
      00040D 88 82            [24] 1356 	mov	dpl,r0
      00040F 89 83            [24] 1357 	mov	dph,r1
      000411 C0 05            [24] 1358 	push	ar5
      000413 C0 04            [24] 1359 	push	ar4
      000415 C0 03            [24] 1360 	push	ar3
      000417 C0 02            [24] 1361 	push	ar2
      000419 C0 01            [24] 1362 	push	ar1
      00041B C0 00            [24] 1363 	push	ar0
      00041D 12r00r00         [24] 1364 	lcall	__mulint
      000420 D0 00            [24] 1365 	pop	ar0
      000422 D0 01            [24] 1366 	pop	ar1
      000424 D0 02            [24] 1367 	pop	ar2
      000426 D0 03            [24] 1368 	pop	ar3
      000428 D0 04            [24] 1369 	pop	ar4
      00042A D0 05            [24] 1370 	pop	ar5
      00042C 8C*00            [24] 1371 	mov	__moduint_PARM_2,r4
      00042E 8D*01            [24] 1372 	mov	(__moduint_PARM_2 + 1),r5
      000430 C0 05            [24] 1373 	push	ar5
      000432 C0 04            [24] 1374 	push	ar4
      000434 C0 03            [24] 1375 	push	ar3
      000436 C0 02            [24] 1376 	push	ar2
      000438 C0 01            [24] 1377 	push	ar1
      00043A C0 00            [24] 1378 	push	ar0
      00043C 12r00r00         [24] 1379 	lcall	__moduint
      00043F AE 82            [24] 1380 	mov	r6,dpl
      000441 AF 83            [24] 1381 	mov	r7,dph
      000443 EE               [12] 1382 	mov	a,r6
      000444 24r1A            [12] 1383 	add	a,#_numArray
      000446 F5 82            [12] 1384 	mov	dpl,a
      000448 EF               [12] 1385 	mov	a,r7
      000449 34s00            [12] 1386 	addc	a,#(_numArray >> 8)
      00044B F5 83            [12] 1387 	mov	dph,a
      00044D E4               [12] 1388 	clr	a
      00044E 93               [24] 1389 	movc	a,@a+dptr
      00044F F5 80            [12] 1390 	mov	_P0,a
                                   1391 ;	stcboot.c:31: P2_0 = 0;
                                   1392 ;	assignBit
      000451 C2 A0            [12] 1393 	clr	_P2_0
                                   1394 ;	stcboot.c:32: delay(1);
      000453 90 00 01         [24] 1395 	mov	dptr,#(0x01&0x00ff)
      000456 E4               [12] 1396 	clr	a
      000457 F5 F0            [12] 1397 	mov	b,a
      000459 12r02r86         [24] 1398 	lcall	_delay
      00045C D0 00            [24] 1399 	pop	ar0
      00045E D0 01            [24] 1400 	pop	ar1
      000460 D0 02            [24] 1401 	pop	ar2
      000462 D0 03            [24] 1402 	pop	ar3
      000464 D0 04            [24] 1403 	pop	ar4
      000466 D0 05            [24] 1404 	pop	ar5
                                   1405 ;	stcboot.c:33: P2_0 = 1;
                                   1406 ;	assignBit
      000468 D2 A0            [12] 1407 	setb	_P2_0
                                   1408 ;	stcboot.c:35: P0 = numArray[(i/base*base)%base];
      00046A 8C*00            [24] 1409 	mov	__moduint_PARM_2,r4
      00046C 8D*01            [24] 1410 	mov	(__moduint_PARM_2 + 1),r5
      00046E 88 82            [24] 1411 	mov	dpl,r0
      000470 89 83            [24] 1412 	mov	dph,r1
      000472 C0 05            [24] 1413 	push	ar5
      000474 C0 04            [24] 1414 	push	ar4
      000476 C0 03            [24] 1415 	push	ar3
      000478 C0 02            [24] 1416 	push	ar2
      00047A 12r00r00         [24] 1417 	lcall	__moduint
      00047D AE 82            [24] 1418 	mov	r6,dpl
      00047F AF 83            [24] 1419 	mov	r7,dph
      000481 EE               [12] 1420 	mov	a,r6
      000482 24r1A            [12] 1421 	add	a,#_numArray
      000484 F5 82            [12] 1422 	mov	dpl,a
      000486 EF               [12] 1423 	mov	a,r7
      000487 34s00            [12] 1424 	addc	a,#(_numArray >> 8)
      000489 F5 83            [12] 1425 	mov	dph,a
      00048B E4               [12] 1426 	clr	a
      00048C 93               [24] 1427 	movc	a,@a+dptr
      00048D F5 80            [12] 1428 	mov	_P0,a
                                   1429 ;	stcboot.c:36: P2_1 = 0;
                                   1430 ;	assignBit
      00048F C2 A1            [12] 1431 	clr	_P2_1
                                   1432 ;	stcboot.c:37: delay(1);
      000491 90 00 01         [24] 1433 	mov	dptr,#(0x01&0x00ff)
      000494 E4               [12] 1434 	clr	a
      000495 F5 F0            [12] 1435 	mov	b,a
      000497 12r02r86         [24] 1436 	lcall	_delay
      00049A D0 02            [24] 1437 	pop	ar2
      00049C D0 03            [24] 1438 	pop	ar3
      00049E D0 04            [24] 1439 	pop	ar4
      0004A0 D0 05            [24] 1440 	pop	ar5
                                   1441 ;	stcboot.c:38: P2_1 = 1;
                                   1442 ;	assignBit
      0004A2 D2 A1            [12] 1443 	setb	_P2_1
                                   1444 ;	stcboot.c:40: P0 = numArray[(i/base)%base];
      0004A4 8C*00            [24] 1445 	mov	__moduint_PARM_2,r4
      0004A6 8D*01            [24] 1446 	mov	(__moduint_PARM_2 + 1),r5
      0004A8 8A 82            [24] 1447 	mov	dpl,r2
      0004AA 8B 83            [24] 1448 	mov	dph,r3
      0004AC C0 05            [24] 1449 	push	ar5
      0004AE C0 04            [24] 1450 	push	ar4
      0004B0 12r00r00         [24] 1451 	lcall	__moduint
      0004B3 AE 82            [24] 1452 	mov	r6,dpl
      0004B5 AF 83            [24] 1453 	mov	r7,dph
      0004B7 EE               [12] 1454 	mov	a,r6
      0004B8 24r1A            [12] 1455 	add	a,#_numArray
      0004BA F5 82            [12] 1456 	mov	dpl,a
      0004BC EF               [12] 1457 	mov	a,r7
      0004BD 34s00            [12] 1458 	addc	a,#(_numArray >> 8)
      0004BF F5 83            [12] 1459 	mov	dph,a
      0004C1 E4               [12] 1460 	clr	a
      0004C2 93               [24] 1461 	movc	a,@a+dptr
      0004C3 F5 80            [12] 1462 	mov	_P0,a
                                   1463 ;	stcboot.c:41: P2_2 = 0;
                                   1464 ;	assignBit
      0004C5 C2 A2            [12] 1465 	clr	_P2_2
                                   1466 ;	stcboot.c:42: delay(1);
      0004C7 90 00 01         [24] 1467 	mov	dptr,#(0x01&0x00ff)
      0004CA E4               [12] 1468 	clr	a
      0004CB F5 F0            [12] 1469 	mov	b,a
      0004CD 12r02r86         [24] 1470 	lcall	_delay
      0004D0 D0 04            [24] 1471 	pop	ar4
      0004D2 D0 05            [24] 1472 	pop	ar5
                                   1473 ;	stcboot.c:43: P2_2 = 1;
                                   1474 ;	assignBit
      0004D4 D2 A2            [12] 1475 	setb	_P2_2
                                   1476 ;	stcboot.c:45: P0 = numArray[i%base];
      0004D6 8C*00            [24] 1477 	mov	__moduint_PARM_2,r4
      0004D8 8D*01            [24] 1478 	mov	(__moduint_PARM_2 + 1),r5
      0004DA 85*1C 82         [24] 1479 	mov	dpl,_printLCD_i_65536_71
      0004DD 85*1D 83         [24] 1480 	mov	dph,(_printLCD_i_65536_71 + 1)
      0004E0 12r00r00         [24] 1481 	lcall	__moduint
      0004E3 AE 82            [24] 1482 	mov	r6,dpl
      0004E5 AF 83            [24] 1483 	mov	r7,dph
      0004E7 EE               [12] 1484 	mov	a,r6
      0004E8 24r1A            [12] 1485 	add	a,#_numArray
      0004EA F5 82            [12] 1486 	mov	dpl,a
      0004EC EF               [12] 1487 	mov	a,r7
      0004ED 34s00            [12] 1488 	addc	a,#(_numArray >> 8)
      0004EF F5 83            [12] 1489 	mov	dph,a
      0004F1 E4               [12] 1490 	clr	a
      0004F2 93               [24] 1491 	movc	a,@a+dptr
      0004F3 F5 80            [12] 1492 	mov	_P0,a
                                   1493 ;	stcboot.c:46: P2_3 = 0;
                                   1494 ;	assignBit
      0004F5 C2 A3            [12] 1495 	clr	_P2_3
                                   1496 ;	stcboot.c:47: delay(1);
      0004F7 90 00 01         [24] 1497 	mov	dptr,#(0x01&0x00ff)
      0004FA E4               [12] 1498 	clr	a
      0004FB F5 F0            [12] 1499 	mov	b,a
      0004FD 12r02r86         [24] 1500 	lcall	_delay
                                   1501 ;	stcboot.c:48: P2_3 = 1;
                                   1502 ;	assignBit
      000500 D2 A3            [12] 1503 	setb	_P2_3
                                   1504 ;	stcboot.c:50: }
      000502 22               [24] 1505 	ret
                                   1506 ;------------------------------------------------------------
                                   1507 ;Allocation info for local variables in function 'strobeLCD'
                                   1508 ;------------------------------------------------------------
                                   1509 ;str                       Allocated to registers r5 r6 r7 
                                   1510 ;i                         Allocated with name '_strobeLCD_i_131072_75'
                                   1511 ;sloc0                     Allocated with name '_strobeLCD_sloc0_1_0'
                                   1512 ;sloc1                     Allocated with name '_strobeLCD_sloc1_1_0'
                                   1513 ;------------------------------------------------------------
                                   1514 ;	stcboot.c:51: void strobeLCD(unsigned char * str){
                                   1515 ;	-----------------------------------------
                                   1516 ;	 function strobeLCD
                                   1517 ;	-----------------------------------------
      000503                       1518 _strobeLCD:
      000503 AD 82            [24] 1519 	mov	r5,dpl
      000505 AE 83            [24] 1520 	mov	r6,dph
      000507 AF F0            [24] 1521 	mov	r7,b
                                   1522 ;	stcboot.c:52: for(int i=0;i<10;i++){
      000509 74 01            [12] 1523 	mov	a,#0x01
      00050B 2D               [12] 1524 	add	a,r5
      00050C FA               [12] 1525 	mov	r2,a
      00050D E4               [12] 1526 	clr	a
      00050E 3E               [12] 1527 	addc	a,r6
      00050F FB               [12] 1528 	mov	r3,a
      000510 8F 04            [24] 1529 	mov	ar4,r7
      000512 74 02            [12] 1530 	mov	a,#0x02
      000514 2D               [12] 1531 	add	a,r5
      000515 F5*20            [12] 1532 	mov	_strobeLCD_sloc0_1_0,a
      000517 E4               [12] 1533 	clr	a
      000518 3E               [12] 1534 	addc	a,r6
      000519 F5*21            [12] 1535 	mov	(_strobeLCD_sloc0_1_0 + 1),a
      00051B 8F*22            [24] 1536 	mov	(_strobeLCD_sloc0_1_0 + 2),r7
      00051D 74 03            [12] 1537 	mov	a,#0x03
      00051F 2D               [12] 1538 	add	a,r5
      000520 F5*23            [12] 1539 	mov	_strobeLCD_sloc1_1_0,a
      000522 E4               [12] 1540 	clr	a
      000523 3E               [12] 1541 	addc	a,r6
      000524 F5*24            [12] 1542 	mov	(_strobeLCD_sloc1_1_0 + 1),a
      000526 8F*25            [24] 1543 	mov	(_strobeLCD_sloc1_1_0 + 2),r7
      000528 E4               [12] 1544 	clr	a
      000529 F5*1E            [12] 1545 	mov	_strobeLCD_i_131072_75,a
      00052B F5*1F            [12] 1546 	mov	(_strobeLCD_i_131072_75 + 1),a
      00052D                       1547 00103$:
      00052D C3               [12] 1548 	clr	c
      00052E E5*1E            [12] 1549 	mov	a,_strobeLCD_i_131072_75
      000530 94 0A            [12] 1550 	subb	a,#0x0a
      000532 E5*1F            [12] 1551 	mov	a,(_strobeLCD_i_131072_75 + 1)
      000534 64 80            [12] 1552 	xrl	a,#0x80
      000536 94 80            [12] 1553 	subb	a,#0x80
      000538 40 01            [24] 1554 	jc	00116$
      00053A 22               [24] 1555 	ret
      00053B                       1556 00116$:
                                   1557 ;	stcboot.c:53: P0 = ~str[0];
      00053B 8D 82            [24] 1558 	mov	dpl,r5
      00053D 8E 83            [24] 1559 	mov	dph,r6
      00053F 8F F0            [24] 1560 	mov	b,r7
      000541 12r00r00         [24] 1561 	lcall	__gptrget
      000544 F4               [12] 1562 	cpl	a
      000545 F5 80            [12] 1563 	mov	_P0,a
                                   1564 ;	stcboot.c:54: P2_0 = 0;
                                   1565 ;	assignBit
      000547 C2 A0            [12] 1566 	clr	_P2_0
                                   1567 ;	stcboot.c:55: delay(1);
      000549 90 00 01         [24] 1568 	mov	dptr,#(0x01&0x00ff)
      00054C E4               [12] 1569 	clr	a
      00054D F5 F0            [12] 1570 	mov	b,a
      00054F C0 07            [24] 1571 	push	ar7
      000551 C0 06            [24] 1572 	push	ar6
      000553 C0 05            [24] 1573 	push	ar5
      000555 C0 04            [24] 1574 	push	ar4
      000557 C0 03            [24] 1575 	push	ar3
      000559 C0 02            [24] 1576 	push	ar2
      00055B 12r02r86         [24] 1577 	lcall	_delay
      00055E D0 02            [24] 1578 	pop	ar2
      000560 D0 03            [24] 1579 	pop	ar3
      000562 D0 04            [24] 1580 	pop	ar4
                                   1581 ;	stcboot.c:56: P2_0 = 1;
                                   1582 ;	assignBit
      000564 D2 A0            [12] 1583 	setb	_P2_0
                                   1584 ;	stcboot.c:58: P0 = ~str[1];
      000566 8A 82            [24] 1585 	mov	dpl,r2
      000568 8B 83            [24] 1586 	mov	dph,r3
      00056A 8C F0            [24] 1587 	mov	b,r4
      00056C 12r00r00         [24] 1588 	lcall	__gptrget
      00056F F4               [12] 1589 	cpl	a
      000570 F5 80            [12] 1590 	mov	_P0,a
                                   1591 ;	stcboot.c:59: P2_1 = 0;
                                   1592 ;	assignBit
      000572 C2 A1            [12] 1593 	clr	_P2_1
                                   1594 ;	stcboot.c:60: delay(1);
      000574 90 00 01         [24] 1595 	mov	dptr,#(0x01&0x00ff)
      000577 E4               [12] 1596 	clr	a
      000578 F5 F0            [12] 1597 	mov	b,a
      00057A C0 04            [24] 1598 	push	ar4
      00057C C0 03            [24] 1599 	push	ar3
      00057E C0 02            [24] 1600 	push	ar2
      000580 12r02r86         [24] 1601 	lcall	_delay
                                   1602 ;	stcboot.c:61: P2_1 = 1;
                                   1603 ;	assignBit
      000583 D2 A1            [12] 1604 	setb	_P2_1
                                   1605 ;	stcboot.c:63: P0 = ~str[2];
      000585 85*20 82         [24] 1606 	mov	dpl,_strobeLCD_sloc0_1_0
      000588 85*21 83         [24] 1607 	mov	dph,(_strobeLCD_sloc0_1_0 + 1)
      00058B 85*22 F0         [24] 1608 	mov	b,(_strobeLCD_sloc0_1_0 + 2)
      00058E 12r00r00         [24] 1609 	lcall	__gptrget
      000591 F4               [12] 1610 	cpl	a
      000592 F5 80            [12] 1611 	mov	_P0,a
                                   1612 ;	stcboot.c:64: P2_2 = 0;
                                   1613 ;	assignBit
      000594 C2 A2            [12] 1614 	clr	_P2_2
                                   1615 ;	stcboot.c:65: delay(1);
      000596 90 00 01         [24] 1616 	mov	dptr,#(0x01&0x00ff)
      000599 E4               [12] 1617 	clr	a
      00059A F5 F0            [12] 1618 	mov	b,a
      00059C 12r02r86         [24] 1619 	lcall	_delay
                                   1620 ;	stcboot.c:66: P2_2 = 1;
                                   1621 ;	assignBit
      00059F D2 A2            [12] 1622 	setb	_P2_2
                                   1623 ;	stcboot.c:68: P0 = ~str[3];
      0005A1 85*23 82         [24] 1624 	mov	dpl,_strobeLCD_sloc1_1_0
      0005A4 85*24 83         [24] 1625 	mov	dph,(_strobeLCD_sloc1_1_0 + 1)
      0005A7 85*25 F0         [24] 1626 	mov	b,(_strobeLCD_sloc1_1_0 + 2)
      0005AA 12r00r00         [24] 1627 	lcall	__gptrget
      0005AD F4               [12] 1628 	cpl	a
      0005AE F5 80            [12] 1629 	mov	_P0,a
                                   1630 ;	stcboot.c:69: P2_3 = 0;
                                   1631 ;	assignBit
      0005B0 C2 A3            [12] 1632 	clr	_P2_3
                                   1633 ;	stcboot.c:70: delay(1);
      0005B2 90 00 01         [24] 1634 	mov	dptr,#(0x01&0x00ff)
      0005B5 E4               [12] 1635 	clr	a
      0005B6 F5 F0            [12] 1636 	mov	b,a
      0005B8 12r02r86         [24] 1637 	lcall	_delay
      0005BB D0 02            [24] 1638 	pop	ar2
      0005BD D0 03            [24] 1639 	pop	ar3
      0005BF D0 04            [24] 1640 	pop	ar4
      0005C1 D0 05            [24] 1641 	pop	ar5
      0005C3 D0 06            [24] 1642 	pop	ar6
      0005C5 D0 07            [24] 1643 	pop	ar7
                                   1644 ;	stcboot.c:71: P2_3 = 1;
                                   1645 ;	assignBit
      0005C7 D2 A3            [12] 1646 	setb	_P2_3
                                   1647 ;	stcboot.c:52: for(int i=0;i<10;i++){
      0005C9 05*1E            [12] 1648 	inc	_strobeLCD_i_131072_75
      0005CB E4               [12] 1649 	clr	a
      0005CC B5*1E 02         [24] 1650 	cjne	a,_strobeLCD_i_131072_75,00117$
      0005CF 05*1F            [12] 1651 	inc	(_strobeLCD_i_131072_75 + 1)
      0005D1                       1652 00117$:
                                   1653 ;	stcboot.c:73: }
      0005D1 02r05r2D         [24] 1654 	ljmp	00103$
                                   1655 ;------------------------------------------------------------
                                   1656 ;Allocation info for local variables in function 'setup'
                                   1657 ;------------------------------------------------------------
                                   1658 ;	stcboot.c:74: void setup(){
                                   1659 ;	-----------------------------------------
                                   1660 ;	 function setup
                                   1661 ;	-----------------------------------------
      0005D4                       1662 _setup:
                                   1663 ;	stcboot.c:82: init_LCD(0x27);
      0005D4 75 82 27         [24] 1664 	mov	dpl,#0x27
                                   1665 ;	stcboot.c:88: }
      0005D7 02r02r59         [24] 1666 	ljmp	_init_LCD
                                   1667 ;------------------------------------------------------------
                                   1668 ;Allocation info for local variables in function 'loop'
                                   1669 ;------------------------------------------------------------
                                   1670 ;	stcboot.c:92: void loop(){
                                   1671 ;	-----------------------------------------
                                   1672 ;	 function loop
                                   1673 ;	-----------------------------------------
      0005DA                       1674 _loop:
                                   1675 ;	stcboot.c:98: if(P1_7)
                                   1676 ;	stcboot.c:99: P1_7=0;
                                   1677 ;	assignBit
      0005DA 10 97 02         [24] 1678 	jbc	_P1_7,00103$
                                   1679 ;	stcboot.c:101: P1_7=1;
                                   1680 ;	assignBit
      0005DD D2 97            [12] 1681 	setb	_P1_7
      0005DF                       1682 00103$:
                                   1683 ;	stcboot.c:103: itoa(a,fr++);
      0005DF 85*26*11         [24] 1684 	mov	_itoa_PARM_2,_fr
      0005E2 05*26            [12] 1685 	inc	_fr
      0005E4 90r00r27         [24] 1686 	mov	dptr,#_a
      0005E7 75 F0 40         [24] 1687 	mov	b,#0x40
      0005EA 12r03r02         [24] 1688 	lcall	_itoa
                                   1689 ;	stcboot.c:104: print_LCD(a);
      0005ED 90r00r27         [24] 1690 	mov	dptr,#_a
      0005F0 75 F0 40         [24] 1691 	mov	b,#0x40
      0005F3 12r01rDC         [24] 1692 	lcall	_print_LCD
                                   1693 ;	stcboot.c:105: if(fr%32){
      0005F6 AE*26            [24] 1694 	mov	r6,_fr
      0005F8 7F 00            [12] 1695 	mov	r7,#0x00
      0005FA 75*00 20         [24] 1696 	mov	__modsint_PARM_2,#0x20
                                   1697 ;	1-genFromRTrack replaced	mov	(__modsint_PARM_2 + 1),#0x00
      0005FD 8F*01            [24] 1698 	mov	(__modsint_PARM_2 + 1),r7
      0005FF 8E 82            [24] 1699 	mov	dpl,r6
      000601 8F 83            [24] 1700 	mov	dph,r7
      000603 12r00r00         [24] 1701 	lcall	__modsint
      000606 AE 82            [24] 1702 	mov	r6,dpl
      000608 AF 83            [24] 1703 	mov	r7,dph
      00060A EE               [12] 1704 	mov	a,r6
      00060B 4F               [12] 1705 	orl	a,r7
      00060C 60 15            [24] 1706 	jz	00108$
                                   1707 ;	stcboot.c:106: if(fr%32>=16) 
      00060E C3               [12] 1708 	clr	c
      00060F EE               [12] 1709 	mov	a,r6
      000610 94 10            [12] 1710 	subb	a,#0x10
      000612 EF               [12] 1711 	mov	a,r7
      000613 64 80            [12] 1712 	xrl	a,#0x80
      000615 94 80            [12] 1713 	subb	a,#0x80
      000617 40 05            [24] 1714 	jc	00105$
                                   1715 ;	stcboot.c:107: line=1;
      000619 75*2B 01         [24] 1716 	mov	_line,#0x01
      00061C 80 53            [24] 1717 	sjmp	00109$
      00061E                       1718 00105$:
                                   1719 ;	stcboot.c:109: line=0;
      00061E 75*2B 00         [24] 1720 	mov	_line,#0x00
      000621 80 4E            [24] 1721 	sjmp	00109$
      000623                       1722 00108$:
                                   1723 ;	stcboot.c:112: clear_LCD();
      000623 12r02r4A         [24] 1724 	lcall	_clear_LCD
                                   1725 ;	stcboot.c:113: set_cursor_LCD(0,0);
      000626 75*08 00         [24] 1726 	mov	_set_cursor_LCD_PARM_2,#0x00
      000629 75 82 00         [24] 1727 	mov	dpl,#0x00
      00062C 12r02r11         [24] 1728 	lcall	_set_cursor_LCD
                                   1729 ;	stcboot.c:114: print_LCD(">");
      00062F 90r00r2A         [24] 1730 	mov	dptr,#___str_0
      000632 75 F0 80         [24] 1731 	mov	b,#0x80
      000635 12r01rDC         [24] 1732 	lcall	_print_LCD
                                   1733 ;	stcboot.c:115: set_cursor_LCD(0,1);
      000638 75*08 01         [24] 1734 	mov	_set_cursor_LCD_PARM_2,#0x01
      00063B 75 82 00         [24] 1735 	mov	dpl,#0x00
      00063E 12r02r11         [24] 1736 	lcall	_set_cursor_LCD
                                   1737 ;	stcboot.c:116: print_LCD("^");
      000641 90r00r2C         [24] 1738 	mov	dptr,#___str_1
      000644 75 F0 80         [24] 1739 	mov	b,#0x80
      000647 12r01rDC         [24] 1740 	lcall	_print_LCD
                                   1741 ;	stcboot.c:117: set_cursor_LCD(15,0);
      00064A 75*08 00         [24] 1742 	mov	_set_cursor_LCD_PARM_2,#0x00
      00064D 75 82 0F         [24] 1743 	mov	dpl,#0x0f
      000650 12r02r11         [24] 1744 	lcall	_set_cursor_LCD
                                   1745 ;	stcboot.c:118: print_LCD("V");
      000653 90r00r2E         [24] 1746 	mov	dptr,#___str_2
      000656 75 F0 80         [24] 1747 	mov	b,#0x80
      000659 12r01rDC         [24] 1748 	lcall	_print_LCD
                                   1749 ;	stcboot.c:119: set_cursor_LCD(15,1);
      00065C 75*08 01         [24] 1750 	mov	_set_cursor_LCD_PARM_2,#0x01
      00065F 75 82 0F         [24] 1751 	mov	dpl,#0x0f
      000662 12r02r11         [24] 1752 	lcall	_set_cursor_LCD
                                   1753 ;	stcboot.c:120: print_LCD("<");
      000665 90r00r30         [24] 1754 	mov	dptr,#___str_3
      000668 75 F0 80         [24] 1755 	mov	b,#0x80
      00066B 12r01rDC         [24] 1756 	lcall	_print_LCD
                                   1757 ;	stcboot.c:121: home_LCD();
      00066E 12r02r3B         [24] 1758 	lcall	_home_LCD
      000671                       1759 00109$:
                                   1760 ;	stcboot.c:123: set_cursor_LCD(fr%16,line);
      000671 AE*26            [24] 1761 	mov	r6,_fr
      000673 7F 00            [12] 1762 	mov	r7,#0x00
      000675 75*00 10         [24] 1763 	mov	__modsint_PARM_2,#0x10
                                   1764 ;	1-genFromRTrack replaced	mov	(__modsint_PARM_2 + 1),#0x00
      000678 8F*01            [24] 1765 	mov	(__modsint_PARM_2 + 1),r7
      00067A 8E 82            [24] 1766 	mov	dpl,r6
      00067C 8F 83            [24] 1767 	mov	dph,r7
      00067E 12r00r00         [24] 1768 	lcall	__modsint
      000681 85*2B*08         [24] 1769 	mov	_set_cursor_LCD_PARM_2,_line
      000684 12r02r11         [24] 1770 	lcall	_set_cursor_LCD
                                   1771 ;	stcboot.c:124: delay(500);
      000687 90 01 F4         [24] 1772 	mov	dptr,#0x01f4
      00068A E4               [12] 1773 	clr	a
      00068B F5 F0            [12] 1774 	mov	b,a
                                   1775 ;	stcboot.c:125: }
      00068D 02r02r86         [24] 1776 	ljmp	_delay
                                   1777 ;------------------------------------------------------------
                                   1778 ;Allocation info for local variables in function 'main'
                                   1779 ;------------------------------------------------------------
                                   1780 ;	stcboot.c:126: void main(void){
                                   1781 ;	-----------------------------------------
                                   1782 ;	 function main
                                   1783 ;	-----------------------------------------
      000690                       1784 _main:
                                   1785 ;	stcboot.c:127: setup();
      000690 12r05rD4         [24] 1786 	lcall	_setup
                                   1787 ;	stcboot.c:128: while (1) {
      000693                       1788 00102$:
                                   1789 ;	stcboot.c:129: loop();
      000693 12r05rDA         [24] 1790 	lcall	_loop
                                   1791 ;	stcboot.c:131: }
      000696 80 FB            [24] 1792 	sjmp	00102$
                                   1793 	.area CSEG    (CODE)
                                   1794 	.area CONST   (CODE)
      000000                       1795 _alphaArray:
      000000 88                    1796 	.db #0x88	; 136
      000001 83                    1797 	.db #0x83	; 131
      000002 C6                    1798 	.db #0xc6	; 198
      000003 A1                    1799 	.db #0xa1	; 161
      000004 86                    1800 	.db #0x86	; 134
      000005 8E                    1801 	.db #0x8e	; 142
      000006 C2                    1802 	.db #0xc2	; 194
      000007 8B                    1803 	.db #0x8b	; 139
      000008 CF                    1804 	.db #0xcf	; 207
      000009 E1                    1805 	.db #0xe1	; 225
      00000A 8A                    1806 	.db #0x8a	; 138
      00000B C7                    1807 	.db #0xc7	; 199
      00000C EA                    1808 	.db #0xea	; 234
      00000D CB                    1809 	.db #0xcb	; 203
      00000E A3                    1810 	.db #0xa3	; 163
      00000F 8C                    1811 	.db #0x8c	; 140
      000010 98                    1812 	.db #0x98	; 152
      000011 CC                    1813 	.db #0xcc	; 204
      000012 92                    1814 	.db #0x92	; 146
      000013 87                    1815 	.db #0x87	; 135
      000014 C1                    1816 	.db #0xc1	; 193
      000015 C5                    1817 	.db #0xc5	; 197
      000016 D5                    1818 	.db #0xd5	; 213
      000017 89                    1819 	.db #0x89	; 137
      000018 91                    1820 	.db #0x91	; 145
      000019 B4                    1821 	.db #0xb4	; 180
      00001A                       1822 _numArray:
      00001A C0                    1823 	.db #0xc0	; 192
      00001B F9                    1824 	.db #0xf9	; 249
      00001C A4                    1825 	.db #0xa4	; 164
      00001D B0                    1826 	.db #0xb0	; 176
      00001E 99                    1827 	.db #0x99	; 153
      00001F 92                    1828 	.db #0x92	; 146
      000020 82                    1829 	.db #0x82	; 130
      000021 F8                    1830 	.db #0xf8	; 248
      000022 80                    1831 	.db #0x80	; 128
      000023 90                    1832 	.db #0x90	; 144
      000024 88                    1833 	.db #0x88	; 136
      000025 83                    1834 	.db #0x83	; 131
      000026 C6                    1835 	.db #0xc6	; 198
      000027 A1                    1836 	.db #0xa1	; 161
      000028 86                    1837 	.db #0x86	; 134
      000029 8E                    1838 	.db #0x8e	; 142
      00002A                       1839 ___str_0:
      00002A 3E                    1840 	.ascii ">"
      00002B 00                    1841 	.db 0x00
      00002C                       1842 ___str_1:
      00002C 5E                    1843 	.ascii "^"
      00002D 00                    1844 	.db 0x00
      00002E                       1845 ___str_2:
      00002E 56                    1846 	.ascii "V"
      00002F 00                    1847 	.db 0x00
      000030                       1848 ___str_3:
      000030 3C                    1849 	.ascii "<"
      000031 00                    1850 	.db 0x00
                                   1851 	.area XINIT   (CODE)
                                   1852 	.area CABS    (ABS,CODE)
