                                      1 ;--------------------------------------------------------
                                      2 ; File Created by SDCC : free open source ANSI-C Compiler
                                      3 ; Version 3.8.0 #10562 (Linux)
                                      4 ;--------------------------------------------------------
                                      5 	.module stcboot
                                      6 	.optsdcc -mmcs51 --model-small
                                      7 	
                                      8 ;--------------------------------------------------------
                                      9 ; Public variables in this module
                                     10 ;--------------------------------------------------------
                                     11 	.globl _getStr_PARM_2
                                     12 	.globl _numArray
                                     13 	.globl _alphaArray
                                     14 	.globl _main
                                     15 	.globl _loop
                                     16 	.globl _setup
                                     17 	.globl _strobeLCD
                                     18 	.globl _printLCD
                                     19 	.globl _getStr
                                     20 	.globl _getChar
                                     21 	.globl _CY
                                     22 	.globl _AC
                                     23 	.globl _F0
                                     24 	.globl _RS1
                                     25 	.globl _RS0
                                     26 	.globl _OV
                                     27 	.globl _F1
                                     28 	.globl _P
                                     29 	.globl _PS
                                     30 	.globl _PT1
                                     31 	.globl _PX1
                                     32 	.globl _PT0
                                     33 	.globl _PX0
                                     34 	.globl _RD
                                     35 	.globl _WR
                                     36 	.globl _T1
                                     37 	.globl _T0
                                     38 	.globl _INT1
                                     39 	.globl _INT0
                                     40 	.globl _TXD
                                     41 	.globl _RXD
                                     42 	.globl _P3_7
                                     43 	.globl _P3_6
                                     44 	.globl _P3_5
                                     45 	.globl _P3_4
                                     46 	.globl _P3_3
                                     47 	.globl _P3_2
                                     48 	.globl _P3_1
                                     49 	.globl _P3_0
                                     50 	.globl _EA
                                     51 	.globl _ES
                                     52 	.globl _ET1
                                     53 	.globl _EX1
                                     54 	.globl _ET0
                                     55 	.globl _EX0
                                     56 	.globl _P2_7
                                     57 	.globl _P2_6
                                     58 	.globl _P2_5
                                     59 	.globl _P2_4
                                     60 	.globl _P2_3
                                     61 	.globl _P2_2
                                     62 	.globl _P2_1
                                     63 	.globl _P2_0
                                     64 	.globl _SM0
                                     65 	.globl _SM1
                                     66 	.globl _SM2
                                     67 	.globl _REN
                                     68 	.globl _TB8
                                     69 	.globl _RB8
                                     70 	.globl _TI
                                     71 	.globl _RI
                                     72 	.globl _P1_7
                                     73 	.globl _P1_6
                                     74 	.globl _P1_5
                                     75 	.globl _P1_4
                                     76 	.globl _P1_3
                                     77 	.globl _P1_2
                                     78 	.globl _P1_1
                                     79 	.globl _P1_0
                                     80 	.globl _TF1
                                     81 	.globl _TR1
                                     82 	.globl _TF0
                                     83 	.globl _TR0
                                     84 	.globl _IE1
                                     85 	.globl _IT1
                                     86 	.globl _IE0
                                     87 	.globl _IT0
                                     88 	.globl _P0_7
                                     89 	.globl _P0_6
                                     90 	.globl _P0_5
                                     91 	.globl _P0_4
                                     92 	.globl _P0_3
                                     93 	.globl _P0_2
                                     94 	.globl _P0_1
                                     95 	.globl _P0_0
                                     96 	.globl _B
                                     97 	.globl _ACC
                                     98 	.globl _PSW
                                     99 	.globl _IP
                                    100 	.globl _P3
                                    101 	.globl _IE
                                    102 	.globl _P2
                                    103 	.globl _SBUF
                                    104 	.globl _SCON
                                    105 	.globl _P1
                                    106 	.globl _TH1
                                    107 	.globl _TH0
                                    108 	.globl _TL1
                                    109 	.globl _TL0
                                    110 	.globl _TMOD
                                    111 	.globl _TCON
                                    112 	.globl _PCON
                                    113 	.globl _DPH
                                    114 	.globl _DPL
                                    115 	.globl _SP
                                    116 	.globl _P0
                                    117 	.globl _line
                                    118 	.globl _a
                                    119 	.globl _fr
                                    120 	.globl _printLCD_PARM_2
                                    121 	.globl _msg
                                    122 	.globl _frame
                                    123 	.globl _itoa_PARM_2
                                    124 	.globl _set_cursor_LCD_PARM_2
                                    125 	.globl _send_LCD_PARM_2
                                    126 	.globl _write_LCD_PARM_2
                                    127 	.globl _state
                                    128 	.globl _addr
                                    129 	.globl _i2c_send_PARM_3
                                    130 	.globl _i2c_send_PARM_2
                                    131 	.globl _i2c_begin_PARM_2
                                    132 	.globl _i
                                    133 	.globl _setBit
                                    134 	.globl _setNibble
                                    135 	.globl _setByte
                                    136 	.globl _readBit
                                    137 	.globl _readByte
                                    138 	.globl _i2c_begin
                                    139 	.globl _i2c_write
                                    140 	.globl _i2c_end
                                    141 	.globl _i2c_send
                                    142 	.globl _write_byte_LCD
                                    143 	.globl _write_LCD
                                    144 	.globl _command_LCD
                                    145 	.globl _data_LCD
                                    146 	.globl _send_LCD
                                    147 	.globl _print_LCD
                                    148 	.globl _set_cursor_LCD
                                    149 	.globl _home_LCD
                                    150 	.globl _clear_LCD
                                    151 	.globl _init_LCD
                                    152 	.globl _delay
                                    153 	.globl _itoa
                                    154 ;--------------------------------------------------------
                                    155 ; special function registers
                                    156 ;--------------------------------------------------------
                                    157 	.area RSEG    (ABS,DATA)
      000000                        158 	.org 0x0000
                           000080   159 _P0	=	0x0080
                           000081   160 _SP	=	0x0081
                           000082   161 _DPL	=	0x0082
                           000083   162 _DPH	=	0x0083
                           000087   163 _PCON	=	0x0087
                           000088   164 _TCON	=	0x0088
                           000089   165 _TMOD	=	0x0089
                           00008A   166 _TL0	=	0x008a
                           00008B   167 _TL1	=	0x008b
                           00008C   168 _TH0	=	0x008c
                           00008D   169 _TH1	=	0x008d
                           000090   170 _P1	=	0x0090
                           000098   171 _SCON	=	0x0098
                           000099   172 _SBUF	=	0x0099
                           0000A0   173 _P2	=	0x00a0
                           0000A8   174 _IE	=	0x00a8
                           0000B0   175 _P3	=	0x00b0
                           0000B8   176 _IP	=	0x00b8
                           0000D0   177 _PSW	=	0x00d0
                           0000E0   178 _ACC	=	0x00e0
                           0000F0   179 _B	=	0x00f0
                                    180 ;--------------------------------------------------------
                                    181 ; special function bits
                                    182 ;--------------------------------------------------------
                                    183 	.area RSEG    (ABS,DATA)
      000000                        184 	.org 0x0000
                           000080   185 _P0_0	=	0x0080
                           000081   186 _P0_1	=	0x0081
                           000082   187 _P0_2	=	0x0082
                           000083   188 _P0_3	=	0x0083
                           000084   189 _P0_4	=	0x0084
                           000085   190 _P0_5	=	0x0085
                           000086   191 _P0_6	=	0x0086
                           000087   192 _P0_7	=	0x0087
                           000088   193 _IT0	=	0x0088
                           000089   194 _IE0	=	0x0089
                           00008A   195 _IT1	=	0x008a
                           00008B   196 _IE1	=	0x008b
                           00008C   197 _TR0	=	0x008c
                           00008D   198 _TF0	=	0x008d
                           00008E   199 _TR1	=	0x008e
                           00008F   200 _TF1	=	0x008f
                           000090   201 _P1_0	=	0x0090
                           000091   202 _P1_1	=	0x0091
                           000092   203 _P1_2	=	0x0092
                           000093   204 _P1_3	=	0x0093
                           000094   205 _P1_4	=	0x0094
                           000095   206 _P1_5	=	0x0095
                           000096   207 _P1_6	=	0x0096
                           000097   208 _P1_7	=	0x0097
                           000098   209 _RI	=	0x0098
                           000099   210 _TI	=	0x0099
                           00009A   211 _RB8	=	0x009a
                           00009B   212 _TB8	=	0x009b
                           00009C   213 _REN	=	0x009c
                           00009D   214 _SM2	=	0x009d
                           00009E   215 _SM1	=	0x009e
                           00009F   216 _SM0	=	0x009f
                           0000A0   217 _P2_0	=	0x00a0
                           0000A1   218 _P2_1	=	0x00a1
                           0000A2   219 _P2_2	=	0x00a2
                           0000A3   220 _P2_3	=	0x00a3
                           0000A4   221 _P2_4	=	0x00a4
                           0000A5   222 _P2_5	=	0x00a5
                           0000A6   223 _P2_6	=	0x00a6
                           0000A7   224 _P2_7	=	0x00a7
                           0000A8   225 _EX0	=	0x00a8
                           0000A9   226 _ET0	=	0x00a9
                           0000AA   227 _EX1	=	0x00aa
                           0000AB   228 _ET1	=	0x00ab
                           0000AC   229 _ES	=	0x00ac
                           0000AF   230 _EA	=	0x00af
                           0000B0   231 _P3_0	=	0x00b0
                           0000B1   232 _P3_1	=	0x00b1
                           0000B2   233 _P3_2	=	0x00b2
                           0000B3   234 _P3_3	=	0x00b3
                           0000B4   235 _P3_4	=	0x00b4
                           0000B5   236 _P3_5	=	0x00b5
                           0000B6   237 _P3_6	=	0x00b6
                           0000B7   238 _P3_7	=	0x00b7
                           0000B0   239 _RXD	=	0x00b0
                           0000B1   240 _TXD	=	0x00b1
                           0000B2   241 _INT0	=	0x00b2
                           0000B3   242 _INT1	=	0x00b3
                           0000B4   243 _T0	=	0x00b4
                           0000B5   244 _T1	=	0x00b5
                           0000B6   245 _WR	=	0x00b6
                           0000B7   246 _RD	=	0x00b7
                           0000B8   247 _PX0	=	0x00b8
                           0000B9   248 _PT0	=	0x00b9
                           0000BA   249 _PX1	=	0x00ba
                           0000BB   250 _PT1	=	0x00bb
                           0000BC   251 _PS	=	0x00bc
                           0000D0   252 _P	=	0x00d0
                           0000D1   253 _F1	=	0x00d1
                           0000D2   254 _OV	=	0x00d2
                           0000D3   255 _RS0	=	0x00d3
                           0000D4   256 _RS1	=	0x00d4
                           0000D5   257 _F0	=	0x00d5
                           0000D6   258 _AC	=	0x00d6
                           0000D7   259 _CY	=	0x00d7
                                    260 ;--------------------------------------------------------
                                    261 ; overlayable register banks
                                    262 ;--------------------------------------------------------
                                    263 	.area REG_BANK_0	(REL,OVR,DATA)
      000000                        264 	.ds 8
                                    265 ;--------------------------------------------------------
                                    266 ; internal ram data
                                    267 ;--------------------------------------------------------
                                    268 	.area DSEG    (DATA)
      000008                        269 _i::
      000008                        270 	.ds 1
      000009                        271 _i2c_begin_PARM_2:
      000009                        272 	.ds 1
      00000A                        273 _i2c_send_PARM_2:
      00000A                        274 	.ds 1
      00000B                        275 _i2c_send_PARM_3:
      00000B                        276 	.ds 1
      00000C                        277 _addr::
      00000C                        278 	.ds 1
      00000D                        279 _state::
      00000D                        280 	.ds 1
      00000E                        281 _write_LCD_PARM_2:
      00000E                        282 	.ds 1
      00000F                        283 _send_LCD_PARM_2:
      00000F                        284 	.ds 1
      000010                        285 _set_cursor_LCD_PARM_2:
      000010                        286 	.ds 1
      000011                        287 _set_cursor_LCD_row_offsets_65536_57:
      000011                        288 	.ds 4
      000015                        289 _delay_millis_65536_63:
      000015                        290 	.ds 4
      000019                        291 _itoa_PARM_2:
      000019                        292 	.ds 1
      00001A                        293 _itoa_out_65536_69:
      00001A                        294 	.ds 3
      00001D                        295 _frame::
      00001D                        296 	.ds 2
      00001F                        297 _msg::
      00001F                        298 	.ds 4
      000023                        299 _printLCD_PARM_2:
      000023                        300 	.ds 1
      000024                        301 _printLCD_i_65536_71:
      000024                        302 	.ds 2
      000026                        303 _strobeLCD_i_131072_75:
      000026                        304 	.ds 2
      000028                        305 _strobeLCD_sloc0_1_0:
      000028                        306 	.ds 3
      00002B                        307 _strobeLCD_sloc1_1_0:
      00002B                        308 	.ds 3
      00002E                        309 _fr::
      00002E                        310 	.ds 1
      00002F                        311 _a::
      00002F                        312 	.ds 4
      000033                        313 _line::
      000033                        314 	.ds 1
                                    315 ;--------------------------------------------------------
                                    316 ; overlayable items in internal ram 
                                    317 ;--------------------------------------------------------
                                    318 	.area	OSEG    (OVR,DATA)
                                    319 	.area	OSEG    (OVR,DATA)
      000034                        320 _getStr_PARM_2:
      000034                        321 	.ds 3
                                    322 	.area	OSEG    (OVR,DATA)
                                    323 	.area	OSEG    (OVR,DATA)
                                    324 ;--------------------------------------------------------
                                    325 ; Stack segment in internal ram 
                                    326 ;--------------------------------------------------------
                                    327 	.area	SSEG
      000037                        328 __start__stack:
      000037                        329 	.ds	1
                                    330 
                                    331 ;--------------------------------------------------------
                                    332 ; indirectly addressable internal ram data
                                    333 ;--------------------------------------------------------
                                    334 	.area ISEG    (DATA)
                                    335 ;--------------------------------------------------------
                                    336 ; absolute internal ram data
                                    337 ;--------------------------------------------------------
                                    338 	.area IABS    (ABS,DATA)
                                    339 	.area IABS    (ABS,DATA)
                                    340 ;--------------------------------------------------------
                                    341 ; bit data
                                    342 ;--------------------------------------------------------
                                    343 	.area BSEG    (BIT)
                                    344 ;--------------------------------------------------------
                                    345 ; paged external ram data
                                    346 ;--------------------------------------------------------
                                    347 	.area PSEG    (PAG,XDATA)
                                    348 ;--------------------------------------------------------
                                    349 ; external ram data
                                    350 ;--------------------------------------------------------
                                    351 	.area XSEG    (XDATA)
                                    352 ;--------------------------------------------------------
                                    353 ; absolute external ram data
                                    354 ;--------------------------------------------------------
                                    355 	.area XABS    (ABS,XDATA)
                                    356 ;--------------------------------------------------------
                                    357 ; external initialized ram data
                                    358 ;--------------------------------------------------------
                                    359 	.area XISEG   (XDATA)
                                    360 	.area HOME    (CODE)
                                    361 	.area GSINIT0 (CODE)
                                    362 	.area GSINIT1 (CODE)
                                    363 	.area GSINIT2 (CODE)
                                    364 	.area GSINIT3 (CODE)
                                    365 	.area GSINIT4 (CODE)
                                    366 	.area GSINIT5 (CODE)
                                    367 	.area GSINIT  (CODE)
                                    368 	.area GSFINAL (CODE)
                                    369 	.area CSEG    (CODE)
                                    370 ;--------------------------------------------------------
                                    371 ; interrupt vector 
                                    372 ;--------------------------------------------------------
                                    373 	.area HOME    (CODE)
      000000                        374 __interrupt_vect:
      000000 02 00 06         [24]  375 	ljmp	__sdcc_gsinit_startup
                                    376 ;--------------------------------------------------------
                                    377 ; global & static initialisations
                                    378 ;--------------------------------------------------------
                                    379 	.area HOME    (CODE)
                                    380 	.area GSINIT  (CODE)
                                    381 	.area GSFINAL (CODE)
                                    382 	.area GSINIT  (CODE)
                                    383 	.globl __sdcc_gsinit_startup
                                    384 	.globl __sdcc_program_startup
                                    385 	.globl __start__stack
                                    386 	.globl __mcs51_genXINIT
                                    387 	.globl __mcs51_genXRAMCLEAR
                                    388 	.globl __mcs51_genRAMCLEAR
                                    389 ;	i2c8051.c:5: unsigned char i=0;
      00005F 75 08 00         [24]  390 	mov	_i,#0x00
                                    391 ;	LCD1602.c:4: unsigned char addr=0;
      000062 75 0C 00         [24]  392 	mov	_addr,#0x00
                                    393 ;	LCD1602.c:5: unsigned char state=0;
      000065 75 0D 00         [24]  394 	mov	_state,#0x00
                                    395 ;	stcboot.c:21: unsigned int frame=0;
      000068 E4               [12]  396 	clr	a
      000069 F5 1D            [12]  397 	mov	_frame,a
      00006B F5 1E            [12]  398 	mov	(_frame + 1),a
                                    399 ;	stcboot.c:89: unsigned char fr=0;
                                    400 ;	1-genFromRTrack replaced	mov	_fr,#0x00
      00006D F5 2E            [12]  401 	mov	_fr,a
                                    402 ;	stcboot.c:91: unsigned char line=0;
                                    403 ;	1-genFromRTrack replaced	mov	_line,#0x00
      00006F F5 33            [12]  404 	mov	_line,a
                                    405 	.area GSFINAL (CODE)
      000071 02 00 03         [24]  406 	ljmp	__sdcc_program_startup
                                    407 ;--------------------------------------------------------
                                    408 ; Home
                                    409 ;--------------------------------------------------------
                                    410 	.area HOME    (CODE)
                                    411 	.area HOME    (CODE)
      000003                        412 __sdcc_program_startup:
      000003 02 07 04         [24]  413 	ljmp	_main
                                    414 ;	return from main will return to caller
                                    415 ;--------------------------------------------------------
                                    416 ; code
                                    417 ;--------------------------------------------------------
                                    418 	.area CSEG    (CODE)
                                    419 ;------------------------------------------------------------
                                    420 ;Allocation info for local variables in function 'getChar'
                                    421 ;------------------------------------------------------------
                                    422 ;c                         Allocated to registers r7 
                                    423 ;------------------------------------------------------------
                                    424 ;	anodeDisplay.h:84: unsigned char getChar(char c){
                                    425 ;	-----------------------------------------
                                    426 ;	 function getChar
                                    427 ;	-----------------------------------------
      000074                        428 _getChar:
                           000007   429 	ar7 = 0x07
                           000006   430 	ar6 = 0x06
                           000005   431 	ar5 = 0x05
                           000004   432 	ar4 = 0x04
                           000003   433 	ar3 = 0x03
                           000002   434 	ar2 = 0x02
                           000001   435 	ar1 = 0x01
                           000000   436 	ar0 = 0x00
      000074 AF 82            [24]  437 	mov	r7,dpl
                                    438 ;	anodeDisplay.h:85: if(c>=48&&c<=57)
      000076 BF 30 00         [24]  439 	cjne	r7,#0x30,00138$
      000079                        440 00138$:
      000079 40 1E            [24]  441 	jc	00109$
      00007B EF               [12]  442 	mov	a,r7
      00007C 24 C6            [12]  443 	add	a,#0xff - 0x39
      00007E 40 19            [24]  444 	jc	00109$
                                    445 ;	anodeDisplay.h:86: return numArray[c-48];
      000080 8F 06            [24]  446 	mov	ar6,r7
      000082 EE               [12]  447 	mov	a,r6
      000083 24 D0            [12]  448 	add	a,#0xd0
      000085 FE               [12]  449 	mov	r6,a
      000086 33               [12]  450 	rlc	a
      000087 95 E0            [12]  451 	subb	a,acc
      000089 FD               [12]  452 	mov	r5,a
      00008A EE               [12]  453 	mov	a,r6
      00008B 24 44            [12]  454 	add	a,#_numArray
      00008D F5 82            [12]  455 	mov	dpl,a
      00008F ED               [12]  456 	mov	a,r5
      000090 34 0A            [12]  457 	addc	a,#(_numArray >> 8)
      000092 F5 83            [12]  458 	mov	dph,a
      000094 E4               [12]  459 	clr	a
      000095 93               [24]  460 	movc	a,@a+dptr
      000096 F5 82            [12]  461 	mov	dpl,a
      000098 22               [24]  462 	ret
      000099                        463 00109$:
                                    464 ;	anodeDisplay.h:87: else if(c>=65&&c<=90)
      000099 BF 41 00         [24]  465 	cjne	r7,#0x41,00141$
      00009C                        466 00141$:
      00009C 40 1E            [24]  467 	jc	00105$
      00009E EF               [12]  468 	mov	a,r7
      00009F 24 A5            [12]  469 	add	a,#0xff - 0x5a
      0000A1 40 19            [24]  470 	jc	00105$
                                    471 ;	anodeDisplay.h:88: return alphaArray[c-65];
      0000A3 8F 06            [24]  472 	mov	ar6,r7
      0000A5 EE               [12]  473 	mov	a,r6
      0000A6 24 BF            [12]  474 	add	a,#0xbf
      0000A8 FE               [12]  475 	mov	r6,a
      0000A9 33               [12]  476 	rlc	a
      0000AA 95 E0            [12]  477 	subb	a,acc
      0000AC FD               [12]  478 	mov	r5,a
      0000AD EE               [12]  479 	mov	a,r6
      0000AE 24 2A            [12]  480 	add	a,#_alphaArray
      0000B0 F5 82            [12]  481 	mov	dpl,a
      0000B2 ED               [12]  482 	mov	a,r5
      0000B3 34 0A            [12]  483 	addc	a,#(_alphaArray >> 8)
      0000B5 F5 83            [12]  484 	mov	dph,a
      0000B7 E4               [12]  485 	clr	a
      0000B8 93               [24]  486 	movc	a,@a+dptr
      0000B9 F5 82            [12]  487 	mov	dpl,a
      0000BB 22               [24]  488 	ret
      0000BC                        489 00105$:
                                    490 ;	anodeDisplay.h:89: else if(c>=97&&c<=122)
      0000BC BF 61 00         [24]  491 	cjne	r7,#0x61,00144$
      0000BF                        492 00144$:
      0000BF 40 1C            [24]  493 	jc	00110$
      0000C1 EF               [12]  494 	mov	a,r7
      0000C2 24 85            [12]  495 	add	a,#0xff - 0x7a
      0000C4 40 17            [24]  496 	jc	00110$
                                    497 ;	anodeDisplay.h:90: return alphaArray[c-97];
      0000C6 EF               [12]  498 	mov	a,r7
      0000C7 24 9F            [12]  499 	add	a,#0x9f
      0000C9 FF               [12]  500 	mov	r7,a
      0000CA 33               [12]  501 	rlc	a
      0000CB 95 E0            [12]  502 	subb	a,acc
      0000CD FE               [12]  503 	mov	r6,a
      0000CE EF               [12]  504 	mov	a,r7
      0000CF 24 2A            [12]  505 	add	a,#_alphaArray
      0000D1 F5 82            [12]  506 	mov	dpl,a
      0000D3 EE               [12]  507 	mov	a,r6
      0000D4 34 0A            [12]  508 	addc	a,#(_alphaArray >> 8)
      0000D6 F5 83            [12]  509 	mov	dph,a
      0000D8 E4               [12]  510 	clr	a
      0000D9 93               [24]  511 	movc	a,@a+dptr
      0000DA F5 82            [12]  512 	mov	dpl,a
      0000DC 22               [24]  513 	ret
      0000DD                        514 00110$:
                                    515 ;	anodeDisplay.h:91: return 0;
      0000DD 75 82 00         [24]  516 	mov	dpl,#0x00
                                    517 ;	anodeDisplay.h:92: }
      0000E0 22               [24]  518 	ret
                                    519 ;------------------------------------------------------------
                                    520 ;Allocation info for local variables in function 'getStr'
                                    521 ;------------------------------------------------------------
                                    522 ;str                       Allocated with name '_getStr_PARM_2'
                                    523 ;out                       Allocated to registers r5 r6 r7 
                                    524 ;i                         Allocated to registers r4 
                                    525 ;------------------------------------------------------------
                                    526 ;	anodeDisplay.h:93: void getStr(unsigned char* out, const char* str){
                                    527 ;	-----------------------------------------
                                    528 ;	 function getStr
                                    529 ;	-----------------------------------------
      0000E1                        530 _getStr:
      0000E1 AD 82            [24]  531 	mov	r5,dpl
      0000E3 AE 83            [24]  532 	mov	r6,dph
      0000E5 AF F0            [24]  533 	mov	r7,b
                                    534 ;	anodeDisplay.h:94: for(unsigned char i=0;str[i]!=0;i++){
      0000E7 7C 00            [12]  535 	mov	r4,#0x00
      0000E9                        536 00103$:
      0000E9 EC               [12]  537 	mov	a,r4
      0000EA 25 34            [12]  538 	add	a,_getStr_PARM_2
      0000EC F9               [12]  539 	mov	r1,a
      0000ED E4               [12]  540 	clr	a
      0000EE 35 35            [12]  541 	addc	a,(_getStr_PARM_2 + 1)
      0000F0 FA               [12]  542 	mov	r2,a
      0000F1 AB 36            [24]  543 	mov	r3,(_getStr_PARM_2 + 2)
      0000F3 89 82            [24]  544 	mov	dpl,r1
      0000F5 8A 83            [24]  545 	mov	dph,r2
      0000F7 8B F0            [24]  546 	mov	b,r3
      0000F9 12 09 59         [24]  547 	lcall	__gptrget
      0000FC FB               [12]  548 	mov	r3,a
      0000FD 60 15            [24]  549 	jz	00105$
                                    550 ;	anodeDisplay.h:95: out[i]=str[i];
      0000FF EC               [12]  551 	mov	a,r4
      000100 2D               [12]  552 	add	a,r5
      000101 F8               [12]  553 	mov	r0,a
      000102 E4               [12]  554 	clr	a
      000103 3E               [12]  555 	addc	a,r6
      000104 F9               [12]  556 	mov	r1,a
      000105 8F 02            [24]  557 	mov	ar2,r7
      000107 88 82            [24]  558 	mov	dpl,r0
      000109 89 83            [24]  559 	mov	dph,r1
      00010B 8A F0            [24]  560 	mov	b,r2
      00010D EB               [12]  561 	mov	a,r3
      00010E 12 08 85         [24]  562 	lcall	__gptrput
                                    563 ;	anodeDisplay.h:94: for(unsigned char i=0;str[i]!=0;i++){
      000111 0C               [12]  564 	inc	r4
      000112 80 D5            [24]  565 	sjmp	00103$
      000114                        566 00105$:
                                    567 ;	anodeDisplay.h:97: }
      000114 22               [24]  568 	ret
                                    569 ;------------------------------------------------------------
                                    570 ;Allocation info for local variables in function 'setBit'
                                    571 ;------------------------------------------------------------
                                    572 ;bit                       Allocated to registers r7 
                                    573 ;------------------------------------------------------------
                                    574 ;	i2c8051.c:6: void setBit(unsigned char bit) {
                                    575 ;	-----------------------------------------
                                    576 ;	 function setBit
                                    577 ;	-----------------------------------------
      000115                        578 _setBit:
                                    579 ;	i2c8051.c:7: SDA=bit; //digitalWrite(SDA, bit);
                                    580 ;	assignBit
      000115 E5 82            [12]  581 	mov	a,dpl
      000117 24 FF            [12]  582 	add	a,#0xff
      000119 92 92            [24]  583 	mov	_P1_2,c
                                    584 ;	i2c8051.c:8: SCL=1; //digitalWrite(SCL, HIGH);
                                    585 ;	assignBit
      00011B D2 91            [12]  586 	setb	_P1_1
                                    587 ;	i2c8051.c:9: SCL=0; //digitalWrite(SCL, LOW);
                                    588 ;	assignBit
      00011D C2 91            [12]  589 	clr	_P1_1
                                    590 ;	i2c8051.c:10: SDA=0; //digitalWrite(SDA, LOW);
                                    591 ;	assignBit
      00011F C2 92            [12]  592 	clr	_P1_2
                                    593 ;	i2c8051.c:11: }
      000121 22               [24]  594 	ret
                                    595 ;------------------------------------------------------------
                                    596 ;Allocation info for local variables in function 'setNibble'
                                    597 ;------------------------------------------------------------
                                    598 ;nibble                    Allocated to registers r7 
                                    599 ;mask                      Allocated to registers r6 
                                    600 ;------------------------------------------------------------
                                    601 ;	i2c8051.c:12: void setNibble(unsigned char nibble){
                                    602 ;	-----------------------------------------
                                    603 ;	 function setNibble
                                    604 ;	-----------------------------------------
      000122                        605 _setNibble:
      000122 AF 82            [24]  606 	mov	r7,dpl
                                    607 ;	i2c8051.c:13: unsigned char mask=_BV(3);
      000124 7E 08            [12]  608 	mov	r6,#0x08
                                    609 ;	i2c8051.c:14: while(mask>0){
      000126                        610 00101$:
      000126 EE               [12]  611 	mov	a,r6
      000127 60 15            [24]  612 	jz	00104$
                                    613 ;	i2c8051.c:15: setBit(nibble&mask);
      000129 EE               [12]  614 	mov	a,r6
      00012A 5F               [12]  615 	anl	a,r7
      00012B F5 82            [12]  616 	mov	dpl,a
      00012D C0 07            [24]  617 	push	ar7
      00012F C0 06            [24]  618 	push	ar6
      000131 12 01 15         [24]  619 	lcall	_setBit
      000134 D0 06            [24]  620 	pop	ar6
      000136 D0 07            [24]  621 	pop	ar7
                                    622 ;	i2c8051.c:16: mask>>=1;
      000138 EE               [12]  623 	mov	a,r6
      000139 C3               [12]  624 	clr	c
      00013A 13               [12]  625 	rrc	a
      00013B FE               [12]  626 	mov	r6,a
      00013C 80 E8            [24]  627 	sjmp	00101$
      00013E                        628 00104$:
                                    629 ;	i2c8051.c:18: }
      00013E 22               [24]  630 	ret
                                    631 ;------------------------------------------------------------
                                    632 ;Allocation info for local variables in function 'setByte'
                                    633 ;------------------------------------------------------------
                                    634 ;bits                      Allocated to registers r7 
                                    635 ;mask                      Allocated to registers r6 
                                    636 ;------------------------------------------------------------
                                    637 ;	i2c8051.c:19: void setByte(unsigned char bits){
                                    638 ;	-----------------------------------------
                                    639 ;	 function setByte
                                    640 ;	-----------------------------------------
      00013F                        641 _setByte:
      00013F AF 82            [24]  642 	mov	r7,dpl
                                    643 ;	i2c8051.c:20: unsigned char mask=_BV(7);
      000141 7E 80            [12]  644 	mov	r6,#0x80
                                    645 ;	i2c8051.c:21: while(mask>0){
      000143                        646 00101$:
      000143 EE               [12]  647 	mov	a,r6
      000144 60 15            [24]  648 	jz	00104$
                                    649 ;	i2c8051.c:22: setBit(bits&mask);
      000146 EE               [12]  650 	mov	a,r6
      000147 5F               [12]  651 	anl	a,r7
      000148 F5 82            [12]  652 	mov	dpl,a
      00014A C0 07            [24]  653 	push	ar7
      00014C C0 06            [24]  654 	push	ar6
      00014E 12 01 15         [24]  655 	lcall	_setBit
      000151 D0 06            [24]  656 	pop	ar6
      000153 D0 07            [24]  657 	pop	ar7
                                    658 ;	i2c8051.c:23: mask>>=1;
      000155 EE               [12]  659 	mov	a,r6
      000156 C3               [12]  660 	clr	c
      000157 13               [12]  661 	rrc	a
      000158 FE               [12]  662 	mov	r6,a
      000159 80 E8            [24]  663 	sjmp	00101$
      00015B                        664 00104$:
                                    665 ;	i2c8051.c:25: }
      00015B 22               [24]  666 	ret
                                    667 ;------------------------------------------------------------
                                    668 ;Allocation info for local variables in function 'readBit'
                                    669 ;------------------------------------------------------------
                                    670 ;r                         Allocated to registers 
                                    671 ;------------------------------------------------------------
                                    672 ;	i2c8051.c:26: unsigned char readBit() {
                                    673 ;	-----------------------------------------
                                    674 ;	 function readBit
                                    675 ;	-----------------------------------------
      00015C                        676 _readBit:
                                    677 ;	i2c8051.c:27: SCL=1; //digitalWrite(SCL, HIGH);
                                    678 ;	assignBit
      00015C D2 91            [12]  679 	setb	_P1_1
                                    680 ;	i2c8051.c:28: unsigned char r = SDA; //digitalRead(SDA);
      00015E A2 92            [12]  681 	mov	c,_P1_2
      000160 E4               [12]  682 	clr	a
      000161 33               [12]  683 	rlc	a
      000162 F5 82            [12]  684 	mov	dpl,a
                                    685 ;	i2c8051.c:29: SCL=0; //digitalWrite(SCL, LOW);
                                    686 ;	assignBit
      000164 C2 91            [12]  687 	clr	_P1_1
                                    688 ;	i2c8051.c:30: return r;
                                    689 ;	i2c8051.c:31: }
      000166 22               [24]  690 	ret
                                    691 ;------------------------------------------------------------
                                    692 ;Allocation info for local variables in function 'readByte'
                                    693 ;------------------------------------------------------------
                                    694 ;value                     Allocated to registers r7 
                                    695 ;i                         Allocated to registers r6 
                                    696 ;------------------------------------------------------------
                                    697 ;	i2c8051.c:32: unsigned char readByte(){
                                    698 ;	-----------------------------------------
                                    699 ;	 function readByte
                                    700 ;	-----------------------------------------
      000167                        701 _readByte:
                                    702 ;	i2c8051.c:33: unsigned char value = 0;
      000167 7F 00            [12]  703 	mov	r7,#0x00
                                    704 ;	i2c8051.c:34: for (unsigned char i = 0; i < 8; i++) {
      000169 7E 00            [12]  705 	mov	r6,#0x00
      00016B                        706 00103$:
      00016B BE 08 00         [24]  707 	cjne	r6,#0x08,00116$
      00016E                        708 00116$:
      00016E 50 18            [24]  709 	jnc	00101$
                                    710 ;	i2c8051.c:35: value = (value << 1) | readBit();
      000170 8F 05            [24]  711 	mov	ar5,r7
      000172 ED               [12]  712 	mov	a,r5
      000173 2D               [12]  713 	add	a,r5
      000174 FD               [12]  714 	mov	r5,a
      000175 C0 06            [24]  715 	push	ar6
      000177 C0 05            [24]  716 	push	ar5
      000179 12 01 5C         [24]  717 	lcall	_readBit
      00017C AC 82            [24]  718 	mov	r4,dpl
      00017E D0 05            [24]  719 	pop	ar5
      000180 D0 06            [24]  720 	pop	ar6
      000182 EC               [12]  721 	mov	a,r4
      000183 4D               [12]  722 	orl	a,r5
      000184 FF               [12]  723 	mov	r7,a
                                    724 ;	i2c8051.c:34: for (unsigned char i = 0; i < 8; i++) {
      000185 0E               [12]  725 	inc	r6
      000186 80 E3            [24]  726 	sjmp	00103$
      000188                        727 00101$:
                                    728 ;	i2c8051.c:37: return value;
      000188 8F 82            [24]  729 	mov	dpl,r7
                                    730 ;	i2c8051.c:38: }
      00018A 22               [24]  731 	ret
                                    732 ;------------------------------------------------------------
                                    733 ;Allocation info for local variables in function 'i2c_begin'
                                    734 ;------------------------------------------------------------
                                    735 ;rw                        Allocated with name '_i2c_begin_PARM_2'
                                    736 ;addr                      Allocated to registers r7 
                                    737 ;------------------------------------------------------------
                                    738 ;	i2c8051.c:39: unsigned char i2c_begin(unsigned char addr,unsigned char rw){
                                    739 ;	-----------------------------------------
                                    740 ;	 function i2c_begin
                                    741 ;	-----------------------------------------
      00018B                        742 _i2c_begin:
      00018B AF 82            [24]  743 	mov	r7,dpl
                                    744 ;	i2c8051.c:40: i2c_end(); //also start condition
      00018D C0 07            [24]  745 	push	ar7
      00018F 12 01 B0         [24]  746 	lcall	_i2c_end
      000192 D0 07            [24]  747 	pop	ar7
                                    748 ;	i2c8051.c:41: SDA=0; //digitalWrite(SDA,LOW);
                                    749 ;	assignBit
      000194 C2 92            [12]  750 	clr	_P1_2
                                    751 ;	i2c8051.c:42: SCL=0;//digitalWrite(SCL,LOW);
                                    752 ;	assignBit
      000196 C2 91            [12]  753 	clr	_P1_1
                                    754 ;	i2c8051.c:43: setByte(addr<<1|rw);
      000198 EF               [12]  755 	mov	a,r7
      000199 2F               [12]  756 	add	a,r7
      00019A FF               [12]  757 	mov	r7,a
      00019B E5 09            [12]  758 	mov	a,_i2c_begin_PARM_2
      00019D 4F               [12]  759 	orl	a,r7
      00019E F5 82            [12]  760 	mov	dpl,a
      0001A0 12 01 3F         [24]  761 	lcall	_setByte
                                    762 ;	i2c8051.c:44: SDA=0;//pinMode(SDA, INPUT);
                                    763 ;	assignBit
      0001A3 C2 92            [12]  764 	clr	_P1_2
                                    765 ;	i2c8051.c:45: return readBit(); //ACK
                                    766 ;	i2c8051.c:46: }
      0001A5 02 01 5C         [24]  767 	ljmp	_readBit
                                    768 ;------------------------------------------------------------
                                    769 ;Allocation info for local variables in function 'i2c_write'
                                    770 ;------------------------------------------------------------
                                    771 ;data                      Allocated to registers 
                                    772 ;------------------------------------------------------------
                                    773 ;	i2c8051.c:47: unsigned char i2c_write(unsigned char data){
                                    774 ;	-----------------------------------------
                                    775 ;	 function i2c_write
                                    776 ;	-----------------------------------------
      0001A8                        777 _i2c_write:
                                    778 ;	i2c8051.c:48: setByte(data); //dataframe
      0001A8 12 01 3F         [24]  779 	lcall	_setByte
                                    780 ;	i2c8051.c:49: SDA=0; //pinMode(SDA, INPUT);
                                    781 ;	assignBit
      0001AB C2 92            [12]  782 	clr	_P1_2
                                    783 ;	i2c8051.c:50: return readBit(); //ACK
                                    784 ;	i2c8051.c:51: }
      0001AD 02 01 5C         [24]  785 	ljmp	_readBit
                                    786 ;------------------------------------------------------------
                                    787 ;Allocation info for local variables in function 'i2c_end'
                                    788 ;------------------------------------------------------------
                                    789 ;	i2c8051.c:52: void i2c_end(){
                                    790 ;	-----------------------------------------
                                    791 ;	 function i2c_end
                                    792 ;	-----------------------------------------
      0001B0                        793 _i2c_end:
                                    794 ;	i2c8051.c:53: SCL=1; //digitalWrite(SCL,HIGH);
                                    795 ;	assignBit
      0001B0 D2 91            [12]  796 	setb	_P1_1
                                    797 ;	i2c8051.c:54: SDA=1; //digitalWrite(SDA,HIGH);
                                    798 ;	assignBit
      0001B2 D2 92            [12]  799 	setb	_P1_2
                                    800 ;	i2c8051.c:55: }
      0001B4 22               [24]  801 	ret
                                    802 ;------------------------------------------------------------
                                    803 ;Allocation info for local variables in function 'i2c_send'
                                    804 ;------------------------------------------------------------
                                    805 ;rw                        Allocated with name '_i2c_send_PARM_2'
                                    806 ;data                      Allocated with name '_i2c_send_PARM_3'
                                    807 ;addr                      Allocated to registers 
                                    808 ;------------------------------------------------------------
                                    809 ;	i2c8051.c:56: void i2c_send(unsigned char addr,unsigned char rw,unsigned char data){
                                    810 ;	-----------------------------------------
                                    811 ;	 function i2c_send
                                    812 ;	-----------------------------------------
      0001B5                        813 _i2c_send:
                                    814 ;	i2c8051.c:57: i2c_begin(addr,rw);
      0001B5 85 0A 09         [24]  815 	mov	_i2c_begin_PARM_2,_i2c_send_PARM_2
      0001B8 12 01 8B         [24]  816 	lcall	_i2c_begin
                                    817 ;	i2c8051.c:58: i2c_write(data);
      0001BB 85 0B 82         [24]  818 	mov	dpl,_i2c_send_PARM_3
      0001BE 12 01 A8         [24]  819 	lcall	_i2c_write
                                    820 ;	i2c8051.c:59: i2c_end();
                                    821 ;	i2c8051.c:60: }
      0001C1 02 01 B0         [24]  822 	ljmp	_i2c_end
                                    823 ;------------------------------------------------------------
                                    824 ;Allocation info for local variables in function 'write_byte_LCD'
                                    825 ;------------------------------------------------------------
                                    826 ;data                      Allocated to registers 
                                    827 ;------------------------------------------------------------
                                    828 ;	LCD1602.c:6: void write_byte_LCD(unsigned char data){
                                    829 ;	-----------------------------------------
                                    830 ;	 function write_byte_LCD
                                    831 ;	-----------------------------------------
      0001C4                        832 _write_byte_LCD:
      0001C4 85 82 0B         [24]  833 	mov	_i2c_send_PARM_3,dpl
                                    834 ;	LCD1602.c:7: i2c_send(addr,WRITE,data);
      0001C7 75 0A 00         [24]  835 	mov	_i2c_send_PARM_2,#0x00
      0001CA 85 0C 82         [24]  836 	mov	dpl,_addr
      0001CD 12 01 B5         [24]  837 	lcall	_i2c_send
                                    838 ;	LCD1602.c:8: delay(1);
      0001D0 90 00 01         [24]  839 	mov	dptr,#(0x01&0x00ff)
      0001D3 E4               [12]  840 	clr	a
      0001D4 F5 F0            [12]  841 	mov	b,a
                                    842 ;	LCD1602.c:9: }
      0001D6 02 02 FA         [24]  843 	ljmp	_delay
                                    844 ;------------------------------------------------------------
                                    845 ;Allocation info for local variables in function 'write_LCD'
                                    846 ;------------------------------------------------------------
                                    847 ;mode                      Allocated with name '_write_LCD_PARM_2'
                                    848 ;nibble                    Allocated to registers r7 
                                    849 ;------------------------------------------------------------
                                    850 ;	LCD1602.c:10: void write_LCD(unsigned char nibble, unsigned char mode){
                                    851 ;	-----------------------------------------
                                    852 ;	 function write_LCD
                                    853 ;	-----------------------------------------
      0001D9                        854 _write_LCD:
      0001D9 AF 82            [24]  855 	mov	r7,dpl
                                    856 ;	LCD1602.c:11: write_byte_LCD(nibble|En|mode);
      0001DB 8F 05            [24]  857 	mov	ar5,r7
      0001DD 7E 00            [12]  858 	mov	r6,#0x00
      0001DF 43 05 04         [24]  859 	orl	ar5,#0x04
      0001E2 AB 0E            [24]  860 	mov	r3,_write_LCD_PARM_2
      0001E4 7C 00            [12]  861 	mov	r4,#0x00
      0001E6 EB               [12]  862 	mov	a,r3
      0001E7 42 05            [12]  863 	orl	ar5,a
      0001E9 EC               [12]  864 	mov	a,r4
      0001EA 42 06            [12]  865 	orl	ar6,a
      0001EC 8D 82            [24]  866 	mov	dpl,r5
      0001EE C0 07            [24]  867 	push	ar7
      0001F0 C0 05            [24]  868 	push	ar5
      0001F2 12 01 C4         [24]  869 	lcall	_write_byte_LCD
      0001F5 D0 05            [24]  870 	pop	ar5
      0001F7 D0 07            [24]  871 	pop	ar7
                                    872 ;	LCD1602.c:12: write_byte_LCD(nibble&~En|mode);
      0001F9 74 FB            [12]  873 	mov	a,#0xfb
      0001FB 5F               [12]  874 	anl	a,r7
      0001FC 45 0E            [12]  875 	orl	a,_write_LCD_PARM_2
      0001FE F5 82            [12]  876 	mov	dpl,a
      000200 C0 05            [24]  877 	push	ar5
      000202 12 01 C4         [24]  878 	lcall	_write_byte_LCD
      000205 D0 05            [24]  879 	pop	ar5
                                    880 ;	LCD1602.c:13: write_byte_LCD(nibble|En|mode);
      000207 8D 82            [24]  881 	mov	dpl,r5
                                    882 ;	LCD1602.c:14: }
      000209 02 01 C4         [24]  883 	ljmp	_write_byte_LCD
                                    884 ;------------------------------------------------------------
                                    885 ;Allocation info for local variables in function 'command_LCD'
                                    886 ;------------------------------------------------------------
                                    887 ;data                      Allocated to registers 
                                    888 ;------------------------------------------------------------
                                    889 ;	LCD1602.c:15: void command_LCD(unsigned char data){
                                    890 ;	-----------------------------------------
                                    891 ;	 function command_LCD
                                    892 ;	-----------------------------------------
      00020C                        893 _command_LCD:
                                    894 ;	LCD1602.c:16: send_LCD(data,LCD_CMD);
      00020C 75 0F 00         [24]  895 	mov	_send_LCD_PARM_2,#0x00
      00020F 12 02 21         [24]  896 	lcall	_send_LCD
                                    897 ;	LCD1602.c:17: delay(5);
      000212 90 00 05         [24]  898 	mov	dptr,#(0x05&0x00ff)
      000215 E4               [12]  899 	clr	a
      000216 F5 F0            [12]  900 	mov	b,a
                                    901 ;	LCD1602.c:18: }
      000218 02 02 FA         [24]  902 	ljmp	_delay
                                    903 ;------------------------------------------------------------
                                    904 ;Allocation info for local variables in function 'data_LCD'
                                    905 ;------------------------------------------------------------
                                    906 ;data                      Allocated to registers 
                                    907 ;------------------------------------------------------------
                                    908 ;	LCD1602.c:19: void data_LCD(unsigned char data){
                                    909 ;	-----------------------------------------
                                    910 ;	 function data_LCD
                                    911 ;	-----------------------------------------
      00021B                        912 _data_LCD:
                                    913 ;	LCD1602.c:20: send_LCD(data,LCD_DATA);
      00021B 75 0F 01         [24]  914 	mov	_send_LCD_PARM_2,#0x01
                                    915 ;	LCD1602.c:21: }
      00021E 02 02 21         [24]  916 	ljmp	_send_LCD
                                    917 ;------------------------------------------------------------
                                    918 ;Allocation info for local variables in function 'send_LCD'
                                    919 ;------------------------------------------------------------
                                    920 ;mode                      Allocated with name '_send_LCD_PARM_2'
                                    921 ;data                      Allocated to registers r7 
                                    922 ;------------------------------------------------------------
                                    923 ;	LCD1602.c:22: void send_LCD(unsigned char data, unsigned char mode) {
                                    924 ;	-----------------------------------------
                                    925 ;	 function send_LCD
                                    926 ;	-----------------------------------------
      000221                        927 _send_LCD:
      000221 AF 82            [24]  928 	mov	r7,dpl
                                    929 ;	LCD1602.c:23: write_LCD((data&0xF0)|state,mode); //highnib
      000223 8F 05            [24]  930 	mov	ar5,r7
      000225 53 05 F0         [24]  931 	anl	ar5,#0xf0
      000228 7E 00            [12]  932 	mov	r6,#0x00
      00022A AB 0D            [24]  933 	mov	r3,_state
      00022C 7C 00            [12]  934 	mov	r4,#0x00
      00022E EB               [12]  935 	mov	a,r3
      00022F 42 05            [12]  936 	orl	ar5,a
      000231 EC               [12]  937 	mov	a,r4
      000232 42 06            [12]  938 	orl	ar6,a
      000234 8D 82            [24]  939 	mov	dpl,r5
      000236 85 0F 0E         [24]  940 	mov	_write_LCD_PARM_2,_send_LCD_PARM_2
      000239 C0 07            [24]  941 	push	ar7
      00023B 12 01 D9         [24]  942 	lcall	_write_LCD
      00023E D0 07            [24]  943 	pop	ar7
                                    944 ;	LCD1602.c:25: write_LCD((data<<4)|state,mode); //lownib
      000240 EF               [12]  945 	mov	a,r7
      000241 C4               [12]  946 	swap	a
      000242 54 F0            [12]  947 	anl	a,#0xf0
      000244 FF               [12]  948 	mov	r7,a
      000245 E5 0D            [12]  949 	mov	a,_state
      000247 4F               [12]  950 	orl	a,r7
      000248 F5 82            [12]  951 	mov	dpl,a
      00024A 85 0F 0E         [24]  952 	mov	_write_LCD_PARM_2,_send_LCD_PARM_2
                                    953 ;	LCD1602.c:26: }
      00024D 02 01 D9         [24]  954 	ljmp	_write_LCD
                                    955 ;------------------------------------------------------------
                                    956 ;Allocation info for local variables in function 'print_LCD'
                                    957 ;------------------------------------------------------------
                                    958 ;str                       Allocated to registers r5 r6 r7 
                                    959 ;i                         Allocated to registers r4 
                                    960 ;------------------------------------------------------------
                                    961 ;	LCD1602.c:27: void print_LCD(char* str){
                                    962 ;	-----------------------------------------
                                    963 ;	 function print_LCD
                                    964 ;	-----------------------------------------
      000250                        965 _print_LCD:
      000250 AD 82            [24]  966 	mov	r5,dpl
      000252 AE 83            [24]  967 	mov	r6,dph
      000254 AF F0            [24]  968 	mov	r7,b
                                    969 ;	LCD1602.c:28: for(unsigned char i=0;str[i]!=0;i++)
      000256 7C 00            [12]  970 	mov	r4,#0x00
      000258                        971 00103$:
      000258 EC               [12]  972 	mov	a,r4
      000259 2D               [12]  973 	add	a,r5
      00025A F9               [12]  974 	mov	r1,a
      00025B E4               [12]  975 	clr	a
      00025C 3E               [12]  976 	addc	a,r6
      00025D FA               [12]  977 	mov	r2,a
      00025E 8F 03            [24]  978 	mov	ar3,r7
      000260 89 82            [24]  979 	mov	dpl,r1
      000262 8A 83            [24]  980 	mov	dph,r2
      000264 8B F0            [24]  981 	mov	b,r3
      000266 12 09 59         [24]  982 	lcall	__gptrget
      000269 FB               [12]  983 	mov	r3,a
      00026A 60 18            [24]  984 	jz	00105$
                                    985 ;	LCD1602.c:29: data_LCD((unsigned char)str[i]);
      00026C 8B 82            [24]  986 	mov	dpl,r3
      00026E C0 07            [24]  987 	push	ar7
      000270 C0 06            [24]  988 	push	ar6
      000272 C0 05            [24]  989 	push	ar5
      000274 C0 04            [24]  990 	push	ar4
      000276 12 02 1B         [24]  991 	lcall	_data_LCD
      000279 D0 04            [24]  992 	pop	ar4
      00027B D0 05            [24]  993 	pop	ar5
      00027D D0 06            [24]  994 	pop	ar6
      00027F D0 07            [24]  995 	pop	ar7
                                    996 ;	LCD1602.c:28: for(unsigned char i=0;str[i]!=0;i++)
      000281 0C               [12]  997 	inc	r4
      000282 80 D4            [24]  998 	sjmp	00103$
      000284                        999 00105$:
                                   1000 ;	LCD1602.c:30: }
      000284 22               [24] 1001 	ret
                                   1002 ;------------------------------------------------------------
                                   1003 ;Allocation info for local variables in function 'set_cursor_LCD'
                                   1004 ;------------------------------------------------------------
                                   1005 ;row                       Allocated with name '_set_cursor_LCD_PARM_2'
                                   1006 ;col                       Allocated to registers r7 
                                   1007 ;_numlines                 Allocated to registers 
                                   1008 ;row_offsets               Allocated with name '_set_cursor_LCD_row_offsets_65536_57'
                                   1009 ;------------------------------------------------------------
                                   1010 ;	LCD1602.c:31: void set_cursor_LCD(unsigned char col,unsigned char row){
                                   1011 ;	-----------------------------------------
                                   1012 ;	 function set_cursor_LCD
                                   1013 ;	-----------------------------------------
      000285                       1014 _set_cursor_LCD:
      000285 AF 82            [24] 1015 	mov	r7,dpl
                                   1016 ;	LCD1602.c:33: int row_offsets[] = { 0x00, 0x40};
      000287 E4               [12] 1017 	clr	a
      000288 F5 11            [12] 1018 	mov	(_set_cursor_LCD_row_offsets_65536_57 + 0),a
      00028A F5 12            [12] 1019 	mov	(_set_cursor_LCD_row_offsets_65536_57 + 1),a
      00028C 75 13 40         [24] 1020 	mov	((_set_cursor_LCD_row_offsets_65536_57 + 0x0002) + 0),#0x40
                                   1021 ;	1-genFromRTrack replaced	mov	((_set_cursor_LCD_row_offsets_65536_57 + 0x0002) + 1),#0x00
      00028F F5 14            [12] 1022 	mov	((_set_cursor_LCD_row_offsets_65536_57 + 0x0002) + 1),a
                                   1023 ;	LCD1602.c:34: if ( row > _numlines ) {
      000291 E5 10            [12] 1024 	mov	a,_set_cursor_LCD_PARM_2
      000293 24 FD            [12] 1025 	add	a,#0xff - 0x02
      000295 50 03            [24] 1026 	jnc	00102$
                                   1027 ;	LCD1602.c:35: row = _numlines-1;    // we count rows starting w/0
      000297 75 10 01         [24] 1028 	mov	_set_cursor_LCD_PARM_2,#0x01
      00029A                       1029 00102$:
                                   1030 ;	LCD1602.c:37: command_LCD(LCD_SETDDRAMADDR | (col + row_offsets[row]));
      00029A E5 10            [12] 1031 	mov	a,_set_cursor_LCD_PARM_2
      00029C 25 10            [12] 1032 	add	a,_set_cursor_LCD_PARM_2
      00029E 24 11            [12] 1033 	add	a,#_set_cursor_LCD_row_offsets_65536_57
      0002A0 F9               [12] 1034 	mov	r1,a
      0002A1 E7               [12] 1035 	mov	a,@r1
      0002A2 2F               [12] 1036 	add	a,r7
      0002A3 FE               [12] 1037 	mov	r6,a
      0002A4 33               [12] 1038 	rlc	a
      0002A5 95 E0            [12] 1039 	subb	a,acc
      0002A7 43 06 80         [24] 1040 	orl	ar6,#0x80
      0002AA 8E 82            [24] 1041 	mov	dpl,r6
                                   1042 ;	LCD1602.c:38: }
      0002AC 02 02 0C         [24] 1043 	ljmp	_command_LCD
                                   1044 ;------------------------------------------------------------
                                   1045 ;Allocation info for local variables in function 'home_LCD'
                                   1046 ;------------------------------------------------------------
                                   1047 ;	LCD1602.c:39: void home_LCD(){
                                   1048 ;	-----------------------------------------
                                   1049 ;	 function home_LCD
                                   1050 ;	-----------------------------------------
      0002AF                       1051 _home_LCD:
                                   1052 ;	LCD1602.c:40: command_LCD(LCD_RETURNHOME);
      0002AF 75 82 02         [24] 1053 	mov	dpl,#0x02
      0002B2 12 02 0C         [24] 1054 	lcall	_command_LCD
                                   1055 ;	LCD1602.c:41: delay(2);
      0002B5 90 00 02         [24] 1056 	mov	dptr,#(0x02&0x00ff)
      0002B8 E4               [12] 1057 	clr	a
      0002B9 F5 F0            [12] 1058 	mov	b,a
                                   1059 ;	LCD1602.c:42: }
      0002BB 02 02 FA         [24] 1060 	ljmp	_delay
                                   1061 ;------------------------------------------------------------
                                   1062 ;Allocation info for local variables in function 'clear_LCD'
                                   1063 ;------------------------------------------------------------
                                   1064 ;	LCD1602.c:43: void clear_LCD(){
                                   1065 ;	-----------------------------------------
                                   1066 ;	 function clear_LCD
                                   1067 ;	-----------------------------------------
      0002BE                       1068 _clear_LCD:
                                   1069 ;	LCD1602.c:44: command_LCD(LCD_CLEARDISPLAY);
      0002BE 75 82 01         [24] 1070 	mov	dpl,#0x01
      0002C1 12 02 0C         [24] 1071 	lcall	_command_LCD
                                   1072 ;	LCD1602.c:45: delay(2);
      0002C4 90 00 02         [24] 1073 	mov	dptr,#(0x02&0x00ff)
      0002C7 E4               [12] 1074 	clr	a
      0002C8 F5 F0            [12] 1075 	mov	b,a
                                   1076 ;	LCD1602.c:46: }
      0002CA 02 02 FA         [24] 1077 	ljmp	_delay
                                   1078 ;------------------------------------------------------------
                                   1079 ;Allocation info for local variables in function 'init_LCD'
                                   1080 ;------------------------------------------------------------
                                   1081 ;_addr                     Allocated to registers 
                                   1082 ;------------------------------------------------------------
                                   1083 ;	LCD1602.c:47: void init_LCD(unsigned char _addr){
                                   1084 ;	-----------------------------------------
                                   1085 ;	 function init_LCD
                                   1086 ;	-----------------------------------------
      0002CD                       1087 _init_LCD:
      0002CD 85 82 0C         [24] 1088 	mov	_addr,dpl
                                   1089 ;	LCD1602.c:49: state = LCD_BACKLIGHT;
      0002D0 75 0D 08         [24] 1090 	mov	_state,#0x08
                                   1091 ;	LCD1602.c:50: delay(50); //need at least 40ms after power rises above 2.7V
      0002D3 90 00 32         [24] 1092 	mov	dptr,#(0x32&0x00ff)
      0002D6 E4               [12] 1093 	clr	a
      0002D7 F5 F0            [12] 1094 	mov	b,a
      0002D9 12 02 FA         [24] 1095 	lcall	_delay
                                   1096 ;	LCD1602.c:51: command_LCD(LCD_FUNCTIONSET | LCD_2LINE | LCD_5x8DOTS); //LCD type settings
      0002DC 75 82 28         [24] 1097 	mov	dpl,#0x28
      0002DF 12 02 0C         [24] 1098 	lcall	_command_LCD
                                   1099 ;	LCD1602.c:52: command_LCD(0x03);// we start in 8bit mode, try to set 4 bit mode
      0002E2 75 82 03         [24] 1100 	mov	dpl,#0x03
      0002E5 12 02 0C         [24] 1101 	lcall	_command_LCD
                                   1102 ;	LCD1602.c:53: command_LCD(0x02);// finally, set to 4-bit interface
      0002E8 75 82 02         [24] 1103 	mov	dpl,#0x02
      0002EB 12 02 0C         [24] 1104 	lcall	_command_LCD
                                   1105 ;	LCD1602.c:55: command_LCD(LCD_DISPLAYCONTROL | LCD_DISPLAYON | LCD_CURSOROFF | LCD_BLINKOFF); //set cursor
      0002EE 75 82 0C         [24] 1106 	mov	dpl,#0x0c
      0002F1 12 02 0C         [24] 1107 	lcall	_command_LCD
                                   1108 ;	LCD1602.c:56: command_LCD(LCD_ENTRYMODESET | LCD_ENTRYLEFT | LCD_ENTRYSHIFTDECREMENT);  //entry mode shifting, increment address
      0002F4 75 82 06         [24] 1109 	mov	dpl,#0x06
                                   1110 ;	LCD1602.c:57: }
      0002F7 02 02 0C         [24] 1111 	ljmp	_command_LCD
                                   1112 ;------------------------------------------------------------
                                   1113 ;Allocation info for local variables in function 'delay'
                                   1114 ;------------------------------------------------------------
                                   1115 ;millis                    Allocated with name '_delay_millis_65536_63'
                                   1116 ;i                         Allocated to registers r2 r3 
                                   1117 ;j                         Allocated to registers r0 r1 
                                   1118 ;------------------------------------------------------------
                                   1119 ;	utils8051.c:2: void delay(unsigned long int millis)
                                   1120 ;	-----------------------------------------
                                   1121 ;	 function delay
                                   1122 ;	-----------------------------------------
      0002FA                       1123 _delay:
                                   1124 ;	utils8051.c:5: millis *= 0.998f;
      0002FA 12 08 39         [24] 1125 	lcall	___ulong2fs
      0002FD AC 82            [24] 1126 	mov	r4,dpl
      0002FF AD 83            [24] 1127 	mov	r5,dph
      000301 AE F0            [24] 1128 	mov	r6,b
      000303 FF               [12] 1129 	mov	r7,a
      000304 C0 04            [24] 1130 	push	ar4
      000306 C0 05            [24] 1131 	push	ar5
      000308 C0 06            [24] 1132 	push	ar6
      00030A C0 07            [24] 1133 	push	ar7
      00030C 90 7C EE         [24] 1134 	mov	dptr,#0x7cee
      00030F 75 F0 7F         [24] 1135 	mov	b,#0x7f
      000312 74 3F            [12] 1136 	mov	a,#0x3f
      000314 12 07 35         [24] 1137 	lcall	___fsmul
      000317 AC 82            [24] 1138 	mov	r4,dpl
      000319 AD 83            [24] 1139 	mov	r5,dph
      00031B AE F0            [24] 1140 	mov	r6,b
      00031D FF               [12] 1141 	mov	r7,a
      00031E E5 81            [12] 1142 	mov	a,sp
      000320 24 FC            [12] 1143 	add	a,#0xfc
      000322 F5 81            [12] 1144 	mov	sp,a
      000324 8C 82            [24] 1145 	mov	dpl,r4
      000326 8D 83            [24] 1146 	mov	dph,r5
      000328 8E F0            [24] 1147 	mov	b,r6
      00032A EF               [12] 1148 	mov	a,r7
      00032B 12 08 4C         [24] 1149 	lcall	___fs2ulong
      00032E 85 82 15         [24] 1150 	mov	_delay_millis_65536_63,dpl
      000331 85 83 16         [24] 1151 	mov	(_delay_millis_65536_63 + 1),dph
      000334 85 F0 17         [24] 1152 	mov	(_delay_millis_65536_63 + 2),b
      000337 F5 18            [12] 1153 	mov	(_delay_millis_65536_63 + 3),a
                                   1154 ;	utils8051.c:6: for (int i = 0; i < 44; i++)
      000339 7A 00            [12] 1155 	mov	r2,#0x00
      00033B 7B 00            [12] 1156 	mov	r3,#0x00
      00033D                       1157 00107$:
      00033D C3               [12] 1158 	clr	c
      00033E EA               [12] 1159 	mov	a,r2
      00033F 94 2C            [12] 1160 	subb	a,#0x2c
      000341 EB               [12] 1161 	mov	a,r3
      000342 64 80            [12] 1162 	xrl	a,#0x80
      000344 94 80            [12] 1163 	subb	a,#0x80
      000346 50 2B            [24] 1164 	jnc	00102$
                                   1165 ;	utils8051.c:8: for (unsigned int j = 0; j < millis; j++)
      000348 78 00            [12] 1166 	mov	r0,#0x00
      00034A 79 00            [12] 1167 	mov	r1,#0x00
      00034C                       1168 00104$:
      00034C 88 04            [24] 1169 	mov	ar4,r0
      00034E 89 05            [24] 1170 	mov	ar5,r1
      000350 7E 00            [12] 1171 	mov	r6,#0x00
      000352 7F 00            [12] 1172 	mov	r7,#0x00
      000354 C3               [12] 1173 	clr	c
      000355 EC               [12] 1174 	mov	a,r4
      000356 95 15            [12] 1175 	subb	a,_delay_millis_65536_63
      000358 ED               [12] 1176 	mov	a,r5
      000359 95 16            [12] 1177 	subb	a,(_delay_millis_65536_63 + 1)
      00035B EE               [12] 1178 	mov	a,r6
      00035C 95 17            [12] 1179 	subb	a,(_delay_millis_65536_63 + 2)
      00035E EF               [12] 1180 	mov	a,r7
      00035F 95 18            [12] 1181 	subb	a,(_delay_millis_65536_63 + 3)
      000361 50 09            [24] 1182 	jnc	00108$
                                   1183 ;	utils8051.c:10: P1_0 = !P1_0;
      000363 B2 90            [12] 1184 	cpl	_P1_0
                                   1185 ;	utils8051.c:8: for (unsigned int j = 0; j < millis; j++)
      000365 08               [12] 1186 	inc	r0
      000366 B8 00 E3         [24] 1187 	cjne	r0,#0x00,00104$
      000369 09               [12] 1188 	inc	r1
      00036A 80 E0            [24] 1189 	sjmp	00104$
      00036C                       1190 00108$:
                                   1191 ;	utils8051.c:6: for (int i = 0; i < 44; i++)
      00036C 0A               [12] 1192 	inc	r2
      00036D BA 00 CD         [24] 1193 	cjne	r2,#0x00,00107$
      000370 0B               [12] 1194 	inc	r3
      000371 80 CA            [24] 1195 	sjmp	00107$
      000373                       1196 00102$:
                                   1197 ;	utils8051.c:13: P1_0 = 1;
                                   1198 ;	assignBit
      000373 D2 90            [12] 1199 	setb	_P1_0
                                   1200 ;	utils8051.c:14: }
      000375 22               [24] 1201 	ret
                                   1202 ;------------------------------------------------------------
                                   1203 ;Allocation info for local variables in function 'itoa'
                                   1204 ;------------------------------------------------------------
                                   1205 ;i                         Allocated with name '_itoa_PARM_2'
                                   1206 ;out                       Allocated with name '_itoa_out_65536_69'
                                   1207 ;------------------------------------------------------------
                                   1208 ;	utils8051.c:15: void itoa(char* out, unsigned char i){
                                   1209 ;	-----------------------------------------
                                   1210 ;	 function itoa
                                   1211 ;	-----------------------------------------
      000376                       1212 _itoa:
      000376 85 82 1A         [24] 1213 	mov	_itoa_out_65536_69,dpl
      000379 85 83 1B         [24] 1214 	mov	(_itoa_out_65536_69 + 1),dph
      00037C 85 F0 1C         [24] 1215 	mov	(_itoa_out_65536_69 + 2),b
                                   1216 ;	utils8051.c:16: out[3]=0; //end of string
      00037F 74 03            [12] 1217 	mov	a,#0x03
      000381 25 1A            [12] 1218 	add	a,_itoa_out_65536_69
      000383 FA               [12] 1219 	mov	r2,a
      000384 E4               [12] 1220 	clr	a
      000385 35 1B            [12] 1221 	addc	a,(_itoa_out_65536_69 + 1)
      000387 FB               [12] 1222 	mov	r3,a
      000388 AC 1C            [24] 1223 	mov	r4,(_itoa_out_65536_69 + 2)
      00038A 8A 82            [24] 1224 	mov	dpl,r2
      00038C 8B 83            [24] 1225 	mov	dph,r3
      00038E 8C F0            [24] 1226 	mov	b,r4
      000390 E4               [12] 1227 	clr	a
      000391 12 08 85         [24] 1228 	lcall	__gptrput
                                   1229 ;	utils8051.c:17: out[2]=i%10+48;
      000394 74 02            [12] 1230 	mov	a,#0x02
      000396 25 1A            [12] 1231 	add	a,_itoa_out_65536_69
      000398 FA               [12] 1232 	mov	r2,a
      000399 E4               [12] 1233 	clr	a
      00039A 35 1B            [12] 1234 	addc	a,(_itoa_out_65536_69 + 1)
      00039C FB               [12] 1235 	mov	r3,a
      00039D AC 1C            [24] 1236 	mov	r4,(_itoa_out_65536_69 + 2)
      00039F A8 19            [24] 1237 	mov	r0,_itoa_PARM_2
      0003A1 79 00            [12] 1238 	mov	r1,#0x00
      0003A3 75 34 0A         [24] 1239 	mov	__modsint_PARM_2,#0x0a
                                   1240 ;	1-genFromRTrack replaced	mov	(__modsint_PARM_2 + 1),#0x00
      0003A6 89 35            [24] 1241 	mov	(__modsint_PARM_2 + 1),r1
      0003A8 88 82            [24] 1242 	mov	dpl,r0
      0003AA 89 83            [24] 1243 	mov	dph,r1
      0003AC C0 04            [24] 1244 	push	ar4
      0003AE C0 03            [24] 1245 	push	ar3
      0003B0 C0 02            [24] 1246 	push	ar2
      0003B2 C0 01            [24] 1247 	push	ar1
      0003B4 C0 00            [24] 1248 	push	ar0
      0003B6 12 09 75         [24] 1249 	lcall	__modsint
      0003B9 AE 82            [24] 1250 	mov	r6,dpl
      0003BB D0 00            [24] 1251 	pop	ar0
      0003BD D0 01            [24] 1252 	pop	ar1
      0003BF D0 02            [24] 1253 	pop	ar2
      0003C1 D0 03            [24] 1254 	pop	ar3
      0003C3 D0 04            [24] 1255 	pop	ar4
      0003C5 74 30            [12] 1256 	mov	a,#0x30
      0003C7 2E               [12] 1257 	add	a,r6
      0003C8 8A 82            [24] 1258 	mov	dpl,r2
      0003CA 8B 83            [24] 1259 	mov	dph,r3
      0003CC 8C F0            [24] 1260 	mov	b,r4
      0003CE 12 08 85         [24] 1261 	lcall	__gptrput
                                   1262 ;	utils8051.c:18: out[1]=(i/10)%10+48;
      0003D1 74 01            [12] 1263 	mov	a,#0x01
      0003D3 25 1A            [12] 1264 	add	a,_itoa_out_65536_69
      0003D5 FD               [12] 1265 	mov	r5,a
      0003D6 E4               [12] 1266 	clr	a
      0003D7 35 1B            [12] 1267 	addc	a,(_itoa_out_65536_69 + 1)
      0003D9 FE               [12] 1268 	mov	r6,a
      0003DA AF 1C            [24] 1269 	mov	r7,(_itoa_out_65536_69 + 2)
      0003DC 75 34 0A         [24] 1270 	mov	__divsint_PARM_2,#0x0a
      0003DF 75 35 00         [24] 1271 	mov	(__divsint_PARM_2 + 1),#0x00
      0003E2 88 82            [24] 1272 	mov	dpl,r0
      0003E4 89 83            [24] 1273 	mov	dph,r1
      0003E6 C0 07            [24] 1274 	push	ar7
      0003E8 C0 06            [24] 1275 	push	ar6
      0003EA C0 05            [24] 1276 	push	ar5
      0003EC C0 01            [24] 1277 	push	ar1
      0003EE C0 00            [24] 1278 	push	ar0
      0003F0 12 09 AB         [24] 1279 	lcall	__divsint
      0003F3 75 34 0A         [24] 1280 	mov	__modsint_PARM_2,#0x0a
      0003F6 75 35 00         [24] 1281 	mov	(__modsint_PARM_2 + 1),#0x00
      0003F9 12 09 75         [24] 1282 	lcall	__modsint
      0003FC AB 82            [24] 1283 	mov	r3,dpl
      0003FE D0 00            [24] 1284 	pop	ar0
      000400 D0 01            [24] 1285 	pop	ar1
      000402 D0 05            [24] 1286 	pop	ar5
      000404 D0 06            [24] 1287 	pop	ar6
      000406 D0 07            [24] 1288 	pop	ar7
      000408 74 30            [12] 1289 	mov	a,#0x30
      00040A 2B               [12] 1290 	add	a,r3
      00040B 8D 82            [24] 1291 	mov	dpl,r5
      00040D 8E 83            [24] 1292 	mov	dph,r6
      00040F 8F F0            [24] 1293 	mov	b,r7
      000411 12 08 85         [24] 1294 	lcall	__gptrput
                                   1295 ;	utils8051.c:19: out[0]=(i/100)%10+48;
      000414 75 34 64         [24] 1296 	mov	__divsint_PARM_2,#0x64
      000417 75 35 00         [24] 1297 	mov	(__divsint_PARM_2 + 1),#0x00
      00041A 88 82            [24] 1298 	mov	dpl,r0
      00041C 89 83            [24] 1299 	mov	dph,r1
      00041E 12 09 AB         [24] 1300 	lcall	__divsint
      000421 75 34 0A         [24] 1301 	mov	__modsint_PARM_2,#0x0a
      000424 75 35 00         [24] 1302 	mov	(__modsint_PARM_2 + 1),#0x00
      000427 12 09 75         [24] 1303 	lcall	__modsint
      00042A AE 82            [24] 1304 	mov	r6,dpl
      00042C 74 30            [12] 1305 	mov	a,#0x30
      00042E 2E               [12] 1306 	add	a,r6
      00042F 85 1A 82         [24] 1307 	mov	dpl,_itoa_out_65536_69
      000432 85 1B 83         [24] 1308 	mov	dph,(_itoa_out_65536_69 + 1)
      000435 85 1C F0         [24] 1309 	mov	b,(_itoa_out_65536_69 + 2)
                                   1310 ;	utils8051.c:20: }
      000438 02 08 85         [24] 1311 	ljmp	__gptrput
                                   1312 ;------------------------------------------------------------
                                   1313 ;Allocation info for local variables in function 'printLCD'
                                   1314 ;------------------------------------------------------------
                                   1315 ;base                      Allocated with name '_printLCD_PARM_2'
                                   1316 ;i                         Allocated with name '_printLCD_i_65536_71'
                                   1317 ;------------------------------------------------------------
                                   1318 ;	stcboot.c:28: void printLCD(unsigned int i,unsigned char base){
                                   1319 ;	-----------------------------------------
                                   1320 ;	 function printLCD
                                   1321 ;	-----------------------------------------
      00043B                       1322 _printLCD:
      00043B 85 82 24         [24] 1323 	mov	_printLCD_i_65536_71,dpl
      00043E 85 83 25         [24] 1324 	mov	(_printLCD_i_65536_71 + 1),dph
                                   1325 ;	stcboot.c:30: P0 = numArray[(i/base*base*base)%base];
      000441 AC 23            [24] 1326 	mov	r4,_printLCD_PARM_2
      000443 7D 00            [12] 1327 	mov	r5,#0x00
      000445 8C 34            [24] 1328 	mov	__divuint_PARM_2,r4
      000447 8D 35            [24] 1329 	mov	(__divuint_PARM_2 + 1),r5
      000449 85 24 82         [24] 1330 	mov	dpl,_printLCD_i_65536_71
      00044C 85 25 83         [24] 1331 	mov	dph,(_printLCD_i_65536_71 + 1)
      00044F C0 05            [24] 1332 	push	ar5
      000451 C0 04            [24] 1333 	push	ar4
      000453 12 07 0C         [24] 1334 	lcall	__divuint
      000456 AA 82            [24] 1335 	mov	r2,dpl
      000458 AB 83            [24] 1336 	mov	r3,dph
      00045A D0 04            [24] 1337 	pop	ar4
      00045C D0 05            [24] 1338 	pop	ar5
      00045E 8C 34            [24] 1339 	mov	__mulint_PARM_2,r4
      000460 8D 35            [24] 1340 	mov	(__mulint_PARM_2 + 1),r5
      000462 8A 82            [24] 1341 	mov	dpl,r2
      000464 8B 83            [24] 1342 	mov	dph,r3
      000466 C0 05            [24] 1343 	push	ar5
      000468 C0 04            [24] 1344 	push	ar4
      00046A C0 03            [24] 1345 	push	ar3
      00046C C0 02            [24] 1346 	push	ar2
      00046E 12 08 A0         [24] 1347 	lcall	__mulint
      000471 A8 82            [24] 1348 	mov	r0,dpl
      000473 A9 83            [24] 1349 	mov	r1,dph
      000475 D0 02            [24] 1350 	pop	ar2
      000477 D0 03            [24] 1351 	pop	ar3
      000479 D0 04            [24] 1352 	pop	ar4
      00047B D0 05            [24] 1353 	pop	ar5
      00047D 8C 34            [24] 1354 	mov	__mulint_PARM_2,r4
      00047F 8D 35            [24] 1355 	mov	(__mulint_PARM_2 + 1),r5
      000481 88 82            [24] 1356 	mov	dpl,r0
      000483 89 83            [24] 1357 	mov	dph,r1
      000485 C0 05            [24] 1358 	push	ar5
      000487 C0 04            [24] 1359 	push	ar4
      000489 C0 03            [24] 1360 	push	ar3
      00048B C0 02            [24] 1361 	push	ar2
      00048D C0 01            [24] 1362 	push	ar1
      00048F C0 00            [24] 1363 	push	ar0
      000491 12 08 A0         [24] 1364 	lcall	__mulint
      000494 D0 00            [24] 1365 	pop	ar0
      000496 D0 01            [24] 1366 	pop	ar1
      000498 D0 02            [24] 1367 	pop	ar2
      00049A D0 03            [24] 1368 	pop	ar3
      00049C D0 04            [24] 1369 	pop	ar4
      00049E D0 05            [24] 1370 	pop	ar5
      0004A0 8C 34            [24] 1371 	mov	__moduint_PARM_2,r4
      0004A2 8D 35            [24] 1372 	mov	(__moduint_PARM_2 + 1),r5
      0004A4 C0 05            [24] 1373 	push	ar5
      0004A6 C0 04            [24] 1374 	push	ar4
      0004A8 C0 03            [24] 1375 	push	ar3
      0004AA C0 02            [24] 1376 	push	ar2
      0004AC C0 01            [24] 1377 	push	ar1
      0004AE C0 00            [24] 1378 	push	ar0
      0004B0 12 08 BD         [24] 1379 	lcall	__moduint
      0004B3 AE 82            [24] 1380 	mov	r6,dpl
      0004B5 AF 83            [24] 1381 	mov	r7,dph
      0004B7 EE               [12] 1382 	mov	a,r6
      0004B8 24 44            [12] 1383 	add	a,#_numArray
      0004BA F5 82            [12] 1384 	mov	dpl,a
      0004BC EF               [12] 1385 	mov	a,r7
      0004BD 34 0A            [12] 1386 	addc	a,#(_numArray >> 8)
      0004BF F5 83            [12] 1387 	mov	dph,a
      0004C1 E4               [12] 1388 	clr	a
      0004C2 93               [24] 1389 	movc	a,@a+dptr
      0004C3 F5 80            [12] 1390 	mov	_P0,a
                                   1391 ;	stcboot.c:31: P2_0 = 0;
                                   1392 ;	assignBit
      0004C5 C2 A0            [12] 1393 	clr	_P2_0
                                   1394 ;	stcboot.c:32: delay(1);
      0004C7 90 00 01         [24] 1395 	mov	dptr,#(0x01&0x00ff)
      0004CA E4               [12] 1396 	clr	a
      0004CB F5 F0            [12] 1397 	mov	b,a
      0004CD 12 02 FA         [24] 1398 	lcall	_delay
      0004D0 D0 00            [24] 1399 	pop	ar0
      0004D2 D0 01            [24] 1400 	pop	ar1
      0004D4 D0 02            [24] 1401 	pop	ar2
      0004D6 D0 03            [24] 1402 	pop	ar3
      0004D8 D0 04            [24] 1403 	pop	ar4
      0004DA D0 05            [24] 1404 	pop	ar5
                                   1405 ;	stcboot.c:33: P2_0 = 1;
                                   1406 ;	assignBit
      0004DC D2 A0            [12] 1407 	setb	_P2_0
                                   1408 ;	stcboot.c:35: P0 = numArray[(i/base*base)%base];
      0004DE 8C 34            [24] 1409 	mov	__moduint_PARM_2,r4
      0004E0 8D 35            [24] 1410 	mov	(__moduint_PARM_2 + 1),r5
      0004E2 88 82            [24] 1411 	mov	dpl,r0
      0004E4 89 83            [24] 1412 	mov	dph,r1
      0004E6 C0 05            [24] 1413 	push	ar5
      0004E8 C0 04            [24] 1414 	push	ar4
      0004EA C0 03            [24] 1415 	push	ar3
      0004EC C0 02            [24] 1416 	push	ar2
      0004EE 12 08 BD         [24] 1417 	lcall	__moduint
      0004F1 AE 82            [24] 1418 	mov	r6,dpl
      0004F3 AF 83            [24] 1419 	mov	r7,dph
      0004F5 EE               [12] 1420 	mov	a,r6
      0004F6 24 44            [12] 1421 	add	a,#_numArray
      0004F8 F5 82            [12] 1422 	mov	dpl,a
      0004FA EF               [12] 1423 	mov	a,r7
      0004FB 34 0A            [12] 1424 	addc	a,#(_numArray >> 8)
      0004FD F5 83            [12] 1425 	mov	dph,a
      0004FF E4               [12] 1426 	clr	a
      000500 93               [24] 1427 	movc	a,@a+dptr
      000501 F5 80            [12] 1428 	mov	_P0,a
                                   1429 ;	stcboot.c:36: P2_1 = 0;
                                   1430 ;	assignBit
      000503 C2 A1            [12] 1431 	clr	_P2_1
                                   1432 ;	stcboot.c:37: delay(1);
      000505 90 00 01         [24] 1433 	mov	dptr,#(0x01&0x00ff)
      000508 E4               [12] 1434 	clr	a
      000509 F5 F0            [12] 1435 	mov	b,a
      00050B 12 02 FA         [24] 1436 	lcall	_delay
      00050E D0 02            [24] 1437 	pop	ar2
      000510 D0 03            [24] 1438 	pop	ar3
      000512 D0 04            [24] 1439 	pop	ar4
      000514 D0 05            [24] 1440 	pop	ar5
                                   1441 ;	stcboot.c:38: P2_1 = 1;
                                   1442 ;	assignBit
      000516 D2 A1            [12] 1443 	setb	_P2_1
                                   1444 ;	stcboot.c:40: P0 = numArray[(i/base)%base];
      000518 8C 34            [24] 1445 	mov	__moduint_PARM_2,r4
      00051A 8D 35            [24] 1446 	mov	(__moduint_PARM_2 + 1),r5
      00051C 8A 82            [24] 1447 	mov	dpl,r2
      00051E 8B 83            [24] 1448 	mov	dph,r3
      000520 C0 05            [24] 1449 	push	ar5
      000522 C0 04            [24] 1450 	push	ar4
      000524 12 08 BD         [24] 1451 	lcall	__moduint
      000527 AE 82            [24] 1452 	mov	r6,dpl
      000529 AF 83            [24] 1453 	mov	r7,dph
      00052B EE               [12] 1454 	mov	a,r6
      00052C 24 44            [12] 1455 	add	a,#_numArray
      00052E F5 82            [12] 1456 	mov	dpl,a
      000530 EF               [12] 1457 	mov	a,r7
      000531 34 0A            [12] 1458 	addc	a,#(_numArray >> 8)
      000533 F5 83            [12] 1459 	mov	dph,a
      000535 E4               [12] 1460 	clr	a
      000536 93               [24] 1461 	movc	a,@a+dptr
      000537 F5 80            [12] 1462 	mov	_P0,a
                                   1463 ;	stcboot.c:41: P2_2 = 0;
                                   1464 ;	assignBit
      000539 C2 A2            [12] 1465 	clr	_P2_2
                                   1466 ;	stcboot.c:42: delay(1);
      00053B 90 00 01         [24] 1467 	mov	dptr,#(0x01&0x00ff)
      00053E E4               [12] 1468 	clr	a
      00053F F5 F0            [12] 1469 	mov	b,a
      000541 12 02 FA         [24] 1470 	lcall	_delay
      000544 D0 04            [24] 1471 	pop	ar4
      000546 D0 05            [24] 1472 	pop	ar5
                                   1473 ;	stcboot.c:43: P2_2 = 1;
                                   1474 ;	assignBit
      000548 D2 A2            [12] 1475 	setb	_P2_2
                                   1476 ;	stcboot.c:45: P0 = numArray[i%base];
      00054A 8C 34            [24] 1477 	mov	__moduint_PARM_2,r4
      00054C 8D 35            [24] 1478 	mov	(__moduint_PARM_2 + 1),r5
      00054E 85 24 82         [24] 1479 	mov	dpl,_printLCD_i_65536_71
      000551 85 25 83         [24] 1480 	mov	dph,(_printLCD_i_65536_71 + 1)
      000554 12 08 BD         [24] 1481 	lcall	__moduint
      000557 AE 82            [24] 1482 	mov	r6,dpl
      000559 AF 83            [24] 1483 	mov	r7,dph
      00055B EE               [12] 1484 	mov	a,r6
      00055C 24 44            [12] 1485 	add	a,#_numArray
      00055E F5 82            [12] 1486 	mov	dpl,a
      000560 EF               [12] 1487 	mov	a,r7
      000561 34 0A            [12] 1488 	addc	a,#(_numArray >> 8)
      000563 F5 83            [12] 1489 	mov	dph,a
      000565 E4               [12] 1490 	clr	a
      000566 93               [24] 1491 	movc	a,@a+dptr
      000567 F5 80            [12] 1492 	mov	_P0,a
                                   1493 ;	stcboot.c:46: P2_3 = 0;
                                   1494 ;	assignBit
      000569 C2 A3            [12] 1495 	clr	_P2_3
                                   1496 ;	stcboot.c:47: delay(1);
      00056B 90 00 01         [24] 1497 	mov	dptr,#(0x01&0x00ff)
      00056E E4               [12] 1498 	clr	a
      00056F F5 F0            [12] 1499 	mov	b,a
      000571 12 02 FA         [24] 1500 	lcall	_delay
                                   1501 ;	stcboot.c:48: P2_3 = 1;
                                   1502 ;	assignBit
      000574 D2 A3            [12] 1503 	setb	_P2_3
                                   1504 ;	stcboot.c:50: }
      000576 22               [24] 1505 	ret
                                   1506 ;------------------------------------------------------------
                                   1507 ;Allocation info for local variables in function 'strobeLCD'
                                   1508 ;------------------------------------------------------------
                                   1509 ;str                       Allocated to registers r5 r6 r7 
                                   1510 ;i                         Allocated with name '_strobeLCD_i_131072_75'
                                   1511 ;sloc0                     Allocated with name '_strobeLCD_sloc0_1_0'
                                   1512 ;sloc1                     Allocated with name '_strobeLCD_sloc1_1_0'
                                   1513 ;------------------------------------------------------------
                                   1514 ;	stcboot.c:51: void strobeLCD(unsigned char * str){
                                   1515 ;	-----------------------------------------
                                   1516 ;	 function strobeLCD
                                   1517 ;	-----------------------------------------
      000577                       1518 _strobeLCD:
      000577 AD 82            [24] 1519 	mov	r5,dpl
      000579 AE 83            [24] 1520 	mov	r6,dph
      00057B AF F0            [24] 1521 	mov	r7,b
                                   1522 ;	stcboot.c:52: for(int i=0;i<10;i++){
      00057D 74 01            [12] 1523 	mov	a,#0x01
      00057F 2D               [12] 1524 	add	a,r5
      000580 FA               [12] 1525 	mov	r2,a
      000581 E4               [12] 1526 	clr	a
      000582 3E               [12] 1527 	addc	a,r6
      000583 FB               [12] 1528 	mov	r3,a
      000584 8F 04            [24] 1529 	mov	ar4,r7
      000586 74 02            [12] 1530 	mov	a,#0x02
      000588 2D               [12] 1531 	add	a,r5
      000589 F5 28            [12] 1532 	mov	_strobeLCD_sloc0_1_0,a
      00058B E4               [12] 1533 	clr	a
      00058C 3E               [12] 1534 	addc	a,r6
      00058D F5 29            [12] 1535 	mov	(_strobeLCD_sloc0_1_0 + 1),a
      00058F 8F 2A            [24] 1536 	mov	(_strobeLCD_sloc0_1_0 + 2),r7
      000591 74 03            [12] 1537 	mov	a,#0x03
      000593 2D               [12] 1538 	add	a,r5
      000594 F5 2B            [12] 1539 	mov	_strobeLCD_sloc1_1_0,a
      000596 E4               [12] 1540 	clr	a
      000597 3E               [12] 1541 	addc	a,r6
      000598 F5 2C            [12] 1542 	mov	(_strobeLCD_sloc1_1_0 + 1),a
      00059A 8F 2D            [24] 1543 	mov	(_strobeLCD_sloc1_1_0 + 2),r7
      00059C E4               [12] 1544 	clr	a
      00059D F5 26            [12] 1545 	mov	_strobeLCD_i_131072_75,a
      00059F F5 27            [12] 1546 	mov	(_strobeLCD_i_131072_75 + 1),a
      0005A1                       1547 00103$:
      0005A1 C3               [12] 1548 	clr	c
      0005A2 E5 26            [12] 1549 	mov	a,_strobeLCD_i_131072_75
      0005A4 94 0A            [12] 1550 	subb	a,#0x0a
      0005A6 E5 27            [12] 1551 	mov	a,(_strobeLCD_i_131072_75 + 1)
      0005A8 64 80            [12] 1552 	xrl	a,#0x80
      0005AA 94 80            [12] 1553 	subb	a,#0x80
      0005AC 40 01            [24] 1554 	jc	00116$
      0005AE 22               [24] 1555 	ret
      0005AF                       1556 00116$:
                                   1557 ;	stcboot.c:53: P0 = ~str[0];
      0005AF 8D 82            [24] 1558 	mov	dpl,r5
      0005B1 8E 83            [24] 1559 	mov	dph,r6
      0005B3 8F F0            [24] 1560 	mov	b,r7
      0005B5 12 09 59         [24] 1561 	lcall	__gptrget
      0005B8 F4               [12] 1562 	cpl	a
      0005B9 F5 80            [12] 1563 	mov	_P0,a
                                   1564 ;	stcboot.c:54: P2_0 = 0;
                                   1565 ;	assignBit
      0005BB C2 A0            [12] 1566 	clr	_P2_0
                                   1567 ;	stcboot.c:55: delay(1);
      0005BD 90 00 01         [24] 1568 	mov	dptr,#(0x01&0x00ff)
      0005C0 E4               [12] 1569 	clr	a
      0005C1 F5 F0            [12] 1570 	mov	b,a
      0005C3 C0 07            [24] 1571 	push	ar7
      0005C5 C0 06            [24] 1572 	push	ar6
      0005C7 C0 05            [24] 1573 	push	ar5
      0005C9 C0 04            [24] 1574 	push	ar4
      0005CB C0 03            [24] 1575 	push	ar3
      0005CD C0 02            [24] 1576 	push	ar2
      0005CF 12 02 FA         [24] 1577 	lcall	_delay
      0005D2 D0 02            [24] 1578 	pop	ar2
      0005D4 D0 03            [24] 1579 	pop	ar3
      0005D6 D0 04            [24] 1580 	pop	ar4
                                   1581 ;	stcboot.c:56: P2_0 = 1;
                                   1582 ;	assignBit
      0005D8 D2 A0            [12] 1583 	setb	_P2_0
                                   1584 ;	stcboot.c:58: P0 = ~str[1];
      0005DA 8A 82            [24] 1585 	mov	dpl,r2
      0005DC 8B 83            [24] 1586 	mov	dph,r3
      0005DE 8C F0            [24] 1587 	mov	b,r4
      0005E0 12 09 59         [24] 1588 	lcall	__gptrget
      0005E3 F4               [12] 1589 	cpl	a
      0005E4 F5 80            [12] 1590 	mov	_P0,a
                                   1591 ;	stcboot.c:59: P2_1 = 0;
                                   1592 ;	assignBit
      0005E6 C2 A1            [12] 1593 	clr	_P2_1
                                   1594 ;	stcboot.c:60: delay(1);
      0005E8 90 00 01         [24] 1595 	mov	dptr,#(0x01&0x00ff)
      0005EB E4               [12] 1596 	clr	a
      0005EC F5 F0            [12] 1597 	mov	b,a
      0005EE C0 04            [24] 1598 	push	ar4
      0005F0 C0 03            [24] 1599 	push	ar3
      0005F2 C0 02            [24] 1600 	push	ar2
      0005F4 12 02 FA         [24] 1601 	lcall	_delay
                                   1602 ;	stcboot.c:61: P2_1 = 1;
                                   1603 ;	assignBit
      0005F7 D2 A1            [12] 1604 	setb	_P2_1
                                   1605 ;	stcboot.c:63: P0 = ~str[2];
      0005F9 85 28 82         [24] 1606 	mov	dpl,_strobeLCD_sloc0_1_0
      0005FC 85 29 83         [24] 1607 	mov	dph,(_strobeLCD_sloc0_1_0 + 1)
      0005FF 85 2A F0         [24] 1608 	mov	b,(_strobeLCD_sloc0_1_0 + 2)
      000602 12 09 59         [24] 1609 	lcall	__gptrget
      000605 F4               [12] 1610 	cpl	a
      000606 F5 80            [12] 1611 	mov	_P0,a
                                   1612 ;	stcboot.c:64: P2_2 = 0;
                                   1613 ;	assignBit
      000608 C2 A2            [12] 1614 	clr	_P2_2
                                   1615 ;	stcboot.c:65: delay(1);
      00060A 90 00 01         [24] 1616 	mov	dptr,#(0x01&0x00ff)
      00060D E4               [12] 1617 	clr	a
      00060E F5 F0            [12] 1618 	mov	b,a
      000610 12 02 FA         [24] 1619 	lcall	_delay
                                   1620 ;	stcboot.c:66: P2_2 = 1;
                                   1621 ;	assignBit
      000613 D2 A2            [12] 1622 	setb	_P2_2
                                   1623 ;	stcboot.c:68: P0 = ~str[3];
      000615 85 2B 82         [24] 1624 	mov	dpl,_strobeLCD_sloc1_1_0
      000618 85 2C 83         [24] 1625 	mov	dph,(_strobeLCD_sloc1_1_0 + 1)
      00061B 85 2D F0         [24] 1626 	mov	b,(_strobeLCD_sloc1_1_0 + 2)
      00061E 12 09 59         [24] 1627 	lcall	__gptrget
      000621 F4               [12] 1628 	cpl	a
      000622 F5 80            [12] 1629 	mov	_P0,a
                                   1630 ;	stcboot.c:69: P2_3 = 0;
                                   1631 ;	assignBit
      000624 C2 A3            [12] 1632 	clr	_P2_3
                                   1633 ;	stcboot.c:70: delay(1);
      000626 90 00 01         [24] 1634 	mov	dptr,#(0x01&0x00ff)
      000629 E4               [12] 1635 	clr	a
      00062A F5 F0            [12] 1636 	mov	b,a
      00062C 12 02 FA         [24] 1637 	lcall	_delay
      00062F D0 02            [24] 1638 	pop	ar2
      000631 D0 03            [24] 1639 	pop	ar3
      000633 D0 04            [24] 1640 	pop	ar4
      000635 D0 05            [24] 1641 	pop	ar5
      000637 D0 06            [24] 1642 	pop	ar6
      000639 D0 07            [24] 1643 	pop	ar7
                                   1644 ;	stcboot.c:71: P2_3 = 1;
                                   1645 ;	assignBit
      00063B D2 A3            [12] 1646 	setb	_P2_3
                                   1647 ;	stcboot.c:52: for(int i=0;i<10;i++){
      00063D 05 26            [12] 1648 	inc	_strobeLCD_i_131072_75
      00063F E4               [12] 1649 	clr	a
      000640 B5 26 02         [24] 1650 	cjne	a,_strobeLCD_i_131072_75,00117$
      000643 05 27            [12] 1651 	inc	(_strobeLCD_i_131072_75 + 1)
      000645                       1652 00117$:
                                   1653 ;	stcboot.c:73: }
      000645 02 05 A1         [24] 1654 	ljmp	00103$
                                   1655 ;------------------------------------------------------------
                                   1656 ;Allocation info for local variables in function 'setup'
                                   1657 ;------------------------------------------------------------
                                   1658 ;	stcboot.c:74: void setup(){
                                   1659 ;	-----------------------------------------
                                   1660 ;	 function setup
                                   1661 ;	-----------------------------------------
      000648                       1662 _setup:
                                   1663 ;	stcboot.c:82: init_LCD(0x27);
      000648 75 82 27         [24] 1664 	mov	dpl,#0x27
                                   1665 ;	stcboot.c:88: }
      00064B 02 02 CD         [24] 1666 	ljmp	_init_LCD
                                   1667 ;------------------------------------------------------------
                                   1668 ;Allocation info for local variables in function 'loop'
                                   1669 ;------------------------------------------------------------
                                   1670 ;	stcboot.c:92: void loop(){
                                   1671 ;	-----------------------------------------
                                   1672 ;	 function loop
                                   1673 ;	-----------------------------------------
      00064E                       1674 _loop:
                                   1675 ;	stcboot.c:98: if(P1_7)
                                   1676 ;	stcboot.c:99: P1_7=0;
                                   1677 ;	assignBit
      00064E 10 97 02         [24] 1678 	jbc	_P1_7,00103$
                                   1679 ;	stcboot.c:101: P1_7=1;
                                   1680 ;	assignBit
      000651 D2 97            [12] 1681 	setb	_P1_7
      000653                       1682 00103$:
                                   1683 ;	stcboot.c:103: itoa(a,fr++);
      000653 85 2E 19         [24] 1684 	mov	_itoa_PARM_2,_fr
      000656 05 2E            [12] 1685 	inc	_fr
      000658 90 00 2F         [24] 1686 	mov	dptr,#_a
      00065B 75 F0 40         [24] 1687 	mov	b,#0x40
      00065E 12 03 76         [24] 1688 	lcall	_itoa
                                   1689 ;	stcboot.c:104: print_LCD(a);
      000661 90 00 2F         [24] 1690 	mov	dptr,#_a
      000664 75 F0 40         [24] 1691 	mov	b,#0x40
      000667 12 02 50         [24] 1692 	lcall	_print_LCD
                                   1693 ;	stcboot.c:105: if(fr%32){
      00066A AE 2E            [24] 1694 	mov	r6,_fr
      00066C 7F 00            [12] 1695 	mov	r7,#0x00
      00066E 75 34 20         [24] 1696 	mov	__modsint_PARM_2,#0x20
                                   1697 ;	1-genFromRTrack replaced	mov	(__modsint_PARM_2 + 1),#0x00
      000671 8F 35            [24] 1698 	mov	(__modsint_PARM_2 + 1),r7
      000673 8E 82            [24] 1699 	mov	dpl,r6
      000675 8F 83            [24] 1700 	mov	dph,r7
      000677 12 09 75         [24] 1701 	lcall	__modsint
      00067A AE 82            [24] 1702 	mov	r6,dpl
      00067C AF 83            [24] 1703 	mov	r7,dph
      00067E EE               [12] 1704 	mov	a,r6
      00067F 4F               [12] 1705 	orl	a,r7
      000680 60 15            [24] 1706 	jz	00108$
                                   1707 ;	stcboot.c:106: if(fr%32>=16) 
      000682 C3               [12] 1708 	clr	c
      000683 EE               [12] 1709 	mov	a,r6
      000684 94 10            [12] 1710 	subb	a,#0x10
      000686 EF               [12] 1711 	mov	a,r7
      000687 64 80            [12] 1712 	xrl	a,#0x80
      000689 94 80            [12] 1713 	subb	a,#0x80
      00068B 40 05            [24] 1714 	jc	00105$
                                   1715 ;	stcboot.c:107: line=1;
      00068D 75 33 01         [24] 1716 	mov	_line,#0x01
      000690 80 53            [24] 1717 	sjmp	00109$
      000692                       1718 00105$:
                                   1719 ;	stcboot.c:109: line=0;
      000692 75 33 00         [24] 1720 	mov	_line,#0x00
      000695 80 4E            [24] 1721 	sjmp	00109$
      000697                       1722 00108$:
                                   1723 ;	stcboot.c:112: clear_LCD();
      000697 12 02 BE         [24] 1724 	lcall	_clear_LCD
                                   1725 ;	stcboot.c:113: set_cursor_LCD(0,0);
      00069A 75 10 00         [24] 1726 	mov	_set_cursor_LCD_PARM_2,#0x00
      00069D 75 82 00         [24] 1727 	mov	dpl,#0x00
      0006A0 12 02 85         [24] 1728 	lcall	_set_cursor_LCD
                                   1729 ;	stcboot.c:114: print_LCD(">");
      0006A3 90 0A 54         [24] 1730 	mov	dptr,#___str_0
      0006A6 75 F0 80         [24] 1731 	mov	b,#0x80
      0006A9 12 02 50         [24] 1732 	lcall	_print_LCD
                                   1733 ;	stcboot.c:115: set_cursor_LCD(0,1);
      0006AC 75 10 01         [24] 1734 	mov	_set_cursor_LCD_PARM_2,#0x01
      0006AF 75 82 00         [24] 1735 	mov	dpl,#0x00
      0006B2 12 02 85         [24] 1736 	lcall	_set_cursor_LCD
                                   1737 ;	stcboot.c:116: print_LCD("^");
      0006B5 90 0A 56         [24] 1738 	mov	dptr,#___str_1
      0006B8 75 F0 80         [24] 1739 	mov	b,#0x80
      0006BB 12 02 50         [24] 1740 	lcall	_print_LCD
                                   1741 ;	stcboot.c:117: set_cursor_LCD(15,0);
      0006BE 75 10 00         [24] 1742 	mov	_set_cursor_LCD_PARM_2,#0x00
      0006C1 75 82 0F         [24] 1743 	mov	dpl,#0x0f
      0006C4 12 02 85         [24] 1744 	lcall	_set_cursor_LCD
                                   1745 ;	stcboot.c:118: print_LCD("V");
      0006C7 90 0A 58         [24] 1746 	mov	dptr,#___str_2
      0006CA 75 F0 80         [24] 1747 	mov	b,#0x80
      0006CD 12 02 50         [24] 1748 	lcall	_print_LCD
                                   1749 ;	stcboot.c:119: set_cursor_LCD(15,1);
      0006D0 75 10 01         [24] 1750 	mov	_set_cursor_LCD_PARM_2,#0x01
      0006D3 75 82 0F         [24] 1751 	mov	dpl,#0x0f
      0006D6 12 02 85         [24] 1752 	lcall	_set_cursor_LCD
                                   1753 ;	stcboot.c:120: print_LCD("<");
      0006D9 90 0A 5A         [24] 1754 	mov	dptr,#___str_3
      0006DC 75 F0 80         [24] 1755 	mov	b,#0x80
      0006DF 12 02 50         [24] 1756 	lcall	_print_LCD
                                   1757 ;	stcboot.c:121: home_LCD();
      0006E2 12 02 AF         [24] 1758 	lcall	_home_LCD
      0006E5                       1759 00109$:
                                   1760 ;	stcboot.c:123: set_cursor_LCD(fr%16,line);
      0006E5 AE 2E            [24] 1761 	mov	r6,_fr
      0006E7 7F 00            [12] 1762 	mov	r7,#0x00
      0006E9 75 34 10         [24] 1763 	mov	__modsint_PARM_2,#0x10
                                   1764 ;	1-genFromRTrack replaced	mov	(__modsint_PARM_2 + 1),#0x00
      0006EC 8F 35            [24] 1765 	mov	(__modsint_PARM_2 + 1),r7
      0006EE 8E 82            [24] 1766 	mov	dpl,r6
      0006F0 8F 83            [24] 1767 	mov	dph,r7
      0006F2 12 09 75         [24] 1768 	lcall	__modsint
      0006F5 85 33 10         [24] 1769 	mov	_set_cursor_LCD_PARM_2,_line
      0006F8 12 02 85         [24] 1770 	lcall	_set_cursor_LCD
                                   1771 ;	stcboot.c:124: delay(500);
      0006FB 90 01 F4         [24] 1772 	mov	dptr,#0x01f4
      0006FE E4               [12] 1773 	clr	a
      0006FF F5 F0            [12] 1774 	mov	b,a
                                   1775 ;	stcboot.c:125: }
      000701 02 02 FA         [24] 1776 	ljmp	_delay
                                   1777 ;------------------------------------------------------------
                                   1778 ;Allocation info for local variables in function 'main'
                                   1779 ;------------------------------------------------------------
                                   1780 ;	stcboot.c:126: void main(void){
                                   1781 ;	-----------------------------------------
                                   1782 ;	 function main
                                   1783 ;	-----------------------------------------
      000704                       1784 _main:
                                   1785 ;	stcboot.c:127: setup();
      000704 12 06 48         [24] 1786 	lcall	_setup
                                   1787 ;	stcboot.c:128: while (1) {
      000707                       1788 00102$:
                                   1789 ;	stcboot.c:129: loop();
      000707 12 06 4E         [24] 1790 	lcall	_loop
                                   1791 ;	stcboot.c:131: }
      00070A 80 FB            [24] 1792 	sjmp	00102$
                                   1793 	.area CSEG    (CODE)
                                   1794 	.area CONST   (CODE)
      000A2A                       1795 _alphaArray:
      000A2A 88                    1796 	.db #0x88	; 136
      000A2B 83                    1797 	.db #0x83	; 131
      000A2C C6                    1798 	.db #0xc6	; 198
      000A2D A1                    1799 	.db #0xa1	; 161
      000A2E 86                    1800 	.db #0x86	; 134
      000A2F 8E                    1801 	.db #0x8e	; 142
      000A30 C2                    1802 	.db #0xc2	; 194
      000A31 8B                    1803 	.db #0x8b	; 139
      000A32 CF                    1804 	.db #0xcf	; 207
      000A33 E1                    1805 	.db #0xe1	; 225
      000A34 8A                    1806 	.db #0x8a	; 138
      000A35 C7                    1807 	.db #0xc7	; 199
      000A36 EA                    1808 	.db #0xea	; 234
      000A37 CB                    1809 	.db #0xcb	; 203
      000A38 A3                    1810 	.db #0xa3	; 163
      000A39 8C                    1811 	.db #0x8c	; 140
      000A3A 98                    1812 	.db #0x98	; 152
      000A3B CC                    1813 	.db #0xcc	; 204
      000A3C 92                    1814 	.db #0x92	; 146
      000A3D 87                    1815 	.db #0x87	; 135
      000A3E C1                    1816 	.db #0xc1	; 193
      000A3F C5                    1817 	.db #0xc5	; 197
      000A40 D5                    1818 	.db #0xd5	; 213
      000A41 89                    1819 	.db #0x89	; 137
      000A42 91                    1820 	.db #0x91	; 145
      000A43 B4                    1821 	.db #0xb4	; 180
      000A44                       1822 _numArray:
      000A44 C0                    1823 	.db #0xc0	; 192
      000A45 F9                    1824 	.db #0xf9	; 249
      000A46 A4                    1825 	.db #0xa4	; 164
      000A47 B0                    1826 	.db #0xb0	; 176
      000A48 99                    1827 	.db #0x99	; 153
      000A49 92                    1828 	.db #0x92	; 146
      000A4A 82                    1829 	.db #0x82	; 130
      000A4B F8                    1830 	.db #0xf8	; 248
      000A4C 80                    1831 	.db #0x80	; 128
      000A4D 90                    1832 	.db #0x90	; 144
      000A4E 88                    1833 	.db #0x88	; 136
      000A4F 83                    1834 	.db #0x83	; 131
      000A50 C6                    1835 	.db #0xc6	; 198
      000A51 A1                    1836 	.db #0xa1	; 161
      000A52 86                    1837 	.db #0x86	; 134
      000A53 8E                    1838 	.db #0x8e	; 142
      000A54                       1839 ___str_0:
      000A54 3E                    1840 	.ascii ">"
      000A55 00                    1841 	.db 0x00
      000A56                       1842 ___str_1:
      000A56 5E                    1843 	.ascii "^"
      000A57 00                    1844 	.db 0x00
      000A58                       1845 ___str_2:
      000A58 56                    1846 	.ascii "V"
      000A59 00                    1847 	.db 0x00
      000A5A                       1848 ___str_3:
      000A5A 3C                    1849 	.ascii "<"
      000A5B 00                    1850 	.db 0x00
                                   1851 	.area XINIT   (CODE)
                                   1852 	.area CABS    (ABS,CODE)
