                                      1 ;--------------------------------------------------------
                                      2 ; File Created by SDCC : free open source ANSI-C Compiler
                                      3 ; Version 3.8.0 #10562 (Linux)
                                      4 ;--------------------------------------------------------
                                      5 	.module stcboot
                                      6 	.optsdcc -mmcs51 --model-small
                                      7 	
                                      8 ;--------------------------------------------------------
                                      9 ; Public variables in this module
                                     10 ;--------------------------------------------------------
                                     11 	.globl _getStr_PARM_2
                                     12 	.globl _numArray
                                     13 	.globl _alphaArray
                                     14 	.globl _main
                                     15 	.globl _loop
                                     16 	.globl _setup
                                     17 	.globl _strobeLCD
                                     18 	.globl _printLCD
                                     19 	.globl _write_nibble_LCD_data
                                     20 	.globl _getStr
                                     21 	.globl _getChar
                                     22 	.globl _CY
                                     23 	.globl _AC
                                     24 	.globl _F0
                                     25 	.globl _RS1
                                     26 	.globl _RS0
                                     27 	.globl _OV
                                     28 	.globl _F1
                                     29 	.globl _P
                                     30 	.globl _PS
                                     31 	.globl _PT1
                                     32 	.globl _PX1
                                     33 	.globl _PT0
                                     34 	.globl _PX0
                                     35 	.globl _RD
                                     36 	.globl _WR
                                     37 	.globl _T1
                                     38 	.globl _T0
                                     39 	.globl _INT1
                                     40 	.globl _INT0
                                     41 	.globl _TXD
                                     42 	.globl _RXD
                                     43 	.globl _P3_7
                                     44 	.globl _P3_6
                                     45 	.globl _P3_5
                                     46 	.globl _P3_4
                                     47 	.globl _P3_3
                                     48 	.globl _P3_2
                                     49 	.globl _P3_1
                                     50 	.globl _P3_0
                                     51 	.globl _EA
                                     52 	.globl _ES
                                     53 	.globl _ET1
                                     54 	.globl _EX1
                                     55 	.globl _ET0
                                     56 	.globl _EX0
                                     57 	.globl _P2_7
                                     58 	.globl _P2_6
                                     59 	.globl _P2_5
                                     60 	.globl _P2_4
                                     61 	.globl _P2_3
                                     62 	.globl _P2_2
                                     63 	.globl _P2_1
                                     64 	.globl _P2_0
                                     65 	.globl _SM0
                                     66 	.globl _SM1
                                     67 	.globl _SM2
                                     68 	.globl _REN
                                     69 	.globl _TB8
                                     70 	.globl _RB8
                                     71 	.globl _TI
                                     72 	.globl _RI
                                     73 	.globl _P1_7
                                     74 	.globl _P1_6
                                     75 	.globl _P1_5
                                     76 	.globl _P1_4
                                     77 	.globl _P1_3
                                     78 	.globl _P1_2
                                     79 	.globl _P1_1
                                     80 	.globl _P1_0
                                     81 	.globl _TF1
                                     82 	.globl _TR1
                                     83 	.globl _TF0
                                     84 	.globl _TR0
                                     85 	.globl _IE1
                                     86 	.globl _IT1
                                     87 	.globl _IE0
                                     88 	.globl _IT0
                                     89 	.globl _P0_7
                                     90 	.globl _P0_6
                                     91 	.globl _P0_5
                                     92 	.globl _P0_4
                                     93 	.globl _P0_3
                                     94 	.globl _P0_2
                                     95 	.globl _P0_1
                                     96 	.globl _P0_0
                                     97 	.globl _B
                                     98 	.globl _ACC
                                     99 	.globl _PSW
                                    100 	.globl _IP
                                    101 	.globl _P3
                                    102 	.globl _IE
                                    103 	.globl _P2
                                    104 	.globl _SBUF
                                    105 	.globl _SCON
                                    106 	.globl _P1
                                    107 	.globl _TH1
                                    108 	.globl _TH0
                                    109 	.globl _TL1
                                    110 	.globl _TL0
                                    111 	.globl _TMOD
                                    112 	.globl _TCON
                                    113 	.globl _PCON
                                    114 	.globl _DPH
                                    115 	.globl _DPL
                                    116 	.globl _SP
                                    117 	.globl _P0
                                    118 	.globl _fr
                                    119 	.globl _printLCD_PARM_2
                                    120 	.globl _msg
                                    121 	.globl _frame
                                    122 	.globl _send_LCD_PARM_2
                                    123 	.globl _addr
                                    124 	.globl _i2c_send_PARM_3
                                    125 	.globl _i2c_send_PARM_2
                                    126 	.globl _i2c_begin_PARM_2
                                    127 	.globl _i
                                    128 	.globl _setBit
                                    129 	.globl _setNibble
                                    130 	.globl _setByte
                                    131 	.globl _readBit
                                    132 	.globl _readByte
                                    133 	.globl _i2c_begin
                                    134 	.globl _i2c_write
                                    135 	.globl _i2c_end
                                    136 	.globl _i2c_send
                                    137 	.globl _write_byte_LCD
                                    138 	.globl _write_nibble_LCD_cmd
                                    139 	.globl _send_LCD
                                    140 	.globl _command_LCD
                                    141 	.globl _write_LCD
                                    142 	.globl _print_LCD
                                    143 	.globl _init_LCD
                                    144 	.globl _delay
                                    145 ;--------------------------------------------------------
                                    146 ; special function registers
                                    147 ;--------------------------------------------------------
                                    148 	.area RSEG    (ABS,DATA)
      000000                        149 	.org 0x0000
                           000080   150 _P0	=	0x0080
                           000081   151 _SP	=	0x0081
                           000082   152 _DPL	=	0x0082
                           000083   153 _DPH	=	0x0083
                           000087   154 _PCON	=	0x0087
                           000088   155 _TCON	=	0x0088
                           000089   156 _TMOD	=	0x0089
                           00008A   157 _TL0	=	0x008a
                           00008B   158 _TL1	=	0x008b
                           00008C   159 _TH0	=	0x008c
                           00008D   160 _TH1	=	0x008d
                           000090   161 _P1	=	0x0090
                           000098   162 _SCON	=	0x0098
                           000099   163 _SBUF	=	0x0099
                           0000A0   164 _P2	=	0x00a0
                           0000A8   165 _IE	=	0x00a8
                           0000B0   166 _P3	=	0x00b0
                           0000B8   167 _IP	=	0x00b8
                           0000D0   168 _PSW	=	0x00d0
                           0000E0   169 _ACC	=	0x00e0
                           0000F0   170 _B	=	0x00f0
                                    171 ;--------------------------------------------------------
                                    172 ; special function bits
                                    173 ;--------------------------------------------------------
                                    174 	.area RSEG    (ABS,DATA)
      000000                        175 	.org 0x0000
                           000080   176 _P0_0	=	0x0080
                           000081   177 _P0_1	=	0x0081
                           000082   178 _P0_2	=	0x0082
                           000083   179 _P0_3	=	0x0083
                           000084   180 _P0_4	=	0x0084
                           000085   181 _P0_5	=	0x0085
                           000086   182 _P0_6	=	0x0086
                           000087   183 _P0_7	=	0x0087
                           000088   184 _IT0	=	0x0088
                           000089   185 _IE0	=	0x0089
                           00008A   186 _IT1	=	0x008a
                           00008B   187 _IE1	=	0x008b
                           00008C   188 _TR0	=	0x008c
                           00008D   189 _TF0	=	0x008d
                           00008E   190 _TR1	=	0x008e
                           00008F   191 _TF1	=	0x008f
                           000090   192 _P1_0	=	0x0090
                           000091   193 _P1_1	=	0x0091
                           000092   194 _P1_2	=	0x0092
                           000093   195 _P1_3	=	0x0093
                           000094   196 _P1_4	=	0x0094
                           000095   197 _P1_5	=	0x0095
                           000096   198 _P1_6	=	0x0096
                           000097   199 _P1_7	=	0x0097
                           000098   200 _RI	=	0x0098
                           000099   201 _TI	=	0x0099
                           00009A   202 _RB8	=	0x009a
                           00009B   203 _TB8	=	0x009b
                           00009C   204 _REN	=	0x009c
                           00009D   205 _SM2	=	0x009d
                           00009E   206 _SM1	=	0x009e
                           00009F   207 _SM0	=	0x009f
                           0000A0   208 _P2_0	=	0x00a0
                           0000A1   209 _P2_1	=	0x00a1
                           0000A2   210 _P2_2	=	0x00a2
                           0000A3   211 _P2_3	=	0x00a3
                           0000A4   212 _P2_4	=	0x00a4
                           0000A5   213 _P2_5	=	0x00a5
                           0000A6   214 _P2_6	=	0x00a6
                           0000A7   215 _P2_7	=	0x00a7
                           0000A8   216 _EX0	=	0x00a8
                           0000A9   217 _ET0	=	0x00a9
                           0000AA   218 _EX1	=	0x00aa
                           0000AB   219 _ET1	=	0x00ab
                           0000AC   220 _ES	=	0x00ac
                           0000AF   221 _EA	=	0x00af
                           0000B0   222 _P3_0	=	0x00b0
                           0000B1   223 _P3_1	=	0x00b1
                           0000B2   224 _P3_2	=	0x00b2
                           0000B3   225 _P3_3	=	0x00b3
                           0000B4   226 _P3_4	=	0x00b4
                           0000B5   227 _P3_5	=	0x00b5
                           0000B6   228 _P3_6	=	0x00b6
                           0000B7   229 _P3_7	=	0x00b7
                           0000B0   230 _RXD	=	0x00b0
                           0000B1   231 _TXD	=	0x00b1
                           0000B2   232 _INT0	=	0x00b2
                           0000B3   233 _INT1	=	0x00b3
                           0000B4   234 _T0	=	0x00b4
                           0000B5   235 _T1	=	0x00b5
                           0000B6   236 _WR	=	0x00b6
                           0000B7   237 _RD	=	0x00b7
                           0000B8   238 _PX0	=	0x00b8
                           0000B9   239 _PT0	=	0x00b9
                           0000BA   240 _PX1	=	0x00ba
                           0000BB   241 _PT1	=	0x00bb
                           0000BC   242 _PS	=	0x00bc
                           0000D0   243 _P	=	0x00d0
                           0000D1   244 _F1	=	0x00d1
                           0000D2   245 _OV	=	0x00d2
                           0000D3   246 _RS0	=	0x00d3
                           0000D4   247 _RS1	=	0x00d4
                           0000D5   248 _F0	=	0x00d5
                           0000D6   249 _AC	=	0x00d6
                           0000D7   250 _CY	=	0x00d7
                                    251 ;--------------------------------------------------------
                                    252 ; overlayable register banks
                                    253 ;--------------------------------------------------------
                                    254 	.area REG_BANK_0	(REL,OVR,DATA)
      000000                        255 	.ds 8
                                    256 ;--------------------------------------------------------
                                    257 ; internal ram data
                                    258 ;--------------------------------------------------------
                                    259 	.area DSEG    (DATA)
      000008                        260 _i::
      000008                        261 	.ds 1
      000009                        262 _i2c_begin_PARM_2:
      000009                        263 	.ds 1
      00000A                        264 _i2c_send_PARM_2:
      00000A                        265 	.ds 1
      00000B                        266 _i2c_send_PARM_3:
      00000B                        267 	.ds 1
      00000C                        268 _addr::
      00000C                        269 	.ds 1
      00000D                        270 _send_LCD_PARM_2:
      00000D                        271 	.ds 1
      00000E                        272 _delay_millis_65536_58:
      00000E                        273 	.ds 4
      000012                        274 _frame::
      000012                        275 	.ds 2
      000014                        276 _msg::
      000014                        277 	.ds 4
      000018                        278 _printLCD_PARM_2:
      000018                        279 	.ds 1
      000019                        280 _printLCD_i_65536_64:
      000019                        281 	.ds 2
      00001B                        282 _strobeLCD_i_131072_68:
      00001B                        283 	.ds 2
      00001D                        284 _strobeLCD_sloc0_1_0:
      00001D                        285 	.ds 3
      000020                        286 _strobeLCD_sloc1_1_0:
      000020                        287 	.ds 3
      000023                        288 _fr::
      000023                        289 	.ds 2
                                    290 ;--------------------------------------------------------
                                    291 ; overlayable items in internal ram 
                                    292 ;--------------------------------------------------------
                                    293 	.area	OSEG    (OVR,DATA)
                                    294 	.area	OSEG    (OVR,DATA)
      000025                        295 _getStr_PARM_2:
      000025                        296 	.ds 3
                                    297 	.area	OSEG    (OVR,DATA)
                                    298 	.area	OSEG    (OVR,DATA)
                                    299 ;--------------------------------------------------------
                                    300 ; Stack segment in internal ram 
                                    301 ;--------------------------------------------------------
                                    302 	.area	SSEG
      000028                        303 __start__stack:
      000028                        304 	.ds	1
                                    305 
                                    306 ;--------------------------------------------------------
                                    307 ; indirectly addressable internal ram data
                                    308 ;--------------------------------------------------------
                                    309 	.area ISEG    (DATA)
                                    310 ;--------------------------------------------------------
                                    311 ; absolute internal ram data
                                    312 ;--------------------------------------------------------
                                    313 	.area IABS    (ABS,DATA)
                                    314 	.area IABS    (ABS,DATA)
                                    315 ;--------------------------------------------------------
                                    316 ; bit data
                                    317 ;--------------------------------------------------------
                                    318 	.area BSEG    (BIT)
                                    319 ;--------------------------------------------------------
                                    320 ; paged external ram data
                                    321 ;--------------------------------------------------------
                                    322 	.area PSEG    (PAG,XDATA)
                                    323 ;--------------------------------------------------------
                                    324 ; external ram data
                                    325 ;--------------------------------------------------------
                                    326 	.area XSEG    (XDATA)
                                    327 ;--------------------------------------------------------
                                    328 ; absolute external ram data
                                    329 ;--------------------------------------------------------
                                    330 	.area XABS    (ABS,XDATA)
                                    331 ;--------------------------------------------------------
                                    332 ; external initialized ram data
                                    333 ;--------------------------------------------------------
                                    334 	.area XISEG   (XDATA)
                                    335 	.area HOME    (CODE)
                                    336 	.area GSINIT0 (CODE)
                                    337 	.area GSINIT1 (CODE)
                                    338 	.area GSINIT2 (CODE)
                                    339 	.area GSINIT3 (CODE)
                                    340 	.area GSINIT4 (CODE)
                                    341 	.area GSINIT5 (CODE)
                                    342 	.area GSINIT  (CODE)
                                    343 	.area GSFINAL (CODE)
                                    344 	.area CSEG    (CODE)
                                    345 ;--------------------------------------------------------
                                    346 ; interrupt vector 
                                    347 ;--------------------------------------------------------
                                    348 	.area HOME    (CODE)
      000000                        349 __interrupt_vect:
      000000 02 00 06         [24]  350 	ljmp	__sdcc_gsinit_startup
                                    351 ;--------------------------------------------------------
                                    352 ; global & static initialisations
                                    353 ;--------------------------------------------------------
                                    354 	.area HOME    (CODE)
                                    355 	.area GSINIT  (CODE)
                                    356 	.area GSFINAL (CODE)
                                    357 	.area GSINIT  (CODE)
                                    358 	.globl __sdcc_gsinit_startup
                                    359 	.globl __sdcc_program_startup
                                    360 	.globl __start__stack
                                    361 	.globl __mcs51_genXINIT
                                    362 	.globl __mcs51_genXRAMCLEAR
                                    363 	.globl __mcs51_genRAMCLEAR
                                    364 ;	i2c8051.c:5: unsigned char i=0;
      00005F 75 08 00         [24]  365 	mov	_i,#0x00
                                    366 ;	LCD1602.c:6: unsigned char addr=0;
      000062 75 0C 00         [24]  367 	mov	_addr,#0x00
                                    368 ;	stcboot.c:21: unsigned int frame=0;
      000065 E4               [12]  369 	clr	a
      000066 F5 12            [12]  370 	mov	_frame,a
      000068 F5 13            [12]  371 	mov	(_frame + 1),a
                                    372 ;	stcboot.c:89: unsigned int fr=0;
      00006A F5 23            [12]  373 	mov	_fr,a
      00006C F5 24            [12]  374 	mov	(_fr + 1),a
                                    375 	.area GSFINAL (CODE)
      00006E 02 00 03         [24]  376 	ljmp	__sdcc_program_startup
                                    377 ;--------------------------------------------------------
                                    378 ; Home
                                    379 ;--------------------------------------------------------
                                    380 	.area HOME    (CODE)
                                    381 	.area HOME    (CODE)
      000003                        382 __sdcc_program_startup:
      000003 02 06 80         [24]  383 	ljmp	_main
                                    384 ;	return from main will return to caller
                                    385 ;--------------------------------------------------------
                                    386 ; code
                                    387 ;--------------------------------------------------------
                                    388 	.area CSEG    (CODE)
                                    389 ;------------------------------------------------------------
                                    390 ;Allocation info for local variables in function 'getChar'
                                    391 ;------------------------------------------------------------
                                    392 ;c                         Allocated to registers r7 
                                    393 ;------------------------------------------------------------
                                    394 ;	anodeDisplay.h:84: unsigned char getChar(char c){
                                    395 ;	-----------------------------------------
                                    396 ;	 function getChar
                                    397 ;	-----------------------------------------
      000071                        398 _getChar:
                           000007   399 	ar7 = 0x07
                           000006   400 	ar6 = 0x06
                           000005   401 	ar5 = 0x05
                           000004   402 	ar4 = 0x04
                           000003   403 	ar3 = 0x03
                           000002   404 	ar2 = 0x02
                           000001   405 	ar1 = 0x01
                           000000   406 	ar0 = 0x00
      000071 AF 82            [24]  407 	mov	r7,dpl
                                    408 ;	anodeDisplay.h:85: if(c>=48&&c<=57)
      000073 BF 30 00         [24]  409 	cjne	r7,#0x30,00138$
      000076                        410 00138$:
      000076 40 1E            [24]  411 	jc	00109$
      000078 EF               [12]  412 	mov	a,r7
      000079 24 C6            [12]  413 	add	a,#0xff - 0x39
      00007B 40 19            [24]  414 	jc	00109$
                                    415 ;	anodeDisplay.h:86: return numArray[c-48];
      00007D 8F 06            [24]  416 	mov	ar6,r7
      00007F EE               [12]  417 	mov	a,r6
      000080 24 D0            [12]  418 	add	a,#0xd0
      000082 FE               [12]  419 	mov	r6,a
      000083 33               [12]  420 	rlc	a
      000084 95 E0            [12]  421 	subb	a,acc
      000086 FD               [12]  422 	mov	r5,a
      000087 EE               [12]  423 	mov	a,r6
      000088 24 52            [12]  424 	add	a,#_numArray
      00008A F5 82            [12]  425 	mov	dpl,a
      00008C ED               [12]  426 	mov	a,r5
      00008D 34 09            [12]  427 	addc	a,#(_numArray >> 8)
      00008F F5 83            [12]  428 	mov	dph,a
      000091 E4               [12]  429 	clr	a
      000092 93               [24]  430 	movc	a,@a+dptr
      000093 F5 82            [12]  431 	mov	dpl,a
      000095 22               [24]  432 	ret
      000096                        433 00109$:
                                    434 ;	anodeDisplay.h:87: else if(c>=65&&c<=90)
      000096 BF 41 00         [24]  435 	cjne	r7,#0x41,00141$
      000099                        436 00141$:
      000099 40 1E            [24]  437 	jc	00105$
      00009B EF               [12]  438 	mov	a,r7
      00009C 24 A5            [12]  439 	add	a,#0xff - 0x5a
      00009E 40 19            [24]  440 	jc	00105$
                                    441 ;	anodeDisplay.h:88: return alphaArray[c-65];
      0000A0 8F 06            [24]  442 	mov	ar6,r7
      0000A2 EE               [12]  443 	mov	a,r6
      0000A3 24 BF            [12]  444 	add	a,#0xbf
      0000A5 FE               [12]  445 	mov	r6,a
      0000A6 33               [12]  446 	rlc	a
      0000A7 95 E0            [12]  447 	subb	a,acc
      0000A9 FD               [12]  448 	mov	r5,a
      0000AA EE               [12]  449 	mov	a,r6
      0000AB 24 38            [12]  450 	add	a,#_alphaArray
      0000AD F5 82            [12]  451 	mov	dpl,a
      0000AF ED               [12]  452 	mov	a,r5
      0000B0 34 09            [12]  453 	addc	a,#(_alphaArray >> 8)
      0000B2 F5 83            [12]  454 	mov	dph,a
      0000B4 E4               [12]  455 	clr	a
      0000B5 93               [24]  456 	movc	a,@a+dptr
      0000B6 F5 82            [12]  457 	mov	dpl,a
      0000B8 22               [24]  458 	ret
      0000B9                        459 00105$:
                                    460 ;	anodeDisplay.h:89: else if(c>=97&&c<=122)
      0000B9 BF 61 00         [24]  461 	cjne	r7,#0x61,00144$
      0000BC                        462 00144$:
      0000BC 40 1C            [24]  463 	jc	00110$
      0000BE EF               [12]  464 	mov	a,r7
      0000BF 24 85            [12]  465 	add	a,#0xff - 0x7a
      0000C1 40 17            [24]  466 	jc	00110$
                                    467 ;	anodeDisplay.h:90: return alphaArray[c-97];
      0000C3 EF               [12]  468 	mov	a,r7
      0000C4 24 9F            [12]  469 	add	a,#0x9f
      0000C6 FF               [12]  470 	mov	r7,a
      0000C7 33               [12]  471 	rlc	a
      0000C8 95 E0            [12]  472 	subb	a,acc
      0000CA FE               [12]  473 	mov	r6,a
      0000CB EF               [12]  474 	mov	a,r7
      0000CC 24 38            [12]  475 	add	a,#_alphaArray
      0000CE F5 82            [12]  476 	mov	dpl,a
      0000D0 EE               [12]  477 	mov	a,r6
      0000D1 34 09            [12]  478 	addc	a,#(_alphaArray >> 8)
      0000D3 F5 83            [12]  479 	mov	dph,a
      0000D5 E4               [12]  480 	clr	a
      0000D6 93               [24]  481 	movc	a,@a+dptr
      0000D7 F5 82            [12]  482 	mov	dpl,a
      0000D9 22               [24]  483 	ret
      0000DA                        484 00110$:
                                    485 ;	anodeDisplay.h:91: return 0;
      0000DA 75 82 00         [24]  486 	mov	dpl,#0x00
                                    487 ;	anodeDisplay.h:92: }
      0000DD 22               [24]  488 	ret
                                    489 ;------------------------------------------------------------
                                    490 ;Allocation info for local variables in function 'getStr'
                                    491 ;------------------------------------------------------------
                                    492 ;str                       Allocated with name '_getStr_PARM_2'
                                    493 ;out                       Allocated to registers r5 r6 r7 
                                    494 ;i                         Allocated to registers r4 
                                    495 ;------------------------------------------------------------
                                    496 ;	anodeDisplay.h:93: void getStr(unsigned char* out, const char* str){
                                    497 ;	-----------------------------------------
                                    498 ;	 function getStr
                                    499 ;	-----------------------------------------
      0000DE                        500 _getStr:
      0000DE AD 82            [24]  501 	mov	r5,dpl
      0000E0 AE 83            [24]  502 	mov	r6,dph
      0000E2 AF F0            [24]  503 	mov	r7,b
                                    504 ;	anodeDisplay.h:94: for(unsigned char i=0;str[i]!=0;i++){
      0000E4 7C 00            [12]  505 	mov	r4,#0x00
      0000E6                        506 00103$:
      0000E6 EC               [12]  507 	mov	a,r4
      0000E7 25 25            [12]  508 	add	a,_getStr_PARM_2
      0000E9 F9               [12]  509 	mov	r1,a
      0000EA E4               [12]  510 	clr	a
      0000EB 35 26            [12]  511 	addc	a,(_getStr_PARM_2 + 1)
      0000ED FA               [12]  512 	mov	r2,a
      0000EE AB 27            [24]  513 	mov	r3,(_getStr_PARM_2 + 2)
      0000F0 89 82            [24]  514 	mov	dpl,r1
      0000F2 8A 83            [24]  515 	mov	dph,r2
      0000F4 8B F0            [24]  516 	mov	b,r3
      0000F6 12 08 D5         [24]  517 	lcall	__gptrget
      0000F9 FB               [12]  518 	mov	r3,a
      0000FA 60 15            [24]  519 	jz	00105$
                                    520 ;	anodeDisplay.h:95: out[i]=str[i];
      0000FC EC               [12]  521 	mov	a,r4
      0000FD 2D               [12]  522 	add	a,r5
      0000FE F8               [12]  523 	mov	r0,a
      0000FF E4               [12]  524 	clr	a
      000100 3E               [12]  525 	addc	a,r6
      000101 F9               [12]  526 	mov	r1,a
      000102 8F 02            [24]  527 	mov	ar2,r7
      000104 88 82            [24]  528 	mov	dpl,r0
      000106 89 83            [24]  529 	mov	dph,r1
      000108 8A F0            [24]  530 	mov	b,r2
      00010A EB               [12]  531 	mov	a,r3
      00010B 12 08 01         [24]  532 	lcall	__gptrput
                                    533 ;	anodeDisplay.h:94: for(unsigned char i=0;str[i]!=0;i++){
      00010E 0C               [12]  534 	inc	r4
      00010F 80 D5            [24]  535 	sjmp	00103$
      000111                        536 00105$:
                                    537 ;	anodeDisplay.h:97: }
      000111 22               [24]  538 	ret
                                    539 ;------------------------------------------------------------
                                    540 ;Allocation info for local variables in function 'setBit'
                                    541 ;------------------------------------------------------------
                                    542 ;bit                       Allocated to registers r7 
                                    543 ;------------------------------------------------------------
                                    544 ;	i2c8051.c:6: void setBit(unsigned char bit) {
                                    545 ;	-----------------------------------------
                                    546 ;	 function setBit
                                    547 ;	-----------------------------------------
      000112                        548 _setBit:
                                    549 ;	i2c8051.c:7: SDA=bit; //digitalWrite(SDA, bit);
                                    550 ;	assignBit
      000112 E5 82            [12]  551 	mov	a,dpl
      000114 24 FF            [12]  552 	add	a,#0xff
      000116 92 92            [24]  553 	mov	_P1_2,c
                                    554 ;	i2c8051.c:8: SCL=1; //digitalWrite(SCL, HIGH);
                                    555 ;	assignBit
      000118 D2 91            [12]  556 	setb	_P1_1
                                    557 ;	i2c8051.c:9: SCL=0; //digitalWrite(SCL, LOW);
                                    558 ;	assignBit
      00011A C2 91            [12]  559 	clr	_P1_1
                                    560 ;	i2c8051.c:10: SDA=0; //digitalWrite(SDA, LOW);
                                    561 ;	assignBit
      00011C C2 92            [12]  562 	clr	_P1_2
                                    563 ;	i2c8051.c:11: }
      00011E 22               [24]  564 	ret
                                    565 ;------------------------------------------------------------
                                    566 ;Allocation info for local variables in function 'setNibble'
                                    567 ;------------------------------------------------------------
                                    568 ;nibble                    Allocated to registers r7 
                                    569 ;mask                      Allocated to registers r6 
                                    570 ;------------------------------------------------------------
                                    571 ;	i2c8051.c:12: void setNibble(unsigned char nibble){
                                    572 ;	-----------------------------------------
                                    573 ;	 function setNibble
                                    574 ;	-----------------------------------------
      00011F                        575 _setNibble:
      00011F AF 82            [24]  576 	mov	r7,dpl
                                    577 ;	i2c8051.c:13: unsigned char mask=_BV(3);
      000121 7E 08            [12]  578 	mov	r6,#0x08
                                    579 ;	i2c8051.c:14: while(mask>0){
      000123                        580 00101$:
      000123 EE               [12]  581 	mov	a,r6
      000124 60 15            [24]  582 	jz	00104$
                                    583 ;	i2c8051.c:15: setBit(nibble&mask);
      000126 EE               [12]  584 	mov	a,r6
      000127 5F               [12]  585 	anl	a,r7
      000128 F5 82            [12]  586 	mov	dpl,a
      00012A C0 07            [24]  587 	push	ar7
      00012C C0 06            [24]  588 	push	ar6
      00012E 12 01 12         [24]  589 	lcall	_setBit
      000131 D0 06            [24]  590 	pop	ar6
      000133 D0 07            [24]  591 	pop	ar7
                                    592 ;	i2c8051.c:16: mask>>=1;
      000135 EE               [12]  593 	mov	a,r6
      000136 C3               [12]  594 	clr	c
      000137 13               [12]  595 	rrc	a
      000138 FE               [12]  596 	mov	r6,a
      000139 80 E8            [24]  597 	sjmp	00101$
      00013B                        598 00104$:
                                    599 ;	i2c8051.c:18: }
      00013B 22               [24]  600 	ret
                                    601 ;------------------------------------------------------------
                                    602 ;Allocation info for local variables in function 'setByte'
                                    603 ;------------------------------------------------------------
                                    604 ;bits                      Allocated to registers r7 
                                    605 ;mask                      Allocated to registers r6 
                                    606 ;------------------------------------------------------------
                                    607 ;	i2c8051.c:19: void setByte(unsigned char bits){
                                    608 ;	-----------------------------------------
                                    609 ;	 function setByte
                                    610 ;	-----------------------------------------
      00013C                        611 _setByte:
      00013C AF 82            [24]  612 	mov	r7,dpl
                                    613 ;	i2c8051.c:20: unsigned char mask=_BV(7);
      00013E 7E 80            [12]  614 	mov	r6,#0x80
                                    615 ;	i2c8051.c:21: while(mask>0){
      000140                        616 00101$:
      000140 EE               [12]  617 	mov	a,r6
      000141 60 15            [24]  618 	jz	00104$
                                    619 ;	i2c8051.c:22: setBit(bits&mask);
      000143 EE               [12]  620 	mov	a,r6
      000144 5F               [12]  621 	anl	a,r7
      000145 F5 82            [12]  622 	mov	dpl,a
      000147 C0 07            [24]  623 	push	ar7
      000149 C0 06            [24]  624 	push	ar6
      00014B 12 01 12         [24]  625 	lcall	_setBit
      00014E D0 06            [24]  626 	pop	ar6
      000150 D0 07            [24]  627 	pop	ar7
                                    628 ;	i2c8051.c:23: mask>>=1;
      000152 EE               [12]  629 	mov	a,r6
      000153 C3               [12]  630 	clr	c
      000154 13               [12]  631 	rrc	a
      000155 FE               [12]  632 	mov	r6,a
      000156 80 E8            [24]  633 	sjmp	00101$
      000158                        634 00104$:
                                    635 ;	i2c8051.c:25: }
      000158 22               [24]  636 	ret
                                    637 ;------------------------------------------------------------
                                    638 ;Allocation info for local variables in function 'readBit'
                                    639 ;------------------------------------------------------------
                                    640 ;r                         Allocated to registers 
                                    641 ;------------------------------------------------------------
                                    642 ;	i2c8051.c:26: unsigned char readBit() {
                                    643 ;	-----------------------------------------
                                    644 ;	 function readBit
                                    645 ;	-----------------------------------------
      000159                        646 _readBit:
                                    647 ;	i2c8051.c:27: SCL=1; //digitalWrite(SCL, HIGH);
                                    648 ;	assignBit
      000159 D2 91            [12]  649 	setb	_P1_1
                                    650 ;	i2c8051.c:28: unsigned char r = SDA; //digitalRead(SDA);
      00015B A2 92            [12]  651 	mov	c,_P1_2
      00015D E4               [12]  652 	clr	a
      00015E 33               [12]  653 	rlc	a
      00015F F5 82            [12]  654 	mov	dpl,a
                                    655 ;	i2c8051.c:29: SCL=0; //digitalWrite(SCL, LOW);
                                    656 ;	assignBit
      000161 C2 91            [12]  657 	clr	_P1_1
                                    658 ;	i2c8051.c:30: return r;
                                    659 ;	i2c8051.c:31: }
      000163 22               [24]  660 	ret
                                    661 ;------------------------------------------------------------
                                    662 ;Allocation info for local variables in function 'readByte'
                                    663 ;------------------------------------------------------------
                                    664 ;value                     Allocated to registers r7 
                                    665 ;i                         Allocated to registers r6 
                                    666 ;------------------------------------------------------------
                                    667 ;	i2c8051.c:32: unsigned char readByte(){
                                    668 ;	-----------------------------------------
                                    669 ;	 function readByte
                                    670 ;	-----------------------------------------
      000164                        671 _readByte:
                                    672 ;	i2c8051.c:33: unsigned char value = 0;
      000164 7F 00            [12]  673 	mov	r7,#0x00
                                    674 ;	i2c8051.c:34: for (unsigned char i = 0; i < 8; i++) {
      000166 7E 00            [12]  675 	mov	r6,#0x00
      000168                        676 00103$:
      000168 BE 08 00         [24]  677 	cjne	r6,#0x08,00116$
      00016B                        678 00116$:
      00016B 50 18            [24]  679 	jnc	00101$
                                    680 ;	i2c8051.c:35: value = (value << 1) | readBit();
      00016D 8F 05            [24]  681 	mov	ar5,r7
      00016F ED               [12]  682 	mov	a,r5
      000170 2D               [12]  683 	add	a,r5
      000171 FD               [12]  684 	mov	r5,a
      000172 C0 06            [24]  685 	push	ar6
      000174 C0 05            [24]  686 	push	ar5
      000176 12 01 59         [24]  687 	lcall	_readBit
      000179 AC 82            [24]  688 	mov	r4,dpl
      00017B D0 05            [24]  689 	pop	ar5
      00017D D0 06            [24]  690 	pop	ar6
      00017F EC               [12]  691 	mov	a,r4
      000180 4D               [12]  692 	orl	a,r5
      000181 FF               [12]  693 	mov	r7,a
                                    694 ;	i2c8051.c:34: for (unsigned char i = 0; i < 8; i++) {
      000182 0E               [12]  695 	inc	r6
      000183 80 E3            [24]  696 	sjmp	00103$
      000185                        697 00101$:
                                    698 ;	i2c8051.c:37: return value;
      000185 8F 82            [24]  699 	mov	dpl,r7
                                    700 ;	i2c8051.c:38: }
      000187 22               [24]  701 	ret
                                    702 ;------------------------------------------------------------
                                    703 ;Allocation info for local variables in function 'i2c_begin'
                                    704 ;------------------------------------------------------------
                                    705 ;rw                        Allocated with name '_i2c_begin_PARM_2'
                                    706 ;addr                      Allocated to registers r7 
                                    707 ;------------------------------------------------------------
                                    708 ;	i2c8051.c:39: unsigned char i2c_begin(unsigned char addr,unsigned char rw){
                                    709 ;	-----------------------------------------
                                    710 ;	 function i2c_begin
                                    711 ;	-----------------------------------------
      000188                        712 _i2c_begin:
      000188 AF 82            [24]  713 	mov	r7,dpl
                                    714 ;	i2c8051.c:40: i2c_end(); //also start cond
      00018A C0 07            [24]  715 	push	ar7
      00018C 12 01 AD         [24]  716 	lcall	_i2c_end
      00018F D0 07            [24]  717 	pop	ar7
                                    718 ;	i2c8051.c:41: SDA=0; //digitalWrite(SDA,LOW);
                                    719 ;	assignBit
      000191 C2 92            [12]  720 	clr	_P1_2
                                    721 ;	i2c8051.c:42: SCL=0;//digitalWrite(SCL,LOW);
                                    722 ;	assignBit
      000193 C2 91            [12]  723 	clr	_P1_1
                                    724 ;	i2c8051.c:43: setByte(addr<<1|rw);
      000195 EF               [12]  725 	mov	a,r7
      000196 2F               [12]  726 	add	a,r7
      000197 FF               [12]  727 	mov	r7,a
      000198 E5 09            [12]  728 	mov	a,_i2c_begin_PARM_2
      00019A 4F               [12]  729 	orl	a,r7
      00019B F5 82            [12]  730 	mov	dpl,a
      00019D 12 01 3C         [24]  731 	lcall	_setByte
                                    732 ;	i2c8051.c:44: SDA=0;//pinMode(SDA, INPUT);
                                    733 ;	assignBit
      0001A0 C2 92            [12]  734 	clr	_P1_2
                                    735 ;	i2c8051.c:45: return readBit(); //ACK
                                    736 ;	i2c8051.c:46: }
      0001A2 02 01 59         [24]  737 	ljmp	_readBit
                                    738 ;------------------------------------------------------------
                                    739 ;Allocation info for local variables in function 'i2c_write'
                                    740 ;------------------------------------------------------------
                                    741 ;data                      Allocated to registers 
                                    742 ;------------------------------------------------------------
                                    743 ;	i2c8051.c:47: unsigned char i2c_write(unsigned char data){
                                    744 ;	-----------------------------------------
                                    745 ;	 function i2c_write
                                    746 ;	-----------------------------------------
      0001A5                        747 _i2c_write:
                                    748 ;	i2c8051.c:48: setByte(data); //dataframe
      0001A5 12 01 3C         [24]  749 	lcall	_setByte
                                    750 ;	i2c8051.c:49: SDA=0; //pinMode(SDA, INPUT);
                                    751 ;	assignBit
      0001A8 C2 92            [12]  752 	clr	_P1_2
                                    753 ;	i2c8051.c:50: return readBit(); //ACK
                                    754 ;	i2c8051.c:51: }
      0001AA 02 01 59         [24]  755 	ljmp	_readBit
                                    756 ;------------------------------------------------------------
                                    757 ;Allocation info for local variables in function 'i2c_end'
                                    758 ;------------------------------------------------------------
                                    759 ;	i2c8051.c:52: void i2c_end(){
                                    760 ;	-----------------------------------------
                                    761 ;	 function i2c_end
                                    762 ;	-----------------------------------------
      0001AD                        763 _i2c_end:
                                    764 ;	i2c8051.c:53: SCL=1; //digitalWrite(SCL,HIGH);
                                    765 ;	assignBit
      0001AD D2 91            [12]  766 	setb	_P1_1
                                    767 ;	i2c8051.c:54: SDA=1; //digitalWrite(SDA,HIGH);
                                    768 ;	assignBit
      0001AF D2 92            [12]  769 	setb	_P1_2
                                    770 ;	i2c8051.c:55: }
      0001B1 22               [24]  771 	ret
                                    772 ;------------------------------------------------------------
                                    773 ;Allocation info for local variables in function 'i2c_send'
                                    774 ;------------------------------------------------------------
                                    775 ;rw                        Allocated with name '_i2c_send_PARM_2'
                                    776 ;data                      Allocated with name '_i2c_send_PARM_3'
                                    777 ;addr                      Allocated to registers 
                                    778 ;------------------------------------------------------------
                                    779 ;	i2c8051.c:56: void i2c_send(unsigned char addr,unsigned char rw,unsigned char data){
                                    780 ;	-----------------------------------------
                                    781 ;	 function i2c_send
                                    782 ;	-----------------------------------------
      0001B2                        783 _i2c_send:
                                    784 ;	i2c8051.c:57: i2c_begin(addr,rw);
      0001B2 85 0A 09         [24]  785 	mov	_i2c_begin_PARM_2,_i2c_send_PARM_2
      0001B5 12 01 88         [24]  786 	lcall	_i2c_begin
                                    787 ;	i2c8051.c:58: i2c_write(data);
      0001B8 85 0B 82         [24]  788 	mov	dpl,_i2c_send_PARM_3
      0001BB 12 01 A5         [24]  789 	lcall	_i2c_write
                                    790 ;	i2c8051.c:59: i2c_end();
                                    791 ;	i2c8051.c:60: }
      0001BE 02 01 AD         [24]  792 	ljmp	_i2c_end
                                    793 ;------------------------------------------------------------
                                    794 ;Allocation info for local variables in function 'write_byte_LCD'
                                    795 ;------------------------------------------------------------
                                    796 ;data                      Allocated to registers 
                                    797 ;------------------------------------------------------------
                                    798 ;	LCD1602.c:8: void write_byte_LCD(unsigned char data){
                                    799 ;	-----------------------------------------
                                    800 ;	 function write_byte_LCD
                                    801 ;	-----------------------------------------
      0001C1                        802 _write_byte_LCD:
      0001C1 85 82 0B         [24]  803 	mov	_i2c_send_PARM_3,dpl
                                    804 ;	LCD1602.c:9: i2c_send(addr,WRITE,data);
      0001C4 75 0A 00         [24]  805 	mov	_i2c_send_PARM_2,#0x00
      0001C7 85 0C 82         [24]  806 	mov	dpl,_addr
                                    807 ;	LCD1602.c:10: }
      0001CA 02 01 B2         [24]  808 	ljmp	_i2c_send
                                    809 ;------------------------------------------------------------
                                    810 ;Allocation info for local variables in function 'write_nibble_LCD_data'
                                    811 ;------------------------------------------------------------
                                    812 ;nibble                    Allocated to registers r7 
                                    813 ;------------------------------------------------------------
                                    814 ;	LCD1602.c:11: void write_nibble_LCD_data(unsigned char nibble){
                                    815 ;	-----------------------------------------
                                    816 ;	 function write_nibble_LCD_data
                                    817 ;	-----------------------------------------
      0001CD                        818 _write_nibble_LCD_data:
                                    819 ;	LCD1602.c:12: nibble<<=4;
      0001CD E5 82            [12]  820 	mov	a,dpl
      0001CF C4               [12]  821 	swap	a
      0001D0 54 F0            [12]  822 	anl	a,#0xf0
      0001D2 FF               [12]  823 	mov	r7,a
                                    824 ;	LCD1602.c:13: write_byte_LCD(nibble|0b00001101);
      0001D3 7E 00            [12]  825 	mov	r6,#0x00
      0001D5 74 0D            [12]  826 	mov	a,#0x0d
      0001D7 4F               [12]  827 	orl	a,r7
      0001D8 FC               [12]  828 	mov	r4,a
      0001D9 8E 05            [24]  829 	mov	ar5,r6
      0001DB 8C 82            [24]  830 	mov	dpl,r4
      0001DD C0 07            [24]  831 	push	ar7
      0001DF C0 06            [24]  832 	push	ar6
      0001E1 C0 04            [24]  833 	push	ar4
      0001E3 12 01 C1         [24]  834 	lcall	_write_byte_LCD
                                    835 ;	LCD1602.c:14: delay(5);
      0001E6 90 00 05         [24]  836 	mov	dptr,#(0x05&0x00ff)
      0001E9 E4               [12]  837 	clr	a
      0001EA F5 F0            [12]  838 	mov	b,a
      0001EC 12 03 E3         [24]  839 	lcall	_delay
      0001EF D0 04            [24]  840 	pop	ar4
      0001F1 D0 06            [24]  841 	pop	ar6
      0001F3 D0 07            [24]  842 	pop	ar7
                                    843 ;	LCD1602.c:15: write_byte_LCD(nibble|0b00001001);
      0001F5 43 07 09         [24]  844 	orl	ar7,#0x09
      0001F8 8F 82            [24]  845 	mov	dpl,r7
      0001FA C0 04            [24]  846 	push	ar4
      0001FC 12 01 C1         [24]  847 	lcall	_write_byte_LCD
                                    848 ;	LCD1602.c:16: delay(5); // enable pulse must be >450ns
      0001FF 90 00 05         [24]  849 	mov	dptr,#(0x05&0x00ff)
      000202 E4               [12]  850 	clr	a
      000203 F5 F0            [12]  851 	mov	b,a
      000205 12 03 E3         [24]  852 	lcall	_delay
      000208 D0 04            [24]  853 	pop	ar4
                                    854 ;	LCD1602.c:17: write_byte_LCD(nibble|0b00001101);
      00020A 8C 82            [24]  855 	mov	dpl,r4
      00020C 12 01 C1         [24]  856 	lcall	_write_byte_LCD
                                    857 ;	LCD1602.c:18: delay(5); // commands need > 37us to settle
      00020F 90 00 05         [24]  858 	mov	dptr,#(0x05&0x00ff)
      000212 E4               [12]  859 	clr	a
      000213 F5 F0            [12]  860 	mov	b,a
                                    861 ;	LCD1602.c:19: }
      000215 02 03 E3         [24]  862 	ljmp	_delay
                                    863 ;------------------------------------------------------------
                                    864 ;Allocation info for local variables in function 'write_nibble_LCD_cmd'
                                    865 ;------------------------------------------------------------
                                    866 ;nibble                    Allocated to registers r7 
                                    867 ;------------------------------------------------------------
                                    868 ;	LCD1602.c:20: void write_nibble_LCD_cmd(unsigned char nibble){
                                    869 ;	-----------------------------------------
                                    870 ;	 function write_nibble_LCD_cmd
                                    871 ;	-----------------------------------------
      000218                        872 _write_nibble_LCD_cmd:
                                    873 ;	LCD1602.c:21: nibble<<=4;
      000218 E5 82            [12]  874 	mov	a,dpl
      00021A C4               [12]  875 	swap	a
      00021B 54 F0            [12]  876 	anl	a,#0xf0
      00021D FF               [12]  877 	mov	r7,a
                                    878 ;	LCD1602.c:22: write_byte_LCD(nibble|0b00000100);
      00021E 7E 00            [12]  879 	mov	r6,#0x00
      000220 74 04            [12]  880 	mov	a,#0x04
      000222 4F               [12]  881 	orl	a,r7
      000223 FC               [12]  882 	mov	r4,a
      000224 8E 05            [24]  883 	mov	ar5,r6
      000226 8C 82            [24]  884 	mov	dpl,r4
      000228 C0 07            [24]  885 	push	ar7
      00022A C0 06            [24]  886 	push	ar6
      00022C C0 04            [24]  887 	push	ar4
      00022E 12 01 C1         [24]  888 	lcall	_write_byte_LCD
                                    889 ;	LCD1602.c:23: delay(5);
      000231 90 00 05         [24]  890 	mov	dptr,#(0x05&0x00ff)
      000234 E4               [12]  891 	clr	a
      000235 F5 F0            [12]  892 	mov	b,a
      000237 12 03 E3         [24]  893 	lcall	_delay
      00023A D0 04            [24]  894 	pop	ar4
      00023C D0 06            [24]  895 	pop	ar6
      00023E D0 07            [24]  896 	pop	ar7
                                    897 ;	LCD1602.c:24: write_byte_LCD(nibble|0b00000000);
      000240 8F 82            [24]  898 	mov	dpl,r7
      000242 C0 04            [24]  899 	push	ar4
      000244 12 01 C1         [24]  900 	lcall	_write_byte_LCD
                                    901 ;	LCD1602.c:25: delay(5); // enable pulse must be >450ns
      000247 90 00 05         [24]  902 	mov	dptr,#(0x05&0x00ff)
      00024A E4               [12]  903 	clr	a
      00024B F5 F0            [12]  904 	mov	b,a
      00024D 12 03 E3         [24]  905 	lcall	_delay
      000250 D0 04            [24]  906 	pop	ar4
                                    907 ;	LCD1602.c:26: write_byte_LCD(nibble|0b00000100);
      000252 8C 82            [24]  908 	mov	dpl,r4
      000254 12 01 C1         [24]  909 	lcall	_write_byte_LCD
                                    910 ;	LCD1602.c:27: delay(5); // commands need > 37us to settle
      000257 90 00 05         [24]  911 	mov	dptr,#(0x05&0x00ff)
      00025A E4               [12]  912 	clr	a
      00025B F5 F0            [12]  913 	mov	b,a
                                    914 ;	LCD1602.c:28: }
      00025D 02 03 E3         [24]  915 	ljmp	_delay
                                    916 ;------------------------------------------------------------
                                    917 ;Allocation info for local variables in function 'send_LCD'
                                    918 ;------------------------------------------------------------
                                    919 ;mode                      Allocated with name '_send_LCD_PARM_2'
                                    920 ;data                      Allocated to registers r7 
                                    921 ;highnib                   Allocated to registers 
                                    922 ;lownib                    Allocated to registers r7 
                                    923 ;------------------------------------------------------------
                                    924 ;	LCD1602.c:29: void send_LCD(unsigned char data, unsigned char mode) {
                                    925 ;	-----------------------------------------
                                    926 ;	 function send_LCD
                                    927 ;	-----------------------------------------
      000260                        928 _send_LCD:
                                    929 ;	LCD1602.c:36: unsigned char highnib=data>>4;
      000260 E5 82            [12]  930 	mov	a,dpl
      000262 FF               [12]  931 	mov	r7,a
      000263 C4               [12]  932 	swap	a
      000264 54 0F            [12]  933 	anl	a,#0x0f
      000266 F5 82            [12]  934 	mov	dpl,a
                                    935 ;	LCD1602.c:37: unsigned char lownib=(data<<4)>>4;
      000268 E4               [12]  936 	clr	a
      000269 CF               [12]  937 	xch	a,r7
      00026A C4               [12]  938 	swap	a
      00026B CF               [12]  939 	xch	a,r7
      00026C 6F               [12]  940 	xrl	a,r7
      00026D CF               [12]  941 	xch	a,r7
      00026E 54 F0            [12]  942 	anl	a,#0xf0
      000270 CF               [12]  943 	xch	a,r7
      000271 6F               [12]  944 	xrl	a,r7
      000272 C4               [12]  945 	swap	a
      000273 CF               [12]  946 	xch	a,r7
      000274 C4               [12]  947 	swap	a
      000275 54 0F            [12]  948 	anl	a,#0x0f
      000277 6F               [12]  949 	xrl	a,r7
      000278 CF               [12]  950 	xch	a,r7
      000279 54 0F            [12]  951 	anl	a,#0x0f
      00027B CF               [12]  952 	xch	a,r7
      00027C 6F               [12]  953 	xrl	a,r7
      00027D CF               [12]  954 	xch	a,r7
      00027E 30 E3 02         [24]  955 	jnb	acc.3,00103$
      000281 44 F0            [12]  956 	orl	a,#0xf0
      000283                        957 00103$:
                                    958 ;	LCD1602.c:38: write_nibble_LCD_cmd(highnib);
      000283 C0 07            [24]  959 	push	ar7
      000285 12 02 18         [24]  960 	lcall	_write_nibble_LCD_cmd
                                    961 ;	LCD1602.c:39: delay(5);
      000288 90 00 05         [24]  962 	mov	dptr,#(0x05&0x00ff)
      00028B E4               [12]  963 	clr	a
      00028C F5 F0            [12]  964 	mov	b,a
      00028E 12 03 E3         [24]  965 	lcall	_delay
      000291 D0 07            [24]  966 	pop	ar7
                                    967 ;	LCD1602.c:40: write_nibble_LCD_cmd(lownib);
      000293 8F 82            [24]  968 	mov	dpl,r7
      000295 12 02 18         [24]  969 	lcall	_write_nibble_LCD_cmd
                                    970 ;	LCD1602.c:41: delay(5);
      000298 90 00 05         [24]  971 	mov	dptr,#(0x05&0x00ff)
      00029B E4               [12]  972 	clr	a
      00029C F5 F0            [12]  973 	mov	b,a
                                    974 ;	LCD1602.c:42: }
      00029E 02 03 E3         [24]  975 	ljmp	_delay
                                    976 ;------------------------------------------------------------
                                    977 ;Allocation info for local variables in function 'command_LCD'
                                    978 ;------------------------------------------------------------
                                    979 ;data                      Allocated to registers r7 
                                    980 ;highnib                   Allocated to registers 
                                    981 ;lownib                    Allocated to registers r7 
                                    982 ;------------------------------------------------------------
                                    983 ;	LCD1602.c:43: void command_LCD(unsigned char data){
                                    984 ;	-----------------------------------------
                                    985 ;	 function command_LCD
                                    986 ;	-----------------------------------------
      0002A1                        987 _command_LCD:
                                    988 ;	LCD1602.c:44: unsigned char highnib=data>>4;
      0002A1 E5 82            [12]  989 	mov	a,dpl
      0002A3 FF               [12]  990 	mov	r7,a
      0002A4 C4               [12]  991 	swap	a
      0002A5 54 0F            [12]  992 	anl	a,#0x0f
      0002A7 F5 82            [12]  993 	mov	dpl,a
                                    994 ;	LCD1602.c:45: unsigned char lownib=(data<<4)>>4;
      0002A9 E4               [12]  995 	clr	a
      0002AA CF               [12]  996 	xch	a,r7
      0002AB C4               [12]  997 	swap	a
      0002AC CF               [12]  998 	xch	a,r7
      0002AD 6F               [12]  999 	xrl	a,r7
      0002AE CF               [12] 1000 	xch	a,r7
      0002AF 54 F0            [12] 1001 	anl	a,#0xf0
      0002B1 CF               [12] 1002 	xch	a,r7
      0002B2 6F               [12] 1003 	xrl	a,r7
      0002B3 C4               [12] 1004 	swap	a
      0002B4 CF               [12] 1005 	xch	a,r7
      0002B5 C4               [12] 1006 	swap	a
      0002B6 54 0F            [12] 1007 	anl	a,#0x0f
      0002B8 6F               [12] 1008 	xrl	a,r7
      0002B9 CF               [12] 1009 	xch	a,r7
      0002BA 54 0F            [12] 1010 	anl	a,#0x0f
      0002BC CF               [12] 1011 	xch	a,r7
      0002BD 6F               [12] 1012 	xrl	a,r7
      0002BE CF               [12] 1013 	xch	a,r7
      0002BF 30 E3 02         [24] 1014 	jnb	acc.3,00103$
      0002C2 44 F0            [12] 1015 	orl	a,#0xf0
      0002C4                       1016 00103$:
                                   1017 ;	LCD1602.c:46: write_nibble_LCD_cmd(highnib);
      0002C4 C0 07            [24] 1018 	push	ar7
      0002C6 12 02 18         [24] 1019 	lcall	_write_nibble_LCD_cmd
                                   1020 ;	LCD1602.c:47: delay(5);
      0002C9 90 00 05         [24] 1021 	mov	dptr,#(0x05&0x00ff)
      0002CC E4               [12] 1022 	clr	a
      0002CD F5 F0            [12] 1023 	mov	b,a
      0002CF 12 03 E3         [24] 1024 	lcall	_delay
      0002D2 D0 07            [24] 1025 	pop	ar7
                                   1026 ;	LCD1602.c:48: write_nibble_LCD_cmd(lownib);
      0002D4 8F 82            [24] 1027 	mov	dpl,r7
      0002D6 12 02 18         [24] 1028 	lcall	_write_nibble_LCD_cmd
                                   1029 ;	LCD1602.c:49: delay(5);
      0002D9 90 00 05         [24] 1030 	mov	dptr,#(0x05&0x00ff)
      0002DC E4               [12] 1031 	clr	a
      0002DD F5 F0            [12] 1032 	mov	b,a
                                   1033 ;	LCD1602.c:50: }
      0002DF 02 03 E3         [24] 1034 	ljmp	_delay
                                   1035 ;------------------------------------------------------------
                                   1036 ;Allocation info for local variables in function 'write_LCD'
                                   1037 ;------------------------------------------------------------
                                   1038 ;data                      Allocated to registers r7 
                                   1039 ;highnib                   Allocated to registers 
                                   1040 ;lownib                    Allocated to registers r7 
                                   1041 ;------------------------------------------------------------
                                   1042 ;	LCD1602.c:51: void write_LCD(unsigned char data){
                                   1043 ;	-----------------------------------------
                                   1044 ;	 function write_LCD
                                   1045 ;	-----------------------------------------
      0002E2                       1046 _write_LCD:
                                   1047 ;	LCD1602.c:52: unsigned char highnib=data>>4;
      0002E2 E5 82            [12] 1048 	mov	a,dpl
      0002E4 FF               [12] 1049 	mov	r7,a
      0002E5 C4               [12] 1050 	swap	a
      0002E6 54 0F            [12] 1051 	anl	a,#0x0f
      0002E8 F5 82            [12] 1052 	mov	dpl,a
                                   1053 ;	LCD1602.c:53: unsigned char lownib=(data<<4)>>4;
      0002EA E4               [12] 1054 	clr	a
      0002EB CF               [12] 1055 	xch	a,r7
      0002EC C4               [12] 1056 	swap	a
      0002ED CF               [12] 1057 	xch	a,r7
      0002EE 6F               [12] 1058 	xrl	a,r7
      0002EF CF               [12] 1059 	xch	a,r7
      0002F0 54 F0            [12] 1060 	anl	a,#0xf0
      0002F2 CF               [12] 1061 	xch	a,r7
      0002F3 6F               [12] 1062 	xrl	a,r7
      0002F4 C4               [12] 1063 	swap	a
      0002F5 CF               [12] 1064 	xch	a,r7
      0002F6 C4               [12] 1065 	swap	a
      0002F7 54 0F            [12] 1066 	anl	a,#0x0f
      0002F9 6F               [12] 1067 	xrl	a,r7
      0002FA CF               [12] 1068 	xch	a,r7
      0002FB 54 0F            [12] 1069 	anl	a,#0x0f
      0002FD CF               [12] 1070 	xch	a,r7
      0002FE 6F               [12] 1071 	xrl	a,r7
      0002FF CF               [12] 1072 	xch	a,r7
      000300 30 E3 02         [24] 1073 	jnb	acc.3,00103$
      000303 44 F0            [12] 1074 	orl	a,#0xf0
      000305                       1075 00103$:
                                   1076 ;	LCD1602.c:54: write_nibble_LCD_data(highnib);
      000305 C0 07            [24] 1077 	push	ar7
      000307 12 01 CD         [24] 1078 	lcall	_write_nibble_LCD_data
                                   1079 ;	LCD1602.c:55: delay(5);
      00030A 90 00 05         [24] 1080 	mov	dptr,#(0x05&0x00ff)
      00030D E4               [12] 1081 	clr	a
      00030E F5 F0            [12] 1082 	mov	b,a
      000310 12 03 E3         [24] 1083 	lcall	_delay
      000313 D0 07            [24] 1084 	pop	ar7
                                   1085 ;	LCD1602.c:56: write_nibble_LCD_data(lownib);
      000315 8F 82            [24] 1086 	mov	dpl,r7
      000317 12 01 CD         [24] 1087 	lcall	_write_nibble_LCD_data
                                   1088 ;	LCD1602.c:57: delay(5);
      00031A 90 00 05         [24] 1089 	mov	dptr,#(0x05&0x00ff)
      00031D E4               [12] 1090 	clr	a
      00031E F5 F0            [12] 1091 	mov	b,a
                                   1092 ;	LCD1602.c:58: }
      000320 02 03 E3         [24] 1093 	ljmp	_delay
                                   1094 ;------------------------------------------------------------
                                   1095 ;Allocation info for local variables in function 'print_LCD'
                                   1096 ;------------------------------------------------------------
                                   1097 ;c                         Allocated to registers 
                                   1098 ;------------------------------------------------------------
                                   1099 ;	LCD1602.c:59: void print_LCD(char c){
                                   1100 ;	-----------------------------------------
                                   1101 ;	 function print_LCD
                                   1102 ;	-----------------------------------------
      000323                       1103 _print_LCD:
                                   1104 ;	LCD1602.c:60: write_LCD(c);
                                   1105 ;	LCD1602.c:61: }
      000323 02 02 E2         [24] 1106 	ljmp	_write_LCD
                                   1107 ;------------------------------------------------------------
                                   1108 ;Allocation info for local variables in function 'init_LCD'
                                   1109 ;------------------------------------------------------------
                                   1110 ;_addr                     Allocated to registers 
                                   1111 ;------------------------------------------------------------
                                   1112 ;	LCD1602.c:69: void init_LCD(unsigned char _addr){
                                   1113 ;	-----------------------------------------
                                   1114 ;	 function init_LCD
                                   1115 ;	-----------------------------------------
      000326                       1116 _init_LCD:
      000326 85 82 0C         [24] 1117 	mov	_addr,dpl
                                   1118 ;	LCD1602.c:73: delay(50);
      000329 90 00 32         [24] 1119 	mov	dptr,#(0x32&0x00ff)
      00032C E4               [12] 1120 	clr	a
      00032D F5 F0            [12] 1121 	mov	b,a
      00032F 12 03 E3         [24] 1122 	lcall	_delay
                                   1123 ;	LCD1602.c:80: write_nibble_LCD_cmd(0x02); 
      000332 75 82 02         [24] 1124 	mov	dpl,#0x02
      000335 12 02 18         [24] 1125 	lcall	_write_nibble_LCD_cmd
                                   1126 ;	LCD1602.c:81: delay(5); // wait min 4.1ms
      000338 90 00 05         [24] 1127 	mov	dptr,#(0x05&0x00ff)
      00033B E4               [12] 1128 	clr	a
      00033C F5 F0            [12] 1129 	mov	b,a
      00033E 12 03 E3         [24] 1130 	lcall	_delay
                                   1131 ;	LCD1602.c:84: write_nibble_LCD_cmd(0x02);
      000341 75 82 02         [24] 1132 	mov	dpl,#0x02
      000344 12 02 18         [24] 1133 	lcall	_write_nibble_LCD_cmd
                                   1134 ;	LCD1602.c:85: delay(5); // wait min 4.1ms
      000347 90 00 05         [24] 1135 	mov	dptr,#(0x05&0x00ff)
      00034A E4               [12] 1136 	clr	a
      00034B F5 F0            [12] 1137 	mov	b,a
      00034D 12 03 E3         [24] 1138 	lcall	_delay
                                   1139 ;	LCD1602.c:88: write_nibble_LCD_cmd(0x03);
      000350 75 82 03         [24] 1140 	mov	dpl,#0x03
      000353 12 02 18         [24] 1141 	lcall	_write_nibble_LCD_cmd
                                   1142 ;	LCD1602.c:89: delay(5);
      000356 90 00 05         [24] 1143 	mov	dptr,#(0x05&0x00ff)
      000359 E4               [12] 1144 	clr	a
      00035A F5 F0            [12] 1145 	mov	b,a
      00035C 12 03 E3         [24] 1146 	lcall	_delay
                                   1147 ;	LCD1602.c:90: write_nibble_LCD_cmd(0x00);
      00035F 75 82 00         [24] 1148 	mov	dpl,#0x00
      000362 12 02 18         [24] 1149 	lcall	_write_nibble_LCD_cmd
                                   1150 ;	LCD1602.c:91: delay(5);
      000365 90 00 05         [24] 1151 	mov	dptr,#(0x05&0x00ff)
      000368 E4               [12] 1152 	clr	a
      000369 F5 F0            [12] 1153 	mov	b,a
      00036B 12 03 E3         [24] 1154 	lcall	_delay
                                   1155 ;	LCD1602.c:92: write_nibble_LCD_cmd(0x0E);
      00036E 75 82 0E         [24] 1156 	mov	dpl,#0x0e
      000371 12 02 18         [24] 1157 	lcall	_write_nibble_LCD_cmd
                                   1158 ;	LCD1602.c:93: delay(5);
      000374 90 00 05         [24] 1159 	mov	dptr,#(0x05&0x00ff)
      000377 E4               [12] 1160 	clr	a
      000378 F5 F0            [12] 1161 	mov	b,a
      00037A 12 03 E3         [24] 1162 	lcall	_delay
                                   1163 ;	LCD1602.c:94: write_nibble_LCD_cmd(0x00);
      00037D 75 82 00         [24] 1164 	mov	dpl,#0x00
      000380 12 02 18         [24] 1165 	lcall	_write_nibble_LCD_cmd
                                   1166 ;	LCD1602.c:95: delay(5);
      000383 90 00 05         [24] 1167 	mov	dptr,#(0x05&0x00ff)
      000386 E4               [12] 1168 	clr	a
      000387 F5 F0            [12] 1169 	mov	b,a
      000389 12 03 E3         [24] 1170 	lcall	_delay
                                   1171 ;	LCD1602.c:96: write_nibble_LCD_cmd(0x03);
      00038C 75 82 03         [24] 1172 	mov	dpl,#0x03
      00038F 12 02 18         [24] 1173 	lcall	_write_nibble_LCD_cmd
                                   1174 ;	LCD1602.c:97: delay(5);
      000392 90 00 05         [24] 1175 	mov	dptr,#(0x05&0x00ff)
      000395 E4               [12] 1176 	clr	a
      000396 F5 F0            [12] 1177 	mov	b,a
      000398 12 03 E3         [24] 1178 	lcall	_delay
                                   1179 ;	LCD1602.c:98: write_LCD('G');
      00039B 75 82 47         [24] 1180 	mov	dpl,#0x47
      00039E 12 02 E2         [24] 1181 	lcall	_write_LCD
                                   1182 ;	LCD1602.c:99: write_LCD('O');
      0003A1 75 82 4F         [24] 1183 	mov	dpl,#0x4f
      0003A4 12 02 E2         [24] 1184 	lcall	_write_LCD
                                   1185 ;	LCD1602.c:100: write_LCD('O');
      0003A7 75 82 4F         [24] 1186 	mov	dpl,#0x4f
      0003AA 12 02 E2         [24] 1187 	lcall	_write_LCD
                                   1188 ;	LCD1602.c:101: write_LCD('D');
      0003AD 75 82 44         [24] 1189 	mov	dpl,#0x44
      0003B0 12 02 E2         [24] 1190 	lcall	_write_LCD
                                   1191 ;	LCD1602.c:102: write_LCD('B');
      0003B3 75 82 42         [24] 1192 	mov	dpl,#0x42
      0003B6 12 02 E2         [24] 1193 	lcall	_write_LCD
                                   1194 ;	LCD1602.c:103: write_LCD('Y');
      0003B9 75 82 59         [24] 1195 	mov	dpl,#0x59
      0003BC 12 02 E2         [24] 1196 	lcall	_write_LCD
                                   1197 ;	LCD1602.c:104: write_LCD('E');
      0003BF 75 82 45         [24] 1198 	mov	dpl,#0x45
      0003C2 12 02 E2         [24] 1199 	lcall	_write_LCD
                                   1200 ;	LCD1602.c:105: write_LCD(' ');
      0003C5 75 82 20         [24] 1201 	mov	dpl,#0x20
      0003C8 12 02 E2         [24] 1202 	lcall	_write_LCD
                                   1203 ;	LCD1602.c:106: write_LCD('B');
      0003CB 75 82 42         [24] 1204 	mov	dpl,#0x42
      0003CE 12 02 E2         [24] 1205 	lcall	_write_LCD
                                   1206 ;	LCD1602.c:107: write_LCD('O');
      0003D1 75 82 4F         [24] 1207 	mov	dpl,#0x4f
      0003D4 12 02 E2         [24] 1208 	lcall	_write_LCD
                                   1209 ;	LCD1602.c:108: write_LCD('B');
      0003D7 75 82 42         [24] 1210 	mov	dpl,#0x42
      0003DA 12 02 E2         [24] 1211 	lcall	_write_LCD
                                   1212 ;	LCD1602.c:109: write_LCD('!');
      0003DD 75 82 21         [24] 1213 	mov	dpl,#0x21
                                   1214 ;	LCD1602.c:128: }
      0003E0 02 02 E2         [24] 1215 	ljmp	_write_LCD
                                   1216 ;------------------------------------------------------------
                                   1217 ;Allocation info for local variables in function 'delay'
                                   1218 ;------------------------------------------------------------
                                   1219 ;millis                    Allocated with name '_delay_millis_65536_58'
                                   1220 ;i                         Allocated to registers r2 r3 
                                   1221 ;j                         Allocated to registers r0 r1 
                                   1222 ;------------------------------------------------------------
                                   1223 ;	utils8051.c:2: void delay(unsigned long int millis)
                                   1224 ;	-----------------------------------------
                                   1225 ;	 function delay
                                   1226 ;	-----------------------------------------
      0003E3                       1227 _delay:
                                   1228 ;	utils8051.c:5: millis *= 0.998f;
      0003E3 12 07 B5         [24] 1229 	lcall	___ulong2fs
      0003E6 AC 82            [24] 1230 	mov	r4,dpl
      0003E8 AD 83            [24] 1231 	mov	r5,dph
      0003EA AE F0            [24] 1232 	mov	r6,b
      0003EC FF               [12] 1233 	mov	r7,a
      0003ED C0 04            [24] 1234 	push	ar4
      0003EF C0 05            [24] 1235 	push	ar5
      0003F1 C0 06            [24] 1236 	push	ar6
      0003F3 C0 07            [24] 1237 	push	ar7
      0003F5 90 7C EE         [24] 1238 	mov	dptr,#0x7cee
      0003F8 75 F0 7F         [24] 1239 	mov	b,#0x7f
      0003FB 74 3F            [12] 1240 	mov	a,#0x3f
      0003FD 12 06 B1         [24] 1241 	lcall	___fsmul
      000400 AC 82            [24] 1242 	mov	r4,dpl
      000402 AD 83            [24] 1243 	mov	r5,dph
      000404 AE F0            [24] 1244 	mov	r6,b
      000406 FF               [12] 1245 	mov	r7,a
      000407 E5 81            [12] 1246 	mov	a,sp
      000409 24 FC            [12] 1247 	add	a,#0xfc
      00040B F5 81            [12] 1248 	mov	sp,a
      00040D 8C 82            [24] 1249 	mov	dpl,r4
      00040F 8D 83            [24] 1250 	mov	dph,r5
      000411 8E F0            [24] 1251 	mov	b,r6
      000413 EF               [12] 1252 	mov	a,r7
      000414 12 07 C8         [24] 1253 	lcall	___fs2ulong
      000417 85 82 0E         [24] 1254 	mov	_delay_millis_65536_58,dpl
      00041A 85 83 0F         [24] 1255 	mov	(_delay_millis_65536_58 + 1),dph
      00041D 85 F0 10         [24] 1256 	mov	(_delay_millis_65536_58 + 2),b
      000420 F5 11            [12] 1257 	mov	(_delay_millis_65536_58 + 3),a
                                   1258 ;	utils8051.c:6: for (int i = 0; i < 44; i++)
      000422 7A 00            [12] 1259 	mov	r2,#0x00
      000424 7B 00            [12] 1260 	mov	r3,#0x00
      000426                       1261 00107$:
      000426 C3               [12] 1262 	clr	c
      000427 EA               [12] 1263 	mov	a,r2
      000428 94 2C            [12] 1264 	subb	a,#0x2c
      00042A EB               [12] 1265 	mov	a,r3
      00042B 64 80            [12] 1266 	xrl	a,#0x80
      00042D 94 80            [12] 1267 	subb	a,#0x80
      00042F 50 2B            [24] 1268 	jnc	00102$
                                   1269 ;	utils8051.c:8: for (unsigned int j = 0; j < millis; j++)
      000431 78 00            [12] 1270 	mov	r0,#0x00
      000433 79 00            [12] 1271 	mov	r1,#0x00
      000435                       1272 00104$:
      000435 88 04            [24] 1273 	mov	ar4,r0
      000437 89 05            [24] 1274 	mov	ar5,r1
      000439 7E 00            [12] 1275 	mov	r6,#0x00
      00043B 7F 00            [12] 1276 	mov	r7,#0x00
      00043D C3               [12] 1277 	clr	c
      00043E EC               [12] 1278 	mov	a,r4
      00043F 95 0E            [12] 1279 	subb	a,_delay_millis_65536_58
      000441 ED               [12] 1280 	mov	a,r5
      000442 95 0F            [12] 1281 	subb	a,(_delay_millis_65536_58 + 1)
      000444 EE               [12] 1282 	mov	a,r6
      000445 95 10            [12] 1283 	subb	a,(_delay_millis_65536_58 + 2)
      000447 EF               [12] 1284 	mov	a,r7
      000448 95 11            [12] 1285 	subb	a,(_delay_millis_65536_58 + 3)
      00044A 50 09            [24] 1286 	jnc	00108$
                                   1287 ;	utils8051.c:10: P1_0 = !P1_0;
      00044C B2 90            [12] 1288 	cpl	_P1_0
                                   1289 ;	utils8051.c:8: for (unsigned int j = 0; j < millis; j++)
      00044E 08               [12] 1290 	inc	r0
      00044F B8 00 E3         [24] 1291 	cjne	r0,#0x00,00104$
      000452 09               [12] 1292 	inc	r1
      000453 80 E0            [24] 1293 	sjmp	00104$
      000455                       1294 00108$:
                                   1295 ;	utils8051.c:6: for (int i = 0; i < 44; i++)
      000455 0A               [12] 1296 	inc	r2
      000456 BA 00 CD         [24] 1297 	cjne	r2,#0x00,00107$
      000459 0B               [12] 1298 	inc	r3
      00045A 80 CA            [24] 1299 	sjmp	00107$
      00045C                       1300 00102$:
                                   1301 ;	utils8051.c:13: P1_0 = 1;
                                   1302 ;	assignBit
      00045C D2 90            [12] 1303 	setb	_P1_0
                                   1304 ;	utils8051.c:14: }
      00045E 22               [24] 1305 	ret
                                   1306 ;------------------------------------------------------------
                                   1307 ;Allocation info for local variables in function 'printLCD'
                                   1308 ;------------------------------------------------------------
                                   1309 ;base                      Allocated with name '_printLCD_PARM_2'
                                   1310 ;i                         Allocated with name '_printLCD_i_65536_64'
                                   1311 ;------------------------------------------------------------
                                   1312 ;	stcboot.c:28: void printLCD(unsigned int i,unsigned char base){
                                   1313 ;	-----------------------------------------
                                   1314 ;	 function printLCD
                                   1315 ;	-----------------------------------------
      00045F                       1316 _printLCD:
      00045F 85 82 19         [24] 1317 	mov	_printLCD_i_65536_64,dpl
      000462 85 83 1A         [24] 1318 	mov	(_printLCD_i_65536_64 + 1),dph
                                   1319 ;	stcboot.c:30: P0 = numArray[(i/base*base*base)%base];
      000465 AC 18            [24] 1320 	mov	r4,_printLCD_PARM_2
      000467 7D 00            [12] 1321 	mov	r5,#0x00
      000469 8C 25            [24] 1322 	mov	__divuint_PARM_2,r4
      00046B 8D 26            [24] 1323 	mov	(__divuint_PARM_2 + 1),r5
      00046D 85 19 82         [24] 1324 	mov	dpl,_printLCD_i_65536_64
      000470 85 1A 83         [24] 1325 	mov	dph,(_printLCD_i_65536_64 + 1)
      000473 C0 05            [24] 1326 	push	ar5
      000475 C0 04            [24] 1327 	push	ar4
      000477 12 06 88         [24] 1328 	lcall	__divuint
      00047A AA 82            [24] 1329 	mov	r2,dpl
      00047C AB 83            [24] 1330 	mov	r3,dph
      00047E D0 04            [24] 1331 	pop	ar4
      000480 D0 05            [24] 1332 	pop	ar5
      000482 8C 25            [24] 1333 	mov	__mulint_PARM_2,r4
      000484 8D 26            [24] 1334 	mov	(__mulint_PARM_2 + 1),r5
      000486 8A 82            [24] 1335 	mov	dpl,r2
      000488 8B 83            [24] 1336 	mov	dph,r3
      00048A C0 05            [24] 1337 	push	ar5
      00048C C0 04            [24] 1338 	push	ar4
      00048E C0 03            [24] 1339 	push	ar3
      000490 C0 02            [24] 1340 	push	ar2
      000492 12 08 1C         [24] 1341 	lcall	__mulint
      000495 A8 82            [24] 1342 	mov	r0,dpl
      000497 A9 83            [24] 1343 	mov	r1,dph
      000499 D0 02            [24] 1344 	pop	ar2
      00049B D0 03            [24] 1345 	pop	ar3
      00049D D0 04            [24] 1346 	pop	ar4
      00049F D0 05            [24] 1347 	pop	ar5
      0004A1 8C 25            [24] 1348 	mov	__mulint_PARM_2,r4
      0004A3 8D 26            [24] 1349 	mov	(__mulint_PARM_2 + 1),r5
      0004A5 88 82            [24] 1350 	mov	dpl,r0
      0004A7 89 83            [24] 1351 	mov	dph,r1
      0004A9 C0 05            [24] 1352 	push	ar5
      0004AB C0 04            [24] 1353 	push	ar4
      0004AD C0 03            [24] 1354 	push	ar3
      0004AF C0 02            [24] 1355 	push	ar2
      0004B1 C0 01            [24] 1356 	push	ar1
      0004B3 C0 00            [24] 1357 	push	ar0
      0004B5 12 08 1C         [24] 1358 	lcall	__mulint
      0004B8 D0 00            [24] 1359 	pop	ar0
      0004BA D0 01            [24] 1360 	pop	ar1
      0004BC D0 02            [24] 1361 	pop	ar2
      0004BE D0 03            [24] 1362 	pop	ar3
      0004C0 D0 04            [24] 1363 	pop	ar4
      0004C2 D0 05            [24] 1364 	pop	ar5
      0004C4 8C 25            [24] 1365 	mov	__moduint_PARM_2,r4
      0004C6 8D 26            [24] 1366 	mov	(__moduint_PARM_2 + 1),r5
      0004C8 C0 05            [24] 1367 	push	ar5
      0004CA C0 04            [24] 1368 	push	ar4
      0004CC C0 03            [24] 1369 	push	ar3
      0004CE C0 02            [24] 1370 	push	ar2
      0004D0 C0 01            [24] 1371 	push	ar1
      0004D2 C0 00            [24] 1372 	push	ar0
      0004D4 12 08 39         [24] 1373 	lcall	__moduint
      0004D7 AE 82            [24] 1374 	mov	r6,dpl
      0004D9 AF 83            [24] 1375 	mov	r7,dph
      0004DB EE               [12] 1376 	mov	a,r6
      0004DC 24 52            [12] 1377 	add	a,#_numArray
      0004DE F5 82            [12] 1378 	mov	dpl,a
      0004E0 EF               [12] 1379 	mov	a,r7
      0004E1 34 09            [12] 1380 	addc	a,#(_numArray >> 8)
      0004E3 F5 83            [12] 1381 	mov	dph,a
      0004E5 E4               [12] 1382 	clr	a
      0004E6 93               [24] 1383 	movc	a,@a+dptr
      0004E7 F5 80            [12] 1384 	mov	_P0,a
                                   1385 ;	stcboot.c:31: P2_0 = 0;
                                   1386 ;	assignBit
      0004E9 C2 A0            [12] 1387 	clr	_P2_0
                                   1388 ;	stcboot.c:32: delay(1);
      0004EB 90 00 01         [24] 1389 	mov	dptr,#(0x01&0x00ff)
      0004EE E4               [12] 1390 	clr	a
      0004EF F5 F0            [12] 1391 	mov	b,a
      0004F1 12 03 E3         [24] 1392 	lcall	_delay
      0004F4 D0 00            [24] 1393 	pop	ar0
      0004F6 D0 01            [24] 1394 	pop	ar1
      0004F8 D0 02            [24] 1395 	pop	ar2
      0004FA D0 03            [24] 1396 	pop	ar3
      0004FC D0 04            [24] 1397 	pop	ar4
      0004FE D0 05            [24] 1398 	pop	ar5
                                   1399 ;	stcboot.c:33: P2_0 = 1;
                                   1400 ;	assignBit
      000500 D2 A0            [12] 1401 	setb	_P2_0
                                   1402 ;	stcboot.c:35: P0 = numArray[(i/base*base)%base];
      000502 8C 25            [24] 1403 	mov	__moduint_PARM_2,r4
      000504 8D 26            [24] 1404 	mov	(__moduint_PARM_2 + 1),r5
      000506 88 82            [24] 1405 	mov	dpl,r0
      000508 89 83            [24] 1406 	mov	dph,r1
      00050A C0 05            [24] 1407 	push	ar5
      00050C C0 04            [24] 1408 	push	ar4
      00050E C0 03            [24] 1409 	push	ar3
      000510 C0 02            [24] 1410 	push	ar2
      000512 12 08 39         [24] 1411 	lcall	__moduint
      000515 AE 82            [24] 1412 	mov	r6,dpl
      000517 AF 83            [24] 1413 	mov	r7,dph
      000519 EE               [12] 1414 	mov	a,r6
      00051A 24 52            [12] 1415 	add	a,#_numArray
      00051C F5 82            [12] 1416 	mov	dpl,a
      00051E EF               [12] 1417 	mov	a,r7
      00051F 34 09            [12] 1418 	addc	a,#(_numArray >> 8)
      000521 F5 83            [12] 1419 	mov	dph,a
      000523 E4               [12] 1420 	clr	a
      000524 93               [24] 1421 	movc	a,@a+dptr
      000525 F5 80            [12] 1422 	mov	_P0,a
                                   1423 ;	stcboot.c:36: P2_1 = 0;
                                   1424 ;	assignBit
      000527 C2 A1            [12] 1425 	clr	_P2_1
                                   1426 ;	stcboot.c:37: delay(1);
      000529 90 00 01         [24] 1427 	mov	dptr,#(0x01&0x00ff)
      00052C E4               [12] 1428 	clr	a
      00052D F5 F0            [12] 1429 	mov	b,a
      00052F 12 03 E3         [24] 1430 	lcall	_delay
      000532 D0 02            [24] 1431 	pop	ar2
      000534 D0 03            [24] 1432 	pop	ar3
      000536 D0 04            [24] 1433 	pop	ar4
      000538 D0 05            [24] 1434 	pop	ar5
                                   1435 ;	stcboot.c:38: P2_1 = 1;
                                   1436 ;	assignBit
      00053A D2 A1            [12] 1437 	setb	_P2_1
                                   1438 ;	stcboot.c:40: P0 = numArray[(i/base)%base];
      00053C 8C 25            [24] 1439 	mov	__moduint_PARM_2,r4
      00053E 8D 26            [24] 1440 	mov	(__moduint_PARM_2 + 1),r5
      000540 8A 82            [24] 1441 	mov	dpl,r2
      000542 8B 83            [24] 1442 	mov	dph,r3
      000544 C0 05            [24] 1443 	push	ar5
      000546 C0 04            [24] 1444 	push	ar4
      000548 12 08 39         [24] 1445 	lcall	__moduint
      00054B AE 82            [24] 1446 	mov	r6,dpl
      00054D AF 83            [24] 1447 	mov	r7,dph
      00054F EE               [12] 1448 	mov	a,r6
      000550 24 52            [12] 1449 	add	a,#_numArray
      000552 F5 82            [12] 1450 	mov	dpl,a
      000554 EF               [12] 1451 	mov	a,r7
      000555 34 09            [12] 1452 	addc	a,#(_numArray >> 8)
      000557 F5 83            [12] 1453 	mov	dph,a
      000559 E4               [12] 1454 	clr	a
      00055A 93               [24] 1455 	movc	a,@a+dptr
      00055B F5 80            [12] 1456 	mov	_P0,a
                                   1457 ;	stcboot.c:41: P2_2 = 0;
                                   1458 ;	assignBit
      00055D C2 A2            [12] 1459 	clr	_P2_2
                                   1460 ;	stcboot.c:42: delay(1);
      00055F 90 00 01         [24] 1461 	mov	dptr,#(0x01&0x00ff)
      000562 E4               [12] 1462 	clr	a
      000563 F5 F0            [12] 1463 	mov	b,a
      000565 12 03 E3         [24] 1464 	lcall	_delay
      000568 D0 04            [24] 1465 	pop	ar4
      00056A D0 05            [24] 1466 	pop	ar5
                                   1467 ;	stcboot.c:43: P2_2 = 1;
                                   1468 ;	assignBit
      00056C D2 A2            [12] 1469 	setb	_P2_2
                                   1470 ;	stcboot.c:45: P0 = numArray[i%base];
      00056E 8C 25            [24] 1471 	mov	__moduint_PARM_2,r4
      000570 8D 26            [24] 1472 	mov	(__moduint_PARM_2 + 1),r5
      000572 85 19 82         [24] 1473 	mov	dpl,_printLCD_i_65536_64
      000575 85 1A 83         [24] 1474 	mov	dph,(_printLCD_i_65536_64 + 1)
      000578 12 08 39         [24] 1475 	lcall	__moduint
      00057B AE 82            [24] 1476 	mov	r6,dpl
      00057D AF 83            [24] 1477 	mov	r7,dph
      00057F EE               [12] 1478 	mov	a,r6
      000580 24 52            [12] 1479 	add	a,#_numArray
      000582 F5 82            [12] 1480 	mov	dpl,a
      000584 EF               [12] 1481 	mov	a,r7
      000585 34 09            [12] 1482 	addc	a,#(_numArray >> 8)
      000587 F5 83            [12] 1483 	mov	dph,a
      000589 E4               [12] 1484 	clr	a
      00058A 93               [24] 1485 	movc	a,@a+dptr
      00058B F5 80            [12] 1486 	mov	_P0,a
                                   1487 ;	stcboot.c:46: P2_3 = 0;
                                   1488 ;	assignBit
      00058D C2 A3            [12] 1489 	clr	_P2_3
                                   1490 ;	stcboot.c:47: delay(1);
      00058F 90 00 01         [24] 1491 	mov	dptr,#(0x01&0x00ff)
      000592 E4               [12] 1492 	clr	a
      000593 F5 F0            [12] 1493 	mov	b,a
      000595 12 03 E3         [24] 1494 	lcall	_delay
                                   1495 ;	stcboot.c:48: P2_3 = 1;
                                   1496 ;	assignBit
      000598 D2 A3            [12] 1497 	setb	_P2_3
                                   1498 ;	stcboot.c:50: }
      00059A 22               [24] 1499 	ret
                                   1500 ;------------------------------------------------------------
                                   1501 ;Allocation info for local variables in function 'strobeLCD'
                                   1502 ;------------------------------------------------------------
                                   1503 ;str                       Allocated to registers r5 r6 r7 
                                   1504 ;i                         Allocated with name '_strobeLCD_i_131072_68'
                                   1505 ;sloc0                     Allocated with name '_strobeLCD_sloc0_1_0'
                                   1506 ;sloc1                     Allocated with name '_strobeLCD_sloc1_1_0'
                                   1507 ;------------------------------------------------------------
                                   1508 ;	stcboot.c:51: void strobeLCD(unsigned char * str){
                                   1509 ;	-----------------------------------------
                                   1510 ;	 function strobeLCD
                                   1511 ;	-----------------------------------------
      00059B                       1512 _strobeLCD:
      00059B AD 82            [24] 1513 	mov	r5,dpl
      00059D AE 83            [24] 1514 	mov	r6,dph
      00059F AF F0            [24] 1515 	mov	r7,b
                                   1516 ;	stcboot.c:52: for(int i=0;i<10;i++){
      0005A1 74 01            [12] 1517 	mov	a,#0x01
      0005A3 2D               [12] 1518 	add	a,r5
      0005A4 FA               [12] 1519 	mov	r2,a
      0005A5 E4               [12] 1520 	clr	a
      0005A6 3E               [12] 1521 	addc	a,r6
      0005A7 FB               [12] 1522 	mov	r3,a
      0005A8 8F 04            [24] 1523 	mov	ar4,r7
      0005AA 74 02            [12] 1524 	mov	a,#0x02
      0005AC 2D               [12] 1525 	add	a,r5
      0005AD F5 1D            [12] 1526 	mov	_strobeLCD_sloc0_1_0,a
      0005AF E4               [12] 1527 	clr	a
      0005B0 3E               [12] 1528 	addc	a,r6
      0005B1 F5 1E            [12] 1529 	mov	(_strobeLCD_sloc0_1_0 + 1),a
      0005B3 8F 1F            [24] 1530 	mov	(_strobeLCD_sloc0_1_0 + 2),r7
      0005B5 74 03            [12] 1531 	mov	a,#0x03
      0005B7 2D               [12] 1532 	add	a,r5
      0005B8 F5 20            [12] 1533 	mov	_strobeLCD_sloc1_1_0,a
      0005BA E4               [12] 1534 	clr	a
      0005BB 3E               [12] 1535 	addc	a,r6
      0005BC F5 21            [12] 1536 	mov	(_strobeLCD_sloc1_1_0 + 1),a
      0005BE 8F 22            [24] 1537 	mov	(_strobeLCD_sloc1_1_0 + 2),r7
      0005C0 E4               [12] 1538 	clr	a
      0005C1 F5 1B            [12] 1539 	mov	_strobeLCD_i_131072_68,a
      0005C3 F5 1C            [12] 1540 	mov	(_strobeLCD_i_131072_68 + 1),a
      0005C5                       1541 00103$:
      0005C5 C3               [12] 1542 	clr	c
      0005C6 E5 1B            [12] 1543 	mov	a,_strobeLCD_i_131072_68
      0005C8 94 0A            [12] 1544 	subb	a,#0x0a
      0005CA E5 1C            [12] 1545 	mov	a,(_strobeLCD_i_131072_68 + 1)
      0005CC 64 80            [12] 1546 	xrl	a,#0x80
      0005CE 94 80            [12] 1547 	subb	a,#0x80
      0005D0 40 01            [24] 1548 	jc	00116$
      0005D2 22               [24] 1549 	ret
      0005D3                       1550 00116$:
                                   1551 ;	stcboot.c:53: P0 = ~str[0];
      0005D3 8D 82            [24] 1552 	mov	dpl,r5
      0005D5 8E 83            [24] 1553 	mov	dph,r6
      0005D7 8F F0            [24] 1554 	mov	b,r7
      0005D9 12 08 D5         [24] 1555 	lcall	__gptrget
      0005DC F4               [12] 1556 	cpl	a
      0005DD F5 80            [12] 1557 	mov	_P0,a
                                   1558 ;	stcboot.c:54: P2_0 = 0;
                                   1559 ;	assignBit
      0005DF C2 A0            [12] 1560 	clr	_P2_0
                                   1561 ;	stcboot.c:55: delay(1);
      0005E1 90 00 01         [24] 1562 	mov	dptr,#(0x01&0x00ff)
      0005E4 E4               [12] 1563 	clr	a
      0005E5 F5 F0            [12] 1564 	mov	b,a
      0005E7 C0 07            [24] 1565 	push	ar7
      0005E9 C0 06            [24] 1566 	push	ar6
      0005EB C0 05            [24] 1567 	push	ar5
      0005ED C0 04            [24] 1568 	push	ar4
      0005EF C0 03            [24] 1569 	push	ar3
      0005F1 C0 02            [24] 1570 	push	ar2
      0005F3 12 03 E3         [24] 1571 	lcall	_delay
      0005F6 D0 02            [24] 1572 	pop	ar2
      0005F8 D0 03            [24] 1573 	pop	ar3
      0005FA D0 04            [24] 1574 	pop	ar4
                                   1575 ;	stcboot.c:56: P2_0 = 1;
                                   1576 ;	assignBit
      0005FC D2 A0            [12] 1577 	setb	_P2_0
                                   1578 ;	stcboot.c:58: P0 = ~str[1];
      0005FE 8A 82            [24] 1579 	mov	dpl,r2
      000600 8B 83            [24] 1580 	mov	dph,r3
      000602 8C F0            [24] 1581 	mov	b,r4
      000604 12 08 D5         [24] 1582 	lcall	__gptrget
      000607 F4               [12] 1583 	cpl	a
      000608 F5 80            [12] 1584 	mov	_P0,a
                                   1585 ;	stcboot.c:59: P2_1 = 0;
                                   1586 ;	assignBit
      00060A C2 A1            [12] 1587 	clr	_P2_1
                                   1588 ;	stcboot.c:60: delay(1);
      00060C 90 00 01         [24] 1589 	mov	dptr,#(0x01&0x00ff)
      00060F E4               [12] 1590 	clr	a
      000610 F5 F0            [12] 1591 	mov	b,a
      000612 C0 04            [24] 1592 	push	ar4
      000614 C0 03            [24] 1593 	push	ar3
      000616 C0 02            [24] 1594 	push	ar2
      000618 12 03 E3         [24] 1595 	lcall	_delay
                                   1596 ;	stcboot.c:61: P2_1 = 1;
                                   1597 ;	assignBit
      00061B D2 A1            [12] 1598 	setb	_P2_1
                                   1599 ;	stcboot.c:63: P0 = ~str[2];
      00061D 85 1D 82         [24] 1600 	mov	dpl,_strobeLCD_sloc0_1_0
      000620 85 1E 83         [24] 1601 	mov	dph,(_strobeLCD_sloc0_1_0 + 1)
      000623 85 1F F0         [24] 1602 	mov	b,(_strobeLCD_sloc0_1_0 + 2)
      000626 12 08 D5         [24] 1603 	lcall	__gptrget
      000629 F4               [12] 1604 	cpl	a
      00062A F5 80            [12] 1605 	mov	_P0,a
                                   1606 ;	stcboot.c:64: P2_2 = 0;
                                   1607 ;	assignBit
      00062C C2 A2            [12] 1608 	clr	_P2_2
                                   1609 ;	stcboot.c:65: delay(1);
      00062E 90 00 01         [24] 1610 	mov	dptr,#(0x01&0x00ff)
      000631 E4               [12] 1611 	clr	a
      000632 F5 F0            [12] 1612 	mov	b,a
      000634 12 03 E3         [24] 1613 	lcall	_delay
                                   1614 ;	stcboot.c:66: P2_2 = 1;
                                   1615 ;	assignBit
      000637 D2 A2            [12] 1616 	setb	_P2_2
                                   1617 ;	stcboot.c:68: P0 = ~str[3];
      000639 85 20 82         [24] 1618 	mov	dpl,_strobeLCD_sloc1_1_0
      00063C 85 21 83         [24] 1619 	mov	dph,(_strobeLCD_sloc1_1_0 + 1)
      00063F 85 22 F0         [24] 1620 	mov	b,(_strobeLCD_sloc1_1_0 + 2)
      000642 12 08 D5         [24] 1621 	lcall	__gptrget
      000645 F4               [12] 1622 	cpl	a
      000646 F5 80            [12] 1623 	mov	_P0,a
                                   1624 ;	stcboot.c:69: P2_3 = 0;
                                   1625 ;	assignBit
      000648 C2 A3            [12] 1626 	clr	_P2_3
                                   1627 ;	stcboot.c:70: delay(1);
      00064A 90 00 01         [24] 1628 	mov	dptr,#(0x01&0x00ff)
      00064D E4               [12] 1629 	clr	a
      00064E F5 F0            [12] 1630 	mov	b,a
      000650 12 03 E3         [24] 1631 	lcall	_delay
      000653 D0 02            [24] 1632 	pop	ar2
      000655 D0 03            [24] 1633 	pop	ar3
      000657 D0 04            [24] 1634 	pop	ar4
      000659 D0 05            [24] 1635 	pop	ar5
      00065B D0 06            [24] 1636 	pop	ar6
      00065D D0 07            [24] 1637 	pop	ar7
                                   1638 ;	stcboot.c:71: P2_3 = 1;
                                   1639 ;	assignBit
      00065F D2 A3            [12] 1640 	setb	_P2_3
                                   1641 ;	stcboot.c:52: for(int i=0;i<10;i++){
      000661 05 1B            [12] 1642 	inc	_strobeLCD_i_131072_68
      000663 E4               [12] 1643 	clr	a
      000664 B5 1B 02         [24] 1644 	cjne	a,_strobeLCD_i_131072_68,00117$
      000667 05 1C            [12] 1645 	inc	(_strobeLCD_i_131072_68 + 1)
      000669                       1646 00117$:
                                   1647 ;	stcboot.c:73: }
      000669 02 05 C5         [24] 1648 	ljmp	00103$
                                   1649 ;------------------------------------------------------------
                                   1650 ;Allocation info for local variables in function 'setup'
                                   1651 ;------------------------------------------------------------
                                   1652 ;	stcboot.c:74: void setup(){
                                   1653 ;	-----------------------------------------
                                   1654 ;	 function setup
                                   1655 ;	-----------------------------------------
      00066C                       1656 _setup:
                                   1657 ;	stcboot.c:82: init_LCD(0x27);
      00066C 75 82 27         [24] 1658 	mov	dpl,#0x27
                                   1659 ;	stcboot.c:88: }
      00066F 02 03 26         [24] 1660 	ljmp	_init_LCD
                                   1661 ;------------------------------------------------------------
                                   1662 ;Allocation info for local variables in function 'loop'
                                   1663 ;------------------------------------------------------------
                                   1664 ;	stcboot.c:90: void loop(){
                                   1665 ;	-----------------------------------------
                                   1666 ;	 function loop
                                   1667 ;	-----------------------------------------
      000672                       1668 _loop:
                                   1669 ;	stcboot.c:95: if(P1_7)
                                   1670 ;	stcboot.c:96: P1_7=0;
                                   1671 ;	assignBit
      000672 10 97 02         [24] 1672 	jbc	_P1_7,00103$
                                   1673 ;	stcboot.c:98: P1_7=1;
                                   1674 ;	assignBit
      000675 D2 97            [12] 1675 	setb	_P1_7
      000677                       1676 00103$:
                                   1677 ;	stcboot.c:100: delay(500);
      000677 90 01 F4         [24] 1678 	mov	dptr,#0x01f4
      00067A E4               [12] 1679 	clr	a
      00067B F5 F0            [12] 1680 	mov	b,a
                                   1681 ;	stcboot.c:101: }
      00067D 02 03 E3         [24] 1682 	ljmp	_delay
                                   1683 ;------------------------------------------------------------
                                   1684 ;Allocation info for local variables in function 'main'
                                   1685 ;------------------------------------------------------------
                                   1686 ;	stcboot.c:102: void main(void){
                                   1687 ;	-----------------------------------------
                                   1688 ;	 function main
                                   1689 ;	-----------------------------------------
      000680                       1690 _main:
                                   1691 ;	stcboot.c:103: setup();
      000680 12 06 6C         [24] 1692 	lcall	_setup
                                   1693 ;	stcboot.c:104: while (1) {
      000683                       1694 00102$:
                                   1695 ;	stcboot.c:105: loop();
      000683 12 06 72         [24] 1696 	lcall	_loop
                                   1697 ;	stcboot.c:107: }
      000686 80 FB            [24] 1698 	sjmp	00102$
                                   1699 	.area CSEG    (CODE)
                                   1700 	.area CONST   (CODE)
      000938                       1701 _alphaArray:
      000938 88                    1702 	.db #0x88	; 136
      000939 83                    1703 	.db #0x83	; 131
      00093A C6                    1704 	.db #0xc6	; 198
      00093B A1                    1705 	.db #0xa1	; 161
      00093C 86                    1706 	.db #0x86	; 134
      00093D 8E                    1707 	.db #0x8e	; 142
      00093E C2                    1708 	.db #0xc2	; 194
      00093F 8B                    1709 	.db #0x8b	; 139
      000940 CF                    1710 	.db #0xcf	; 207
      000941 E1                    1711 	.db #0xe1	; 225
      000942 8A                    1712 	.db #0x8a	; 138
      000943 C7                    1713 	.db #0xc7	; 199
      000944 EA                    1714 	.db #0xea	; 234
      000945 CB                    1715 	.db #0xcb	; 203
      000946 A3                    1716 	.db #0xa3	; 163
      000947 8C                    1717 	.db #0x8c	; 140
      000948 98                    1718 	.db #0x98	; 152
      000949 CC                    1719 	.db #0xcc	; 204
      00094A 92                    1720 	.db #0x92	; 146
      00094B 87                    1721 	.db #0x87	; 135
      00094C C1                    1722 	.db #0xc1	; 193
      00094D C5                    1723 	.db #0xc5	; 197
      00094E D5                    1724 	.db #0xd5	; 213
      00094F 89                    1725 	.db #0x89	; 137
      000950 91                    1726 	.db #0x91	; 145
      000951 B4                    1727 	.db #0xb4	; 180
      000952                       1728 _numArray:
      000952 C0                    1729 	.db #0xc0	; 192
      000953 F9                    1730 	.db #0xf9	; 249
      000954 A4                    1731 	.db #0xa4	; 164
      000955 B0                    1732 	.db #0xb0	; 176
      000956 99                    1733 	.db #0x99	; 153
      000957 92                    1734 	.db #0x92	; 146
      000958 82                    1735 	.db #0x82	; 130
      000959 F8                    1736 	.db #0xf8	; 248
      00095A 80                    1737 	.db #0x80	; 128
      00095B 90                    1738 	.db #0x90	; 144
      00095C 88                    1739 	.db #0x88	; 136
      00095D 83                    1740 	.db #0x83	; 131
      00095E C6                    1741 	.db #0xc6	; 198
      00095F A1                    1742 	.db #0xa1	; 161
      000960 86                    1743 	.db #0x86	; 134
      000961 8E                    1744 	.db #0x8e	; 142
                                   1745 	.area XINIT   (CODE)
                                   1746 	.area CABS    (ABS,CODE)
