:03000000020006F5
:12005F00750800750C00E4F512F513F523F52402000368
:0300030002068072
:20007100AF82BF3000401EEF24C640198F06EE24D0FE3395E0FDEE2452F582ED3409F58328
:20009100E493F58222BF4100401EEF24A540198F06EE24BFFE3395E0FDEE2438F582ED34E5
:2000B10009F583E493F58222BF6100401CEF24854017EF249FFF3395E0FEEF2438F582EE2C
:2000D1003409F583E493F5822275820022AD82AE83AFF07C00EC2525F9E43526FAAB2789F3
:2000F100828A838BF01208D5FB6015EC2DF8E43EF98F02888289838AF0EB1208010C80D5D2
:2001110022E58224FF9292D291C291C29222AF827E08EE6015EE5FF582C007C00612011242
:20013100D006D007EEC313FE80E822AF827E80EE6015EE5FF582C007C006120112D006D007
:2001510007EEC313FE80E822D291A292E433F582C291227F007E00BE080050188F05ED2DC8
:20017100FDC006C005120159AC82D005D006EC4DFF0E80E38F8222AF82C0071201ADD00736
:20019100C292C291EF2FFFE5094FF58212013CC29202015912013CC292020159D291D29211
:2001B10022850A09120188850B821201A50201AD85820B750A00850C820201B2E582C45487
:2001D100F0FF7E00740D4FFC8E058C82C007C006C0041201C1900005E4F5F01203E3D004E5
:2001F100D006D0074307098F82C0041201C1900005E4F5F01203E3D0048C821201C19000A9
:2002110005E4F5F00203E3E582C454F0FF7E0074044FFC8E058C82C007C006C0041201C1A2
:20023100900005E4F5F01203E3D004D006D0078F82C0041201C1900005E4F5F01203E3D007
:20025100048C821201C1900005E4F5F00203E3E582FFC4540FF582E4CFC4CF6FCF54F0CFC6
:200271006FC4CFC4540F6FCF540FCF6FCF30E30244F0C007120218900005E4F5F01203E304
:20029100D0078F82120218900005E4F5F00203E3E582FFC4540FF582E4CFC4CF6FCF54F027
:2002B100CF6FC4CFC4540F6FCF540FCF6FCF30E30244F0C007120218900005E4F5F01203D8
:2002D100E3D0078F82120218900005E4F5F00203E3E582FFC4540FF582E4CFC4CF6FCF54F4
:2002F100F0CF6FC4CFC4540F6FCF540FCF6FCF30E30244F0C0071201CD900005E4F5F012F7
:2003110003E3D0078F821201CD900005E4F5F00203E30202E285820C900032E4F5F012033F
:20033100E3758202120218900005E4F5F01203E3758202120218900005E4F5F01203E3755E
:200351008203120218900005E4F5F01203E3758200120218900005E4F5F01203E375820E07
:20037100120218900005E4F5F01203E3758200120218900005E4F5F01203E3758203120263
:2003910018900005E4F5F01203E37582471202E275824F1202E275824F1202E275824412E5
:2003B10002E27582421202E27582591202E27582451202E27582201202E27582421202E265
:2003D10075824F1202E27582421202E27582210202E21207B5AC82AD83AEF0FFC004C00551
:2003F100C006C007907CEE75F07F743F1206B1AC82AD83AEF0FFE58124FCF5818C828D83F0
:200411008EF0EF1207C885820E85830F85F010F5117A007B00C3EA942CEB64809480502B06
:2004310078007900880489057E007F00C3EC950EED950FEE9510EF95115009B29008B8003D
:20045100E30980E00ABA00CD0B80CAD2902285821985831AAC187D008C258D268519828549
:200471001A83C005C004120688AA82AB83D004D0058C258D268A828B83C005C004C003C018
:200491000212081CA882A983D002D003D004D0058C258D2688828983C005C004C003C002E7
:2004B100C001C00012081CD000D001D002D003D004D0058C258D26C005C004C003C002C053
:2004D10001C000120839AE82AF83EE2452F582EF3409F583E493F580C2A0900001E4F5F06E
:2004F1001203E3D000D001D002D003D004D005D2A08C258D2688828983C005C004C003C00C
:2005110002120839AE82AF83EE2452F582EF3409F583E493F580C2A1900001E4F5F01203D6
:20053100E3D002D003D004D005D2A18C258D268A828B83C005C004120839AE82AF83EE2438
:2005510052F582EF3409F583E493F580C2A2900001E4F5F01203E3D004D005D2A28C258D20
:2005710026851982851A83120839AE82AF83EE2452F582EF3409F583E493F580C2A39000ED
:2005910001E4F5F01203E3D2A322AD82AE83AFF074012DFAE43EFB8F0474022DF51DE43ECF
:2005B100F51E8F1F74032DF520E43EF5218F22E4F51BF51CC3E51B940AE51C648094804028
:2005D10001228D828E838FF01208D5F4F580C2A0900001E4F5F0C007C006C005C004C0035B
:2005F100C0021203E3D002D003D004D2A08A828B838CF01208D5F4F580C2A1900001E4F58A
:20061100F0C004C003C0021203E3D2A1851D82851E83851FF01208D5F4F580C2A2900001FA
:20063100E4F5F01203E3D2A28520828521838522F01208D5F4F580C2A3900001E4F5F01264
:2006510003E3D002D003D004D005D006D007D2A3051BE4B51B02051C0205C575822702034D
:1706710026109702D2979001F4E4F5F00203E312066C12067280FB7B
:200938008883C6A1868EC28BCFE18AC7EACBA38C98CC9287C1C5D58991B4C0F9A4B0999209
:0A09580082F880908883C6A1868E85
:200688007A10E4FBFCE58225E0F582E58333F583EB33FBEC33FCEB9525F5F0EC952640064C
:0906A800FCABF0438201DADD2213
:2006B100120754BC00030208A7EF60FA30D502B2D1E583B4FF030208BDE582B4FF0302086D
:2006D100BD258340072482400B0208A724831450030208BDF582EA8DF0A4A8F0EA8EF0A4C0
:2006F10028F8E435F0F9EB8DF0A428E935F0F9E433CA8FF0A429F9EA35F0FAEBF88EF0A458
:2007110029F9EA35F0FAE433FBEC8DF0A429F9EA35F0FAE43BFBE88FF0A42AFAEB35F0FBFF
:20073100E433CCFD8EF0A42AFAEB35F0FBE43CFCED8FF0A42BFBEC35F0FC20E70312078273
:0307510002088615
:20075400AA82AB83A2F73392D1F5826002D2F7ACF0E58124F9F8E6FD08E6FE0886F008E608
:0E077400A2F73392D5F5836002D2F7AFF022E0
:06003500E4787FF6D8FD1F
:200782007804EC7011E58224F8500AF582E4C9CACBFCD8EF22EC7820058220E713D5820176
:1307A20022C3E933F9EA33FAEB33FBEC33FCD8EA15822284
:200013007900E94400601B7A00900962780075A0E0E493F2A308B8000205A0D9F4DAF27549
:02003300A0FF2C
:1307B500FCABF0AA83A982749EC2D1F582120782020886FB
:2007C8007F9E1207EF30D1030208A7C3EF9582500974FFF5F0F583F5822279001208F1899F
:0707E800828A838BF0EC22F2
:1207EF00AA82AB83A2F73392D1F5826002D2F7ACF0220F
:1B08010020F71130F6138883A88220F509F6A8837583002280FEF280F5F022F6
:1D081C00E5828525F0A4C582C0F08526F0A4D0F025F0C5838525F0A42583F5832247
:20083900E525452660467A01E52525E0F525E526334012F526E5829525E583952640030AA4
:2008590080E6C3E52613F526E52513F525C3E5829525F5F0E58395264005F58385F082C383
:0D087900E52613F526E52513F525DAE12225
:20003B007800E84400600A790075A0E0E4F309D8FC7800E84400600C790090E000E4F0A305
:04005B00D8FCD9FAFA
:20088600B98003EA13B34010EA2401FAE43BFBE43CFC50047C800582BC000EBB000BBA00B6
:2008A60008E4F5F0F583F58222A2D1E582138CF092F78B838A8222E4F583F58275F080F476
:0F08C600A2D11322E4F583F58275F0C0747F226E
:0D000600758127120934E5826003020003B2
:1C08D50020F71430F6148883A88220F507E6A88375830022E280F7E49322E02232
:2008F1006040F82582500274FFF582E824F8501ECCCBCAF9E4CC24F85014CBCAF9E4CB240F
:20091100F8500BCAF9E4CA24F8500379002224086010F8C3EC13FCEB13FBEA13FAE913F9C1
:03093100D8F122D8
:0409340075820022A6
:00000001FF
